{"abi":[{"type":"constructor","inputs":[{"name":"_liq","type":"address","internalType":"address"},{"name":"_treasury","type":"address","internalType":"address"},{"name":"_team","type":"address","internalType":"address"},{"name":"_start","type":"uint64","internalType":"uint64"},{"name":"_duration","type":"uint64","internalType":"uint64"}],"stateMutability":"nonpayable"},{"type":"function","name":"LIQ","inputs":[],"outputs":[{"name":"","type":"address","internalType":"contract IERC20"}],"stateMutability":"view"},{"type":"function","name":"claim","inputs":[{"name":"streamId","type":"uint256","internalType":"uint256"}],"outputs":[],"stateMutability":"nonpayable"},{"type":"function","name":"claimAll","inputs":[],"outputs":[],"stateMutability":"nonpayable"},{"type":"function","name":"owner","inputs":[],"outputs":[{"name":"","type":"address","internalType":"address"}],"stateMutability":"view"},{"type":"function","name":"releasable","inputs":[{"name":"streamId","type":"uint256","internalType":"uint256"}],"outputs":[{"name":"","type":"uint256","internalType":"uint256"}],"stateMutability":"view"},{"type":"function","name":"renounceOwnership","inputs":[],"outputs":[],"stateMutability":"nonpayable"},{"type":"function","name":"streamInfo","inputs":[{"name":"streamId","type":"uint256","internalType":"uint256"}],"outputs":[{"name":"","type":"tuple","internalType":"struct LIQLinearVester.Stream","components":[{"name":"beneficiary","type":"address","internalType":"address"},{"name":"total","type":"uint128","internalType":"uint128"},{"name":"released","type":"uint128","internalType":"uint128"},{"name":"start","type":"uint64","internalType":"uint64"},{"name":"end","type":"uint64","internalType":"uint64"}]}],"stateMutability":"view"},{"type":"function","name":"streams","inputs":[{"name":"","type":"uint256","internalType":"uint256"}],"outputs":[{"name":"beneficiary","type":"address","internalType":"address"},{"name":"total","type":"uint128","internalType":"uint128"},{"name":"released","type":"uint128","internalType":"uint128"},{"name":"start","type":"uint64","internalType":"uint64"},{"name":"end","type":"uint64","internalType":"uint64"}],"stateMutability":"view"},{"type":"function","name":"sweepLeftoverLIQ","inputs":[{"name":"to","type":"address","internalType":"address"}],"outputs":[],"stateMutability":"nonpayable"},{"type":"function","name":"sweepOtherERC20","inputs":[{"name":"token","type":"address","internalType":"address"},{"name":"to","type":"address","internalType":"address"}],"outputs":[],"stateMutability":"nonpayable"},{"type":"function","name":"transferOwnership","inputs":[{"name":"newOwner","type":"address","internalType":"address"}],"outputs":[],"stateMutability":"nonpayable"},{"type":"function","name":"vested","inputs":[{"name":"streamId","type":"uint256","internalType":"uint256"},{"name":"timestamp","type":"uint256","internalType":"uint256"}],"outputs":[{"name":"","type":"uint256","internalType":"uint256"}],"stateMutability":"view"},{"type":"event","name":"Claimed","inputs":[{"name":"streamId","type":"uint256","indexed":true,"internalType":"uint256"},{"name":"to","type":"address","indexed":true,"internalType":"address"},{"name":"amount","type":"uint256","indexed":false,"internalType":"uint256"}],"anonymous":false},{"type":"event","name":"OwnershipTransferred","inputs":[{"name":"previousOwner","type":"address","indexed":true,"internalType":"address"},{"name":"newOwner","type":"address","indexed":true,"internalType":"address"}],"anonymous":false},{"type":"event","name":"SweptLeftoverLIQ","inputs":[{"name":"to","type":"address","indexed":true,"internalType":"address"},{"name":"amount","type":"uint256","indexed":false,"internalType":"uint256"}],"anonymous":false},{"type":"event","name":"SweptOther","inputs":[{"name":"token","type":"address","indexed":true,"internalType":"address"},{"name":"to","type":"address","indexed":true,"internalType":"address"},{"name":"amount","type":"uint256","indexed":false,"internalType":"uint256"}],"anonymous":false},{"type":"error","name":"InvalidParams","inputs":[]},{"type":"error","name":"LIQNotSweepable","inputs":[]},{"type":"error","name":"NothingToClaim","inputs":[]},{"type":"error","name":"OwnableInvalidOwner","inputs":[{"name":"owner","type":"address","internalType":"address"}]},{"type":"error","name":"OwnableUnauthorizedAccount","inputs":[{"name":"account","type":"address","internalType":"address"}]},{"type":"error","name":"ReentrancyGuardReentrantCall","inputs":[]},{"type":"error","name":"SafeERC20FailedOperation","inputs":[{"name":"token","type":"address","internalType":"address"}]},{"type":"error","name":"TooEarly","inputs":[]}],"bytecode":{"object":"0x60a060405234801562000010575f80fd5b5060405162002820380380620028208339818101604052810190620000369190620006d9565b335f73ffffffffffffffffffffffffffffffffffffffff168173ffffffffffffffffffffffffffffffffffffffff1603620000aa575f6040517f1e4fbdf7000000000000000000000000000000000000000000000000000000008152600401620000a191906200076e565b60405180910390fd5b620000bb816200057160201b60201c565b50600180819055505f73ffffffffffffffffffffffffffffffffffffffff168573ffffffffffffffffffffffffffffffffffffffff1614806200012957505f73ffffffffffffffffffffffffffffffffffffffff168473ffffffffffffffffffffffffffffffffffffffff16145b806200016057505f73ffffffffffffffffffffffffffffffffffffffff168373ffffffffffffffffffffffffffffffffffffffff16145b806200017557505f8167ffffffffffffffff16145b15620001ad576040517fa86b651200000000000000000000000000000000000000000000000000000000815260040160405180910390fd5b8473ffffffffffffffffffffffffffffffffffffffff1660808173ffffffffffffffffffffffffffffffffffffffff16815250505f8183620001f09190620007b6565b90505f6a084595161401484a00000090506040518060a001604052808773ffffffffffffffffffffffffffffffffffffffff168152602001826fffffffffffffffffffffffffffffffff1681526020015f6fffffffffffffffffffffffffffffffff1681526020018567ffffffffffffffff1681526020018367ffffffffffffffff1681525060025f600281106200028d576200028c620007f8565b5b600302015f820151815f015f6101000a81548173ffffffffffffffffffffffffffffffffffffffff021916908373ffffffffffffffffffffffffffffffffffffffff1602179055506020820151816001015f6101000a8154816fffffffffffffffffffffffffffffffff02191690836fffffffffffffffffffffffffffffffff16021790555060408201518160010160106101000a8154816fffffffffffffffffffffffffffffffff02191690836fffffffffffffffffffffffffffffffff1602179055506060820151816002015f6101000a81548167ffffffffffffffff021916908367ffffffffffffffff16021790555060808201518160020160086101000a81548167ffffffffffffffff021916908367ffffffffffffffff1602179055509050506040518060a001604052808673ffffffffffffffffffffffffffffffffffffffff168152602001826fffffffffffffffffffffffffffffffff1681526020015f6fffffffffffffffffffffffffffffffff1681526020018567ffffffffffffffff1681526020018367ffffffffffffffff1681525060026001600281106200043f576200043e620007f8565b5b600302015f820151815f015f6101000a81548173ffffffffffffffffffffffffffffffffffffffff021916908373ffffffffffffffffffffffffffffffffffffffff1602179055506020820151816001015f6101000a8154816fffffffffffffffffffffffffffffffff02191690836fffffffffffffffffffffffffffffffff16021790555060408201518160010160106101000a8154816fffffffffffffffffffffffffffffffff02191690836fffffffffffffffffffffffffffffffff1602179055506060820151816002015f6101000a81548167ffffffffffffffff021916908367ffffffffffffffff16021790555060808201518160020160086101000a81548167ffffffffffffffff021916908367ffffffffffffffff1602179055509050505050505050505062000825565b5f805f9054906101000a900473ffffffffffffffffffffffffffffffffffffffff169050815f806101000a81548173ffffffffffffffffffffffffffffffffffffffff021916908373ffffffffffffffffffffffffffffffffffffffff1602179055508173ffffffffffffffffffffffffffffffffffffffff168173ffffffffffffffffffffffffffffffffffffffff167f8be0079c531659141344cd1fd0a4f28419497f9722a3daafe3b4186f6b6457e060405160405180910390a35050565b5f80fd5b5f73ffffffffffffffffffffffffffffffffffffffff82169050919050565b5f620006618262000636565b9050919050565b620006738162000655565b81146200067e575f80fd5b50565b5f81519050620006918162000668565b92915050565b5f67ffffffffffffffff82169050919050565b620006b58162000697565b8114620006c0575f80fd5b50565b5f81519050620006d381620006aa565b92915050565b5f805f805f60a08688031215620006f557620006f462000632565b5b5f620007048882890162000681565b9550506020620007178882890162000681565b94505060406200072a8882890162000681565b93505060606200073d88828901620006c3565b92505060806200075088828901620006c3565b9150509295509295909350565b620007688162000655565b82525050565b5f602082019050620007835f8301846200075d565b92915050565b7f4e487b71000000000000000000000000000000000000000000000000000000005f52601160045260245ffd5b5f620007c28262000697565b9150620007cf8362000697565b9250828201905067ffffffffffffffff811115620007f257620007f162000789565b5b92915050565b7f4e487b71000000000000000000000000000000000000000000000000000000005f52603260045260245ffd5b608051611fb8620008685f395f81816105f0015281816106bc01528181610c4901528181610cf001528181610d8b0152818161112101526112970152611fb85ff3fe608060405234801561000f575f80fd5b50600436106100b2575f3560e01c806367c3e7271161006f57806367c3e7271461018c578063715018a6146101bc5780638da5cb5b146101c6578063d1058e59146101e4578063e4bf01a8146101ee578063f2fde38b1461021e576100b2565b80632cfb415a146100b6578063379607f5146100e657806348c00150146101025780635073a9911461011e578063586d13b31461013a57806364d60d9114610158575b5f80fd5b6100d060048036038101906100cb919061195a565b61023a565b6040516100dd91906119a7565b60405180910390f35b61010060048036038101906100fb91906119c0565b6104b7565b005b61011c60048036038101906101179190611a45565b6106b2565b005b61013860048036038101906101339190611a83565b610861565b005b610142610d89565b60405161014f9190611b09565b60405180910390f35b610172600480360381019061016d91906119c0565b610dad565b604051610183959493929190611b7d565b60405180910390f35b6101a660048036038101906101a191906119c0565b610e63565b6040516101b39190611c61565b60405180910390f35b6101c4611022565b005b6101ce611035565b6040516101db9190611c7a565b60405180910390f35b6101ec61105c565b005b610208600480360381019061020391906119c0565b61135b565b60405161021591906119a7565b60405180910390f35b61023860048036038101906102339190611a83565b61156f565b005b5f6002831061027e576040517f08c379a000000000000000000000000000000000000000000000000000000000815260040161027590611ced565b60405180910390fd5b5f6002846002811061029357610292611d0b565b5b600302016040518060a00160405290815f82015f9054906101000a900473ffffffffffffffffffffffffffffffffffffffff1673ffffffffffffffffffffffffffffffffffffffff1673ffffffffffffffffffffffffffffffffffffffff168152602001600182015f9054906101000a90046fffffffffffffffffffffffffffffffff166fffffffffffffffffffffffffffffffff166fffffffffffffffffffffffffffffffff1681526020016001820160109054906101000a90046fffffffffffffffffffffffffffffffff166fffffffffffffffffffffffffffffffff166fffffffffffffffffffffffffffffffff168152602001600282015f9054906101000a900467ffffffffffffffff1667ffffffffffffffff1667ffffffffffffffff1681526020016002820160089054906101000a900467ffffffffffffffff1667ffffffffffffffff1667ffffffffffffffff16815250509050806060015167ffffffffffffffff16831161040c575f9150506104b1565b806080015167ffffffffffffffff1683106104405780602001516fffffffffffffffffffffffffffffffff169150506104b1565b5f816060015167ffffffffffffffff168461045b9190611d65565b90505f826060015183608001516104729190611d98565b67ffffffffffffffff169050808284602001516fffffffffffffffffffffffffffffffff166104a19190611dd3565b6104ab9190611e41565b93505050505b92915050565b6104bf6115f3565b60028110610502576040517f08c379a00000000000000000000000000000000000000000000000000000000081526004016104f990611ced565b60405180910390fd5b5f61050c8261135b565b90505f8103610547576040517f969bf72800000000000000000000000000000000000000000000000000000000815260040160405180910390fd5b5f6002836002811061055c5761055b611d0b565b5b600302019050818160010160108282829054906101000a90046fffffffffffffffffffffffffffffffff166105919190611e71565b92506101000a8154816fffffffffffffffffffffffffffffffff02191690836fffffffffffffffffffffffffffffffff160217905550610634815f015f9054906101000a900473ffffffffffffffffffffffffffffffffffffffff16837f000000000000000000000000000000000000000000000000000000000000000073ffffffffffffffffffffffffffffffffffffffff166116399092919063ffffffff16565b805f015f9054906101000a900473ffffffffffffffffffffffffffffffffffffffff1673ffffffffffffffffffffffffffffffffffffffff16837f4ec90e965519d92681267467f775ada5bd214aa92c0dc93d90a5e880ce9ed0268460405161069d91906119a7565b60405180910390a350506106af6116b8565b50565b6106ba6116c1565b7f000000000000000000000000000000000000000000000000000000000000000073ffffffffffffffffffffffffffffffffffffffff168273ffffffffffffffffffffffffffffffffffffffff1603610748576040517f08c379a000000000000000000000000000000000000000000000000000000000815260040161073f90611efe565b60405180910390fd5b5f8273ffffffffffffffffffffffffffffffffffffffff166370a08231306040518263ffffffff1660e01b81526004016107829190611c7a565b602060405180830381865afa15801561079d573d5f803e3d5ffd5b505050506040513d601f19601f820116820180604052508101906107c19190611f30565b90505f81111561085c576107f682828573ffffffffffffffffffffffffffffffffffffffff166116399092919063ffffffff16565b8173ffffffffffffffffffffffffffffffffffffffff168373ffffffffffffffffffffffffffffffffffffffff167f59678c81170b2891f1e01ca2dcc9c4a2d962aac4caab709730d36bd6b498be6b8360405161085391906119a7565b60405180910390a35b505050565b6108696116c1565b5f60025f6002811061087e5761087d611d0b565b5b600302016040518060a00160405290815f82015f9054906101000a900473ffffffffffffffffffffffffffffffffffffffff1673ffffffffffffffffffffffffffffffffffffffff1673ffffffffffffffffffffffffffffffffffffffff168152602001600182015f9054906101000a90046fffffffffffffffffffffffffffffffff166fffffffffffffffffffffffffffffffff166fffffffffffffffffffffffffffffffff1681526020016001820160109054906101000a90046fffffffffffffffffffffffffffffffff166fffffffffffffffffffffffffffffffff166fffffffffffffffffffffffffffffffff168152602001600282015f9054906101000a900467ffffffffffffffff1667ffffffffffffffff1667ffffffffffffffff1681526020016002820160089054906101000a900467ffffffffffffffff1667ffffffffffffffff1667ffffffffffffffff168152505090505f60026001600281106109ef576109ee611d0b565b5b600302016040518060a00160405290815f82015f9054906101000a900473ffffffffffffffffffffffffffffffffffffffff1673ffffffffffffffffffffffffffffffffffffffff1673ffffffffffffffffffffffffffffffffffffffff168152602001600182015f9054906101000a90046fffffffffffffffffffffffffffffffff166fffffffffffffffffffffffffffffffff166fffffffffffffffffffffffffffffffff1681526020016001820160109054906101000a90046fffffffffffffffffffffffffffffffff166fffffffffffffffffffffffffffffffff166fffffffffffffffffffffffffffffffff168152602001600282015f9054906101000a900467ffffffffffffffff1667ffffffffffffffff1667ffffffffffffffff1681526020016002820160089054906101000a900467ffffffffffffffff1667ffffffffffffffff1667ffffffffffffffff16815250509050816080015167ffffffffffffffff16421080610b735750806080015167ffffffffffffffff1642105b15610baa576040517f085de62500000000000000000000000000000000000000000000000000000000815260040160405180910390fd5b81602001516fffffffffffffffffffffffffffffffff1682604001516fffffffffffffffffffffffffffffffff161080610c0f575080602001516fffffffffffffffffffffffffffffffff1681604001516fffffffffffffffffffffffffffffffff16105b15610c46576040517f7f739b2400000000000000000000000000000000000000000000000000000000815260040160405180910390fd5b5f7f000000000000000000000000000000000000000000000000000000000000000073ffffffffffffffffffffffffffffffffffffffff166370a08231306040518263ffffffff1660e01b8152600401610ca09190611c7a565b602060405180830381865afa158015610cbb573d5f803e3d5ffd5b505050506040513d601f19601f82011682018060405250810190610cdf9190611f30565b90505f811115610d8357610d3484827f000000000000000000000000000000000000000000000000000000000000000073ffffffffffffffffffffffffffffffffffffffff166116399092919063ffffffff16565b8373ffffffffffffffffffffffffffffffffffffffff167f033888ccc2a69e939e2f1ad15a3c404dfe9514b494719e26a6992f8debabf29582604051610d7a91906119a7565b60405180910390a25b50505050565b7f000000000000000000000000000000000000000000000000000000000000000081565b60028160028110610dbc575f80fd5b600302015f91509050805f015f9054906101000a900473ffffffffffffffffffffffffffffffffffffffff1690806001015f9054906101000a90046fffffffffffffffffffffffffffffffff16908060010160109054906101000a90046fffffffffffffffffffffffffffffffff1690806002015f9054906101000a900467ffffffffffffffff16908060020160089054906101000a900467ffffffffffffffff16905085565b610e6b6118ab565b60028210610eae576040517f08c379a0000000000000000000000000000000000000000000000000000000008152600401610ea590611ced565b60405180910390fd5b60028260028110610ec257610ec1611d0b565b5b600302016040518060a00160405290815f82015f9054906101000a900473ffffffffffffffffffffffffffffffffffffffff1673ffffffffffffffffffffffffffffffffffffffff1673ffffffffffffffffffffffffffffffffffffffff168152602001600182015f9054906101000a90046fffffffffffffffffffffffffffffffff166fffffffffffffffffffffffffffffffff166fffffffffffffffffffffffffffffffff1681526020016001820160109054906101000a90046fffffffffffffffffffffffffffffffff166fffffffffffffffffffffffffffffffff166fffffffffffffffffffffffffffffffff168152602001600282015f9054906101000a900467ffffffffffffffff1667ffffffffffffffff1667ffffffffffffffff1681526020016002820160089054906101000a900467ffffffffffffffff1667ffffffffffffffff1667ffffffffffffffff16815250509050919050565b61102a6116c1565b6110335f611748565b565b5f805f9054906101000a900473ffffffffffffffffffffffffffffffffffffffff16905090565b6110646115f3565b5f61106e5f61135b565b90505f8111156111d8575f60025f6002811061108d5761108c611d0b565b5b600302019050818160010160108282829054906101000a90046fffffffffffffffffffffffffffffffff166110c29190611e71565b92506101000a8154816fffffffffffffffffffffffffffffffff02191690836fffffffffffffffffffffffffffffffff160217905550611165815f015f9054906101000a900473ffffffffffffffffffffffffffffffffffffffff16837f000000000000000000000000000000000000000000000000000000000000000073ffffffffffffffffffffffffffffffffffffffff166116399092919063ffffffff16565b805f015f9054906101000a900473ffffffffffffffffffffffffffffffffffffffff1673ffffffffffffffffffffffffffffffffffffffff165f7f4ec90e965519d92681267467f775ada5bd214aa92c0dc93d90a5e880ce9ed026846040516111ce91906119a7565b60405180910390a3505b5f6111e3600161135b565b90505f81111561134f575f600260016002811061120357611202611d0b565b5b600302019050818160010160108282829054906101000a90046fffffffffffffffffffffffffffffffff166112389190611e71565b92506101000a8154816fffffffffffffffffffffffffffffffff02191690836fffffffffffffffffffffffffffffffff1602179055506112db815f015f9054906101000a900473ffffffffffffffffffffffffffffffffffffffff16837f000000000000000000000000000000000000000000000000000000000000000073ffffffffffffffffffffffffffffffffffffffff166116399092919063ffffffff16565b805f015f9054906101000a900473ffffffffffffffffffffffffffffffffffffffff1673ffffffffffffffffffffffffffffffffffffffff1660017f4ec90e965519d92681267467f775ada5bd214aa92c0dc93d90a5e880ce9ed0268460405161134591906119a7565b60405180910390a3505b50506113596116b8565b565b5f6002821061139f576040517f08c379a000000000000000000000000000000000000000000000000000000000815260040161139690611ced565b60405180910390fd5b5f600283600281106113b4576113b3611d0b565b5b600302016040518060a00160405290815f82015f9054906101000a900473ffffffffffffffffffffffffffffffffffffffff1673ffffffffffffffffffffffffffffffffffffffff1673ffffffffffffffffffffffffffffffffffffffff168152602001600182015f9054906101000a90046fffffffffffffffffffffffffffffffff166fffffffffffffffffffffffffffffffff166fffffffffffffffffffffffffffffffff1681526020016001820160109054906101000a90046fffffffffffffffffffffffffffffffff166fffffffffffffffffffffffffffffffff166fffffffffffffffffffffffffffffffff168152602001600282015f9054906101000a900467ffffffffffffffff1667ffffffffffffffff1667ffffffffffffffff1681526020016002820160089054906101000a900467ffffffffffffffff1667ffffffffffffffff1667ffffffffffffffff168152505090505f61151a844261023a565b905081604001516fffffffffffffffffffffffffffffffff168111611543575f9250505061156a565b81604001516fffffffffffffffffffffffffffffffff16816115659190611d65565b925050505b919050565b6115776116c1565b5f73ffffffffffffffffffffffffffffffffffffffff168173ffffffffffffffffffffffffffffffffffffffff16036115e7575f6040517f1e4fbdf70000000000000000000000000000000000000000000000000000000081526004016115de9190611c7a565b60405180910390fd5b6115f081611748565b50565b60026001540361162f576040517f3ee5aeb500000000000000000000000000000000000000000000000000000000815260040160405180910390fd5b6002600181905550565b6116b3838473ffffffffffffffffffffffffffffffffffffffff1663a9059cbb858560405160240161166c929190611f5b565b604051602081830303815290604052915060e01b6020820180517bffffffffffffffffffffffffffffffffffffffffffffffffffffffff8381831617835250505050611809565b505050565b60018081905550565b6116c96118a4565b73ffffffffffffffffffffffffffffffffffffffff166116e7611035565b73ffffffffffffffffffffffffffffffffffffffff16146117465761170a6118a4565b6040517f118cdaa700000000000000000000000000000000000000000000000000000000815260040161173d9190611c7a565b60405180910390fd5b565b5f805f9054906101000a900473ffffffffffffffffffffffffffffffffffffffff169050815f806101000a81548173ffffffffffffffffffffffffffffffffffffffff021916908373ffffffffffffffffffffffffffffffffffffffff1602179055508173ffffffffffffffffffffffffffffffffffffffff168173ffffffffffffffffffffffffffffffffffffffff167f8be0079c531659141344cd1fd0a4f28419497f9722a3daafe3b4186f6b6457e060405160405180910390a35050565b5f8060205f8451602086015f885af180611828576040513d5f823e3d81fd5b3d92505f519150505f821461184157600181141561185c565b5f8473ffffffffffffffffffffffffffffffffffffffff163b145b1561189e57836040517f5274afe70000000000000000000000000000000000000000000000000000000081526004016118959190611c7a565b60405180910390fd5b50505050565b5f33905090565b6040518060a001604052805f73ffffffffffffffffffffffffffffffffffffffff1681526020015f6fffffffffffffffffffffffffffffffff1681526020015f6fffffffffffffffffffffffffffffffff1681526020015f67ffffffffffffffff1681526020015f67ffffffffffffffff1681525090565b5f80fd5b5f819050919050565b61193981611927565b8114611943575f80fd5b50565b5f8135905061195481611930565b92915050565b5f80604083850312156119705761196f611923565b5b5f61197d85828601611946565b925050602061198e85828601611946565b9150509250929050565b6119a181611927565b82525050565b5f6020820190506119ba5f830184611998565b92915050565b5f602082840312156119d5576119d4611923565b5b5f6119e284828501611946565b91505092915050565b5f73ffffffffffffffffffffffffffffffffffffffff82169050919050565b5f611a14826119eb565b9050919050565b611a2481611a0a565b8114611a2e575f80fd5b50565b5f81359050611a3f81611a1b565b92915050565b5f8060408385031215611a5b57611a5a611923565b5b5f611a6885828601611a31565b9250506020611a7985828601611a31565b9150509250929050565b5f60208284031215611a9857611a97611923565b5b5f611aa584828501611a31565b91505092915050565b5f819050919050565b5f611ad1611acc611ac7846119eb565b611aae565b6119eb565b9050919050565b5f611ae282611ab7565b9050919050565b5f611af382611ad8565b9050919050565b611b0381611ae9565b82525050565b5f602082019050611b1c5f830184611afa565b92915050565b611b2b81611a0a565b82525050565b5f6fffffffffffffffffffffffffffffffff82169050919050565b611b5581611b31565b82525050565b5f67ffffffffffffffff82169050919050565b611b7781611b5b565b82525050565b5f60a082019050611b905f830188611b22565b611b9d6020830187611b4c565b611baa6040830186611b4c565b611bb76060830185611b6e565b611bc46080830184611b6e565b9695505050505050565b611bd781611a0a565b82525050565b611be681611b31565b82525050565b611bf581611b5b565b82525050565b60a082015f820151611c0f5f850182611bce565b506020820151611c226020850182611bdd565b506040820151611c356040850182611bdd565b506060820151611c486060850182611bec565b506080820151611c5b6080850182611bec565b50505050565b5f60a082019050611c745f830184611bfb565b92915050565b5f602082019050611c8d5f830184611b22565b92915050565b5f82825260208201905092915050565b7f62616420696400000000000000000000000000000000000000000000000000005f82015250565b5f611cd7600683611c93565b9150611ce282611ca3565b602082019050919050565b5f6020820190508181035f830152611d0481611ccb565b9050919050565b7f4e487b71000000000000000000000000000000000000000000000000000000005f52603260045260245ffd5b7f4e487b71000000000000000000000000000000000000000000000000000000005f52601160045260245ffd5b5f611d6f82611927565b9150611d7a83611927565b9250828203905081811115611d9257611d91611d38565b5b92915050565b5f611da282611b5b565b9150611dad83611b5b565b9250828203905067ffffffffffffffff811115611dcd57611dcc611d38565b5b92915050565b5f611ddd82611927565b9150611de883611927565b9250828202611df681611927565b91508282048414831517611e0d57611e0c611d38565b5b5092915050565b7f4e487b71000000000000000000000000000000000000000000000000000000005f52601260045260245ffd5b5f611e4b82611927565b9150611e5683611927565b925082611e6657611e65611e14565b5b828204905092915050565b5f611e7b82611b31565b9150611e8683611b31565b925082820190506fffffffffffffffffffffffffffffffff811115611eae57611ead611d38565b5b92915050565b7f4c49514e6f74537765657061626c6500000000000000000000000000000000005f82015250565b5f611ee8600f83611c93565b9150611ef382611eb4565b602082019050919050565b5f6020820190508181035f830152611f1581611edc565b9050919050565b5f81519050611f2a81611930565b92915050565b5f60208284031215611f4557611f44611923565b5b5f611f5284828501611f1c565b91505092915050565b5f604082019050611f6e5f830185611b22565b611f7b6020830184611998565b939250505056fea2646970667358221220cd528f376fce99f2d13bb79e85835b74957453591a2840f9b182b6a86a0f102a64736f6c63430008180033","linkReferences":{}},"methodIdentifiers":{"LIQ()":"586d13b3","claim(uint256)":"379607f5","claimAll()":"d1058e59","owner()":"8da5cb5b","releasable(uint256)":"e4bf01a8","renounceOwnership()":"715018a6","streamInfo(uint256)":"67c3e727","streams(uint256)":"64d60d91","sweepLeftoverLIQ(address)":"5073a991","sweepOtherERC20(address,address)":"48c00150","transferOwnership(address)":"f2fde38b","vested(uint256,uint256)":"2cfb415a"},"id":49}