{"abi":[{"type":"constructor","inputs":[{"name":"admin","type":"address","internalType":"address"}],"stateMutability":"nonpayable"},{"type":"function","name":"BURNER_ROLE","inputs":[],"outputs":[{"name":"","type":"bytes32","internalType":"bytes32"}],"stateMutability":"view"},{"type":"function","name":"DEFAULT_ADMIN_ROLE","inputs":[],"outputs":[{"name":"","type":"bytes32","internalType":"bytes32"}],"stateMutability":"view"},{"type":"function","name":"DOMAIN_SEPARATOR","inputs":[],"outputs":[{"name":"","type":"bytes32","internalType":"bytes32"}],"stateMutability":"view"},{"type":"function","name":"MINTER_ROLE","inputs":[],"outputs":[{"name":"","type":"bytes32","internalType":"bytes32"}],"stateMutability":"view"},{"type":"function","name":"allowance","inputs":[{"name":"owner","type":"address","internalType":"address"},{"name":"spender","type":"address","internalType":"address"}],"outputs":[{"name":"","type":"uint256","internalType":"uint256"}],"stateMutability":"view"},{"type":"function","name":"approve","inputs":[{"name":"spender","type":"address","internalType":"address"},{"name":"value","type":"uint256","internalType":"uint256"}],"outputs":[{"name":"","type":"bool","internalType":"bool"}],"stateMutability":"nonpayable"},{"type":"function","name":"balanceOf","inputs":[{"name":"account","type":"address","internalType":"address"}],"outputs":[{"name":"","type":"uint256","internalType":"uint256"}],"stateMutability":"view"},{"type":"function","name":"burn","inputs":[{"name":"from","type":"address","internalType":"address"},{"name":"amount","type":"uint256","internalType":"uint256"}],"outputs":[],"stateMutability":"nonpayable"},{"type":"function","name":"decimals","inputs":[],"outputs":[{"name":"","type":"uint8","internalType":"uint8"}],"stateMutability":"view"},{"type":"function","name":"eip712Domain","inputs":[],"outputs":[{"name":"fields","type":"bytes1","internalType":"bytes1"},{"name":"name","type":"string","internalType":"string"},{"name":"version","type":"string","internalType":"string"},{"name":"chainId","type":"uint256","internalType":"uint256"},{"name":"verifyingContract","type":"address","internalType":"address"},{"name":"salt","type":"bytes32","internalType":"bytes32"},{"name":"extensions","type":"uint256[]","internalType":"uint256[]"}],"stateMutability":"view"},{"type":"function","name":"getRoleAdmin","inputs":[{"name":"role","type":"bytes32","internalType":"bytes32"}],"outputs":[{"name":"","type":"bytes32","internalType":"bytes32"}],"stateMutability":"view"},{"type":"function","name":"grantRole","inputs":[{"name":"role","type":"bytes32","internalType":"bytes32"},{"name":"account","type":"address","internalType":"address"}],"outputs":[],"stateMutability":"nonpayable"},{"type":"function","name":"hasRole","inputs":[{"name":"role","type":"bytes32","internalType":"bytes32"},{"name":"account","type":"address","internalType":"address"}],"outputs":[{"name":"","type":"bool","internalType":"bool"}],"stateMutability":"view"},{"type":"function","name":"mint","inputs":[{"name":"to","type":"address","internalType":"address"},{"name":"amount","type":"uint256","internalType":"uint256"}],"outputs":[],"stateMutability":"nonpayable"},{"type":"function","name":"name","inputs":[],"outputs":[{"name":"","type":"string","internalType":"string"}],"stateMutability":"view"},{"type":"function","name":"nonces","inputs":[{"name":"owner","type":"address","internalType":"address"}],"outputs":[{"name":"","type":"uint256","internalType":"uint256"}],"stateMutability":"view"},{"type":"function","name":"permit","inputs":[{"name":"owner","type":"address","internalType":"address"},{"name":"spender","type":"address","internalType":"address"},{"name":"value","type":"uint256","internalType":"uint256"},{"name":"deadline","type":"uint256","internalType":"uint256"},{"name":"v","type":"uint8","internalType":"uint8"},{"name":"r","type":"bytes32","internalType":"bytes32"},{"name":"s","type":"bytes32","internalType":"bytes32"}],"outputs":[],"stateMutability":"nonpayable"},{"type":"function","name":"renounceRole","inputs":[{"name":"role","type":"bytes32","internalType":"bytes32"},{"name":"callerConfirmation","type":"address","internalType":"address"}],"outputs":[],"stateMutability":"nonpayable"},{"type":"function","name":"revokeRole","inputs":[{"name":"role","type":"bytes32","internalType":"bytes32"},{"name":"account","type":"address","internalType":"address"}],"outputs":[],"stateMutability":"nonpayable"},{"type":"function","name":"supportsInterface","inputs":[{"name":"interfaceId","type":"bytes4","internalType":"bytes4"}],"outputs":[{"name":"","type":"bool","internalType":"bool"}],"stateMutability":"view"},{"type":"function","name":"symbol","inputs":[],"outputs":[{"name":"","type":"string","internalType":"string"}],"stateMutability":"view"},{"type":"function","name":"totalSupply","inputs":[],"outputs":[{"name":"","type":"uint256","internalType":"uint256"}],"stateMutability":"view"},{"type":"function","name":"transfer","inputs":[{"name":"to","type":"address","internalType":"address"},{"name":"value","type":"uint256","internalType":"uint256"}],"outputs":[{"name":"","type":"bool","internalType":"bool"}],"stateMutability":"nonpayable"},{"type":"function","name":"transferFrom","inputs":[{"name":"from","type":"address","internalType":"address"},{"name":"to","type":"address","internalType":"address"},{"name":"value","type":"uint256","internalType":"uint256"}],"outputs":[{"name":"","type":"bool","internalType":"bool"}],"stateMutability":"nonpayable"},{"type":"event","name":"Approval","inputs":[{"name":"owner","type":"address","indexed":true,"internalType":"address"},{"name":"spender","type":"address","indexed":true,"internalType":"address"},{"name":"value","type":"uint256","indexed":false,"internalType":"uint256"}],"anonymous":false},{"type":"event","name":"EIP712DomainChanged","inputs":[],"anonymous":false},{"type":"event","name":"RoleAdminChanged","inputs":[{"name":"role","type":"bytes32","indexed":true,"internalType":"bytes32"},{"name":"previousAdminRole","type":"bytes32","indexed":true,"internalType":"bytes32"},{"name":"newAdminRole","type":"bytes32","indexed":true,"internalType":"bytes32"}],"anonymous":false},{"type":"event","name":"RoleGranted","inputs":[{"name":"role","type":"bytes32","indexed":true,"internalType":"bytes32"},{"name":"account","type":"address","indexed":true,"internalType":"address"},{"name":"sender","type":"address","indexed":true,"internalType":"address"}],"anonymous":false},{"type":"event","name":"RoleRevoked","inputs":[{"name":"role","type":"bytes32","indexed":true,"internalType":"bytes32"},{"name":"account","type":"address","indexed":true,"internalType":"address"},{"name":"sender","type":"address","indexed":true,"internalType":"address"}],"anonymous":false},{"type":"event","name":"Transfer","inputs":[{"name":"from","type":"address","indexed":true,"internalType":"address"},{"name":"to","type":"address","indexed":true,"internalType":"address"},{"name":"value","type":"uint256","indexed":false,"internalType":"uint256"}],"anonymous":false},{"type":"error","name":"AccessControlBadConfirmation","inputs":[]},{"type":"error","name":"AccessControlUnauthorizedAccount","inputs":[{"name":"account","type":"address","internalType":"address"},{"name":"neededRole","type":"bytes32","internalType":"bytes32"}]},{"type":"error","name":"ECDSAInvalidSignature","inputs":[]},{"type":"error","name":"ECDSAInvalidSignatureLength","inputs":[{"name":"length","type":"uint256","internalType":"uint256"}]},{"type":"error","name":"ECDSAInvalidSignatureS","inputs":[{"name":"s","type":"bytes32","internalType":"bytes32"}]},{"type":"error","name":"ERC20InsufficientAllowance","inputs":[{"name":"spender","type":"address","internalType":"address"},{"name":"allowance","type":"uint256","internalType":"uint256"},{"name":"needed","type":"uint256","internalType":"uint256"}]},{"type":"error","name":"ERC20InsufficientBalance","inputs":[{"name":"sender","type":"address","internalType":"address"},{"name":"balance","type":"uint256","internalType":"uint256"},{"name":"needed","type":"uint256","internalType":"uint256"}]},{"type":"error","name":"ERC20InvalidApprover","inputs":[{"name":"approver","type":"address","internalType":"address"}]},{"type":"error","name":"ERC20InvalidReceiver","inputs":[{"name":"receiver","type":"address","internalType":"address"}]},{"type":"error","name":"ERC20InvalidSender","inputs":[{"name":"sender","type":"address","internalType":"address"}]},{"type":"error","name":"ERC20InvalidSpender","inputs":[{"name":"spender","type":"address","internalType":"address"}]},{"type":"error","name":"ERC2612ExpiredSignature","inputs":[{"name":"deadline","type":"uint256","internalType":"uint256"}]},{"type":"error","name":"ERC2612InvalidSigner","inputs":[{"name":"signer","type":"address","internalType":"address"},{"name":"owner","type":"address","internalType":"address"}]},{"type":"error","name":"InsufficientBalance","inputs":[]},{"type":"error","name":"InvalidAccountNonce","inputs":[{"name":"account","type":"address","internalType":"address"},{"name":"currentNonce","type":"uint256","internalType":"uint256"}]},{"type":"error","name":"InvalidShortString","inputs":[]},{"type":"error","name":"StringTooLong","inputs":[{"name":"str","type":"string","internalType":"string"}]},{"type":"error","name":"ZeroAddress","inputs":[]}],"bytecode":{"object":"0x610160346200050157601f62001e3338819003918201601f19168301916001600160401b03831184841017620002e5578084926020946040528339810103126200050157516001600160a01b0381168103620005015760405190620000648262000505565b600c82526b5374616b656420694145524f60a01b90816020840152604051916200008e8362000505565b600c8352602083015260405192620000a68462000505565b60078452667374694145524f60c81b602085015260405192620000c98462000505565b60018452603160f81b60208501528051906001600160401b038211620002e55760035490600182811c92168015620004f6575b6020831014620003d25781601f84931162000486575b50602090601f8311600114620003fd575f92620003f1575b50508160011b915f199060031b1c1916176003555b83516001600160401b038111620002e557600454600181811c91168015620003e6575b6020821014620003d257601f81116200036e575b50602094601f821160011462000305579481929394955f92620002f9575b50508160011b915f199060031b1c1916176004555b620001b481620006cd565b91610120928352620001c68462000885565b9161014092835260208151910120938460e05260208151910120610100948186524660a0526040519160208301917f8b73c3c69bb8fe3d512ecc4cf759cc79239f7b179b0ffacaa9a75d522b39400f8352604084015260608301524660808301523060a083015260a0825260c082019180831060018060401b03841117620002e55760408390525190206080523060c0526001600160a01b03821615620002d6575080620002786200028b9262000521565b50620002848162000591565b5062000632565b50604051916113c0938462000a33853960805184610ec9015260a05184610f95015260c05184610e93015260e05184610f1801525183610f3e015251826106230152518161064d0152f35b63d92e233d60e01b8152600490fd5b634e487b7160e01b5f52604160045260245ffd5b015190505f8062000194565b601f1982169560045f5260205f20915f5b88811062000355575083600195969798106200033c575b505050811b01600455620001a9565b01515f1960f88460031b161c191690555f80806200032d565b9192602060018192868501518155019401920162000316565b60045f527f8a35acfbc15ff81a39ae7d344fd709f28e8600b4aa8c65c6b64bfe7fe36bd19b601f830160051c810160208410620003ca575b601f830160051c82018110620003be57505062000176565b5f8155600101620003a6565b5080620003a6565b634e487b7160e01b5f52602260045260245ffd5b90607f169062000162565b015190505f806200012a565b60035f9081527fc2575a0e9e593c00f959f8c92f12db2869c3395a3b0502d05e2516446f71f85b9350601f198516905b8181106200046d575090846001959493921062000454575b505050811b016003556200013f565b01515f1960f88460031b161c191690555f808062000445565b929360206001819287860151815501950193016200042d565b60035f529091507fc2575a0e9e593c00f959f8c92f12db2869c3395a3b0502d05e2516446f71f85b601f840160051c810160208510620004ee575b90849392915b601f830160051c82018110620004df57505062000112565b5f8155859450600101620004c7565b5080620004c1565b91607f1691620000fc565b5f80fd5b604081019081106001600160401b03821117620002e557604052565b6001600160a01b03165f8181525f8051602062001e13833981519152602052604090205460ff166200058c575f8181525f8051602062001e1383398151915260205260408120805460ff191660011790553391905f8051602062001df38339815191528180a4600190565b505f90565b6001600160a01b03165f8181527f51a495916474fe1a0c0fcfb65a8a97682b84a054118858cdd1f5dfd7fc0919eb60205260409020547f9f2df0fed2c77648de5860a4cc508cd0818c85b8b8a1ab4ceeef8d981c8956a6919060ff166200062c57815f52600860205260405f20815f5260205260405f20600160ff1982541617905533915f8051602062001df38339815191525f80a4600190565b50505f90565b6001600160a01b03165f8181527fb75e3b8aba7d7d1102f90f87dc3f8c4ab976b6ccd21b261faad958be9048fb2860205260409020547f3c11d16cbaffd01df69ce1c404f6340ee057498f5f00246190ea54220576a848919060ff166200062c57815f52600860205260405f20815f5260205260405f20600160ff1982541617905533915f8051602062001df38339815191525f80a4600190565b8051602091908281101562000769575090601f8251116200070a5780825192015190808310620006fc57501790565b825f19910360031b1b161790565b90604051809263305a27a960e01b82528060048301528251908160248401525f935b8285106200074f575050604492505f838284010152601f80199101168101030190fd5b84810182015186860160440152938101938593506200072c565b6001600160401b038111620002e5576005928354926001938481811c911680156200087a575b83821014620003d257601f811162000846575b5081601f8411600114620007e057509282939183925f94620007d4575b50501b915f199060031b1c191617905560ff90565b015192505f80620007bf565b919083601f198116875f52845f20945f905b888383106200082b575050501062000812575b505050811b01905560ff90565b01515f1960f88460031b161c191690555f808062000805565b858701518855909601959485019487935090810190620007f2565b855f5284601f845f209201871c820191601f8601881c015b8281106200086e575050620007a2565b5f81550185906200085e565b90607f16906200078f565b805160209081811015620009115750601f825111620008b25780825192015190808310620006fc57501790565b90604051809263305a27a960e01b82528060048301528251908160248401525f935b828510620008f7575050604492505f838284010152601f80199101168101030190fd5b8481018201518686016044015293810193859350620008d4565b906001600160401b038211620002e557600654926001938481811c9116801562000a27575b83821014620003d257601f8111620009f0575b5081601f84116001146200098857509282939183925f946200097c575b50501b915f199060031b1c19161760065560ff90565b015192505f8062000966565b919083601f19811660065f52845f20945f905b88838310620009d55750505010620009bc575b505050811b0160065560ff90565b01515f1960f88460031b161c191690555f8080620009ae565b8587015188559096019594850194879350908101906200099b565b60065f5284601f845f20920160051c820191601f860160051c015b82811062000a1b57505062000949565b5f815501859062000a0b565b90607f16906200093656fe6080604090808252600480361015610015575f80fd5b5f3560e01c91826301ffc9a714610bb25750816306fdde0314610ae0578163095ea7b314610ab757816318160ddd14610a9957816323b872dd146109a7578163248a9ca31461097d578163282c51f3146109435781632f2ff15d1461091b578163313ce567146109005781633644e515146108dd57816336568abe1461089957816340c10f191461079757816370a08231146107615781637ecebe001461072a57816384b0196e1461060c57816391d14854146105c857816395d89b41146104dc5781639dc29fac14610393578163a217fddf14610379578163a9059cbb14610349578163d505accf146101ea578163d5391393146101b0578163d547741f14610174575063dd62ed3e14610128575f80fd5b34610170578060031936011261017057602090610143610c42565b61014b610c58565b9060018060a01b038091165f5260018452825f2091165f528252805f20549051908152f35b5f80fd5b82346101705780600319360112610170576101ae91356101a96001610197610c58565b93835f5260086020525f200154610dd2565b610fbb565b005b8234610170575f36600319011261017057602090517f9f2df0fed2c77648de5860a4cc508cd0818c85b8b8a1ab4ceeef8d981c8956a68152f35b9050346101705760e036600319011261017057610205610c42565b61020d610c58565b906044359260643560843560ff81168103610170578142116103325760018060a01b039081851692835f526007602052885f209081549160018301905589519060208201927f6e71edae12b1b97f4d1f60370fef10105fa2faae0126114a169c64845d6126c98452868c840152858a1660608401528a608084015260a083015260c082015260c0815260e0810181811067ffffffffffffffff82111761031f578a525190206102f1916102e8916102c2610e90565b908b519161190160f01b83526002830152602282015260c43591604260a435922061127a565b90929192611307565b16818103610304576101ae86868661102f565b86516325c0072360e11b815292830152602482015260449150fd5b604187634e487b7160e01b5f525260245ffd5b865163313c898160e11b8152808401839052602490fd5b8234610170578060031936011261017057602090610372610368610c42565b6024359033610cf8565b5160018152f35b8234610170575f36600319011261017057602090515f8152f35b9050346101705781600319360112610170576103ad610c42565b906024357f3c11d16cbaffd01df69ce1c404f6340ee057498f5f00246190ea54220576a84891825f5260209260088452855f20335f52845260ff865f205416156104bf575060018060a01b03841693845f525f845282865f2054106104b057841561049a57845f525f8452855f205491838310610466575f867fddf252ad1be2c89b69c2b068fc378daa952ba7f163c4a11628f55a4df523b3ef87878b81898688528785520381872055816002540360025551908152a3005b865163391434e360e21b81526001600160a01b03909216908201908152602081018390526040810184905281906060010390fd5b8551634b637e8f60e11b81525f81840152602490fd5b508451631e9acf1760e31b8152fd5b6044925085519163e2517d3f60e01b835233908301526024820152fd5b905034610170575f36600319011261017057815191825f83546104fe81610c6e565b90818452602095600191876001821691825f146105a1575050600114610545575b5050506105419291610532910385610cd6565b51928284938452830190610c04565b0390f35b5f90815286935091907f8a35acfbc15ff81a39ae7d344fd709f28e8600b4aa8c65c6b64bfe7fe36bd19b5b828410610589575050508201018161053261054161051f565b8054848a018601528895508794909301928101610570565b60ff19168782015293151560051b860190930193508492506105329150610541905061051f565b82346101705780600319360112610170576020916105e4610c58565b90355f5260088352815f209060018060a01b03165f52825260ff815f20541690519015158152f35b905034610170575f366003190112610170576106477f00000000000000000000000000000000000000000000000000000000000000006110bc565b916106717f00000000000000000000000000000000000000000000000000000000000000006111bd565b815191602091602084019484861067ffffffffffffffff87111761071757506106cc82602092876106bf99989795525f85528151988998600f60f81b8a5260e0868b015260e08a0190610c04565b9188830390890152610c04565b914660608701523060808701525f60a087015285830360c087015251918281520192915f5b82811061070057505050500390f35b8351855286955093810193928101926001016106f1565b604190634e487b7160e01b5f525260245ffd5b8234610170576020366003190112610170576020906001600160a01b0361074f610c42565b165f5260078252805f20549051908152f35b8234610170576020366003190112610170576020906001600160a01b03610786610c42565b165f525f8252805f20549051908152f35b82346101705780600319360112610170576107b0610c42565b90602435917f9f2df0fed2c77648de5860a4cc508cd0818c85b8b8a1ab4ceeef8d981c8956a6805f526008602052825f20335f5260205260ff835f2054161561087b57506001600160a01b0316928315610866576002549083820180921161085357505f927fddf252ad1be2c89b69c2b068fc378daa952ba7f163c4a11628f55a4df523b3ef9260209260025585855284835280852082815401905551908152a3005b601190634e487b7160e01b5f525260245ffd5b5f602492519163ec442f0560e01b8352820152fd5b825163e2517d3f60e01b815233818701526024810191909152604490fd5b82346101705780600319360112610170576108b2610c58565b90336001600160a01b038316036108ce57506101ae9135610fbb565b5163334bd91960e11b81529050fd5b8234610170575f366003190112610170576020906108f9610e90565b9051908152f35b8234610170575f366003190112610170576020905160128152f35b82346101705780600319360112610170576101ae913561093e6001610197610c58565b610e12565b8234610170575f36600319011261017057602090517f3c11d16cbaffd01df69ce1c404f6340ee057498f5f00246190ea54220576a8488152f35b823461017057602036600319011261017057602091355f52600882526001815f2001549051908152f35b905034610170576060366003190112610170576109c2610c42565b6109ca610c58565b906044359260018060a01b038216805f526001602052855f20335f52602052855f2054915f198303610a05575b602087610372888888610cf8565b858310610a6d578115610a57573315610a4157505f908152600160209081528682203383528152908690209185900390915582906103726109f7565b6024905f885191634a1406b160e11b8352820152fd5b6024905f88519163e602df0560e01b8352820152fd5b8651637dc7a0d960e11b8152339181019182526020820193909352604081018690528291506060010390fd5b8234610170575f366003190112610170576020906002549051908152f35b8234610170578060031936011261017057602090610372610ad6610c42565b602435903361102f565b8234610170575f3660031901126101705780516003549091825f610b0384610c6e565b808352602094600190866001821691825f14610b90575050600114610b35575b50506105419291610532910385610cd6565b9085925060035f527fc2575a0e9e593c00f959f8c92f12db2869c3395a3b0502d05e2516446f71f85b915f925b828410610b785750505082010181610532610b23565b8054848a018601528895508794909301928101610b62565b60ff19168682015292151560051b850190920192508391506105329050610b23565b903461017057602036600319011261017057359063ffffffff60e01b821680920361017057602091637965db0b60e01b8114908115610bf3575b5015158152f35b6301ffc9a760e01b14905083610bec565b91908251928382525f5b848110610c2e575050825f602080949584010152601f8019910116010190565b602081830181015184830182015201610c0e565b600435906001600160a01b038216820361017057565b602435906001600160a01b038216820361017057565b90600182811c92168015610c9c575b6020831014610c8857565b634e487b7160e01b5f52602260045260245ffd5b91607f1691610c7d565b6040810190811067ffffffffffffffff821117610cc257604052565b634e487b7160e01b5f52604160045260245ffd5b90601f8019910116810190811067ffffffffffffffff821117610cc257604052565b916001600160a01b03808416928315610dba5716928315610da257825f525f60205260405f205490828210610d705750817fddf252ad1be2c89b69c2b068fc378daa952ba7f163c4a11628f55a4df523b3ef92602092855f525f84520360405f2055845f5260405f20818154019055604051908152a3565b60405163391434e360e21b81526001600160a01b03919091166004820152602481019190915260448101829052606490fd5b60405163ec442f0560e01b81525f6004820152602490fd5b604051634b637e8f60e11b81525f6004820152602490fd5b805f52600860205260405f20335f5260205260ff60405f20541615610df45750565b6044906040519063e2517d3f60e01b82523360048301526024820152fd5b90815f52600860205260405f209060018060a01b031690815f5260205260ff60405f205416155f14610e8a57815f52600860205260405f20815f5260205260405f20600160ff1982541617905533917f2f8788117e7eff1d82e926ec794901d17c78024a50270940304540a733656f0d5f80a4600190565b50505f90565b307f00000000000000000000000000000000000000000000000000000000000000006001600160a01b03161480610f92575b15610eeb577f000000000000000000000000000000000000000000000000000000000000000090565b60405160208101907f8b73c3c69bb8fe3d512ecc4cf759cc79239f7b179b0ffacaa9a75d522b39400f82527f000000000000000000000000000000000000000000000000000000000000000060408201527f000000000000000000000000000000000000000000000000000000000000000060608201524660808201523060a082015260a0815260c0810181811067ffffffffffffffff821117610cc25760405251902090565b507f00000000000000000000000000000000000000000000000000000000000000004614610ec2565b90815f52600860205260405f209060018060a01b031690815f5260205260ff60405f2054165f14610e8a57815f52600860205260405f20815f5260205260405f2060ff19815416905533917ff6391f5c32d9c69d2a47ea670b442974b53935d1edc7fd64eb21e047a839171b5f80a4600190565b6001600160a01b039081169182156110a4571691821561108c5760207f8c5be1e5ebec7d5bd14f71427d1e84f3dd0314c0f7b2291e5b200ac8c7c3b92591835f526001825260405f20855f5282528060405f2055604051908152a3565b604051634a1406b160e11b81525f6004820152602490fd5b60405163e602df0560e01b81525f6004820152602490fd5b60ff81146110fa5760ff811690601f82116110e857604051916110de83610ca6565b8252602082015290565b604051632cd44ac360e21b8152600490fd5b50604051600554815f61110c83610c6e565b80835292602090600190818116908115611199575060011461113a575b505061113792500382610cd6565b90565b91509260055f527f036b6384b5eca791c62761152d0c79bb0604c104a5fb6f4eb0703f3154bb3db0935f925b82841061118157506111379450505081016020015f80611129565b85548785018301529485019486945092810192611166565b9150506020925061113794915060ff191682840152151560051b8201015f80611129565b60ff81146111df5760ff811690601f82116110e857604051916110de83610ca6565b50604051600654815f6111f183610c6e565b80835292602090600190818116908115611199575060011461121b57505061113792500382610cd6565b91509260065f527ff652222313e28459528d920b65115c16c04f3efc82aaedc97be59f3f377c0d3f935f925b82841061126257506111379450505081016020015f80611129565b85548785018301529485019486945092810192611247565b91907f7fffffffffffffffffffffffffffffff5d576e7357a4501ddfe92f46681b20a084116112fc579160209360809260ff5f9560405194855216868401526040830152606082015282805260015afa156112f1575f516001600160a01b038116156112e757905f905f90565b505f906001905f90565b6040513d5f823e3d90fd5b5050505f9160039190565b60048110156113765780611319575050565b600181036113335760405163f645eedf60e01b8152600490fd5b600281036113545760405163fce698f760e01b815260048101839052602490fd5b60031461135e5750565b602490604051906335e2f38360e21b82526004820152fd5b634e487b7160e01b5f52602160045260245ffdfea2646970667358221220ed45b9ad06e5209b9d8fcb9f840dcdec74a01070bbd3ab2b2968470434ad7c7764736f6c634300081800332f8788117e7eff1d82e926ec794901d17c78024a50270940304540a733656f0d5eff886ea0ce6ca488a3d6e336d6c0f75f46d19b42c06ce5ee98e42c96d256c7","linkReferences":{}},"methodIdentifiers":{"BURNER_ROLE()":"282c51f3","DEFAULT_ADMIN_ROLE()":"a217fddf","DOMAIN_SEPARATOR()":"3644e515","MINTER_ROLE()":"d5391393","allowance(address,address)":"dd62ed3e","approve(address,uint256)":"095ea7b3","balanceOf(address)":"70a08231","burn(address,uint256)":"9dc29fac","decimals()":"313ce567","eip712Domain()":"84b0196e","getRoleAdmin(bytes32)":"248a9ca3","grantRole(bytes32,address)":"2f2ff15d","hasRole(bytes32,address)":"91d14854","mint(address,uint256)":"40c10f19","name()":"06fdde03","nonces(address)":"7ecebe00","permit(address,address,uint256,uint256,uint8,bytes32,bytes32)":"d505accf","renounceRole(bytes32,address)":"36568abe","revokeRole(bytes32,address)":"d547741f","supportsInterface(bytes4)":"01ffc9a7","symbol()":"95d89b41","totalSupply()":"18160ddd","transfer(address,uint256)":"a9059cbb","transferFrom(address,address,uint256)":"23b872dd"},"id":44}