{"abi":[{"type":"constructor","inputs":[{"name":"_iAERO","type":"address","internalType":"address"}],"stateMutability":"nonpayable"},{"type":"receive","stateMutability":"payable"},{"type":"function","name":"WEEK","inputs":[],"outputs":[{"name":"","type":"uint256","internalType":"uint256"}],"stateMutability":"view"},{"type":"function","name":"allowedFunders","inputs":[{"name":"","type":"address","internalType":"address"}],"outputs":[{"name":"","type":"bool","internalType":"bool"}],"stateMutability":"view"},{"type":"function","name":"backfillReceipts","inputs":[{"name":"users","type":"address[]","internalType":"address[]"}],"outputs":[],"stateMutability":"nonpayable"},{"type":"function","name":"balanceAtEpochStart","inputs":[{"name":"user","type":"address","internalType":"address"},{"name":"epochId","type":"uint256","internalType":"uint256"}],"outputs":[{"name":"","type":"uint256","internalType":"uint256"}],"stateMutability":"view"},{"type":"function","name":"balanceOf","inputs":[{"name":"","type":"address","internalType":"address"}],"outputs":[{"name":"","type":"uint256","internalType":"uint256"}],"stateMutability":"view"},{"type":"function","name":"claim","inputs":[{"name":"token","type":"address","internalType":"address"},{"name":"epochId","type":"uint256","internalType":"uint256"}],"outputs":[],"stateMutability":"nonpayable"},{"type":"function","name":"claimLatest","inputs":[{"name":"tokens","type":"address[]","internalType":"address[]"}],"outputs":[],"stateMutability":"nonpayable"},{"type":"function","name":"claimMany","inputs":[{"name":"tokens","type":"address[]","internalType":"address[]"},{"name":"epochs","type":"uint256[]","internalType":"uint256[]"}],"outputs":[],"stateMutability":"nonpayable"},{"type":"function","name":"claimedForEpoch","inputs":[{"name":"","type":"address","internalType":"address"},{"name":"","type":"address","internalType":"address"},{"name":"","type":"uint256","internalType":"uint256"}],"outputs":[{"name":"","type":"uint256","internalType":"uint256"}],"stateMutability":"view"},{"type":"function","name":"currentEpoch","inputs":[],"outputs":[{"name":"","type":"uint256","internalType":"uint256"}],"stateMutability":"view"},{"type":"function","name":"exit","inputs":[],"outputs":[],"stateMutability":"nonpayable"},{"type":"function","name":"freezeReceiptToken","inputs":[],"outputs":[],"stateMutability":"nonpayable"},{"type":"function","name":"iAERO","inputs":[],"outputs":[{"name":"","type":"address","internalType":"address"}],"stateMutability":"view"},{"type":"function","name":"notifyRewardAmount","inputs":[{"name":"token","type":"address","internalType":"address"},{"name":"amount","type":"uint256","internalType":"uint256"}],"outputs":[],"stateMutability":"payable"},{"type":"function","name":"notifyRewardAmountsBatch","inputs":[{"name":"tokens","type":"address[]","internalType":"address[]"},{"name":"epochs","type":"uint256[]","internalType":"uint256[]"},{"name":"amounts","type":"uint256[]","internalType":"uint256[]"}],"outputs":[],"stateMutability":"payable"},{"type":"function","name":"notifyRewardForEpoch","inputs":[{"name":"token","type":"address","internalType":"address"},{"name":"epochId","type":"uint256","internalType":"uint256"},{"name":"amount","type":"uint256","internalType":"uint256"}],"outputs":[],"stateMutability":"payable"},{"type":"function","name":"owner","inputs":[],"outputs":[{"name":"","type":"address","internalType":"address"}],"stateMutability":"view"},{"type":"function","name":"pause","inputs":[],"outputs":[],"stateMutability":"nonpayable"},{"type":"function","name":"paused","inputs":[],"outputs":[{"name":"","type":"bool","internalType":"bool"}],"stateMutability":"view"},{"type":"function","name":"previewClaim","inputs":[{"name":"user","type":"address","internalType":"address"},{"name":"token","type":"address","internalType":"address"},{"name":"epochId","type":"uint256","internalType":"uint256"}],"outputs":[{"name":"","type":"uint256","internalType":"uint256"}],"stateMutability":"view"},{"type":"function","name":"previewClaimsForEpoch","inputs":[{"name":"user","type":"address","internalType":"address"},{"name":"tokens","type":"address[]","internalType":"address[]"},{"name":"epochId","type":"uint256","internalType":"uint256"}],"outputs":[{"name":"amounts","type":"uint256[]","internalType":"uint256[]"}],"stateMutability":"view"},{"type":"function","name":"receiptToken","inputs":[],"outputs":[{"name":"","type":"address","internalType":"contract IReceiptToken"}],"stateMutability":"view"},{"type":"function","name":"receiptTokenFrozen","inputs":[],"outputs":[{"name":"","type":"bool","internalType":"bool"}],"stateMutability":"view"},{"type":"function","name":"recoverERC20","inputs":[{"name":"token","type":"address","internalType":"address"},{"name":"to","type":"address","internalType":"address"},{"name":"amount","type":"uint256","internalType":"uint256"}],"outputs":[],"stateMutability":"nonpayable"},{"type":"function","name":"renounceOwnership","inputs":[],"outputs":[],"stateMutability":"nonpayable"},{"type":"function","name":"rewardsForEpoch","inputs":[{"name":"","type":"address","internalType":"address"},{"name":"","type":"uint256","internalType":"uint256"}],"outputs":[{"name":"","type":"uint256","internalType":"uint256"}],"stateMutability":"view"},{"type":"function","name":"setAllowedFunder","inputs":[{"name":"funder","type":"address","internalType":"address"},{"name":"allowed","type":"bool","internalType":"bool"}],"outputs":[],"stateMutability":"nonpayable"},{"type":"function","name":"setReceiptToken","inputs":[{"name":"token","type":"address","internalType":"address"}],"outputs":[],"stateMutability":"nonpayable"},{"type":"function","name":"stake","inputs":[{"name":"amount","type":"uint256","internalType":"uint256"}],"outputs":[],"stateMutability":"nonpayable"},{"type":"function","name":"stakeFor","inputs":[{"name":"user","type":"address","internalType":"address"},{"name":"amount","type":"uint256","internalType":"uint256"}],"outputs":[],"stateMutability":"nonpayable"},{"type":"function","name":"supplyCheckpointsLength","inputs":[],"outputs":[{"name":"","type":"uint256","internalType":"uint256"}],"stateMutability":"view"},{"type":"function","name":"supplySnapshotAtEpochStart","inputs":[{"name":"","type":"uint256","internalType":"uint256"}],"outputs":[{"name":"","type":"uint256","internalType":"uint256"}],"stateMutability":"view"},{"type":"function","name":"totalStaked","inputs":[],"outputs":[{"name":"","type":"uint256","internalType":"uint256"}],"stateMutability":"view"},{"type":"function","name":"totalSupplyAtEpochStart","inputs":[{"name":"epochId","type":"uint256","internalType":"uint256"}],"outputs":[{"name":"","type":"uint256","internalType":"uint256"}],"stateMutability":"view"},{"type":"function","name":"transferOwnership","inputs":[{"name":"newOwner","type":"address","internalType":"address"}],"outputs":[],"stateMutability":"nonpayable"},{"type":"function","name":"unpause","inputs":[],"outputs":[],"stateMutability":"nonpayable"},{"type":"function","name":"unstake","inputs":[{"name":"amount","type":"uint256","internalType":"uint256"}],"outputs":[],"stateMutability":"nonpayable"},{"type":"function","name":"userCheckpointsLength","inputs":[{"name":"user","type":"address","internalType":"address"}],"outputs":[{"name":"","type":"uint256","internalType":"uint256"}],"stateMutability":"view"},{"type":"event","name":"AllowedFunderSet","inputs":[{"name":"funder","type":"address","indexed":true,"internalType":"address"},{"name":"allowed","type":"bool","indexed":false,"internalType":"bool"}],"anonymous":false},{"type":"event","name":"Exited","inputs":[{"name":"user","type":"address","indexed":true,"internalType":"address"},{"name":"amount","type":"uint256","indexed":false,"internalType":"uint256"}],"anonymous":false},{"type":"event","name":"OwnershipTransferred","inputs":[{"name":"previousOwner","type":"address","indexed":true,"internalType":"address"},{"name":"newOwner","type":"address","indexed":true,"internalType":"address"}],"anonymous":false},{"type":"event","name":"Paused","inputs":[{"name":"account","type":"address","indexed":false,"internalType":"address"}],"anonymous":false},{"type":"event","name":"ReceiptTokenFrozen","inputs":[],"anonymous":false},{"type":"event","name":"ReceiptTokenSet","inputs":[{"name":"token","type":"address","indexed":true,"internalType":"address"}],"anonymous":false},{"type":"event","name":"ReceiptsBackfilled","inputs":[{"name":"count","type":"uint256","indexed":false,"internalType":"uint256"}],"anonymous":false},{"type":"event","name":"RewardClaimed","inputs":[{"name":"user","type":"address","indexed":true,"internalType":"address"},{"name":"token","type":"address","indexed":true,"internalType":"address"},{"name":"epochId","type":"uint256","indexed":true,"internalType":"uint256"},{"name":"amount","type":"uint256","indexed":false,"internalType":"uint256"}],"anonymous":false},{"type":"event","name":"RewardFunded","inputs":[{"name":"token","type":"address","indexed":true,"internalType":"address"},{"name":"epochId","type":"uint256","indexed":true,"internalType":"uint256"},{"name":"amount","type":"uint256","indexed":false,"internalType":"uint256"}],"anonymous":false},{"type":"event","name":"Staked","inputs":[{"name":"user","type":"address","indexed":true,"internalType":"address"},{"name":"amount","type":"uint256","indexed":false,"internalType":"uint256"}],"anonymous":false},{"type":"event","name":"StakedFor","inputs":[{"name":"funder","type":"address","indexed":true,"internalType":"address"},{"name":"user","type":"address","indexed":true,"internalType":"address"},{"name":"amount","type":"uint256","indexed":false,"internalType":"uint256"}],"anonymous":false},{"type":"event","name":"Unpaused","inputs":[{"name":"account","type":"address","indexed":false,"internalType":"address"}],"anonymous":false},{"type":"event","name":"Unstaked","inputs":[{"name":"user","type":"address","indexed":true,"internalType":"address"},{"name":"amount","type":"uint256","indexed":false,"internalType":"uint256"}],"anonymous":false},{"type":"error","name":"AddressEmptyCode","inputs":[{"name":"target","type":"address","internalType":"address"}]},{"type":"error","name":"AddressInsufficientBalance","inputs":[{"name":"account","type":"address","internalType":"address"}]},{"type":"error","name":"BadETHValue","inputs":[]},{"type":"error","name":"BadEpoch","inputs":[]},{"type":"error","name":"BadReceiptToken","inputs":[]},{"type":"error","name":"EnforcedPause","inputs":[]},{"type":"error","name":"ExpectedPause","inputs":[]},{"type":"error","name":"FailedInnerCall","inputs":[]},{"type":"error","name":"InvalidAmount","inputs":[]},{"type":"error","name":"LengthMismatch","inputs":[]},{"type":"error","name":"MathOverflowedMulDiv","inputs":[]},{"type":"error","name":"NotAuthorized","inputs":[]},{"type":"error","name":"NotEnoughStaked","inputs":[]},{"type":"error","name":"OwnableInvalidOwner","inputs":[{"name":"owner","type":"address","internalType":"address"}]},{"type":"error","name":"OwnableUnauthorizedAccount","inputs":[{"name":"account","type":"address","internalType":"address"}]},{"type":"error","name":"ReceiptAlreadySet","inputs":[]},{"type":"error","name":"ReceiptNotSet","inputs":[]},{"type":"error","name":"ReentrancyGuardReentrantCall","inputs":[]},{"type":"error","name":"SafeERC20FailedOperation","inputs":[{"name":"token","type":"address","internalType":"address"}]},{"type":"error","name":"TooManyItems","inputs":[]},{"type":"error","name":"ZeroAddress","inputs":[]}],"bytecode":{"object":"0x60a0346200010c57601f6200263138819003918201601f19168301916001600160401b0383118484101762000110578084926020946040528339810103126200010c57516001600160a01b038082168083036200010c573315620000f4575f543360018060a01b03198216175f55604051923391167f8be0079c531659141344cd1fd0a4f28419497f9722a3daafe3b4186f6b6457e05f80a36001805560ff196002541660025515620000e5575060805260405161250c9081620001258239608051818181610855015281816110f0015281816112cf015281816114170152611bf70152f35b63d92e233d60e01b8152600490fd5b604051631e4fbdf760e01b81525f6004820152602490fd5b5f80fd5b634e487b7160e01b5f52604160045260245ffdfe6040608081526004908136101561001f575b5050361561001d575f80fd5b005b5f915f3560e01c80631171bda9146113e65780632dcbac3f146113a75780632e17de781461122a5780632ee40908146111f45780633f4ba83a1461118b5780634d99f714146110a85780635c975abb146110845780635ddffd6c14610fb9578063663f352914610f9257806370a0823114610f5a57806370bcad5214610f3e578063715018a614610ee5578063734987bc14610ea45780637667180814610e865780637aa88fa914610e48578063817b1cd214610e295780638456cb5914610dce57806387ffed6d14610d5c57806388687f0c14610ba15780638a14d8a114610b695780638da5cb5b14610b41578063939f375014610a9557806396b145fa14610980578063a694fc3a14610951578063aad3ec961461091b578063aec8e032146108fb578063b66503cf14610884578063c8b1153714610840578063d492b9da146104cb578063db62c555146103f9578063dd60b2a214610361578063e31a46081461031f578063e9fad8ee146102ec578063ec78e832146102c3578063f04beb0b1461029c578063f2fde38b1461020f578063f4359ce5146101ed5763f76589a9146101cd5750610011565b346101e957826003193601126101e95760209250549051908152f35b8280fd5b50503461020b578160031936011261020b576020905162093a808152f35b5080fd5b50346101e95760203660031901126101e957610229611494565b906102326118a3565b6001600160a01b039182169283156102865750505f54826bffffffffffffffffffffffff60a01b8216175f55167f8be0079c531659141344cd1fd0a4f28419497f9722a3daafe3b4186f6b6457e05f80a380f35b51631e4fbdf760e01b8152908101849052602490fd5b50503461020b578160031936011261020b5760209060ff600b5460a01c1690519015158152f35b50503461020b578160031936011261020b57600b5490516001600160a01b039091168152602090f35b833461031c578060031936011261031c57610305611911565b61030d611934565b61031561172f565b6001805580f35b80fd5b50503461020b578060031936011261020b5760209161035a906001600160a01b03610348611494565b1681526003845282602435912061219d565b9051908152f35b5090346101e957806003193601126101e95761037b611494565b90602435918215158093036103f5576103926118a3565b6001600160a01b03169283156103e757507f338403ac24fabf3a55d957b9bebeedb02a4a0eba88b2c591af4befe3038bc88191602091848652600a835280862060ff1981541660ff841617905551908152a280f35b905163d92e233d60e01b8152fd5b8480fd5b5090346101e957806003193601126101e9576001600160401b039180358381116103f55761042a90369083016114df565b90936024359081116104c75761044390369084016114df565b92909361044e611911565b610456611934565b8383036104b757603283116104aa575050845b81811061047857856001805580f35b806104a461049161048c600194868a611659565b61167d565b61049c838789611659565b359033611f7d565b01610469565b5163d6ce581160e01b8152fd5b516001621398b960e31b03198152fd5b8580fd5b509190606036600319011261020b576001600160401b0392803584811161083c576104f990369083016114df565b9490926024358281116104c75761051390369085016114df565b9390926044359081116108385761052d90369083016114df565b610538959195611911565b610540611934565b338852602091600a835260ff858a2054168015610825575b1561081557808a1480159061080b575b6107f85760328a116107e8578899988a5b8a811061079c57508015610785573403610775575b61059742611f25565b988a5b8181106105a9578b6001805580f35b6105b761048c82848d611659565b6105c282858b611659565b356105ce83878d611659565b35918d8214801561074b575b1561073b576001600160a01b03811680610603575050600192916105fd916122cf565b0161059a565b8391931561072b57908f949392918b51916370a0823160e01b90818452308d8501528b84602481865afa93841561072157918e8e928e948b976106e6575b509061065260249392303389612277565b519485938492835230908301525afa9586156106db57956106a2575b509061068c828661068761069d969560019910156116b5565b611572565b916106988315156116f6565b612362565b6105fd565b945091908885813d83116106d4575b6106bb8183611551565b810103126106d057935193909161068c61066e565b5f80fd5b503d6106b1565b8c51903d90823e3d90fd5b9492935095505082813d831161071a575b6107018183611551565b810103126106d0579051928b918d918f90610652610641565b503d6106f7565b8e513d8a823e3d90fd5b8a5163162908e360e11b81528a90fd5b8951630aa733db60e01b81528990fd5b5062093a7f198e018e81116107615782146105da565b50634e487b7160e01b8f526011895260248ffd5b8451630be9eb8560e01b81528490fd5b50341561058e578451630be9eb8560e01b81528490fd5b999a996001600160a01b036107b561048c838f8e611659565b16156107c7575b6001019a999a610579565b906107e06001916107d984878d611659565b35906116a8565b9190506107bc565b845163d6ce581160e01b81528490fd5b84516001621398b960e31b031981528490fd5b50818a1415610568565b845163ea8e4eb560e01b81528490fd5b5088546001600160a01b03163314610558565b8680fd5b8380fd5b50503461020b578160031936011261020b57517f00000000000000000000000000000000000000000000000000000000000000006001600160a01b03168152602090f35b50816003193601126101e957610898611494565b916108a1611911565b6108a9611934565b338452600a60205260ff818520541680156108e8575b156108db5783610315602435856108d542611f25565b90611d5b565b5163ea8e4eb560e01b8152fd5b5083546001600160a01b031633146108bf565b50913461031c57602036600319011261031c575061035a60209235612089565b50503461020b5736600319011261031c57610315610937611494565b61093f611911565b610947611934565b6024359033611f7d565b83823461020b57602036600319011261020b5761031590610970611911565b610978611934565b353333611bd1565b5082903461020b57606036600319011261020b5761099c611494565b916024906024356001600160401b03811161020b578591846109c28793369083016114df565b9590604435926109d188611691565b936109de88519586611551565b8885526109ea89611691565b602099868b019891601f1901368a37875b818110610a44575050505050505083519485948186019282875251809352850193925b828110610a2d57505050500390f35b835185528695509381019392810192600101610a1e565b610a6284610a5c61048c9d9e9b9a9c9d84868b611659565b85611593565b8a51821015610a8357600582901b8b018a0152979a999896976001016109fb565b634e487b7160e01b8952603286528789fd5b83823461020b57602036600319011261020b5780356001600160401b0381116101e957610ac590369083016114df565b9091610acf611911565b610ad7611934565b610ae042611f25565b9162093a7f19830191838311610b2e5750845b818110610b0257856001805580f35b80610b2885610b1761048c600195878b611659565b610b22878233611f7d565b33611f7d565b01610af3565b634e487b7160e01b865260119052602485fd5b50503461020b578160031936011261020b57905490516001600160a01b039091168152602090f35b50503461020b57602036600319011261020b5760209181906001600160a01b03610b91611494565b1681526003845220549051908152f35b5090346101e9576020908160031936011261083c5782356001600160401b0381116103f557610bd390369085016114df565b919093610bde6118a3565b610be6611911565b610bee611934565b600b546001600160a01b039081168015610d4c57875b858110610c3c57887f7358ffae9743b89d09c395cd9ada8d21fea8df09627ab9f420fb1e1110c3b7f188888851908152a16001805580f35b88610c4b61048c83898c611659565b84811680835260068a52878320548851916370a0823160e01b8352888301528a82602481895afa918215610d42578492610d10575b50818111610c95575b50505050600101610c04565b90610c9f91611572565b90843b156101e95787516340c10f1960e01b81526001600160a01b03909116878201908152602081019290925290829082908190604001038183885af18015610d0657610cee575b8080610c89565b610cf79061150f565b610d0257885f610ce7565b8880fd5b87513d84823e3d90fd5b935090508983813d8111610d3b575b610d298183611551565b810103126106d0578b9251905f610c80565b503d610d1f565b89513d86823e3d90fd5b835163456acacb60e01b81528390fd5b50346101e957826003193601126101e957610d756118a3565b600b54916001600160a01b03831615610dc157505060ff60a01b1916600160a01b17600b557ff17e9bbb25bcbfe753e0848c9284b34a38e547934c6bfaea73dd70209af784408180a180f35b5163456acacb60e01b8152fd5b50503461020b578160031936011261020b5760207f62e78cea01bee320cd4e420270b5ea74000d11b0c9f74754ebdbfc544b05a25891610e0c6118a3565b610e14611934565b600160ff19600254161760025551338152a180f35b50503461020b578160031936011261020b576020906005549051908152f35b50503461020b57602036600319011261020b5760209160ff9082906001600160a01b03610e73611494565b168152600a855220541690519015158152f35b50503461020b578160031936011261020b5760209061035a42611f25565b50503461020b578060031936011261020b5760209181906001600160a01b03610ecb611494565b168152600784528181206024358252845220549051908152f35b833461031c578060031936011261031c57610efe6118a3565b5f80546001600160a01b0319811682556001600160a01b03167f8be0079c531659141344cd1fd0a4f28419497f9722a3daafe3b4186f6b6457e08280a380f35b50503461020b5760209061035a610f54366114aa565b91611593565b50503461020b57602036600319011261020b5760209181906001600160a01b03610f82611494565b1681526006845220549051908152f35b50346101e95760203660031901126101e95760209282913581526009845220549051908152f35b509190606036600319011261020b57610fd0611494565b9060243590610fdd611911565b610fe5611934565b338452600a60205260ff81852054168015611071575b156110625761100942611f25565b808314908115611038575b50156110295750906103159160443591611d5b565b51630aa733db60e01b81528490fd5b62093a7f1981019150811161104f5782145f611014565b634e487b7160e01b855260118652602485fd5b5163ea8e4eb560e01b81528490fd5b5083546001600160a01b03163314610ffb565b50503461020b578160031936011261020b5760209060ff6002541690519015158152f35b5090346101e95760203660031901126101e9576110c3611494565b916110cc6118a3565b600b549160ff8360a01c1661117e576001600160a01b038481169490851561116f577f0000000000000000000000000000000000000000000000000000000000000000168514611161573b156111545750506001600160a01b0319168117600b557f55c51d14081bc26dc102aa4c4fa144cbe842bd18ae7d39d2e7e5f8e4952a7aaf8280a280f35b516365250a8160e01b8152fd5b50516365250a8160e01b8152fd5b50505163d92e233d60e01b8152fd5b5163f0967ae960e01b8152fd5b50346101e957826003193601126101e9576111a46118a3565b6002549060ff8216156111e6575060ff1916600255513381527f5db9ee0a495bf2e6ff9c91a7834c1ba4fdd244a5e8aa4e537bd38aeae4b073aa90602090a180f35b8251638dfc202b60e01b8152fd5b50503461020b5736600319011261031c57610315611210611494565b611218611911565b611220611934565b6024359033611bd1565b5090346106d05760203660031901126106d057813591611248611911565b611250611934565b821561139957335f52600660205282825f20541061138b57600b546001600160a01b03918491831680611325575b50506112f491338652600660205283862061129a838254611572565b90556112a882600554611572565b60055533865260066020526112c084872054336119fa565b6112cb600554611ab9565b33907f0000000000000000000000000000000000000000000000000000000000000000166118ce565b519081527f0f5bb82176feb1b5e747e28471aa92156a04d9f3ab9f45f28e2d704232b93f7560203392a26001805580f35b809192503b156106d0578351632770a7eb60e21b81523392810192835260208301869052915f91839182908490829060400103925af180156113815761136e575b80849161127e565b61137991945061150f565b5f9282611366565b83513d5f823e3d90fd5b90516386a76f7960e01b8152fd5b905163162908e360e11b8152fd5b82346106d0576020906113b9366114aa565b9160018060a01b038091165f5260088552835f2091165f528352815f20905f528252805f20549051908152f35b5090346106d0576113f6366114aa565b926114029291926118a3565b6001600160a01b0391821691821561148457807f000000000000000000000000000000000000000000000000000000000000000016831461147457600b5416801515908161146a575b5061145b575061001d93506118ce565b5163162908e360e11b81528490fd5b905082148661144b565b815163162908e360e11b81528690fd5b815163d92e233d60e01b81528690fd5b600435906001600160a01b03821682036106d057565b60609060031901126106d0576001600160a01b039060043582811681036106d0579160243590811681036106d0579060443590565b9181601f840112156106d0578235916001600160401b0383116106d0576020808501948460051b0101116106d057565b6001600160401b03811161152257604052565b634e487b7160e01b5f52604160045260245ffd5b604081019081106001600160401b0382111761152257604052565b90601f801991011681019081106001600160401b0382111761152257604052565b9190820391821161157f57565b634e487b7160e01b5f52601160045260245ffd5b9160018060a01b03809216805f5260209060078252604093845f20845f528352845f205490811561164e5760098452855f2054968715611631575b1695865f52600384526115e385875f2061219d565b8015611625576115f292611e7e565b945f5260088252835f20905f528152825f20915f52525f20548082111561161f5761161c91611572565b90565b50505f90565b50505050505050505f90565b965061163c85612089565b96876115ce5750505050505050505f90565b505050505050505f90565b91908110156116695760051b0190565b634e487b7160e01b5f52603260045260245ffd5b356001600160a01b03811681036106d05790565b6001600160401b0381116115225760051b60200190565b9190820180921161157f57565b156116bc57565b60405162461bcd60e51b81526020600482015260126024820152713130b630b731b2903932b3b932b9b9b4b7b760711b6044820152606490fd5b156116fd57565b60405162461bcd60e51b815260206004820152600a6024820152696e6f207265636569766560b01b6044820152606490fd5b5f335f5260066020526040805f205491821561189e57600b546001600160a01b03919082168061184a575b5033815260066020528281205561177383600554611572565b600555335f526003602052815f20906001600160401b03908482421684548015159081611825575b50156117fd57505082545f1981019290831161157f576117bf86936117d195611987565b509081541690556112cb600554611ab9565b519081527f920bb94eb3842a728db98228c375ff6b00c5bc5a54fac6736155517a0a20a61a60203392a2565b6118209193506117d19486519161181383611536565b82525f602083015261199c565b6112c0565b5f19810193508311905061157f578084611840899488611987565b505416145f61179b565b803b156106d0578351632770a7eb60e21b815233600482015260248101869052905f908290604490829084905af18015611894571561175a5761188d915061150f565b5f8061175a565b84513d5f823e3d90fd5b505050565b5f546001600160a01b031633036118b657565b60405163118cdaa760e01b8152336004820152602490fd5b60405163a9059cbb60e01b60208201526001600160a01b0392909216602483015260448083019390935291815261190f9161190a606483611551565b6123f9565b565b600260015414611922576002600155565b604051633ee5aeb560e01b8152600490fd5b60ff6002541661194057565b60405163d93c066560e01b8152600490fd5b6004548110156116695760045f527f8a35acfbc15ff81a39ae7d344fd709f28e8600b4aa8c65c6b64bfe7fe36bd19b01905f90565b8054821015611669575f5260205f2001905f90565b8054600160401b811015611522576119b991600182018155611987565b6119e757815160209092015160401b67ffffffffffffffff19166001600160401b0392909216919091179055565b634e487b7160e01b5f525f60045260245ffd5b60018060a01b03165f52600360205260405f20906001600160401b038042169083548015159182611a96575b505015611a6e575081545f1981019290831161157f5761190f92611a4991611987565b5080546001600160401b031660409290921b67ffffffffffffffff1916919091179055565b909161190f9260405192611a8184611536565b83526001600160c01b0316602083015261199c565b5f198201925090821161157f57611aae839286611987565b505416145f80611a26565b6001600160401b0380421660049182549081151580611b9e575b15611b0a57505081545f1981019291508211611af7575090611a4961190f92611952565b601190634e487b7160e01b5f525260245ffd5b6040519395946001600160c01b0393909290611b2586611536565b8552836020860193168352600160401b811015611b8b57806001611b4b92018855611952565b949094611b79575191516001600160401b039190921616911660401b67ffffffffffffffff19161790559050565b5f87634e487b7160e01b82525260245ffd5b604187634e487b7160e01b5f525260245ffd5b505f198201828111611bbe5781611bb58592611952565b50541614611ad3565b601185634e487b7160e01b5f525260245ffd5b6001600160a01b03808316939291908415611d49578315611d37578491611c1c853083857f000000000000000000000000000000000000000000000000000000000000000016612277565b825f526006602052604093845f20611c358782546116a8565b9055611c43866005546116a8565b600555835f526006602052611c5b855f2054826119fa565b611c66600554611ab9565b82600b541680611cd5575b50501681817ff27841bf2ce46c8c33a68e103ff4238ad9192a4156d62c4b449f834e914d129160208651888152a314611ca957505050565b7f9e71bc8eea02a63969f509818f2dafb9254532904319f9dbda79b67bd34a5f3d9160209151908152a2565b8091929394503b156106d05784516340c10f1960e01b81526001600160a01b03929092166004830152602482018690525f908290604490829084905af18015611894579086939291611d28575b80611c71565b611d319061150f565b5f611d22565b60405163162908e360e11b8152600490fd5b60405163d92e233d60e01b8152600490fd5b9091906001600160a01b0381169081611d92575050803403611d805761190f916122cf565b604051630be9eb8560e01b8152600490fd5b918093919315611d3757604051936370a0823160e01b8086523060048701526020928387602481865afa968715611e40575f97611e4b575b5090611dd98492303386612277565b60246040518094819382523060048301525afa918215611e40575f92611e10575b5050838161068761190f9661068c9410156116b5565b90809250813d8311611e39575b611e278183611551565b810103126106d057518361068c611dfa565b503d611e1d565b6040513d5f823e3d90fd5b919096508382813d8311611e77575b611e648183611551565b810103126106d057905195611dd9611dca565b503d611e5a565b9091828202915f1984820993838086109503948086039514611f035784831115611ef157829109815f038216809204600280826003021880830282030280830282030280830282030280830282030280830282030280920290030293600183805f03040190848311900302920304170290565b60405163227bc15360e01b8152600490fd5b505080925015611f11570490565b634e487b7160e01b5f52601260045260245ffd5b62093a8080910481810291818304149015171561157f5790565b3d15611f78573d906001600160401b0382116115225760405191611f6d601f8201601f191660200184611551565b82523d5f602084013e565b606090565b611f88838383611593565b80156120835760018060a01b039182811692835f52600860205260405f20941693845f5260205260405f20855f5260205260405f20611fc88382546116a8565b90558361204f57505f80808084865af1611fe0611f3f565b50156120145760207f7a84a08b02c91f3c62d572853f966fc799bbd121e8ad7833a4494ab8dcfcb404915b604051908152a4565b60405162461bcd60e51b8152602060048201526013602482015272115512081d1c985b9cd9995c8819985a5b1959606a1b6044820152606490fd5b8161207e7f7a84a08b02c91f3c62d572853f966fc799bbd121e8ad7833a4494ab8dcfcb40493602093876118ce565b61200b565b50505050565b600490600454918215612196575f1983810193841161157f576120ab84611952565b50926001600160401b03809454168110156121895760045f52837f8a35acfbc15ff81a39ae7d344fd709f28e8600b4aa8c65c6b64bfe7fe36bd19b54168110612180575f939291905b85851061211157505050506121099150611952565b505460401c90565b9091929361211f86826116a8565b600180820180921161216d571c90828661213884611952565b5054161161214d5750945b94939291906120f4565b95508281019081111561214357601184634e487b7160e01b5f525260245ffd5b601186634e487b7160e01b5f525260245ffd5b50505050505f90565b5050505061210990611952565b5050505f90565b91908254908115612270575f199081830192831161157f576121bf8386611987565b506001600160401b038091541682101561226357855f528060205f205416821061225a5791905f93925b8385106121fe57505050506121099192611987565b9091929361220c85826116a8565b600180820180921161157f571c908383612226848b611987565b505416116122395750935b9291906121e9565b94508381019081111561223157634e487b7160e01b5f52601160045260245ffd5b505f9450505050565b5050506121099192611987565b505f925050565b6040516323b872dd60e01b60208201526001600160a01b03928316602482015292909116604483015260648083019390935291815260a08101918183106001600160401b038411176115225761190f926040526123f9565b90801561235e577fc07e2c6d645b047e982489b42f8e0e05ac0037980413cfa15b1411ba1b9b04ed60205f92838052600782526040842085855282526040842061231a8282546116a8565b905584845260098252604084205415612337575b604051908152a3565b61234085612089565b8061234c575b5061232e565b8585526009835260408520555f612346565b5050565b919091811561189e5760207fc07e2c6d645b047e982489b42f8e0e05ac0037980413cfa15b1411ba1b9b04ed9160018060a01b031692835f526007825260405f20855f52825260405f206123b78282546116a8565b9055845f526009825260405f2054156123d357604051908152a3565b6123dc85612089565b806123e7575061232e565b855f526009835260405f20555f612346565b5f806124219260018060a01b03169360208151910182865af161241a611f3f565b9083612473565b805190811515918261244f575b50506124375750565b60249060405190635274afe760e01b82526004820152fd5b81925090602091810103126106d057602001518015908115036106d0575f8061242e565b9061249a575080511561248857805190602001fd5b604051630a12f52160e11b8152600490fd5b815115806124cd575b6124ab575090565b604051639996b31560e01b81526001600160a01b039091166004820152602490fd5b50803b156124a356fea2646970667358221220eff83faa865448005ed6ac32639675c59eed2f40f529aab1175a45f697f7473764736f6c63430008180033","linkReferences":{}},"methodIdentifiers":{"WEEK()":"f4359ce5","allowedFunders(address)":"7aa88fa9","backfillReceipts(address[])":"88687f0c","balanceAtEpochStart(address,uint256)":"e31a4608","balanceOf(address)":"70a08231","claim(address,uint256)":"aad3ec96","claimLatest(address[])":"939f3750","claimMany(address[],uint256[])":"db62c555","claimedForEpoch(address,address,uint256)":"2dcbac3f","currentEpoch()":"76671808","exit()":"e9fad8ee","freezeReceiptToken()":"87ffed6d","iAERO()":"c8b11537","notifyRewardAmount(address,uint256)":"b66503cf","notifyRewardAmountsBatch(address[],uint256[],uint256[])":"d492b9da","notifyRewardForEpoch(address,uint256,uint256)":"5ddffd6c","owner()":"8da5cb5b","pause()":"8456cb59","paused()":"5c975abb","previewClaim(address,address,uint256)":"70bcad52","previewClaimsForEpoch(address,address[],uint256)":"96b145fa","receiptToken()":"ec78e832","receiptTokenFrozen()":"f04beb0b","recoverERC20(address,address,uint256)":"1171bda9","renounceOwnership()":"715018a6","rewardsForEpoch(address,uint256)":"734987bc","setAllowedFunder(address,bool)":"dd60b2a2","setReceiptToken(address)":"4d99f714","stake(uint256)":"a694fc3a","stakeFor(address,uint256)":"2ee40908","supplyCheckpointsLength()":"f76589a9","supplySnapshotAtEpochStart(uint256)":"663f3529","totalStaked()":"817b1cd2","totalSupplyAtEpochStart(uint256)":"aec8e032","transferOwnership(address)":"f2fde38b","unpause()":"3f4ba83a","unstake(uint256)":"2e17de78","userCheckpointsLength(address)":"8a14d8a1"},"id":41}