{"abi":[{"type":"constructor","inputs":[{"name":"_iAERO","type":"address","internalType":"address"},{"name":"_LIQ","type":"address","internalType":"address"},{"name":"_AERO","type":"address","internalType":"address"},{"name":"_veAERO","type":"address","internalType":"address"},{"name":"_treasury","type":"address","internalType":"address"}],"stateMutability":"nonpayable"},{"type":"receive","stateMutability":"payable"},{"type":"function","name":"AERO","inputs":[],"outputs":[{"name":"","type":"address","internalType":"address"}],"stateMutability":"view"},{"type":"function","name":"BPS_BASE","inputs":[],"outputs":[{"name":"","type":"uint256","internalType":"uint256"}],"stateMutability":"view"},{"type":"function","name":"HALVING_STEP","inputs":[],"outputs":[{"name":"","type":"uint256","internalType":"uint256"}],"stateMutability":"view"},{"type":"function","name":"LIQ","inputs":[],"outputs":[{"name":"","type":"address","internalType":"address"}],"stateMutability":"view"},{"type":"function","name":"MAXTIME","inputs":[],"outputs":[{"name":"","type":"uint256","internalType":"uint256"}],"stateMutability":"pure"},{"type":"function","name":"MAX_LOCK_DURATION","inputs":[],"outputs":[{"name":"","type":"uint256","internalType":"uint256"}],"stateMutability":"view"},{"type":"function","name":"MAX_SINGLE_LOCK","inputs":[],"outputs":[{"name":"","type":"uint256","internalType":"uint256"}],"stateMutability":"view"},{"type":"function","name":"MIN_DEPOSIT","inputs":[],"outputs":[{"name":"","type":"uint256","internalType":"uint256"}],"stateMutability":"view"},{"type":"function","name":"PROTOCOL_FEE_BPS","inputs":[],"outputs":[{"name":"","type":"uint256","internalType":"uint256"}],"stateMutability":"view"},{"type":"function","name":"TREASURY_LIQ_BPS","inputs":[],"outputs":[{"name":"","type":"uint256","internalType":"uint256"}],"stateMutability":"view"},{"type":"function","name":"WEEK","inputs":[],"outputs":[{"name":"","type":"uint256","internalType":"uint256"}],"stateMutability":"view"},{"type":"function","name":"additionalNFTs","inputs":[{"name":"","type":"uint256","internalType":"uint256"}],"outputs":[{"name":"","type":"uint256","internalType":"uint256"}],"stateMutability":"view"},{"type":"function","name":"authorized","inputs":[{"name":"","type":"address","internalType":"address"}],"outputs":[{"name":"","type":"bool","internalType":"bool"}],"stateMutability":"view"},{"type":"function","name":"authorizedTargets","inputs":[{"name":"","type":"address","internalType":"address"}],"outputs":[{"name":"","type":"bool","internalType":"bool"}],"stateMutability":"view"},{"type":"function","name":"autoStakeTreasuryFees","inputs":[],"outputs":[{"name":"","type":"bool","internalType":"bool"}],"stateMutability":"view"},{"type":"function","name":"baseEmissionRate","inputs":[],"outputs":[{"name":"","type":"uint256","internalType":"uint256"}],"stateMutability":"view"},{"type":"function","name":"calculateLIQAmount","inputs":[{"name":"iAeroAmount","type":"uint256","internalType":"uint256"}],"outputs":[{"name":"","type":"uint256","internalType":"uint256"}],"stateMutability":"view"},{"type":"function","name":"deposit","inputs":[{"name":"amount","type":"uint256","internalType":"uint256"}],"outputs":[],"stateMutability":"nonpayable"},{"type":"function","name":"depositVeNFT","inputs":[{"name":"tokenId","type":"uint256","internalType":"uint256"}],"outputs":[],"stateMutability":"nonpayable"},{"type":"function","name":"emergencyPause","inputs":[],"outputs":[{"name":"","type":"bool","internalType":"bool"}],"stateMutability":"view"},{"type":"function","name":"executeNFTAction","inputs":[{"name":"tokenId","type":"uint256","internalType":"uint256"},{"name":"target","type":"address","internalType":"address"},{"name":"data","type":"bytes","internalType":"bytes"}],"outputs":[{"name":"","type":"bytes","internalType":"bytes"}],"stateMutability":"nonpayable"},{"type":"function","name":"getCurrentEmissionRate","inputs":[],"outputs":[{"name":"","type":"uint256","internalType":"uint256"}],"stateMutability":"view"},{"type":"function","name":"getManagedNFTs","inputs":[],"outputs":[{"name":"","type":"uint256[]","internalType":"uint256[]"}],"stateMutability":"view"},{"type":"function","name":"getNFTInfo","inputs":[{"name":"tokenId","type":"uint256","internalType":"uint256"}],"outputs":[{"name":"managed","type":"bool","internalType":"bool"},{"name":"lockedAmount","type":"uint256","internalType":"uint256"},{"name":"votingPower","type":"uint256","internalType":"uint256"},{"name":"unlockTime","type":"uint256","internalType":"uint256"},{"name":"isPrimary","type":"bool","internalType":"bool"},{"name":"isPermanent","type":"bool","internalType":"bool"}],"stateMutability":"view"},{"type":"function","name":"getProtocolEffectiveShare","inputs":[],"outputs":[{"name":"","type":"uint256","internalType":"uint256"}],"stateMutability":"pure"},{"type":"function","name":"getProtocolShareBPS","inputs":[],"outputs":[{"name":"","type":"uint256","internalType":"uint256"}],"stateMutability":"pure"},{"type":"function","name":"getTotalValueLocked","inputs":[],"outputs":[{"name":"","type":"uint256","internalType":"uint256"}],"stateMutability":"view"},{"type":"function","name":"iAERO","inputs":[],"outputs":[{"name":"","type":"address","internalType":"address"}],"stateMutability":"view"},{"type":"function","name":"isManaged","inputs":[{"name":"","type":"uint256","internalType":"uint256"}],"outputs":[{"name":"","type":"bool","internalType":"bool"}],"stateMutability":"view"},{"type":"function","name":"keeper","inputs":[],"outputs":[{"name":"","type":"address","internalType":"address"}],"stateMutability":"view"},{"type":"function","name":"lastRebaseTime","inputs":[],"outputs":[{"name":"","type":"uint256","internalType":"uint256"}],"stateMutability":"view"},{"type":"function","name":"nftLockedAmount","inputs":[{"name":"","type":"uint256","internalType":"uint256"}],"outputs":[{"name":"","type":"uint256","internalType":"uint256"}],"stateMutability":"view"},{"type":"function","name":"onERC721Received","inputs":[{"name":"operator","type":"address","internalType":"address"},{"name":"from","type":"address","internalType":"address"},{"name":"tokenId","type":"uint256","internalType":"uint256"},{"name":"","type":"bytes","internalType":"bytes"}],"outputs":[{"name":"","type":"bytes4","internalType":"bytes4"}],"stateMutability":"nonpayable"},{"type":"function","name":"owner","inputs":[],"outputs":[{"name":"","type":"address","internalType":"address"}],"stateMutability":"view"},{"type":"function","name":"pause","inputs":[],"outputs":[],"stateMutability":"nonpayable"},{"type":"function","name":"paused","inputs":[],"outputs":[{"name":"","type":"bool","internalType":"bool"}],"stateMutability":"view"},{"type":"function","name":"performMaintenance","inputs":[],"outputs":[],"stateMutability":"nonpayable"},{"type":"function","name":"previewDeposit","inputs":[{"name":"aeroAmount","type":"uint256","internalType":"uint256"}],"outputs":[{"name":"iAeroToUser","type":"uint256","internalType":"uint256"},{"name":"iAeroToTreasury","type":"uint256","internalType":"uint256"},{"name":"liqToUser","type":"uint256","internalType":"uint256"}],"stateMutability":"view"},{"type":"function","name":"previewDepositVeNFT","inputs":[{"name":"tokenId","type":"uint256","internalType":"uint256"}],"outputs":[{"name":"iAeroToUser","type":"uint256","internalType":"uint256"},{"name":"iAeroToTreasury","type":"uint256","internalType":"uint256"},{"name":"liqToUser","type":"uint256","internalType":"uint256"},{"name":"lockedAmount","type":"uint256","internalType":"uint256"}],"stateMutability":"view"},{"type":"function","name":"primaryNFT","inputs":[],"outputs":[{"name":"","type":"uint256","internalType":"uint256"}],"stateMutability":"view"},{"type":"function","name":"renounceOwnership","inputs":[],"outputs":[],"stateMutability":"nonpayable"},{"type":"function","name":"rescueERC721","inputs":[{"name":"token","type":"address","internalType":"address"},{"name":"tokenId","type":"uint256","internalType":"uint256"},{"name":"to","type":"address","internalType":"address"}],"outputs":[],"stateMutability":"nonpayable"},{"type":"function","name":"rescueVeNFT","inputs":[{"name":"tokenId","type":"uint256","internalType":"uint256"},{"name":"to","type":"address","internalType":"address"}],"outputs":[],"stateMutability":"nonpayable"},{"type":"function","name":"rewardsCollector","inputs":[],"outputs":[{"name":"","type":"address","internalType":"address"}],"stateMutability":"view"},{"type":"function","name":"setAuthorized","inputs":[{"name":"account","type":"address","internalType":"address"},{"name":"authorized_","type":"bool","internalType":"bool"}],"outputs":[],"stateMutability":"nonpayable"},{"type":"function","name":"setAuthorizedTarget","inputs":[{"name":"target","type":"address","internalType":"address"},{"name":"authorized_","type":"bool","internalType":"bool"}],"outputs":[],"stateMutability":"nonpayable"},{"type":"function","name":"setAutoStakeTreasuryFees","inputs":[{"name":"_enabled","type":"bool","internalType":"bool"}],"outputs":[],"stateMutability":"nonpayable"},{"type":"function","name":"setBaseEmissionRate","inputs":[{"name":"_rate","type":"uint256","internalType":"uint256"}],"outputs":[],"stateMutability":"nonpayable"},{"type":"function","name":"setEmergencyPause","inputs":[{"name":"_paused","type":"bool","internalType":"bool"}],"outputs":[],"stateMutability":"nonpayable"},{"type":"function","name":"setKeeper","inputs":[{"name":"_keeper","type":"address","internalType":"address"}],"outputs":[],"stateMutability":"nonpayable"},{"type":"function","name":"setRewardsCollector","inputs":[{"name":"_rewardsCollector","type":"address","internalType":"address"}],"outputs":[],"stateMutability":"nonpayable"},{"type":"function","name":"setStakingDistributor","inputs":[{"name":"_stakingDistributor","type":"address","internalType":"address"}],"outputs":[],"stateMutability":"nonpayable"},{"type":"function","name":"setVotingManager","inputs":[{"name":"_votingManager","type":"address","internalType":"address"}],"outputs":[],"stateMutability":"nonpayable"},{"type":"function","name":"stakingDistributor","inputs":[],"outputs":[{"name":"","type":"address","internalType":"address"}],"stateMutability":"view"},{"type":"function","name":"sweepERC20","inputs":[{"name":"tokens","type":"address[]","internalType":"address[]"},{"name":"to","type":"address","internalType":"address"}],"outputs":[{"name":"amounts","type":"uint256[]","internalType":"uint256[]"}],"stateMutability":"nonpayable"},{"type":"function","name":"sweepETH","inputs":[{"name":"to","type":"address","internalType":"address"}],"outputs":[{"name":"amount","type":"uint256","internalType":"uint256"}],"stateMutability":"nonpayable"},{"type":"function","name":"totalAEROLocked","inputs":[],"outputs":[{"name":"","type":"uint256","internalType":"uint256"}],"stateMutability":"view"},{"type":"function","name":"totalIAEROMinted","inputs":[],"outputs":[{"name":"","type":"uint256","internalType":"uint256"}],"stateMutability":"view"},{"type":"function","name":"totalLIQMinted","inputs":[],"outputs":[{"name":"","type":"uint256","internalType":"uint256"}],"stateMutability":"view"},{"type":"function","name":"transferOwnership","inputs":[{"name":"newOwner","type":"address","internalType":"address"}],"outputs":[],"stateMutability":"nonpayable"},{"type":"function","name":"treasury","inputs":[],"outputs":[{"name":"","type":"address","internalType":"address"}],"stateMutability":"view"},{"type":"function","name":"unpause","inputs":[],"outputs":[],"stateMutability":"nonpayable"},{"type":"function","name":"vaultStatus","inputs":[],"outputs":[{"name":"totalUserDeposits","type":"uint256","internalType":"uint256"},{"name":"totalProtocolOwned","type":"uint256","internalType":"uint256"},{"name":"actualFeesCollected","type":"uint256","internalType":"uint256"},{"name":"virtualFeesOwed","type":"uint256","internalType":"uint256"},{"name":"primaryNFTId","type":"uint256","internalType":"uint256"},{"name":"primaryNFTBalance","type":"uint256","internalType":"uint256"},{"name":"primaryNFTVotingPower","type":"uint256","internalType":"uint256"},{"name":"primaryNFTUnlockTime","type":"uint256","internalType":"uint256"},{"name":"additionalNFTCount","type":"uint256","internalType":"uint256"},{"name":"needsRebase_","type":"bool","internalType":"bool"},{"name":"needsMerge_","type":"bool","internalType":"bool"}],"stateMutability":"view"},{"type":"function","name":"veAERO","inputs":[],"outputs":[{"name":"","type":"address","internalType":"address"}],"stateMutability":"view"},{"type":"function","name":"votingManager","inputs":[],"outputs":[{"name":"","type":"address","internalType":"address"}],"stateMutability":"view"},{"type":"event","name":"AuthorizedSet","inputs":[{"name":"account","type":"address","indexed":true,"internalType":"address"},{"name":"authorized","type":"bool","indexed":false,"internalType":"bool"}],"anonymous":false},{"type":"event","name":"AuthorizedTargetSet","inputs":[{"name":"target","type":"address","indexed":true,"internalType":"address"},{"name":"authorized","type":"bool","indexed":false,"internalType":"bool"}],"anonymous":false},{"type":"event","name":"AutoStakeUpdated","inputs":[{"name":"enabled","type":"bool","indexed":false,"internalType":"bool"}],"anonymous":false},{"type":"event","name":"DepositedAERO","inputs":[{"name":"user","type":"address","indexed":true,"internalType":"address"},{"name":"aeroAmount","type":"uint256","indexed":false,"internalType":"uint256"},{"name":"iAeroToUser","type":"uint256","indexed":false,"internalType":"uint256"},{"name":"iAeroToTreasury","type":"uint256","indexed":false,"internalType":"uint256"},{"name":"liqMinted","type":"uint256","indexed":false,"internalType":"uint256"}],"anonymous":false},{"type":"event","name":"DepositedVeNFT","inputs":[{"name":"user","type":"address","indexed":true,"internalType":"address"},{"name":"tokenId","type":"uint256","indexed":true,"internalType":"uint256"},{"name":"aeroAmount","type":"uint256","indexed":false,"internalType":"uint256"},{"name":"iAeroToUser","type":"uint256","indexed":false,"internalType":"uint256"},{"name":"iAeroToTreasury","type":"uint256","indexed":false,"internalType":"uint256"},{"name":"liqMinted","type":"uint256","indexed":false,"internalType":"uint256"}],"anonymous":false},{"type":"event","name":"EmergencyPauseSet","inputs":[{"name":"paused","type":"bool","indexed":false,"internalType":"bool"}],"anonymous":false},{"type":"event","name":"EmissionRateUpdated","inputs":[{"name":"newRate","type":"uint256","indexed":false,"internalType":"uint256"}],"anonymous":false},{"type":"event","name":"HalvingReached","inputs":[{"name":"halvingIndex","type":"uint256","indexed":false,"internalType":"uint256"},{"name":"totalMinted","type":"uint256","indexed":false,"internalType":"uint256"}],"anonymous":false},{"type":"event","name":"KeeperSet","inputs":[{"name":"keeper","type":"address","indexed":true,"internalType":"address"}],"anonymous":false},{"type":"event","name":"LIQMinted","inputs":[{"name":"user","type":"address","indexed":true,"internalType":"address"},{"name":"toUser","type":"uint256","indexed":false,"internalType":"uint256"},{"name":"toTreasury","type":"uint256","indexed":false,"internalType":"uint256"}],"anonymous":false},{"type":"event","name":"MaintenancePerformed","inputs":[{"name":"merged","type":"bool","indexed":false,"internalType":"bool"},{"name":"rebased","type":"bool","indexed":false,"internalType":"bool"}],"anonymous":false},{"type":"event","name":"NFTIncreased","inputs":[{"name":"tokenId","type":"uint256","indexed":true,"internalType":"uint256"},{"name":"amount","type":"uint256","indexed":false,"internalType":"uint256"}],"anonymous":false},{"type":"event","name":"NFTRebased","inputs":[{"name":"tokenId","type":"uint256","indexed":true,"internalType":"uint256"},{"name":"newUnlockTime","type":"uint256","indexed":false,"internalType":"uint256"}],"anonymous":false},{"type":"event","name":"NFTsMerged","inputs":[{"name":"fromId","type":"uint256","indexed":true,"internalType":"uint256"},{"name":"toId","type":"uint256","indexed":true,"internalType":"uint256"}],"anonymous":false},{"type":"event","name":"OwnershipTransferred","inputs":[{"name":"previousOwner","type":"address","indexed":true,"internalType":"address"},{"name":"newOwner","type":"address","indexed":true,"internalType":"address"}],"anonymous":false},{"type":"event","name":"Paused","inputs":[{"name":"account","type":"address","indexed":false,"internalType":"address"}],"anonymous":false},{"type":"event","name":"RewardsCollectorSet","inputs":[{"name":"collector","type":"address","indexed":true,"internalType":"address"}],"anonymous":false},{"type":"event","name":"StakingDistributorSet","inputs":[{"name":"distributor","type":"address","indexed":true,"internalType":"address"}],"anonymous":false},{"type":"event","name":"StrandedVeNFTRescued","inputs":[{"name":"tokenId","type":"uint256","indexed":true,"internalType":"uint256"},{"name":"to","type":"address","indexed":true,"internalType":"address"}],"anonymous":false},{"type":"event","name":"UnexpectedERC721Received","inputs":[{"name":"token","type":"address","indexed":true,"internalType":"address"},{"name":"operator","type":"address","indexed":true,"internalType":"address"},{"name":"from","type":"address","indexed":true,"internalType":"address"},{"name":"tokenId","type":"uint256","indexed":false,"internalType":"uint256"}],"anonymous":false},{"type":"event","name":"Unpaused","inputs":[{"name":"account","type":"address","indexed":false,"internalType":"address"}],"anonymous":false},{"type":"event","name":"VotingManagerSet","inputs":[{"name":"manager","type":"address","indexed":true,"internalType":"address"}],"anonymous":false},{"type":"error","name":"AddressEmptyCode","inputs":[{"name":"target","type":"address","internalType":"address"}]},{"type":"error","name":"EnforcedPause","inputs":[]},{"type":"error","name":"ExpectedPause","inputs":[]},{"type":"error","name":"FailedCall","inputs":[]},{"type":"error","name":"InsufficientBalance","inputs":[{"name":"balance","type":"uint256","internalType":"uint256"},{"name":"needed","type":"uint256","internalType":"uint256"}]},{"type":"error","name":"OwnableInvalidOwner","inputs":[{"name":"owner","type":"address","internalType":"address"}]},{"type":"error","name":"OwnableUnauthorizedAccount","inputs":[{"name":"account","type":"address","internalType":"address"}]},{"type":"error","name":"ReentrancyGuardReentrantCall","inputs":[]},{"type":"error","name":"SafeERC20FailedOperation","inputs":[{"name":"token","type":"address","internalType":"address"}]}],"bytecode":{"object":"0x610120604052670de0b6b3a76400006002553480156200001d575f80fd5b506040516200799f3803806200799f833981810160405281019062000043919062000592565b3360015f819055505f73ffffffffffffffffffffffffffffffffffffffff168173ffffffffffffffffffffffffffffffffffffffff1603620000be575f6040517f1e4fbdf7000000000000000000000000000000000000000000000000000000008152600401620000b5919062000627565b60405180910390fd5b620000cf816200046a60201b60201c565b505f73ffffffffffffffffffffffffffffffffffffffff168573ffffffffffffffffffffffffffffffffffffffff160362000141576040517f08c379a00000000000000000000000000000000000000000000000000000000081526004016200013890620006a0565b60405180910390fd5b5f73ffffffffffffffffffffffffffffffffffffffff168473ffffffffffffffffffffffffffffffffffffffff1603620001b2576040517f08c379a0000000000000000000000000000000000000000000000000000000008152600401620001a9906200070e565b60405180910390fd5b5f73ffffffffffffffffffffffffffffffffffffffff168373ffffffffffffffffffffffffffffffffffffffff160362000223576040517f08c379a00000000000000000000000000000000000000000000000000000000081526004016200021a906200077c565b60405180910390fd5b5f73ffffffffffffffffffffffffffffffffffffffff168273ffffffffffffffffffffffffffffffffffffffff160362000294576040517f08c379a00000000000000000000000000000000000000000000000000000000081526004016200028b90620007ea565b60405180910390fd5b5f73ffffffffffffffffffffffffffffffffffffffff168173ffffffffffffffffffffffffffffffffffffffff160362000305576040517f08c379a0000000000000000000000000000000000000000000000000000000008152600401620002fc9062000858565b60405180910390fd5b8473ffffffffffffffffffffffffffffffffffffffff1660c08173ffffffffffffffffffffffffffffffffffffffff16815250508373ffffffffffffffffffffffffffffffffffffffff1660e08173ffffffffffffffffffffffffffffffffffffffff16815250508273ffffffffffffffffffffffffffffffffffffffff1660808173ffffffffffffffffffffffffffffffffffffffff16815250508173ffffffffffffffffffffffffffffffffffffffff1660a08173ffffffffffffffffffffffffffffffffffffffff16815250508073ffffffffffffffffffffffffffffffffffffffff166101008173ffffffffffffffffffffffffffffffffffffffff16815250506001600c5f8473ffffffffffffffffffffffffffffffffffffffff1673ffffffffffffffffffffffffffffffffffffffff1681526020019081526020015f205f6101000a81548160ff021916908315150217905550505050505062000878565b5f60015f9054906101000a900473ffffffffffffffffffffffffffffffffffffffff1690508160015f6101000a81548173ffffffffffffffffffffffffffffffffffffffff021916908373ffffffffffffffffffffffffffffffffffffffff1602179055508173ffffffffffffffffffffffffffffffffffffffff168173ffffffffffffffffffffffffffffffffffffffff167f8be0079c531659141344cd1fd0a4f28419497f9722a3daafe3b4186f6b6457e060405160405180910390a35050565b5f80fd5b5f73ffffffffffffffffffffffffffffffffffffffff82169050919050565b5f6200055c8262000531565b9050919050565b6200056e8162000550565b811462000579575f80fd5b50565b5f815190506200058c8162000563565b92915050565b5f805f805f60a08688031215620005ae57620005ad6200052d565b5b5f620005bd888289016200057c565b9550506020620005d0888289016200057c565b9450506040620005e3888289016200057c565b9350506060620005f6888289016200057c565b925050608062000609888289016200057c565b9150509295509295909350565b620006218162000550565b82525050565b5f6020820190506200063c5f83018462000616565b92915050565b5f82825260208201905092915050565b7f496e76616c696420694145524f000000000000000000000000000000000000005f82015250565b5f62000688600d8362000642565b9150620006958262000652565b602082019050919050565b5f6020820190508181035f830152620006b9816200067a565b9050919050565b7f496e76616c6964204c49510000000000000000000000000000000000000000005f82015250565b5f620006f6600b8362000642565b91506200070382620006c0565b602082019050919050565b5f6020820190508181035f8301526200072781620006e8565b9050919050565b7f496e76616c6964204145524f00000000000000000000000000000000000000005f82015250565b5f62000764600c8362000642565b915062000771826200072e565b602082019050919050565b5f6020820190508181035f830152620007958162000756565b9050919050565b7f496e76616c69642076654145524f0000000000000000000000000000000000005f82015250565b5f620007d2600e8362000642565b9150620007df826200079c565b602082019050919050565b5f6020820190508181035f8301526200080381620007c4565b9050919050565b7f496e76616c6964207472656173757279000000000000000000000000000000005f82015250565b5f6200084060108362000642565b91506200084d826200080a565b602082019050919050565b5f6020820190508181035f830152620008718162000832565b9050919050565b60805160a05160c05160e05161010051616fd8620009c75f395f8181611bc801528181612e1501528181613a3e01528181614d8701526150c701525f8181611b8e01528181614e6001528181614eed01528181614fdd015261508b01525f818161273b01528181612d5101528181612dd90152818161322a0152818161397a01528181613a0201528181614d040152614e1501525f8181611287015281816115de0152818161167f015281816117c50152818161192d01528181611a5601528181612b4e01528181612bb601528181612c4301528181613206015281816132a00152818161334801528181613566015281816136550152818161384e01528181613fae015281816141a2015281816142a80152818161438301528181614833015281816152b401526153aa01525f818161153501528181612b0401528181612b700152612c650152616fd85ff3fe6080604052600436106103d1575f3560e01c80638fe906d5116101fc578063d188929f11610117578063f2fde38b116100aa578063f7d8252d11610079578063f7d8252d14610e4a578063f992b14814610e74578063fa1979a414610e9e578063fa3e470514610ec6578063fc83ca5114610eee576103d8565b8063f2fde38b14610da4578063f317ca3d14610dcc578063f4359ce514610df6578063f4ffb3af14610e20576103d8565b8063e1e158a5116100e6578063e1e158a514610cea578063e9ddf3a314610d14578063ee00ef3a14610d3c578063ef8b30f714610d66576103d8565b8063d188929f14610c1b578063d57dc6fc14610c5c578063d8d1a65714610c98578063da1bcdf014610cc0576103d8565b8063b3c20c051161018f578063be3782281161015e578063be37822814610b73578063bfe95ce614610b9d578063c334c26414610bc7578063c8b1153714610bf1576103d8565b8063b3c20c0514610abb578063b6b55f2514610ae5578063b76675e814610b0d578063b918161114610b37576103d8565b8063a3b41662116101cb578063a3b4166214610a15578063aced166114610a3d578063b1d6719514610a67578063b26025aa14610a91576103d8565b80638fe906d51461095d578063972fd7fb146109875780639eaa1b09146109af5780639ed2e575146109d9576103d8565b8063578c963d116102ec578063715018a61161027f578063820ff6e61161024e578063820ff6e6146108cb5780638456cb59146109075780638da5cb5b1461091d5780638fb062b014610947576103d8565b8063715018a614610839578063748747e61461084f5780637ddb790214610877578063800beed9146108a1576103d8565b806362d0ce28116102bb57806362d0ce281461078557806367546e1e146107c15780636d5c9e59146107e9578063711bf9b214610811576103d8565b8063578c963d146106c8578063586d13b3146107075780635c975abb1461073157806361d027b31461075b576103d8565b80631924063e116103645780633f4ba83a116103335780633f4ba83a146106225780634f1bfc9e1461063857806351858e271461066257806355b6cce11461068c576103d8565b80631924063e1461057257806324a8166e1461059c57806325bf91d0146105d05780633e01b229146105fa576103d8565b80631376e70a116103a05780631376e70a146104a85780631504ade6146104e4578063150b7a021461050c5780631691bd6f14610548576103d8565b806305907e30146103dc57806307f4b51c1461040657806311053595146104425780631163b2b01461046c576103d8565b366103d857005b5f80fd5b3480156103e7575f80fd5b506103f0610f18565b6040516103fd91906156f4565b60405180910390f35b348015610411575f80fd5b5061042c60048036038101906104279190615748565b610f27565b60405161043991906156f4565b60405180910390f35b34801561044d575f80fd5b50610456610f47565b60405161046391906157b2565b60405180910390f35b348015610477575f80fd5b50610492600480360381019061048d91906157f5565b610f6c565b60405161049f91906156f4565b60405180910390f35b3480156104b3575f80fd5b506104ce60048036038101906104c991906157f5565b61116b565b6040516104db919061583a565b60405180910390f35b3480156104ef575f80fd5b5061050a600480360381019061050591906157f5565b611188565b005b348015610517575f80fd5b50610532600480360381019061052d91906158b4565b611284565b60405161053f9190615972565b60405180910390f35b348015610553575f80fd5b5061055c611533565b60405161056991906157b2565b60405180910390f35b34801561057d575f80fd5b50610586611557565b60405161059391906156f4565b60405180910390f35b3480156105a7575f80fd5b506105b061155d565b6040516105c79b9a9998979695949392919061598b565b60405180910390f35b3480156105db575f80fd5b506105e4611728565b6040516105f191906156f4565b60405180910390f35b348015610605575f80fd5b50610620600480360381019061061b9190615a34565b61172e565b005b34801561062d575f80fd5b50610636611a05565b005b348015610643575f80fd5b5061064c611a17565b60405161065991906156f4565b60405180910390f35b34801561066d575f80fd5b50610676611a1f565b604051610683919061583a565b60405180910390f35b348015610697575f80fd5b506106b260048036038101906106ad9190615748565b611a32565b6040516106bf919061583a565b60405180910390f35b3480156106d3575f80fd5b506106ee60048036038101906106e99190615748565b611a4f565b6040516106fe9493929190615a72565b60405180910390f35b348015610712575f80fd5b5061071b611b8c565b60405161072891906157b2565b60405180910390f35b34801561073c575f80fd5b50610745611bb0565b604051610752919061583a565b60405180910390f35b348015610766575f80fd5b5061076f611bc6565b60405161077c91906157b2565b60405180910390f35b348015610790575f80fd5b506107ab60048036038101906107a69190615ab5565b611bea565b6040516107b89190615bb0565b60405180910390f35b3480156107cc575f80fd5b506107e760048036038101906107e29190615748565b611eaf565b005b3480156107f4575f80fd5b5061080f600480360381019061080a9190615bfa565b611f93565b005b34801561081c575f80fd5b5061083760048036038101906108329190615c25565b611fef565b005b348015610844575f80fd5b5061084d61209d565b005b34801561085a575f80fd5b50610875600480360381019061087091906157f5565b6120b0565b005b348015610882575f80fd5b5061088b6121ac565b60405161089891906157b2565b60405180910390f35b3480156108ac575f80fd5b506108b56121d1565b6040516108c291906156f4565b60405180910390f35b3480156108d6575f80fd5b506108f160048036038101906108ec9190615748565b6121d7565b6040516108fe91906156f4565b60405180910390f35b348015610912575f80fd5b5061091b612225565b005b348015610928575f80fd5b50610931612237565b60405161093e91906157b2565b60405180910390f35b348015610952575f80fd5b5061095b61225f565b005b348015610968575f80fd5b506109716123bc565b60405161097e91906156f4565b60405180910390f35b348015610992575f80fd5b506109ad60048036038101906109a891906157f5565b6123e5565b005b3480156109ba575f80fd5b506109c3612536565b6040516109d091906156f4565b60405180910390f35b3480156109e4575f80fd5b506109ff60048036038101906109fa9190615cb8565b61253c565b604051610a0c9190615dcc565b60405180910390f35b348015610a20575f80fd5b50610a3b6004803603810190610a369190615c25565b612881565b005b348015610a48575f80fd5b50610a5161292f565b604051610a5e91906157b2565b60405180910390f35b348015610a72575f80fd5b50610a7b612954565b604051610a8891906156f4565b60405180910390f35b348015610a9c575f80fd5b50610aa5612963565b604051610ab291906156f4565b60405180910390f35b348015610ac6575f80fd5b50610acf61296c565b604051610adc91906156f4565b60405180910390f35b348015610af0575f80fd5b50610b0b6004803603810190610b069190615748565b612975565b005b348015610b18575f80fd5b50610b21612fa8565b604051610b2e91906156f4565b60405180910390f35b348015610b42575f80fd5b50610b5d6004803603810190610b5891906157f5565b612fae565b604051610b6a919061583a565b60405180910390f35b348015610b7e575f80fd5b50610b87612fcb565b604051610b9491906156f4565b60405180910390f35b348015610ba8575f80fd5b50610bb1612fd1565b604051610bbe9190615dcc565b60405180910390f35b348015610bd2575f80fd5b50610bdb613204565b604051610be891906157b2565b60405180910390f35b348015610bfc575f80fd5b50610c05613228565b604051610c1291906157b2565b60405180910390f35b348015610c26575f80fd5b50610c416004803603810190610c3c9190615748565b61324c565b604051610c5396959493929190615dec565b60405180910390f35b348015610c67575f80fd5b50610c826004803603810190610c7d9190615748565b6133ed565b604051610c8f91906156f4565b60405180910390f35b348015610ca3575f80fd5b50610cbe6004803603810190610cb99190615bfa565b613402565b005b348015610ccb575f80fd5b50610cd461345e565b604051610ce191906157b2565b60405180910390f35b348015610cf5575f80fd5b50610cfe613483565b604051610d0b91906156f4565b60405180910390f35b348015610d1f575f80fd5b50610d3a6004803603810190610d359190615748565b61348f565b005b348015610d47575f80fd5b50610d50613c80565b604051610d5d91906156f4565b60405180910390f35b348015610d71575f80fd5b50610d8c6004803603810190610d879190615748565b613c8b565b604051610d9b93929190615e4b565b60405180910390f35b348015610daf575f80fd5b50610dca6004803603810190610dc591906157f5565b613d2d565b005b348015610dd7575f80fd5b50610de0613db1565b604051610ded91906156f4565b60405180910390f35b348015610e01575f80fd5b50610e0a613db7565b604051610e1791906156f4565b60405180910390f35b348015610e2b575f80fd5b50610e34613dbe565b604051610e41919061583a565b60405180910390f35b348015610e55575f80fd5b50610e5e613dd1565b604051610e6b91906156f4565b60405180910390f35b348015610e7f575f80fd5b50610e88613dd7565b604051610e9591906156f4565b60405180910390f35b348015610ea9575f80fd5b50610ec46004803603810190610ebf91906157f5565b613ddd565b005b348015610ed1575f80fd5b50610eec6004803603810190610ee79190615e80565b613f2e565b005b348015610ef9575f80fd5b50610f026140b1565b604051610f0f91906156f4565b60405180910390f35b6a084595161401484a00000081565b60078181548110610f36575f80fd5b905f5260205f20015f915090505481565b600f5f9054906101000a900473ffffffffffffffffffffffffffffffffffffffff1681565b5f600b5f3373ffffffffffffffffffffffffffffffffffffffff1673ffffffffffffffffffffffffffffffffffffffff1681526020019081526020015f205f9054906101000a900460ff1680610ff45750610fc5612237565b73ffffffffffffffffffffffffffffffffffffffff163373ffffffffffffffffffffffffffffffffffffffff16145b611033576040517f08c379a000000000000000000000000000000000000000000000000000000000815260040161102a90615f2a565b60405180910390fd5b61103b6140ba565b5f73ffffffffffffffffffffffffffffffffffffffff168273ffffffffffffffffffffffffffffffffffffffff16036110a9576040517f08c379a00000000000000000000000000000000000000000000000000000000081526004016110a090615f92565b60405180910390fd5b4790505f81111561115e575f8273ffffffffffffffffffffffffffffffffffffffff16826040516110d990615fdd565b5f6040518083038185875af1925050503d805f8114611113576040519150601f19603f3d011682016040523d82523d5f602084013e611118565b606091505b505090508061115c576040517f08c379a00000000000000000000000000000000000000000000000000000000081526004016111539061603b565b60405180910390fd5b505b6111666140fe565b919050565b600c602052805f5260405f205f915054906101000a900460ff1681565b611190614107565b5f73ffffffffffffffffffffffffffffffffffffffff168173ffffffffffffffffffffffffffffffffffffffff16036111fe576040517f08c379a00000000000000000000000000000000000000000000000000000000081526004016111f5906160a3565b60405180910390fd5b80600f5f6101000a81548173ffffffffffffffffffffffffffffffffffffffff021916908373ffffffffffffffffffffffffffffffffffffffff1602179055508073ffffffffffffffffffffffffffffffffffffffff167f246cfaf3426a6c8763574ad1733b8d4cb841518dde62566f7d639beb24d2080260405160405180910390a250565b5f7f000000000000000000000000000000000000000000000000000000000000000073ffffffffffffffffffffffffffffffffffffffff163373ffffffffffffffffffffffffffffffffffffffff161461138f578473ffffffffffffffffffffffffffffffffffffffff168673ffffffffffffffffffffffffffffffffffffffff163373ffffffffffffffffffffffffffffffffffffffff167f516a1f0d87fcc310e87a753090df230b76d4c1128ab9fd9b59c1e7507eddfd008760405161134c91906156f4565b60405180910390a46040517f08c379a00000000000000000000000000000000000000000000000000000000081526004016113869061610b565b60405180910390fd5b60135f9054906101000a900460ff1615806113ac57508360125414155b8061140457508473ffffffffffffffffffffffffffffffffffffffff1660115f9054906101000a900473ffffffffffffffffffffffffffffffffffffffff1673ffffffffffffffffffffffffffffffffffffffff1614155b156114c0578473ffffffffffffffffffffffffffffffffffffffff168673ffffffffffffffffffffffffffffffffffffffff163373ffffffffffffffffffffffffffffffffffffffff167f516a1f0d87fcc310e87a753090df230b76d4c1128ab9fd9b59c1e7507eddfd008760405161147d91906156f4565b60405180910390a46040517f08c379a00000000000000000000000000000000000000000000000000000000081526004016114b790616199565b60405180910390fd5b5f60135f6101000a81548160ff0219169083151502179055505f60115f6101000a81548173ffffffffffffffffffffffffffffffffffffffff021916908373ffffffffffffffffffffffffffffffffffffffff1602179055505f60128190555063150b7a0260e01b905095945050505050565b7f000000000000000000000000000000000000000000000000000000000000000081565b600a5481565b5f805f805f805f805f805f6004549a506127106101f460055461158091906161e4565b61158a9190616252565b99508998505f9750600654965060078054905092505f831190506115ac61418e565b91505f87141580156115c357506115c287614296565b5b1561171b5760095f8881526020019081526020015f205495507f000000000000000000000000000000000000000000000000000000000000000073ffffffffffffffffffffffffffffffffffffffff1663b45a3c0e886040518263ffffffff1660e01b815260040161163591906156f4565b606060405180830381865afa92505050801561166f57506040513d601f19601f8201168201806040525081019061166c91906163bd565b60015b1561167d5780602001519450505b7f000000000000000000000000000000000000000000000000000000000000000073ffffffffffffffffffffffffffffffffffffffff1663e7e242d4886040518263ffffffff1660e01b81526004016116d691906156f4565b602060405180830381865afa92505050801561171057506040513d601f19601f8201168201806040525081019061170d91906163e8565b60015b1561171a57809550505b5b909192939495969798999a565b60045481565b611736614107565b61173e6140ba565b5f73ffffffffffffffffffffffffffffffffffffffff168173ffffffffffffffffffffffffffffffffffffffff16036117ac576040517f08c379a00000000000000000000000000000000000000000000000000000000081526004016117a390615f92565b60405180910390fd5b3073ffffffffffffffffffffffffffffffffffffffff167f000000000000000000000000000000000000000000000000000000000000000073ffffffffffffffffffffffffffffffffffffffff16636352211e846040518263ffffffff1660e01b815260040161181c91906156f4565b602060405180830381865afa158015611837573d5f803e3d5ffd5b505050506040513d601f19601f8201168201806040525081019061185b9190616427565b73ffffffffffffffffffffffffffffffffffffffff16146118b1576040517f08c379a00000000000000000000000000000000000000000000000000000000081526004016118a89061649c565b60405180910390fd5b60085f8381526020019081526020015f205f9054906101000a900460ff161580156118ec57505f60095f8481526020019081526020015f2054145b61192b576040517f08c379a000000000000000000000000000000000000000000000000000000000815260040161192290616504565b60405180910390fd5b7f000000000000000000000000000000000000000000000000000000000000000073ffffffffffffffffffffffffffffffffffffffff166342842e0e3083856040518463ffffffff1660e01b815260040161198893929190616522565b5f604051808303815f87803b15801561199f575f80fd5b505af11580156119b1573d5f803e3d5ffd5b505050508073ffffffffffffffffffffffffffffffffffffffff16827fdc27db866d1e93f8d76152ea23f433241cc42db21c76acbf3cf8290260c0d7b760405160405180910390a3611a016140fe565b5050565b611a0d614107565b611a15614468565b565b630784ce0081565b601060159054906101000a900460ff1681565b6008602052805f5260405f205f915054906101000a900460ff1681565b5f805f805f7f000000000000000000000000000000000000000000000000000000000000000073ffffffffffffffffffffffffffffffffffffffff1663b45a3c0e876040518263ffffffff1660e01b8152600401611aad91906156f4565b606060405180830381865afa158015611ac8573d5f803e3d5ffd5b505050506040513d601f19601f82011682018060405250810190611aec91906163bd565b90505f815f0151600f0b13611b36576040517f08c379a0000000000000000000000000000000000000000000000000000000008152600401611b2d906165a1565b60405180910390fd5b805f01516fffffffffffffffffffffffffffffffff1691506127106101f483611b5f91906161e4565b611b699190616252565b93508382611b7791906165bf565b9450611b82856121d7565b9250509193509193565b7f000000000000000000000000000000000000000000000000000000000000000081565b5f600160149054906101000a900460ff16905090565b7f000000000000000000000000000000000000000000000000000000000000000081565b6060600b5f3373ffffffffffffffffffffffffffffffffffffffff1673ffffffffffffffffffffffffffffffffffffffff1681526020019081526020015f205f9054906101000a900460ff1680611c735750611c44612237565b73ffffffffffffffffffffffffffffffffffffffff163373ffffffffffffffffffffffffffffffffffffffff16145b611cb2576040517f08c379a0000000000000000000000000000000000000000000000000000000008152600401611ca990615f2a565b60405180910390fd5b611cba6140ba565b60085f8681526020019081526020015f205f9054906101000a900460ff16611d17576040517f08c379a0000000000000000000000000000000000000000000000000000000008152600401611d0e9061663c565b60405180910390fd5b600c5f8573ffffffffffffffffffffffffffffffffffffffff1673ffffffffffffffffffffffffffffffffffffffff1681526020019081526020015f205f9054906101000a900460ff16611da0576040517f08c379a0000000000000000000000000000000000000000000000000000000008152600401611d97906166a4565b60405180910390fd5b5f73ffffffffffffffffffffffffffffffffffffffff168473ffffffffffffffffffffffffffffffffffffffff1614158015611df257505f8473ffffffffffffffffffffffffffffffffffffffff163b115b611e31576040517f08c379a0000000000000000000000000000000000000000000000000000000008152600401611e289061670c565b60405180910390fd5b611e9d83838080601f0160208091040260200160405190810160405280939291908181526020018383808284375f81840152601f19601f820116905080830192505050505050508573ffffffffffffffffffffffffffffffffffffffff166144ca90919063ffffffff16565b9050611ea76140fe565b949350505050565b611eb7614107565b5f60035414611efb576040517f08c379a0000000000000000000000000000000000000000000000000000000008152600401611ef290616774565b60405180910390fd5b5f81118015611f13575068056bc75e2d631000008111155b611f52576040517f08c379a0000000000000000000000000000000000000000000000000000000008152600401611f49906167dc565b60405180910390fd5b806002819055507fffcc630bf88a67ba7c8b27440787c31777ae923aee1e9bbd0127feea56da2cd081604051611f8891906156f4565b60405180910390a150565b611f9b614107565b80601060146101000a81548160ff0219169083151502179055507f9cd65411d865dd2ef5bbc92fb8aea9cae0ea241e112a87bfbb75e877a7e4a1d681604051611fe4919061583a565b60405180910390a150565b611ff7614107565b80600b5f8473ffffffffffffffffffffffffffffffffffffffff1673ffffffffffffffffffffffffffffffffffffffff1681526020019081526020015f205f6101000a81548160ff0219169083151502179055508173ffffffffffffffffffffffffffffffffffffffff167f19fef6046150baa445c8f44d75e29317c0fa4c6341a6c8444b3ec4cc48d1e1ce82604051612091919061583a565b60405180910390a25050565b6120a5614107565b6120ae5f6144df565b565b6120b8614107565b5f73ffffffffffffffffffffffffffffffffffffffff168173ffffffffffffffffffffffffffffffffffffffff1603612126576040517f08c379a000000000000000000000000000000000000000000000000000000000815260040161211d90616844565b60405180910390fd5b8060105f6101000a81548173ffffffffffffffffffffffffffffffffffffffff021916908373ffffffffffffffffffffffffffffffffffffffff1602179055508073ffffffffffffffffffffffffffffffffffffffff167fdc3dba1d64dd67c0dc8b12621edd0c6ca4303a9073c3a8fcac38115e73d67b6b60405160405180910390a250565b600e5f9054906101000a900473ffffffffffffffffffffffffffffffffffffffff1681565b60055481565b5f806a0422ca8b0a00a4250000006003546121f29190616252565b90505f81600254901c9050670de0b6b3a7640000818561221291906161e4565b61221c9190616252565b92505050919050565b61222d614107565b6122356145a2565b565b5f60015f9054906101000a900473ffffffffffffffffffffffffffffffffffffffff16905090565b60105f9054906101000a900473ffffffffffffffffffffffffffffffffffffffff1673ffffffffffffffffffffffffffffffffffffffff163373ffffffffffffffffffffffffffffffffffffffff1614806122ec57506122bd612237565b73ffffffffffffffffffffffffffffffffffffffff163373ffffffffffffffffffffffffffffffffffffffff16145b61232b576040517f08c379a0000000000000000000000000000000000000000000000000000000008152600401612322906168ac565b60405180910390fd5b6123336140ba565b5f805f600780549050111561234f5761234a614604565b600191505b5f60065414158015612365575061236461418e565b5b15612377576123726149f8565b600190505b7fee4f8ca46d9f5c38883b1dc514d469fa475657cf2078fcca7c8a2d5f521d41d882826040516123a89291906168ca565b60405180910390a150506123ba6140fe565b565b5f806a0422ca8b0a00a4250000006003546123d79190616252565b905080600254901c91505090565b6123ed614107565b5f73ffffffffffffffffffffffffffffffffffffffff168173ffffffffffffffffffffffffffffffffffffffff160361245b576040517f08c379a00000000000000000000000000000000000000000000000000000000081526004016124529061693b565b60405180910390fd5b80600d5f6101000a81548173ffffffffffffffffffffffffffffffffffffffff021916908373ffffffffffffffffffffffffffffffffffffffff1602179055506001600b5f8373ffffffffffffffffffffffffffffffffffffffff1673ffffffffffffffffffffffffffffffffffffffff1681526020019081526020015f205f6101000a81548160ff0219169083151502179055508073ffffffffffffffffffffffffffffffffffffffff167ff306625376cc809b6c450e8058d86e6f84e078971160caa6e27b51023bd25b5960405160405180910390a250565b61271081565b6060600b5f3373ffffffffffffffffffffffffffffffffffffffff1673ffffffffffffffffffffffffffffffffffffffff1681526020019081526020015f205f9054906101000a900460ff16806125c55750612596612237565b73ffffffffffffffffffffffffffffffffffffffff163373ffffffffffffffffffffffffffffffffffffffff16145b612604576040517f08c379a00000000000000000000000000000000000000000000000000000000081526004016125fb90615f2a565b60405180910390fd5b61260c6140ba565b5f73ffffffffffffffffffffffffffffffffffffffff168273ffffffffffffffffffffffffffffffffffffffff160361267a576040517f08c379a000000000000000000000000000000000000000000000000000000000815260040161267190615f92565b60405180910390fd5b8383905067ffffffffffffffff81111561269757612696616286565b5b6040519080825280602002602001820160405280156126c55781602001602082028036833780820191505090505b5090505f5b84849050811015612871575f8585838181106126e9576126e8616959565b5b90506020020160208101906126fe91906157f5565b90505f73ffffffffffffffffffffffffffffffffffffffff168173ffffffffffffffffffffffffffffffffffffffff16036127395750612864565b7f000000000000000000000000000000000000000000000000000000000000000073ffffffffffffffffffffffffffffffffffffffff168173ffffffffffffffffffffffffffffffffffffffff16036127925750612864565b5f8173ffffffffffffffffffffffffffffffffffffffff166370a08231306040518263ffffffff1660e01b81526004016127cc91906157b2565b602060405180830381865afa1580156127e7573d5f803e3d5ffd5b505050506040513d601f19601f8201168201806040525081019061280b91906163e8565b90505f8111156128615761284085828473ffffffffffffffffffffffffffffffffffffffff16614a2f9092919063ffffffff16565b8084848151811061285457612853616959565b5b6020026020010181815250505b50505b80806001019150506126ca565b5061287a6140fe565b9392505050565b612889614107565b80600c5f8473ffffffffffffffffffffffffffffffffffffffff1673ffffffffffffffffffffffffffffffffffffffff1681526020019081526020015f205f6101000a81548160ff0219169083151502179055508173ffffffffffffffffffffffffffffffffffffffff167f9fb9d2474d339c21202304ecb8f45986eb57bbb148db03711ce1d6bd694d288982604051612923919061583a565b60405180910390a25050565b60105f9054906101000a900473ffffffffffffffffffffffffffffffffffffffff1681565b6a0422ca8b0a00a42500000081565b5f600454905090565b5f6101f4905090565b61297d6140ba565b612985614aae565b601060159054906101000a900460ff16156129d5576040517f08c379a00000000000000000000000000000000000000000000000000000000081526004016129cc906169d0565b60405180910390fd5b670de0b6b3a7640000811015612a20576040517f08c379a0000000000000000000000000000000000000000000000000000000008152600401612a1790616a38565b60405180910390fd5b6a084595161401484a000000811115612a6e576040517f08c379a0000000000000000000000000000000000000000000000000000000008152600401612a6590616aa0565b60405180910390fd5b5f60065403612ab2576040517f08c379a0000000000000000000000000000000000000000000000000000000008152600401612aa990616b08565b60405180910390fd5b612abd600654614296565b612afc576040517f08c379a0000000000000000000000000000000000000000000000000000000008152600401612af390616b70565b60405180910390fd5b612b493330837f000000000000000000000000000000000000000000000000000000000000000073ffffffffffffffffffffffffffffffffffffffff16614aef909392919063ffffffff16565b612bb47f0000000000000000000000000000000000000000000000000000000000000000827f000000000000000000000000000000000000000000000000000000000000000073ffffffffffffffffffffffffffffffffffffffff16614b719092919063ffffffff16565b7f000000000000000000000000000000000000000000000000000000000000000073ffffffffffffffffffffffffffffffffffffffff1663b2383e55600654836040518363ffffffff1660e01b8152600401612c11929190616b8e565b5f604051808303815f87803b158015612c28575f80fd5b505af1158015612c3a573d5f803e3d5ffd5b50505050612ca97f00000000000000000000000000000000000000000000000000000000000000005f7f000000000000000000000000000000000000000000000000000000000000000073ffffffffffffffffffffffffffffffffffffffff16614b719092919063ffffffff16565b8060095f60065481526020019081526020015f205f828254612ccb9190616bb5565b925050819055506006547f1f15bfa2937c31c22357f66856fed86f4ba9b012a444ee4c677a000705b75e9b82604051612d0491906156f4565b60405180910390a25f6007805490501115612d2257612d21614604565b5b5f6127106101f483612d3491906161e4565b612d3e9190616252565b90505f8183612d4d91906165bf565b90507f000000000000000000000000000000000000000000000000000000000000000073ffffffffffffffffffffffffffffffffffffffff166340c10f1933836040518363ffffffff1660e01b8152600401612daa929190616be8565b5f604051808303815f87803b158015612dc1575f80fd5b505af1158015612dd3573d5f803e3d5ffd5b505050507f000000000000000000000000000000000000000000000000000000000000000073ffffffffffffffffffffffffffffffffffffffff166340c10f197f0000000000000000000000000000000000000000000000000000000000000000846040518363ffffffff1660e01b8152600401612e52929190616be8565b5f604051808303815f87803b158015612e69575f80fd5b505af1158015612e7b573d5f803e3d5ffd5b50505050601060149054906101000a900460ff168015612ee857505f73ffffffffffffffffffffffffffffffffffffffff16600f5f9054906101000a900473ffffffffffffffffffffffffffffffffffffffff1673ffffffffffffffffffffffffffffffffffffffff1614155b15612ef757612ef682614c7e565b5b5f612f01826121d7565b90505f811115612f1657612f153382614e5d565b5b8360045f828254612f279190616bb5565b925050819055508360055f828254612f3f9190616bb5565b925050819055503373ffffffffffffffffffffffffffffffffffffffff167f6ad45a38095bd8197f84f42834fbb77755f4134b1adc3e7842f1008369e2af7f85848685604051612f929493929190615a72565b60405180910390a2505050612fa56140fe565b50565b60035481565b600b602052805f5260405f205f915054906101000a900460ff1681565b6101f481565b60605f8060065414158015612fed5750612fec600654614296565b5b15613001578080612ffd90616c0f565b9150505b5f5b600780549050811015613093575f6007828154811061302557613024616959565b5b905f5260205f20015414158015613072575060085f6007838154811061304e5761304d616959565b5b905f5260205f20015481526020019081526020015f205f9054906101000a900460ff165b1561308657818061308290616c0f565b9250505b8080600101915050613003565b505f8167ffffffffffffffff8111156130af576130ae616286565b5b6040519080825280602002602001820160405280156130dd5781602001602082028036833780820191505090505b5090505f80600654141580156130fa57506130f9600654614296565b5b1561312e5760065482828061310e90616c0f565b93508151811061312157613120616959565b5b6020026020010181815250505b5f5b6007805490508110156131fa575f6007828154811061315257613151616959565b5b905f5260205f2001541415801561319f575060085f6007838154811061317b5761317a616959565b5b905f5260205f20015481526020019081526020015f205f9054906101000a900460ff165b156131ed57600781815481106131b8576131b7616959565b5b905f5260205f2001548383806131cd90616c0f565b9450815181106131e0576131df616959565b5b6020026020010181815250505b8080600101915050613130565b5081935050505090565b7f000000000000000000000000000000000000000000000000000000000000000081565b7f000000000000000000000000000000000000000000000000000000000000000081565b5f805f805f8060085f8881526020019081526020015f205f9054906101000a900460ff16955060095f8881526020019081526020015f205494506006548714915085801561329957505f85115b156133e4577f000000000000000000000000000000000000000000000000000000000000000073ffffffffffffffffffffffffffffffffffffffff1663b45a3c0e886040518263ffffffff1660e01b81526004016132f791906156f4565b606060405180830381865afa92505050801561333157506040513d601f19601f8201168201806040525081019061332e91906163bd565b60015b15613346578060200151935080604001519150505b7f000000000000000000000000000000000000000000000000000000000000000073ffffffffffffffffffffffffffffffffffffffff1663e7e242d4886040518263ffffffff1660e01b815260040161339f91906156f4565b602060405180830381865afa9250505080156133d957506040513d601f19601f820116820180604052508101906133d691906163e8565b60015b156133e357809450505b5b91939550919395565b6009602052805f5260405f205f915090505481565b61340a614107565b80601060156101000a81548160ff0219169083151502179055507fc8b290589fc182b8da42313f406cbe272a988911356e5dfcf9d3afccfac6a8f281604051613453919061583a565b60405180910390a150565b600d5f9054906101000a900473ffffffffffffffffffffffffffffffffffffffff1681565b670de0b6b3a764000081565b6134976140ba565b61349f614aae565b601060159054906101000a900460ff16156134ef576040517f08c379a00000000000000000000000000000000000000000000000000000000081526004016134e6906169d0565b60405180910390fd5b60085f8281526020019081526020015f205f9054906101000a900460ff161561354d576040517f08c379a000000000000000000000000000000000000000000000000000000000815260040161354490616ca0565b60405180910390fd5b3373ffffffffffffffffffffffffffffffffffffffff167f000000000000000000000000000000000000000000000000000000000000000073ffffffffffffffffffffffffffffffffffffffff16636352211e836040518263ffffffff1660e01b81526004016135bd91906156f4565b602060405180830381865afa1580156135d8573d5f803e3d5ffd5b505050506040513d601f19601f820116820180604052508101906135fc9190616427565b73ffffffffffffffffffffffffffffffffffffffff1614613652576040517f08c379a000000000000000000000000000000000000000000000000000000000815260040161364990616d08565b60405180910390fd5b5f7f000000000000000000000000000000000000000000000000000000000000000073ffffffffffffffffffffffffffffffffffffffff1663b45a3c0e836040518263ffffffff1660e01b81526004016136ac91906156f4565b606060405180830381865afa1580156136c7573d5f803e3d5ffd5b505050506040513d601f19601f820116820180604052508101906136eb91906163bd565b90505f815f0151600f0b13613735576040517f08c379a000000000000000000000000000000000000000000000000000000000815260040161372c906165a1565b60405180910390fd5b5f815f01516fffffffffffffffffffffffffffffffff169050670de0b6b3a7640000811015613799576040517f08c379a000000000000000000000000000000000000000000000000000000000815260040161379090616a38565b60405180910390fd5b8160400151806137ac5750428260200151115b6137eb576040517f08c379a00000000000000000000000000000000000000000000000000000000081526004016137e290616d70565b60405180910390fd5b3360115f6101000a81548173ffffffffffffffffffffffffffffffffffffffff021916908373ffffffffffffffffffffffffffffffffffffffff16021790555082601281905550600160135f6101000a81548160ff0219169083151502179055507f000000000000000000000000000000000000000000000000000000000000000073ffffffffffffffffffffffffffffffffffffffff166342842e0e3330866040518463ffffffff1660e01b81526004016138a993929190616522565b5f604051808303815f87803b1580156138c0575f80fd5b505af11580156138d2573d5f803e3d5ffd5b5050505060135f9054906101000a900460ff161561394b575f60135f6101000a81548160ff0219169083151502179055505f60115f6101000a81548173ffffffffffffffffffffffffffffffffffffffff021916908373ffffffffffffffffffffffffffffffffffffffff1602179055505f6012819055505b5f6127106101f48361395d91906161e4565b6139679190616252565b90505f818361397691906165bf565b90507f000000000000000000000000000000000000000000000000000000000000000073ffffffffffffffffffffffffffffffffffffffff166340c10f1933836040518363ffffffff1660e01b81526004016139d3929190616be8565b5f604051808303815f87803b1580156139ea575f80fd5b505af11580156139fc573d5f803e3d5ffd5b505050507f000000000000000000000000000000000000000000000000000000000000000073ffffffffffffffffffffffffffffffffffffffff166340c10f197f0000000000000000000000000000000000000000000000000000000000000000846040518363ffffffff1660e01b8152600401613a7b929190616be8565b5f604051808303815f87803b158015613a92575f80fd5b505af1158015613aa4573d5f803e3d5ffd5b50505050601060149054906101000a900460ff168015613b1157505f73ffffffffffffffffffffffffffffffffffffffff16600f5f9054906101000a900473ffffffffffffffffffffffffffffffffffffffff1673ffffffffffffffffffffffffffffffffffffffff1614155b15613b2057613b1f82614c7e565b5b5f613b2a826121d7565b90505f811115613b3f57613b3e3382614e5d565b5b600160085f8881526020019081526020015f205f6101000a81548160ff0219169083151502179055508360095f8881526020019081526020015f20819055505f6006541480613b965750613b94600654614296565b155b15613bae578560068190555042600a81905550613bd5565b600786908060018154018082558091505060019003905f5260205f20015f90919091909150555b8360045f828254613be69190616bb5565b925050819055508360055f828254613bfe9190616bb5565b925050819055505f6007805490501115613c1b57613c1a614604565b5b853373ffffffffffffffffffffffffffffffffffffffff167ff0465677a539bb93c148700330e67565241c32a714babc12337504e430df846d86858786604051613c689493929190615a72565b60405180910390a35050505050613c7d6140fe565b50565b5f630784ce00905090565b5f805f670de0b6b3a76400008410158015613cb157506a084595161401484a0000008411155b613cf0576040517f08c379a0000000000000000000000000000000000000000000000000000000008152600401613ce790616dd8565b60405180910390fd5b6127106101f485613d0191906161e4565b613d0b9190616252565b91508184613d1991906165bf565b9250613d24836121d7565b90509193909250565b613d35614107565b5f73ffffffffffffffffffffffffffffffffffffffff168173ffffffffffffffffffffffffffffffffffffffff1603613da5575f6040517f1e4fbdf7000000000000000000000000000000000000000000000000000000008152600401613d9c91906157b2565b60405180910390fd5b613dae816144df565b50565b60025481565b62093a8081565b601060149054906101000a900460ff1681565b60065481565b6107d081565b613de5614107565b5f73ffffffffffffffffffffffffffffffffffffffff168173ffffffffffffffffffffffffffffffffffffffff1603613e53576040517f08c379a0000000000000000000000000000000000000000000000000000000008152600401613e4a90616e40565b60405180910390fd5b80600e5f6101000a81548173ffffffffffffffffffffffffffffffffffffffff021916908373ffffffffffffffffffffffffffffffffffffffff1602179055506001600b5f8373ffffffffffffffffffffffffffffffffffffffff1673ffffffffffffffffffffffffffffffffffffffff1681526020019081526020015f205f6101000a81548160ff0219169083151502179055508073ffffffffffffffffffffffffffffffffffffffff167f03fbdcba8d54e6c9df9a6526036be2cab01446d5c3e2cb8334727b153b78949a60405160405180910390a250565b613f36614107565b613f3e6140ba565b5f73ffffffffffffffffffffffffffffffffffffffff168173ffffffffffffffffffffffffffffffffffffffff1603613fac576040517f08c379a0000000000000000000000000000000000000000000000000000000008152600401613fa390615f92565b60405180910390fd5b7f000000000000000000000000000000000000000000000000000000000000000073ffffffffffffffffffffffffffffffffffffffff168373ffffffffffffffffffffffffffffffffffffffff160361403a576040517f08c379a000000000000000000000000000000000000000000000000000000000815260040161403190616ea8565b60405180910390fd5b8273ffffffffffffffffffffffffffffffffffffffff166342842e0e3083856040518463ffffffff1660e01b815260040161407793929190616522565b5f604051808303815f87803b15801561408e575f80fd5b505af11580156140a0573d5f803e3d5ffd5b505050506140ac6140fe565b505050565b5f6101f4905090565b60025f54036140f5576040517f3ee5aeb500000000000000000000000000000000000000000000000000000000815260040160405180910390fd5b60025f81905550565b60015f81905550565b61410f61519f565b73ffffffffffffffffffffffffffffffffffffffff1661412d612237565b73ffffffffffffffffffffffffffffffffffffffff161461418c5761415061519f565b6040517f118cdaa700000000000000000000000000000000000000000000000000000000815260040161418391906157b2565b60405180910390fd5b565b5f80600654036141a0575f9050614293565b7f000000000000000000000000000000000000000000000000000000000000000073ffffffffffffffffffffffffffffffffffffffff1663b45a3c0e6006546040518263ffffffff1660e01b81526004016141fb91906156f4565b606060405180830381865afa92505050801561423557506040513d601f19601f8201168201806040525081019061423291906163bd565b60015b614241575f9050614293565b806040015115614254575f915050614293565b5f42826020015111614266575f614277565b42826020015161427691906165bf565b5b9050626ebe00630784ce0061428c91906165bf565b8110925050505b90565b5f8082036142a6575f9050614463565b7f000000000000000000000000000000000000000000000000000000000000000073ffffffffffffffffffffffffffffffffffffffff16636352211e836040518263ffffffff1660e01b81526004016142ff91906156f4565b602060405180830381865afa92505050801561433957506040513d601f19601f820116820180604052508101906143369190616427565b60015b614345575f9050614463565b3073ffffffffffffffffffffffffffffffffffffffff168173ffffffffffffffffffffffffffffffffffffffff1614614381575f915050614463565b7f000000000000000000000000000000000000000000000000000000000000000073ffffffffffffffffffffffffffffffffffffffff1663b45a3c0e846040518263ffffffff1660e01b81526004016143da91906156f4565b606060405180830381865afa92505050801561441457506040513d601f19601f8201168201806040525081019061441191906163bd565b60015b614421575f915050614463565b8060400151158015614437575042816020015111155b15614446575f92505050614463565b5f815f01516fffffffffffffffffffffffffffffffff1611925050505b919050565b6144706151a6565b5f600160146101000a81548160ff0219169083151502179055507f5db9ee0a495bf2e6ff9c91a7834c1ba4fdd244a5e8aa4e537bd38aeae4b073aa6144b361519f565b6040516144c091906157b2565b60405180910390a1565b60606144d783835f6151e6565b905092915050565b5f60015f9054906101000a900473ffffffffffffffffffffffffffffffffffffffff1690508160015f6101000a81548173ffffffffffffffffffffffffffffffffffffffff021916908373ffffffffffffffffffffffffffffffffffffffff1602179055508173ffffffffffffffffffffffffffffffffffffffff168173ffffffffffffffffffffffffffffffffffffffff167f8be0079c531659141344cd1fd0a4f28419497f9722a3daafe3b4186f6b6457e060405160405180910390a35050565b6145aa614aae565b60018060146101000a81548160ff0219169083151502179055507f62e78cea01bee320cd4e420270b5ea74000d11b0c9f74754ebdbfc544b05a2586145ed61519f565b6040516145fa91906157b2565b60405180910390a1565b5f600654148061461c575061461a600654614296565b155b1561474a575f60078054905090505f5b81811015614724575f6007828154811061464957614648616959565b5b905f5260205f20015490505f811415801561467e575060085f8281526020019081526020015f205f9054906101000a900460ff165b801561468f575061468e81614296565b5b15614716578060068190555042600a8190555060076001846146b191906165bf565b815481106146c2576146c1616959565b5b905f5260205f200154600783815481106146df576146de616959565b5b905f5260205f20018190555060078054806146fd576146fc616ec6565b5b600190038181905f5260205f20015f9055905550614724565b50808060010191505061462c565b505f600654148061473d575061473b600654614296565b155b1561474857506149f6565b505b5f5b6007805490508110156149f4575f6007828154811061476e5761476d616959565b5b905f5260205f200154905060085f8281526020019081526020015f205f9054906101000a900460ff1615806147b357505f60095f8381526020019081526020015f2054145b1561483157600760016007805490506147cc91906165bf565b815481106147dd576147dc616959565b5b905f5260205f200154600783815481106147fa576147f9616959565b5b905f5260205f200181905550600780548061481857614817616ec6565b5b600190038181905f5260205f20015f905590555061474c565b7f000000000000000000000000000000000000000000000000000000000000000073ffffffffffffffffffffffffffffffffffffffff1663d1c2babb826006546040518363ffffffff1660e01b815260040161488e929190616b8e565b5f604051808303815f87803b1580156148a5575f80fd5b505af19250505080156148b6575060015b6148cd5781806148c590616c0f565b9250506149ee565b5f60095f8381526020019081526020015f205490508060095f60065481526020019081526020015f205f8282546149049190616bb5565b925050819055505f60095f8481526020019081526020015f20819055505f60085f8481526020019081526020015f205f6101000a81548160ff021916908315150217905550600654827f49bd51028f51abf43a9233b0960acf4625a1ec5bce431c85ebdb1e2246c491e960405160405180910390a36007600160078054905061498d91906165bf565b8154811061499e5761499d616959565b5b905f5260205f200154600784815481106149bb576149ba616959565b5b905f5260205f20018190555060078054806149d9576149d8616ec6565b5b600190038181905f5260205f20015f90559055505b5061474c565b505b565b5f6006541480614a105750614a0e600654614296565b155b614a2d57614a1f6006546152b1565b15614a2c5742600a819055505b5b565b614aa9838473ffffffffffffffffffffffffffffffffffffffff1663a9059cbb8585604051602401614a62929190616be8565b604051602081830303815290604052915060e01b6020820180517bffffffffffffffffffffffffffffffffffffffffffffffffffffffff8381831617835250505050615480565b505050565b614ab6611bb0565b15614aed576040517fd93c066500000000000000000000000000000000000000000000000000000000815260040160405180910390fd5b565b614b6b848573ffffffffffffffffffffffffffffffffffffffff166323b872dd868686604051602401614b2493929190616522565b604051602081830303815290604052915060e01b6020820180517bffffffffffffffffffffffffffffffffffffffffffffffffffffffff8381831617835250505050615480565b50505050565b5f8373ffffffffffffffffffffffffffffffffffffffff1663095ea7b38484604051602401614ba1929190616be8565b604051602081830303815290604052915060e01b6020820180517bffffffffffffffffffffffffffffffffffffffffffffffffffffffff83818316178352505050509050614bef848261551b565b614c7857614c6d848573ffffffffffffffffffffffffffffffffffffffff1663095ea7b3865f604051602401614c26929190616f35565b604051602081830303815290604052915060e01b6020820180517bffffffffffffffffffffffffffffffffffffffffffffffffffffffff8381831617835250505050615480565b614c778482615480565b5b50505050565b5f73ffffffffffffffffffffffffffffffffffffffff16600f5f9054906101000a900473ffffffffffffffffffffffffffffffffffffffff1673ffffffffffffffffffffffffffffffffffffffff161480614cd857505f81145b614e5a57614d48600f5f9054906101000a900473ffffffffffffffffffffffffffffffffffffffff16827f000000000000000000000000000000000000000000000000000000000000000073ffffffffffffffffffffffffffffffffffffffff16614b719092919063ffffffff16565b600f5f9054906101000a900473ffffffffffffffffffffffffffffffffffffffff1673ffffffffffffffffffffffffffffffffffffffff16632ee409087f0000000000000000000000000000000000000000000000000000000000000000836040518363ffffffff1660e01b8152600401614dc4929190616be8565b5f604051808303815f87803b158015614ddb575f80fd5b505af1925050508015614dec575060015b50614e59600f5f9054906101000a900473ffffffffffffffffffffffffffffffffffffffff165f7f000000000000000000000000000000000000000000000000000000000000000073ffffffffffffffffffffffffffffffffffffffff16614b719092919063ffffffff16565b5b50565b5f7f000000000000000000000000000000000000000000000000000000000000000073ffffffffffffffffffffffffffffffffffffffff166318160ddd6040518163ffffffff1660e01b8152600401602060405180830381865afa158015614ec7573d5f803e3d5ffd5b505050506040513d601f19601f82011682018060405250810190614eeb91906163e8565b7f000000000000000000000000000000000000000000000000000000000000000073ffffffffffffffffffffffffffffffffffffffff166332cb6b0c6040518163ffffffff1660e01b8152600401602060405180830381865afa158015614f54573d5f803e3d5ffd5b505050506040513d601f19601f82011682018060405250810190614f7891906163e8565b614f8291906165bf565b90505f8103614f91575061519b565b5f6107d0612710614fa29190616bb5565b90505f8161271084614fb491906161e4565b614fbe9190616252565b905080841115614fcc578093505b5f8403614fdb5750505061519b565b7f000000000000000000000000000000000000000000000000000000000000000073ffffffffffffffffffffffffffffffffffffffff166340c10f1986866040518363ffffffff1660e01b8152600401615036929190616be8565b5f604051808303815f87803b15801561504d575f80fd5b505af115801561505f573d5f803e3d5ffd5b505050505f6127106107d08661507591906161e4565b61507f9190616252565b90505f811115615132577f000000000000000000000000000000000000000000000000000000000000000073ffffffffffffffffffffffffffffffffffffffff166340c10f197f0000000000000000000000000000000000000000000000000000000000000000836040518363ffffffff1660e01b8152600401615104929190616be8565b5f604051808303815f87803b15801561511b575f80fd5b505af115801561512d573d5f803e3d5ffd5b505050505b61514681866151419190616bb5565b615574565b8573ffffffffffffffffffffffffffffffffffffffff167f18b1bc692fecb40d43e3268d581a9a7a784889736e7ba57808943dd66aade2c2868360405161518e929190616b8e565b60405180910390a2505050505b5050565b5f33905090565b6151ae611bb0565b6151e4576040517f8dfc202b00000000000000000000000000000000000000000000000000000000815260040160405180910390fd5b565b60608147101561522f5747826040517fcf479181000000000000000000000000000000000000000000000000000000008152600401615226929190616b8e565b60405180910390fd5b5f808573ffffffffffffffffffffffffffffffffffffffff1684866040516152579190616f8c565b5f6040518083038185875af1925050503d805f8114615291576040519150601f19603f3d011682016040523d82523d5f602084013e615296565b606091505b50915091506152a686838361560c565b925050509392505050565b5f7f000000000000000000000000000000000000000000000000000000000000000073ffffffffffffffffffffffffffffffffffffffff1663b45a3c0e836040518263ffffffff1660e01b815260040161530b91906156f4565b606060405180830381865afa92505050801561534557506040513d601f19601f8201168201806040525081019061534291906163bd565b60015b156154775780604001511561535d575f91505061547b565b5f62093a8080630784ce00426153739190616bb5565b61537d9190616252565b61538791906161e4565b90508082602001511015615474575f8260200151826153a691906165bf565b90507f000000000000000000000000000000000000000000000000000000000000000073ffffffffffffffffffffffffffffffffffffffff16639d507b8b86836040518363ffffffff1660e01b8152600401615403929190616b8e565b5f604051808303815f87803b15801561541a575f80fd5b505af115801561542c573d5f803e3d5ffd5b50505050847f391720699cdbd0714c065944cb26f8516e054d2a25379753490902f83a6ec74f8360405161546091906156f4565b60405180910390a26001935050505061547b565b50505b5f90505b919050565b5f8060205f8451602086015f885af18061549f576040513d5f823e3d81fd5b3d92505f519150505f82146154b85760018114156154d3565b5f8473ffffffffffffffffffffffffffffffffffffffff163b145b1561551557836040517f5274afe700000000000000000000000000000000000000000000000000000000815260040161550c91906157b2565b60405180910390fd5b50505050565b5f805f8060205f8651602088015f8a5af192503d91505f51905082801561556957505f821461554d5760018114615568565b5f8673ffffffffffffffffffffffffffffffffffffffff163b115b5b935050505092915050565b5f600354905081816155869190616bb5565b6003819055505f6a0422ca8b0a00a425000000826155a49190616252565b90505f6a0422ca8b0a00a4250000006003546155c09190616252565b905081811115615606577ff671ceb9e5a5c196536cd84950cf91452f22723bb0fc4ff527212baa8ac0a291816003546040516155fd929190616b8e565b60405180910390a15b50505050565b6060826156215761561c82615699565b615691565b5f825114801561564757505f8473ffffffffffffffffffffffffffffffffffffffff163b145b1561568957836040517f9996b31500000000000000000000000000000000000000000000000000000000815260040161568091906157b2565b60405180910390fd5b819050615692565b5b9392505050565b5f815111156156aa57805160208201fd5b6040517fd6bda27500000000000000000000000000000000000000000000000000000000815260040160405180910390fd5b5f819050919050565b6156ee816156dc565b82525050565b5f6020820190506157075f8301846156e5565b92915050565b5f604051905090565b5f80fd5b5f80fd5b615727816156dc565b8114615731575f80fd5b50565b5f813590506157428161571e565b92915050565b5f6020828403121561575d5761575c615716565b5b5f61576a84828501615734565b91505092915050565b5f73ffffffffffffffffffffffffffffffffffffffff82169050919050565b5f61579c82615773565b9050919050565b6157ac81615792565b82525050565b5f6020820190506157c55f8301846157a3565b92915050565b6157d481615792565b81146157de575f80fd5b50565b5f813590506157ef816157cb565b92915050565b5f6020828403121561580a57615809615716565b5b5f615817848285016157e1565b91505092915050565b5f8115159050919050565b61583481615820565b82525050565b5f60208201905061584d5f83018461582b565b92915050565b5f80fd5b5f80fd5b5f80fd5b5f8083601f84011261587457615873615853565b5b8235905067ffffffffffffffff81111561589157615890615857565b5b6020830191508360018202830111156158ad576158ac61585b565b5b9250929050565b5f805f805f608086880312156158cd576158cc615716565b5b5f6158da888289016157e1565b95505060206158eb888289016157e1565b94505060406158fc88828901615734565b935050606086013567ffffffffffffffff81111561591d5761591c61571a565b5b6159298882890161585f565b92509250509295509295909350565b5f7fffffffff0000000000000000000000000000000000000000000000000000000082169050919050565b61596c81615938565b82525050565b5f6020820190506159855f830184615963565b92915050565b5f6101608201905061599f5f83018e6156e5565b6159ac602083018d6156e5565b6159b9604083018c6156e5565b6159c6606083018b6156e5565b6159d3608083018a6156e5565b6159e060a08301896156e5565b6159ed60c08301886156e5565b6159fa60e08301876156e5565b615a086101008301866156e5565b615a1661012083018561582b565b615a2461014083018461582b565b9c9b505050505050505050505050565b5f8060408385031215615a4a57615a49615716565b5b5f615a5785828601615734565b9250506020615a68858286016157e1565b9150509250929050565b5f608082019050615a855f8301876156e5565b615a9260208301866156e5565b615a9f60408301856156e5565b615aac60608301846156e5565b95945050505050565b5f805f8060608587031215615acd57615acc615716565b5b5f615ada87828801615734565b9450506020615aeb878288016157e1565b935050604085013567ffffffffffffffff811115615b0c57615b0b61571a565b5b615b188782880161585f565b925092505092959194509250565b5f81519050919050565b5f82825260208201905092915050565b5f5b83811015615b5d578082015181840152602081019050615b42565b5f8484015250505050565b5f601f19601f8301169050919050565b5f615b8282615b26565b615b8c8185615b30565b9350615b9c818560208601615b40565b615ba581615b68565b840191505092915050565b5f6020820190508181035f830152615bc88184615b78565b905092915050565b615bd981615820565b8114615be3575f80fd5b50565b5f81359050615bf481615bd0565b92915050565b5f60208284031215615c0f57615c0e615716565b5b5f615c1c84828501615be6565b91505092915050565b5f8060408385031215615c3b57615c3a615716565b5b5f615c48858286016157e1565b9250506020615c5985828601615be6565b9150509250929050565b5f8083601f840112615c7857615c77615853565b5b8235905067ffffffffffffffff811115615c9557615c94615857565b5b602083019150836020820283011115615cb157615cb061585b565b5b9250929050565b5f805f60408486031215615ccf57615cce615716565b5b5f84013567ffffffffffffffff811115615cec57615ceb61571a565b5b615cf886828701615c63565b93509350506020615d0b868287016157e1565b9150509250925092565b5f81519050919050565b5f82825260208201905092915050565b5f819050602082019050919050565b615d47816156dc565b82525050565b5f615d588383615d3e565b60208301905092915050565b5f602082019050919050565b5f615d7a82615d15565b615d848185615d1f565b9350615d8f83615d2f565b805f5b83811015615dbf578151615da68882615d4d565b9750615db183615d64565b925050600181019050615d92565b5085935050505092915050565b5f6020820190508181035f830152615de48184615d70565b905092915050565b5f60c082019050615dff5f83018961582b565b615e0c60208301886156e5565b615e1960408301876156e5565b615e2660608301866156e5565b615e33608083018561582b565b615e4060a083018461582b565b979650505050505050565b5f606082019050615e5e5f8301866156e5565b615e6b60208301856156e5565b615e7860408301846156e5565b949350505050565b5f805f60608486031215615e9757615e96615716565b5b5f615ea4868287016157e1565b9350506020615eb586828701615734565b9250506040615ec6868287016157e1565b9150509250925092565b5f82825260208201905092915050565b7f4e6f7420617574686f72697a65640000000000000000000000000000000000005f82015250565b5f615f14600e83615ed0565b9150615f1f82615ee0565b602082019050919050565b5f6020820190508181035f830152615f4181615f08565b9050919050565b7f496e76616c696420726563697069656e740000000000000000000000000000005f82015250565b5f615f7c601183615ed0565b9150615f8782615f48565b602082019050919050565b5f6020820190508181035f830152615fa981615f70565b9050919050565b5f81905092915050565b50565b5f615fc85f83615fb0565b9150615fd382615fba565b5f82019050919050565b5f615fe782615fbd565b9150819050919050565b7f455448207472616e73666572206661696c6564000000000000000000000000005f82015250565b5f616025601383615ed0565b915061603082615ff1565b602082019050919050565b5f6020820190508181035f83015261605281616019565b9050919050565b7f496e76616c6964207374616b696e67206469737472696275746f7200000000005f82015250565b5f61608d601b83615ed0565b915061609882616059565b602082019050919050565b5f6020820190508181035f8301526160ba81616081565b9050919050565b7f455243373231206e6f7420616c6c6f77656400000000000000000000000000005f82015250565b5f6160f5601283615ed0565b9150616100826160c1565b602082019050919050565b5f6020820190508181035f830152616122816160e9565b9050919050565b7f4469726563742076654e4654207472616e73666572206e6f7420616c6c6f77655f8201527f6400000000000000000000000000000000000000000000000000000000000000602082015250565b5f616183602183615ed0565b915061618e82616129565b604082019050919050565b5f6020820190508181035f8301526161b081616177565b9050919050565b7f4e487b71000000000000000000000000000000000000000000000000000000005f52601160045260245ffd5b5f6161ee826156dc565b91506161f9836156dc565b9250828202616207816156dc565b9150828204841483151761621e5761621d6161b7565b5b5092915050565b7f4e487b71000000000000000000000000000000000000000000000000000000005f52601260045260245ffd5b5f61625c826156dc565b9150616267836156dc565b92508261627757616276616225565b5b828204905092915050565b5f80fd5b7f4e487b71000000000000000000000000000000000000000000000000000000005f52604160045260245ffd5b6162bc82615b68565b810181811067ffffffffffffffff821117156162db576162da616286565b5b80604052505050565b5f6162ed61570d565b90506162f982826162b3565b919050565b5f81600f0b9050919050565b616313816162fe565b811461631d575f80fd5b50565b5f8151905061632e8161630a565b92915050565b5f815190506163428161571e565b92915050565b5f8151905061635681615bd0565b92915050565b5f6060828403121561637157616370616282565b5b61637b60606162e4565b90505f61638a84828501616320565b5f83015250602061639d84828501616334565b60208301525060406163b184828501616348565b60408301525092915050565b5f606082840312156163d2576163d1615716565b5b5f6163df8482850161635c565b91505092915050565b5f602082840312156163fd576163fc615716565b5b5f61640a84828501616334565b91505092915050565b5f81519050616421816157cb565b92915050565b5f6020828403121561643c5761643b615716565b5b5f61644984828501616413565b91505092915050565b7f4e6f74206f776e6564206279207661756c7400000000000000000000000000005f82015250565b5f616486601283615ed0565b915061649182616452565b602082019050919050565b5f6020820190508181035f8301526164b38161647a565b9050919050565b7f4d616e61676564204e46540000000000000000000000000000000000000000005f82015250565b5f6164ee600b83615ed0565b91506164f9826164ba565b602082019050919050565b5f6020820190508181035f83015261651b816164e2565b9050919050565b5f6060820190506165355f8301866157a3565b61654260208301856157a3565b61654f60408301846156e5565b949350505050565b7f4e6f206c6f636b65642062616c616e63650000000000000000000000000000005f82015250565b5f61658b601183615ed0565b915061659682616557565b602082019050919050565b5f6020820190508181035f8301526165b88161657f565b9050919050565b5f6165c9826156dc565b91506165d4836156dc565b92508282039050818111156165ec576165eb6161b7565b5b92915050565b7f4e4654206e6f74206d616e6167656400000000000000000000000000000000005f82015250565b5f616626600f83615ed0565b9150616631826165f2565b602082019050919050565b5f6020820190508181035f8301526166538161661a565b9050919050565b7f546172676574206e6f7420617574686f72697a656400000000000000000000005f82015250565b5f61668e601583615ed0565b91506166998261665a565b602082019050919050565b5f6020820190508181035f8301526166bb81616682565b9050919050565b7f496e76616c6964207461726765740000000000000000000000000000000000005f82015250565b5f6166f6600e83615ed0565b9150616701826166c2565b602082019050919050565b5f6020820190508181035f830152616723816166ea565b9050919050565b7f4c495120616c7265616479206d696e74656400000000000000000000000000005f82015250565b5f61675e601283615ed0565b91506167698261672a565b602082019050919050565b5f6020820190508181035f83015261678b81616752565b9050919050565b7f496e76616c6964207261746500000000000000000000000000000000000000005f82015250565b5f6167c6600c83615ed0565b91506167d182616792565b602082019050919050565b5f6020820190508181035f8301526167f3816167ba565b9050919050565b7f496e76616c6964206b65657065720000000000000000000000000000000000005f82015250565b5f61682e600e83615ed0565b9150616839826167fa565b602082019050919050565b5f6020820190508181035f83015261685b81616822565b9050919050565b7f4e6f74206b6565706572206f72206f776e6572000000000000000000000000005f82015250565b5f616896601383615ed0565b91506168a182616862565b602082019050919050565b5f6020820190508181035f8301526168c38161688a565b9050919050565b5f6040820190506168dd5f83018561582b565b6168ea602083018461582b565b9392505050565b7f496e76616c696420766f74696e67206d616e61676572000000000000000000005f82015250565b5f616925601683615ed0565b9150616930826168f1565b602082019050919050565b5f6020820190508181035f83015261695281616919565b9050919050565b7f4e487b71000000000000000000000000000000000000000000000000000000005f52603260045260245ffd5b7f456d657267656e637920706175736520616374697665000000000000000000005f82015250565b5f6169ba601683615ed0565b91506169c582616986565b602082019050919050565b5f6020820190508181035f8301526169e7816169ae565b9050919050565b7f42656c6f77206d696e696d756d000000000000000000000000000000000000005f82015250565b5f616a22600d83615ed0565b9150616a2d826169ee565b602082019050919050565b5f6020820190508181035f830152616a4f81616a16565b9050919050565b7f45786365656473206d6178696d756d00000000000000000000000000000000005f82015250565b5f616a8a600f83615ed0565b9150616a9582616a56565b602082019050919050565b5f6020820190508181035f830152616ab781616a7e565b9050919050565b7f4e6f207072696d617279204e46540000000000000000000000000000000000005f82015250565b5f616af2600e83615ed0565b9150616afd82616abe565b602082019050919050565b5f6020820190508181035f830152616b1f81616ae6565b9050919050565b7f5072696d617279204e465420696e76616c6964000000000000000000000000005f82015250565b5f616b5a601383615ed0565b9150616b6582616b26565b602082019050919050565b5f6020820190508181035f830152616b8781616b4e565b9050919050565b5f604082019050616ba15f8301856156e5565b616bae60208301846156e5565b9392505050565b5f616bbf826156dc565b9150616bca836156dc565b9250828201905080821115616be257616be16161b7565b5b92915050565b5f604082019050616bfb5f8301856157a3565b616c0860208301846156e5565b9392505050565b5f616c19826156dc565b91507fffffffffffffffffffffffffffffffffffffffffffffffffffffffffffffffff8203616c4b57616c4a6161b7565b5b600182019050919050565b7f4e465420616c7265616479206d616e61676564000000000000000000000000005f82015250565b5f616c8a601383615ed0565b9150616c9582616c56565b602082019050919050565b5f6020820190508181035f830152616cb781616c7e565b9050919050565b7f4e6f74204e4654206f776e6572000000000000000000000000000000000000005f82015250565b5f616cf2600d83615ed0565b9150616cfd82616cbe565b602082019050919050565b5f6020820190508181035f830152616d1f81616ce6565b9050919050565b7f4e465420657870697265640000000000000000000000000000000000000000005f82015250565b5f616d5a600b83615ed0565b9150616d6582616d26565b602082019050919050565b5f6020820190508181035f830152616d8781616d4e565b9050919050565b7f496e76616c696420616d6f756e740000000000000000000000000000000000005f82015250565b5f616dc2600e83615ed0565b9150616dcd82616d8e565b602082019050919050565b5f6020820190508181035f830152616def81616db6565b9050919050565b7f496e76616c6964207265776172647320636f6c6c6563746f72000000000000005f82015250565b5f616e2a601983615ed0565b9150616e3582616df6565b602082019050919050565b5f6020820190508181035f830152616e5781616e1e565b9050919050565b7f5573652072657363756556654e465400000000000000000000000000000000005f82015250565b5f616e92600f83615ed0565b9150616e9d82616e5e565b602082019050919050565b5f6020820190508181035f830152616ebf81616e86565b9050919050565b7f4e487b71000000000000000000000000000000000000000000000000000000005f52603160045260245ffd5b5f819050919050565b5f819050919050565b5f616f1f616f1a616f1584616ef3565b616efc565b6156dc565b9050919050565b616f2f81616f05565b82525050565b5f604082019050616f485f8301856157a3565b616f556020830184616f26565b9392505050565b5f616f6682615b26565b616f708185615fb0565b9350616f80818560208601615b40565b80840191505092915050565b5f616f978284616f5c565b91508190509291505056fea264697066735822122098145c3dbaf7d59259cad839064c453e3e4586940e78514c6f969cb233e6ef1364736f6c63430008180033","linkReferences":{}},"methodIdentifiers":{"AERO()":"1691bd6f","BPS_BASE()":"9eaa1b09","HALVING_STEP()":"b1d67195","LIQ()":"586d13b3","MAXTIME()":"ee00ef3a","MAX_LOCK_DURATION()":"4f1bfc9e","MAX_SINGLE_LOCK()":"05907e30","MIN_DEPOSIT()":"e1e158a5","PROTOCOL_FEE_BPS()":"be378228","TREASURY_LIQ_BPS()":"f992b148","WEEK()":"f4359ce5","additionalNFTs(uint256)":"07f4b51c","authorized(address)":"b9181611","authorizedTargets(address)":"1376e70a","autoStakeTreasuryFees()":"f4ffb3af","baseEmissionRate()":"f317ca3d","calculateLIQAmount(uint256)":"820ff6e6","deposit(uint256)":"b6b55f25","depositVeNFT(uint256)":"e9ddf3a3","emergencyPause()":"51858e27","executeNFTAction(uint256,address,bytes)":"62d0ce28","getCurrentEmissionRate()":"8fe906d5","getManagedNFTs()":"bfe95ce6","getNFTInfo(uint256)":"d188929f","getProtocolEffectiveShare()":"b3c20c05","getProtocolShareBPS()":"fc83ca51","getTotalValueLocked()":"b26025aa","iAERO()":"c8b11537","isManaged(uint256)":"55b6cce1","keeper()":"aced1661","lastRebaseTime()":"1924063e","nftLockedAmount(uint256)":"d57dc6fc","onERC721Received(address,address,uint256,bytes)":"150b7a02","owner()":"8da5cb5b","pause()":"8456cb59","paused()":"5c975abb","performMaintenance()":"8fb062b0","previewDeposit(uint256)":"ef8b30f7","previewDepositVeNFT(uint256)":"578c963d","primaryNFT()":"f7d8252d","renounceOwnership()":"715018a6","rescueERC721(address,uint256,address)":"fa3e4705","rescueVeNFT(uint256,address)":"3e01b229","rewardsCollector()":"7ddb7902","setAuthorized(address,bool)":"711bf9b2","setAuthorizedTarget(address,bool)":"a3b41662","setAutoStakeTreasuryFees(bool)":"6d5c9e59","setBaseEmissionRate(uint256)":"67546e1e","setEmergencyPause(bool)":"d8d1a657","setKeeper(address)":"748747e6","setRewardsCollector(address)":"fa1979a4","setStakingDistributor(address)":"1504ade6","setVotingManager(address)":"972fd7fb","stakingDistributor()":"11053595","sweepERC20(address[],address)":"9ed2e575","sweepETH(address)":"1163b2b0","totalAEROLocked()":"25bf91d0","totalIAEROMinted()":"800beed9","totalLIQMinted()":"b76675e8","transferOwnership(address)":"f2fde38b","treasury()":"61d027b3","unpause()":"3f4ba83a","vaultStatus()":"24a8166e","veAERO()":"c334c264","votingManager()":"da1bcdf0"},"id":53}