{"abi":[{"type":"constructor","inputs":[],"stateMutability":"nonpayable"},{"type":"function","name":"DEFAULT_ADMIN_ROLE","inputs":[],"outputs":[{"name":"","type":"bytes32","internalType":"bytes32"}],"stateMutability":"view"},{"type":"function","name":"DOMAIN_SEPARATOR","inputs":[],"outputs":[{"name":"","type":"bytes32","internalType":"bytes32"}],"stateMutability":"view"},{"type":"function","name":"MAX_SUPPLY","inputs":[],"outputs":[{"name":"","type":"uint256","internalType":"uint256"}],"stateMutability":"view"},{"type":"function","name":"MINTER_ROLE","inputs":[],"outputs":[{"name":"","type":"bytes32","internalType":"bytes32"}],"stateMutability":"view"},{"type":"function","name":"allowance","inputs":[{"name":"owner","type":"address","internalType":"address"},{"name":"spender","type":"address","internalType":"address"}],"outputs":[{"name":"","type":"uint256","internalType":"uint256"}],"stateMutability":"view"},{"type":"function","name":"approve","inputs":[{"name":"spender","type":"address","internalType":"address"},{"name":"value","type":"uint256","internalType":"uint256"}],"outputs":[{"name":"","type":"bool","internalType":"bool"}],"stateMutability":"nonpayable"},{"type":"function","name":"balanceOf","inputs":[{"name":"account","type":"address","internalType":"address"}],"outputs":[{"name":"","type":"uint256","internalType":"uint256"}],"stateMutability":"view"},{"type":"function","name":"burn","inputs":[{"name":"amount","type":"uint256","internalType":"uint256"}],"outputs":[],"stateMutability":"nonpayable"},{"type":"function","name":"decimals","inputs":[],"outputs":[{"name":"","type":"uint8","internalType":"uint8"}],"stateMutability":"view"},{"type":"function","name":"eip712Domain","inputs":[],"outputs":[{"name":"fields","type":"bytes1","internalType":"bytes1"},{"name":"name","type":"string","internalType":"string"},{"name":"version","type":"string","internalType":"string"},{"name":"chainId","type":"uint256","internalType":"uint256"},{"name":"verifyingContract","type":"address","internalType":"address"},{"name":"salt","type":"bytes32","internalType":"bytes32"},{"name":"extensions","type":"uint256[]","internalType":"uint256[]"}],"stateMutability":"view"},{"type":"function","name":"getRoleAdmin","inputs":[{"name":"role","type":"bytes32","internalType":"bytes32"}],"outputs":[{"name":"","type":"bytes32","internalType":"bytes32"}],"stateMutability":"view"},{"type":"function","name":"grantRole","inputs":[{"name":"role","type":"bytes32","internalType":"bytes32"},{"name":"account","type":"address","internalType":"address"}],"outputs":[],"stateMutability":"nonpayable"},{"type":"function","name":"hasRole","inputs":[{"name":"role","type":"bytes32","internalType":"bytes32"},{"name":"account","type":"address","internalType":"address"}],"outputs":[{"name":"","type":"bool","internalType":"bool"}],"stateMutability":"view"},{"type":"function","name":"mint","inputs":[{"name":"to","type":"address","internalType":"address"},{"name":"amount","type":"uint256","internalType":"uint256"}],"outputs":[],"stateMutability":"nonpayable"},{"type":"function","name":"name","inputs":[],"outputs":[{"name":"","type":"string","internalType":"string"}],"stateMutability":"view"},{"type":"function","name":"nonces","inputs":[{"name":"owner","type":"address","internalType":"address"}],"outputs":[{"name":"","type":"uint256","internalType":"uint256"}],"stateMutability":"view"},{"type":"function","name":"permit","inputs":[{"name":"owner","type":"address","internalType":"address"},{"name":"spender","type":"address","internalType":"address"},{"name":"value","type":"uint256","internalType":"uint256"},{"name":"deadline","type":"uint256","internalType":"uint256"},{"name":"v","type":"uint8","internalType":"uint8"},{"name":"r","type":"bytes32","internalType":"bytes32"},{"name":"s","type":"bytes32","internalType":"bytes32"}],"outputs":[],"stateMutability":"nonpayable"},{"type":"function","name":"remainingMintableSupply","inputs":[],"outputs":[{"name":"","type":"uint256","internalType":"uint256"}],"stateMutability":"view"},{"type":"function","name":"renounceRole","inputs":[{"name":"role","type":"bytes32","internalType":"bytes32"},{"name":"callerConfirmation","type":"address","internalType":"address"}],"outputs":[],"stateMutability":"nonpayable"},{"type":"function","name":"revokeRole","inputs":[{"name":"role","type":"bytes32","internalType":"bytes32"},{"name":"account","type":"address","internalType":"address"}],"outputs":[],"stateMutability":"nonpayable"},{"type":"function","name":"supportsInterface","inputs":[{"name":"interfaceId","type":"bytes4","internalType":"bytes4"}],"outputs":[{"name":"","type":"bool","internalType":"bool"}],"stateMutability":"view"},{"type":"function","name":"symbol","inputs":[],"outputs":[{"name":"","type":"string","internalType":"string"}],"stateMutability":"view"},{"type":"function","name":"totalSupply","inputs":[],"outputs":[{"name":"","type":"uint256","internalType":"uint256"}],"stateMutability":"view"},{"type":"function","name":"transfer","inputs":[{"name":"to","type":"address","internalType":"address"},{"name":"value","type":"uint256","internalType":"uint256"}],"outputs":[{"name":"","type":"bool","internalType":"bool"}],"stateMutability":"nonpayable"},{"type":"function","name":"transferFrom","inputs":[{"name":"from","type":"address","internalType":"address"},{"name":"to","type":"address","internalType":"address"},{"name":"value","type":"uint256","internalType":"uint256"}],"outputs":[{"name":"","type":"bool","internalType":"bool"}],"stateMutability":"nonpayable"},{"type":"event","name":"Approval","inputs":[{"name":"owner","type":"address","indexed":true,"internalType":"address"},{"name":"spender","type":"address","indexed":true,"internalType":"address"},{"name":"value","type":"uint256","indexed":false,"internalType":"uint256"}],"anonymous":false},{"type":"event","name":"Burned","inputs":[{"name":"from","type":"address","indexed":true,"internalType":"address"},{"name":"amount","type":"uint256","indexed":false,"internalType":"uint256"}],"anonymous":false},{"type":"event","name":"EIP712DomainChanged","inputs":[],"anonymous":false},{"type":"event","name":"Minted","inputs":[{"name":"to","type":"address","indexed":true,"internalType":"address"},{"name":"amount","type":"uint256","indexed":false,"internalType":"uint256"}],"anonymous":false},{"type":"event","name":"RoleAdminChanged","inputs":[{"name":"role","type":"bytes32","indexed":true,"internalType":"bytes32"},{"name":"previousAdminRole","type":"bytes32","indexed":true,"internalType":"bytes32"},{"name":"newAdminRole","type":"bytes32","indexed":true,"internalType":"bytes32"}],"anonymous":false},{"type":"event","name":"RoleGranted","inputs":[{"name":"role","type":"bytes32","indexed":true,"internalType":"bytes32"},{"name":"account","type":"address","indexed":true,"internalType":"address"},{"name":"sender","type":"address","indexed":true,"internalType":"address"}],"anonymous":false},{"type":"event","name":"RoleRevoked","inputs":[{"name":"role","type":"bytes32","indexed":true,"internalType":"bytes32"},{"name":"account","type":"address","indexed":true,"internalType":"address"},{"name":"sender","type":"address","indexed":true,"internalType":"address"}],"anonymous":false},{"type":"event","name":"Transfer","inputs":[{"name":"from","type":"address","indexed":true,"internalType":"address"},{"name":"to","type":"address","indexed":true,"internalType":"address"},{"name":"value","type":"uint256","indexed":false,"internalType":"uint256"}],"anonymous":false},{"type":"error","name":"AccessControlBadConfirmation","inputs":[]},{"type":"error","name":"AccessControlUnauthorizedAccount","inputs":[{"name":"account","type":"address","internalType":"address"},{"name":"neededRole","type":"bytes32","internalType":"bytes32"}]},{"type":"error","name":"ECDSAInvalidSignature","inputs":[]},{"type":"error","name":"ECDSAInvalidSignatureLength","inputs":[{"name":"length","type":"uint256","internalType":"uint256"}]},{"type":"error","name":"ECDSAInvalidSignatureS","inputs":[{"name":"s","type":"bytes32","internalType":"bytes32"}]},{"type":"error","name":"ERC20InsufficientAllowance","inputs":[{"name":"spender","type":"address","internalType":"address"},{"name":"allowance","type":"uint256","internalType":"uint256"},{"name":"needed","type":"uint256","internalType":"uint256"}]},{"type":"error","name":"ERC20InsufficientBalance","inputs":[{"name":"sender","type":"address","internalType":"address"},{"name":"balance","type":"uint256","internalType":"uint256"},{"name":"needed","type":"uint256","internalType":"uint256"}]},{"type":"error","name":"ERC20InvalidApprover","inputs":[{"name":"approver","type":"address","internalType":"address"}]},{"type":"error","name":"ERC20InvalidReceiver","inputs":[{"name":"receiver","type":"address","internalType":"address"}]},{"type":"error","name":"ERC20InvalidSender","inputs":[{"name":"sender","type":"address","internalType":"address"}]},{"type":"error","name":"ERC20InvalidSpender","inputs":[{"name":"spender","type":"address","internalType":"address"}]},{"type":"error","name":"ERC2612ExpiredSignature","inputs":[{"name":"deadline","type":"uint256","internalType":"uint256"}]},{"type":"error","name":"ERC2612InvalidSigner","inputs":[{"name":"signer","type":"address","internalType":"address"},{"name":"owner","type":"address","internalType":"address"}]},{"type":"error","name":"InvalidAccountNonce","inputs":[{"name":"account","type":"address","internalType":"address"},{"name":"currentNonce","type":"uint256","internalType":"uint256"}]},{"type":"error","name":"InvalidShortString","inputs":[]},{"type":"error","name":"StringTooLong","inputs":[{"name":"str","type":"string","internalType":"string"}]}],"bytecode":{"object":"0x6101606040523480156200001257600080fd5b5060405180604001604052806006815260200165131a5c5d5a5960d21b81525080604051806040016040528060018152602001603160f81b81525060405180604001604052806006815260200165131a5c5d5a5960d21b815250604051806040016040528060038152602001624c495160e81b815250816003908162000099919062000355565b506004620000a8828262000355565b50620000ba9150839050600562000177565b61012052620000cb81600662000177565b61014052815160208084019190912060e052815190820120610100524660a0526200015960e05161010051604080517f8b73c3c69bb8fe3d512ecc4cf759cc79239f7b179b0ffacaa9a75d522b39400f60208201529081019290925260608201524660808201523060a082015260009060c00160405160208183030381529060405280519060200120905090565b60805250503060c0525062000170600033620001b0565b5062000497565b600060208351101562000197576200018f8362000262565b9050620001aa565b81620001a4848262000355565b5060ff90505b92915050565b60008281526008602090815260408083206001600160a01b038516845290915281205460ff16620002595760008381526008602090815260408083206001600160a01b03861684529091529020805460ff19166001179055620002103390565b6001600160a01b0316826001600160a01b0316847f2f8788117e7eff1d82e926ec794901d17c78024a50270940304540a733656f0d60405160405180910390a4506001620001aa565b506000620001aa565b600080829050601f8151111562000299578260405163305a27a960e01b815260040162000290919062000421565b60405180910390fd5b8051620002a68262000472565b179392505050565b634e487b7160e01b600052604160045260246000fd5b600181811c90821680620002d957607f821691505b602082108103620002fa57634e487b7160e01b600052602260045260246000fd5b50919050565b601f82111562000350576000816000526020600020601f850160051c810160208610156200032b5750805b601f850160051c820191505b818110156200034c5782815560010162000337565b5050505b505050565b81516001600160401b03811115620003715762000371620002ae565b6200038981620003828454620002c4565b8462000300565b602080601f831160018114620003c15760008415620003a85750858301515b600019600386901b1c1916600185901b1785556200034c565b600085815260208120601f198616915b82811015620003f257888601518255948401946001909101908401620003d1565b5085821015620004115787850151600019600388901b60f8161c191681555b5050505050600190811b01905550565b60006020808352835180602085015260005b81811015620004515785810183015185820160400152820162000433565b506000604082860101526040601f19601f8301168501019250505092915050565b80516020808301519190811015620002fa5760001960209190910360031b1b16919050565b60805160a05160c05160e0516101005161012051610140516115ad620004f26000396000610cf601526000610cc901526000610b9401526000610b6c01526000610ac701526000610af101526000610b1b01526115ad6000f3fe608060405234801561001057600080fd5b50600436106101735760003560e01c806340c10f19116100de57806395d89b4111610097578063d505accf11610071578063d505accf1461031c578063d53913931461032f578063d547741f14610356578063dd62ed3e1461036957600080fd5b806395d89b41146102f9578063a217fddf14610301578063a9059cbb1461030957600080fd5b806340c10f191461026957806342966c681461027c57806370a082311461028f5780637ecebe00146102b857806384b0196e146102cb57806391d14854146102e657600080fd5b80632f2ff15d116101305780632f2ff15d14610210578063313ce5671461022557806332cb6b0c14610234578063349f0b90146102465780633644e5151461024e57806336568abe1461025657600080fd5b806301ffc9a71461017857806306fdde03146101a0578063095ea7b3146101b557806318160ddd146101c857806323b872dd146101da578063248a9ca3146101ed575b600080fd5b61018b610186366004611249565b6103a2565b60405190151581526020015b60405180910390f35b6101a86103d9565b60405161019791906112c0565b61018b6101c33660046112ef565b61046b565b6002545b604051908152602001610197565b61018b6101e8366004611319565b610483565b6101cc6101fb366004611355565b60009081526008602052604090206001015490565b61022361021e36600461136e565b6104a7565b005b60405160128152602001610197565b6101cc6a52b7d2dcc80cd2e400000081565b6101cc6104d2565b6101cc6104f7565b61022361026436600461136e565b610501565b6102236102773660046112ef565b610539565b61022361028a366004611355565b6106a9565b6101cc61029d36600461139a565b6001600160a01b031660009081526020819052604090205490565b6101cc6102c636600461139a565b610729565b6102d3610747565b60405161019797969594939291906113b5565b61018b6102f436600461136e565b61078d565b6101a86107b8565b6101cc600081565b61018b6103173660046112ef565b6107c7565b61022361032a36600461144e565b6107d5565b6101cc7f9f2df0fed2c77648de5860a4cc508cd0818c85b8b8a1ab4ceeef8d981c8956a681565b61022361036436600461136e565b61090f565b6101cc6103773660046114c1565b6001600160a01b03918216600090815260016020908152604080832093909416825291909152205490565b60006001600160e01b03198216637965db0b60e01b14806103d357506301ffc9a760e01b6001600160e01b03198316145b92915050565b6060600380546103e8906114eb565b80601f0160208091040260200160405190810160405280929190818152602001828054610414906114eb565b80156104615780601f1061043657610100808354040283529160200191610461565b820191906000526020600020905b81548152906001019060200180831161044457829003601f168201915b5050505050905090565b600033610479818585610934565b5060019392505050565b600033610491858285610941565b61049c8585856109ba565b506001949350505050565b6000828152600860205260409020600101546104c281610a19565b6104cc8383610a26565b50505050565b60006104dd60025490565b6104f2906a52b7d2dcc80cd2e400000061153b565b905090565b60006104f2610aba565b6001600160a01b038116331461052a5760405163334bd91960e11b815260040160405180910390fd5b6105348282610be5565b505050565b7f9f2df0fed2c77648de5860a4cc508cd0818c85b8b8a1ab4ceeef8d981c8956a661056381610a19565b6001600160a01b0383166105b55760405162461bcd60e51b81526020600482015260146024820152734d696e7420746f207a65726f206164647265737360601b60448201526064015b60405180910390fd5b600082116105f35760405162461bcd60e51b815260206004820152600b60248201526a16995c9bc8185b5bdd5b9d60aa1b60448201526064016105ac565b6a52b7d2dcc80cd2e40000008261060960025490565b610613919061154e565b11156106575760405162461bcd60e51b815260206004820152601360248201527213585e081cdd5c1c1b1e48195e18d959591959606a1b60448201526064016105ac565b6106618383610c52565b826001600160a01b03167f30385c845b448a36257a6a1716e6ad2e1bc2cbe333cde1e69fe849ad6511adfe8360405161069c91815260200190565b60405180910390a2505050565b600081116106e75760405162461bcd60e51b815260206004820152600b60248201526a16995c9bc8185b5bdd5b9d60aa1b60448201526064016105ac565b6106f13382610c8c565b60405181815233907f696de425f79f4a40bc6d2122ca50507f0efbeabbff86a84871b7196ab8ea8df79060200160405180910390a250565b6001600160a01b0381166000908152600760205260408120546103d3565b60006060806000806000606061075b610cc2565b610763610cef565b60408051600080825260208201909252600f60f81b9b939a50919850469750309650945092509050565b60009182526008602090815260408084206001600160a01b0393909316845291905290205460ff1690565b6060600480546103e8906114eb565b6000336104798185856109ba565b834211156107f95760405163313c898160e11b8152600481018590526024016105ac565b60007f6e71edae12b1b97f4d1f60370fef10105fa2faae0126114a169c64845d6126c98888886108468c6001600160a01b0316600090815260076020526040902080546001810190915590565b6040805160208101969096526001600160a01b0394851690860152929091166060840152608083015260a082015260c0810186905260e00160405160208183030381529060405280519060200120905060006108a182610d1c565b905060006108b182878787610d49565b9050896001600160a01b0316816001600160a01b0316146108f8576040516325c0072360e11b81526001600160a01b0380831660048301528b1660248201526044016105ac565b6109038a8a8a610934565b50505050505050505050565b60008281526008602052604090206001015461092a81610a19565b6104cc8383610be5565b6105348383836001610d77565b6001600160a01b038381166000908152600160209081526040808320938616835292905220546000198110156104cc57818110156109ab57604051637dc7a0d960e11b81526001600160a01b038416600482015260248101829052604481018390526064016105ac565b6104cc84848484036000610d77565b6001600160a01b0383166109e457604051634b637e8f60e11b8152600060048201526024016105ac565b6001600160a01b038216610a0e5760405163ec442f0560e01b8152600060048201526024016105ac565b610534838383610e4c565b610a238133610f76565b50565b6000610a32838361078d565b610ab25760008381526008602090815260408083206001600160a01b03861684529091529020805460ff19166001179055610a6a3390565b6001600160a01b0316826001600160a01b0316847f2f8788117e7eff1d82e926ec794901d17c78024a50270940304540a733656f0d60405160405180910390a45060016103d3565b5060006103d3565b6000306001600160a01b037f000000000000000000000000000000000000000000000000000000000000000016148015610b1357507f000000000000000000000000000000000000000000000000000000000000000046145b15610b3d57507f000000000000000000000000000000000000000000000000000000000000000090565b6104f2604080517f8b73c3c69bb8fe3d512ecc4cf759cc79239f7b179b0ffacaa9a75d522b39400f60208201527f0000000000000000000000000000000000000000000000000000000000000000918101919091527f000000000000000000000000000000000000000000000000000000000000000060608201524660808201523060a082015260009060c00160405160208183030381529060405280519060200120905090565b6000610bf1838361078d565b15610ab25760008381526008602090815260408083206001600160a01b0386168085529252808320805460ff1916905551339286917ff6391f5c32d9c69d2a47ea670b442974b53935d1edc7fd64eb21e047a839171b9190a45060016103d3565b6001600160a01b038216610c7c5760405163ec442f0560e01b8152600060048201526024016105ac565b610c8860008383610e4c565b5050565b6001600160a01b038216610cb657604051634b637e8f60e11b8152600060048201526024016105ac565b610c8882600083610e4c565b60606104f27f00000000000000000000000000000000000000000000000000000000000000006005610faf565b60606104f27f00000000000000000000000000000000000000000000000000000000000000006006610faf565b60006103d3610d29610aba565b8360405161190160f01b8152600281019290925260228201526042902090565b600080600080610d5b8888888861105a565b925092509250610d6b8282611129565b50909695505050505050565b6001600160a01b038416610da15760405163e602df0560e01b8152600060048201526024016105ac565b6001600160a01b038316610dcb57604051634a1406b160e11b8152600060048201526024016105ac565b6001600160a01b03808516600090815260016020908152604080832093871683529290522082905580156104cc57826001600160a01b0316846001600160a01b03167f8c5be1e5ebec7d5bd14f71427d1e84f3dd0314c0f7b2291e5b200ac8c7c3b92584604051610e3e91815260200190565b60405180910390a350505050565b6001600160a01b038316610e77578060026000828254610e6c919061154e565b90915550610ee99050565b6001600160a01b03831660009081526020819052604090205481811015610eca5760405163391434e360e21b81526001600160a01b038516600482015260248101829052604481018390526064016105ac565b6001600160a01b03841660009081526020819052604090209082900390555b6001600160a01b038216610f0557600280548290039055610f24565b6001600160a01b03821660009081526020819052604090208054820190555b816001600160a01b0316836001600160a01b03167fddf252ad1be2c89b69c2b068fc378daa952ba7f163c4a11628f55a4df523b3ef83604051610f6991815260200190565b60405180910390a3505050565b610f80828261078d565b610c885760405163e2517d3f60e01b81526001600160a01b0382166004820152602481018390526044016105ac565b606060ff8314610fc957610fc2836111e2565b90506103d3565b818054610fd5906114eb565b80601f0160208091040260200160405190810160405280929190818152602001828054611001906114eb565b801561104e5780601f106110235761010080835404028352916020019161104e565b820191906000526020600020905b81548152906001019060200180831161103157829003601f168201915b505050505090506103d3565b600080807f7fffffffffffffffffffffffffffffff5d576e7357a4501ddfe92f46681b20a0841115611095575060009150600390508261111f565b604080516000808252602082018084528a905260ff891692820192909252606081018790526080810186905260019060a0016020604051602081039080840390855afa1580156110e9573d6000803e3d6000fd5b5050604051601f1901519150506001600160a01b0381166111155750600092506001915082905061111f565b9250600091508190505b9450945094915050565b600082600381111561113d5761113d611561565b03611146575050565b600182600381111561115a5761115a611561565b036111785760405163f645eedf60e01b815260040160405180910390fd5b600282600381111561118c5761118c611561565b036111ad5760405163fce698f760e01b8152600481018290526024016105ac565b60038260038111156111c1576111c1611561565b03610c88576040516335e2f38360e21b8152600481018290526024016105ac565b606060006111ef83611221565b604080516020808252818301909252919250600091906020820181803683375050509182525060208101929092525090565b600060ff8216601f8111156103d357604051632cd44ac360e21b815260040160405180910390fd5b60006020828403121561125b57600080fd5b81356001600160e01b03198116811461127357600080fd5b9392505050565b6000815180845260005b818110156112a057602081850181015186830182015201611284565b506000602082860101526020601f19601f83011685010191505092915050565b602081526000611273602083018461127a565b80356001600160a01b03811681146112ea57600080fd5b919050565b6000806040838503121561130257600080fd5b61130b836112d3565b946020939093013593505050565b60008060006060848603121561132e57600080fd5b611337846112d3565b9250611345602085016112d3565b9150604084013590509250925092565b60006020828403121561136757600080fd5b5035919050565b6000806040838503121561138157600080fd5b82359150611391602084016112d3565b90509250929050565b6000602082840312156113ac57600080fd5b611273826112d3565b60ff60f81b881681526000602060e060208401526113d660e084018a61127a565b83810360408501526113e8818a61127a565b606085018990526001600160a01b038816608086015260a0850187905284810360c08601528551808252602080880193509091019060005b8181101561143c57835183529284019291840191600101611420565b50909c9b505050505050505050505050565b600080600080600080600060e0888a03121561146957600080fd5b611472886112d3565b9650611480602089016112d3565b95506040880135945060608801359350608088013560ff811681146114a457600080fd5b9699959850939692959460a0840135945060c09093013592915050565b600080604083850312156114d457600080fd5b6114dd836112d3565b9150611391602084016112d3565b600181811c908216806114ff57607f821691505b60208210810361151f57634e487b7160e01b600052602260045260246000fd5b50919050565b634e487b7160e01b600052601160045260246000fd5b818103818111156103d3576103d3611525565b808201808211156103d3576103d3611525565b634e487b7160e01b600052602160045260246000fdfea26469706673582212209f50c91384d52440da405a0aa54beb30cf795699267f764dd6954cb9e4ae6c9964736f6c63430008180033","linkReferences":{}},"methodIdentifiers":{"DEFAULT_ADMIN_ROLE()":"a217fddf","DOMAIN_SEPARATOR()":"3644e515","MAX_SUPPLY()":"32cb6b0c","MINTER_ROLE()":"d5391393","allowance(address,address)":"dd62ed3e","approve(address,uint256)":"095ea7b3","balanceOf(address)":"70a08231","burn(uint256)":"42966c68","decimals()":"313ce567","eip712Domain()":"84b0196e","getRoleAdmin(bytes32)":"248a9ca3","grantRole(bytes32,address)":"2f2ff15d","hasRole(bytes32,address)":"91d14854","mint(address,uint256)":"40c10f19","name()":"06fdde03","nonces(address)":"7ecebe00","permit(address,address,uint256,uint256,uint8,bytes32,bytes32)":"d505accf","remainingMintableSupply()":"349f0b90","renounceRole(bytes32,address)":"36568abe","revokeRole(bytes32,address)":"d547741f","supportsInterface(bytes4)":"01ffc9a7","symbol()":"95d89b41","totalSupply()":"18160ddd","transfer(address,uint256)":"a9059cbb","transferFrom(address,address,uint256)":"23b872dd"},"id":1}