{"abi":[{"type":"constructor","inputs":[{"name":"_vault","type":"address","internalType":"address"},{"name":"_voter","type":"address","internalType":"address"},{"name":"_treasury","type":"address","internalType":"address"}],"stateMutability":"nonpayable"},{"type":"receive","stateMutability":"payable"},{"type":"function","name":"BPS_BASE","inputs":[],"outputs":[{"name":"","type":"uint256","internalType":"uint256"}],"stateMutability":"view"},{"type":"function","name":"EPOCH_DURATION","inputs":[],"outputs":[{"name":"","type":"uint256","internalType":"uint256"}],"stateMutability":"view"},{"type":"function","name":"MAX_POOLS","inputs":[],"outputs":[{"name":"","type":"uint256","internalType":"uint256"}],"stateMutability":"view"},{"type":"function","name":"MAX_PRICE_USD","inputs":[],"outputs":[{"name":"","type":"uint256","internalType":"uint256"}],"stateMutability":"view"},{"type":"function","name":"MIN_PRICE_USD","inputs":[],"outputs":[{"name":"","type":"uint256","internalType":"uint256"}],"stateMutability":"view"},{"type":"function","name":"VOTE_WINDOW","inputs":[],"outputs":[{"name":"","type":"uint256","internalType":"uint256"}],"stateMutability":"view"},{"type":"function","name":"activePools","inputs":[{"name":"","type":"uint256","internalType":"uint256"}],"outputs":[{"name":"","type":"address","internalType":"address"}],"stateMutability":"view"},{"type":"function","name":"addPool","inputs":[{"name":"pool","type":"address","internalType":"address"}],"outputs":[],"stateMutability":"nonpayable"},{"type":"function","name":"advanceEpoch","inputs":[],"outputs":[],"stateMutability":"nonpayable"},{"type":"function","name":"allowedBribeTokens","inputs":[{"name":"","type":"address","internalType":"address"}],"outputs":[{"name":"","type":"bool","internalType":"bool"}],"stateMutability":"view"},{"type":"function","name":"bribeDiscountBPS","inputs":[],"outputs":[{"name":"","type":"uint256","internalType":"uint256"}],"stateMutability":"view"},{"type":"function","name":"canExecuteVotes","inputs":[],"outputs":[{"name":"","type":"bool","internalType":"bool"}],"stateMutability":"view"},{"type":"function","name":"currentEpoch","inputs":[],"outputs":[{"name":"","type":"uint256","internalType":"uint256"}],"stateMutability":"view"},{"type":"function","name":"depositBribe","inputs":[{"name":"pool","type":"address","internalType":"address"},{"name":"token","type":"address","internalType":"address"},{"name":"amount","type":"uint256","internalType":"uint256"},{"name":"epochs","type":"uint256","internalType":"uint256"}],"outputs":[],"stateMutability":"nonpayable"},{"type":"function","name":"depositETHBribe","inputs":[{"name":"pool","type":"address","internalType":"address"},{"name":"epochs","type":"uint256","internalType":"uint256"}],"outputs":[],"stateMutability":"payable"},{"type":"function","name":"emergencyWithdraw","inputs":[{"name":"token","type":"address","internalType":"address"},{"name":"amount","type":"uint256","internalType":"uint256"}],"outputs":[],"stateMutability":"nonpayable"},{"type":"function","name":"epochData","inputs":[{"name":"","type":"uint256","internalType":"uint256"}],"outputs":[{"name":"totalVotingPower","type":"uint256","internalType":"uint256"},{"name":"totalBribesReceivedUSD","type":"uint256","internalType":"uint256"},{"name":"baseRewardsReceivedUSD","type":"uint256","internalType":"uint256"},{"name":"timestamp","type":"uint256","internalType":"uint256"},{"name":"executed","type":"bool","internalType":"bool"}],"stateMutability":"view"},{"type":"function","name":"epochStartTime","inputs":[],"outputs":[{"name":"","type":"uint256","internalType":"uint256"}],"stateMutability":"view"},{"type":"function","name":"executeVotes","inputs":[],"outputs":[],"stateMutability":"nonpayable"},{"type":"function","name":"executeVotesNow","inputs":[],"outputs":[],"stateMutability":"nonpayable"},{"type":"function","name":"getActivePools","inputs":[],"outputs":[{"name":"","type":"address[]","internalType":"address[]"}],"stateMutability":"view"},{"type":"function","name":"getOptimalAllocation","inputs":[],"outputs":[{"name":"pools","type":"address[]","internalType":"address[]"},{"name":"weightsBps","type":"uint256[]","internalType":"uint256[]"}],"stateMutability":"view"},{"type":"function","name":"getPoolBribes","inputs":[{"name":"pool","type":"address","internalType":"address"}],"outputs":[{"name":"","type":"tuple[]","internalType":"struct VotingManager.Bribe[]","components":[{"name":"token","type":"address","internalType":"address"},{"name":"amount","type":"uint256","internalType":"uint256"},{"name":"depositor","type":"address","internalType":"address"},{"name":"epochStart","type":"uint256","internalType":"uint256"},{"name":"epochEnd","type":"uint256","internalType":"uint256"},{"name":"claimed","type":"bool","internalType":"bool"}]}],"stateMutability":"view"},{"type":"function","name":"getPoolInfo","inputs":[{"name":"pool","type":"address","internalType":"address"}],"outputs":[{"name":"","type":"bool","internalType":"bool"},{"name":"","type":"uint256","internalType":"uint256"},{"name":"","type":"uint256","internalType":"uint256"},{"name":"","type":"uint256","internalType":"uint256"},{"name":"","type":"address","internalType":"address"}],"stateMutability":"view"},{"type":"function","name":"getUnclaimedBribesUSD","inputs":[{"name":"pool","type":"address","internalType":"address"},{"name":"epoch","type":"uint256","internalType":"uint256"}],"outputs":[{"name":"totalUSD","type":"uint256","internalType":"uint256"}],"stateMutability":"view"},{"type":"function","name":"getUnclaimedBribesUSDCurrent","inputs":[{"name":"pool","type":"address","internalType":"address"}],"outputs":[{"name":"","type":"uint256","internalType":"uint256"}],"stateMutability":"view"},{"type":"function","name":"keepers","inputs":[{"name":"","type":"address","internalType":"address"}],"outputs":[{"name":"","type":"bool","internalType":"bool"}],"stateMutability":"view"},{"type":"function","name":"lastVoteTime","inputs":[],"outputs":[{"name":"","type":"uint256","internalType":"uint256"}],"stateMutability":"view"},{"type":"function","name":"maxPoolAllocationBPS","inputs":[],"outputs":[{"name":"","type":"uint256","internalType":"uint256"}],"stateMutability":"view"},{"type":"function","name":"maxPriceChangeBps","inputs":[],"outputs":[{"name":"","type":"uint256","internalType":"uint256"}],"stateMutability":"view"},{"type":"function","name":"minBribeUSDPerEpoch","inputs":[],"outputs":[{"name":"","type":"uint256","internalType":"uint256"}],"stateMutability":"view"},{"type":"function","name":"minVoteWeightBPS","inputs":[],"outputs":[{"name":"","type":"uint256","internalType":"uint256"}],"stateMutability":"view"},{"type":"function","name":"owner","inputs":[],"outputs":[{"name":"","type":"address","internalType":"address"}],"stateMutability":"view"},{"type":"function","name":"pause","inputs":[],"outputs":[],"stateMutability":"nonpayable"},{"type":"function","name":"paused","inputs":[],"outputs":[{"name":"","type":"bool","internalType":"bool"}],"stateMutability":"view"},{"type":"function","name":"poolData","inputs":[{"name":"","type":"address","internalType":"address"}],"outputs":[{"name":"isActive","type":"bool","internalType":"bool"},{"name":"totalBribesUSD","type":"uint256","internalType":"uint256"},{"name":"baseRevenueUSD","type":"uint256","internalType":"uint256"},{"name":"lastRevenueUSD","type":"uint256","internalType":"uint256"},{"name":"gauge","type":"address","internalType":"address"}],"stateMutability":"view"},{"type":"function","name":"priceUpdaters","inputs":[{"name":"","type":"address","internalType":"address"}],"outputs":[{"name":"","type":"bool","internalType":"bool"}],"stateMutability":"view"},{"type":"function","name":"removePool","inputs":[{"name":"pool","type":"address","internalType":"address"}],"outputs":[],"stateMutability":"nonpayable"},{"type":"function","name":"renounceOwnership","inputs":[],"outputs":[],"stateMutability":"nonpayable"},{"type":"function","name":"revenueCalculator","inputs":[],"outputs":[{"name":"","type":"address","internalType":"address"}],"stateMutability":"view"},{"type":"function","name":"setAllowedBribeToken","inputs":[{"name":"token","type":"address","internalType":"address"},{"name":"allowed","type":"bool","internalType":"bool"}],"outputs":[],"stateMutability":"nonpayable"},{"type":"function","name":"setKeeper","inputs":[{"name":"who","type":"address","internalType":"address"},{"name":"status","type":"bool","internalType":"bool"}],"outputs":[],"stateMutability":"nonpayable"},{"type":"function","name":"setPriceUpdater","inputs":[{"name":"who","type":"address","internalType":"address"},{"name":"status","type":"bool","internalType":"bool"}],"outputs":[],"stateMutability":"nonpayable"},{"type":"function","name":"setRevenueCalculator","inputs":[{"name":"calc","type":"address","internalType":"address"}],"outputs":[],"stateMutability":"nonpayable"},{"type":"function","name":"setRevenueParams","inputs":[{"name":"_min","type":"uint256","internalType":"uint256"},{"name":"_disc","type":"uint256","internalType":"uint256"},{"name":"_maxPool","type":"uint256","internalType":"uint256"},{"name":"_minWeight","type":"uint256","internalType":"uint256"},{"name":"_maxJump","type":"uint256","internalType":"uint256"}],"outputs":[],"stateMutability":"nonpayable"},{"type":"function","name":"timeUntilNextEpoch","inputs":[],"outputs":[{"name":"","type":"uint256","internalType":"uint256"}],"stateMutability":"view"},{"type":"function","name":"tokenPricesUSD","inputs":[{"name":"","type":"address","internalType":"address"}],"outputs":[{"name":"","type":"uint256","internalType":"uint256"}],"stateMutability":"view"},{"type":"function","name":"totalBribesCollected","inputs":[],"outputs":[{"name":"","type":"uint256","internalType":"uint256"}],"stateMutability":"view"},{"type":"function","name":"totalBribesCollectedUSD","inputs":[],"outputs":[{"name":"","type":"uint256","internalType":"uint256"}],"stateMutability":"view"},{"type":"function","name":"transferOwnership","inputs":[{"name":"newOwner","type":"address","internalType":"address"}],"outputs":[],"stateMutability":"nonpayable"},{"type":"function","name":"treasury","inputs":[],"outputs":[{"name":"","type":"address","internalType":"address"}],"stateMutability":"view"},{"type":"function","name":"unpause","inputs":[],"outputs":[],"stateMutability":"nonpayable"},{"type":"function","name":"updatePoolBaseRevenue","inputs":[{"name":"pool","type":"address","internalType":"address"},{"name":"revenueUSD","type":"uint256","internalType":"uint256"}],"outputs":[],"stateMutability":"nonpayable"},{"type":"function","name":"updateTokenPrice","inputs":[{"name":"token","type":"address","internalType":"address"},{"name":"priceUSD","type":"uint256","internalType":"uint256"}],"outputs":[],"stateMutability":"nonpayable"},{"type":"function","name":"updateTokenPrices","inputs":[{"name":"tokens","type":"address[]","internalType":"address[]"},{"name":"pricesUSD","type":"uint256[]","internalType":"uint256[]"}],"outputs":[],"stateMutability":"nonpayable"},{"type":"function","name":"vault","inputs":[],"outputs":[{"name":"","type":"address","internalType":"address"}],"stateMutability":"view"},{"type":"function","name":"voter","inputs":[],"outputs":[{"name":"","type":"address","internalType":"address"}],"stateMutability":"view"},{"type":"event","name":"BribeDeposited","inputs":[{"name":"depositor","type":"address","indexed":true,"internalType":"address"},{"name":"pool","type":"address","indexed":true,"internalType":"address"},{"name":"token","type":"address","indexed":true,"internalType":"address"},{"name":"amount","type":"uint256","indexed":false,"internalType":"uint256"},{"name":"epochStart","type":"uint256","indexed":false,"internalType":"uint256"},{"name":"epochEnd","type":"uint256","indexed":false,"internalType":"uint256"}],"anonymous":false},{"type":"event","name":"BribesClaimed","inputs":[{"name":"pool","type":"address","indexed":true,"internalType":"address"},{"name":"epoch","type":"uint256","indexed":true,"internalType":"uint256"},{"name":"token","type":"address","indexed":true,"internalType":"address"},{"name":"amount","type":"uint256","indexed":false,"internalType":"uint256"}],"anonymous":false},{"type":"event","name":"KeeperSet","inputs":[{"name":"who","type":"address","indexed":true,"internalType":"address"},{"name":"status","type":"bool","indexed":false,"internalType":"bool"}],"anonymous":false},{"type":"event","name":"OwnershipTransferred","inputs":[{"name":"previousOwner","type":"address","indexed":true,"internalType":"address"},{"name":"newOwner","type":"address","indexed":true,"internalType":"address"}],"anonymous":false},{"type":"event","name":"Paused","inputs":[{"name":"account","type":"address","indexed":false,"internalType":"address"}],"anonymous":false},{"type":"event","name":"PoolAdded","inputs":[{"name":"pool","type":"address","indexed":true,"internalType":"address"},{"name":"gauge","type":"address","indexed":false,"internalType":"address"}],"anonymous":false},{"type":"event","name":"PoolRemoved","inputs":[{"name":"pool","type":"address","indexed":true,"internalType":"address"}],"anonymous":false},{"type":"event","name":"PriceUpdated","inputs":[{"name":"token","type":"address","indexed":true,"internalType":"address"},{"name":"priceUSD","type":"uint256","indexed":false,"internalType":"uint256"}],"anonymous":false},{"type":"event","name":"PriceUpdaterSet","inputs":[{"name":"who","type":"address","indexed":true,"internalType":"address"},{"name":"status","type":"bool","indexed":false,"internalType":"bool"}],"anonymous":false},{"type":"event","name":"RevenueCalculatorSet","inputs":[{"name":"calculator","type":"address","indexed":true,"internalType":"address"}],"anonymous":false},{"type":"event","name":"Unpaused","inputs":[{"name":"account","type":"address","indexed":false,"internalType":"address"}],"anonymous":false},{"type":"event","name":"VotesExecuted","inputs":[{"name":"epoch","type":"uint256","indexed":true,"internalType":"uint256"},{"name":"tokenId","type":"uint256","indexed":true,"internalType":"uint256"},{"name":"pools","type":"address[]","indexed":false,"internalType":"address[]"},{"name":"weightsBps","type":"uint256[]","indexed":false,"internalType":"uint256[]"}],"anonymous":false},{"type":"error","name":"AmountZero","inputs":[]},{"type":"error","name":"BadEpochs","inputs":[]},{"type":"error","name":"EnforcedPause","inputs":[]},{"type":"error","name":"EpochNotComplete","inputs":[]},{"type":"error","name":"ExpectedPause","inputs":[]},{"type":"error","name":"LenMismatch","inputs":[]},{"type":"error","name":"NoPrice","inputs":[]},{"type":"error","name":"NoPrimaryNFT","inputs":[]},{"type":"error","name":"NoVotingPower","inputs":[]},{"type":"error","name":"NotKeeper","inputs":[]},{"type":"error","name":"NotPriceUpdater","inputs":[]},{"type":"error","name":"OwnableInvalidOwner","inputs":[{"name":"owner","type":"address","internalType":"address"}]},{"type":"error","name":"OwnableUnauthorizedAccount","inputs":[{"name":"account","type":"address","internalType":"address"}]},{"type":"error","name":"PoolNotActive","inputs":[]},{"type":"error","name":"PoolNotWhitelisted","inputs":[]},{"type":"error","name":"ReentrancyGuardReentrantCall","inputs":[]},{"type":"error","name":"SafeERC20FailedOperation","inputs":[{"name":"token","type":"address","internalType":"address"}]},{"type":"error","name":"VoteWindowClosed","inputs":[]},{"type":"error","name":"VotingAlreadyExecuted","inputs":[]}],"bytecode":{"object":"0x60e0604052678ac7230489e80000600355612328600455611b5860055560056006556107d060075534801562000033575f80fd5b506040516200711b3803806200711b8339818101604052810190620000599190620003f9565b335f73ffffffffffffffffffffffffffffffffffffffff168173ffffffffffffffffffffffffffffffffffffffff1603620000cd575f6040517f1e4fbdf7000000000000000000000000000000000000000000000000000000008152600401620000c4919062000463565b60405180910390fd5b620000de81620002d360201b60201c565b50600180819055505f73ffffffffffffffffffffffffffffffffffffffff168373ffffffffffffffffffffffffffffffffffffffff16141580156200014f57505f73ffffffffffffffffffffffffffffffffffffffff168273ffffffffffffffffffffffffffffffffffffffff1614155b80156200018857505f73ffffffffffffffffffffffffffffffffffffffff168173ffffffffffffffffffffffffffffffffffffffff1614155b620001ca576040517f08c379a0000000000000000000000000000000000000000000000000000000008152600401620001c190620004dc565b60405180910390fd5b8273ffffffffffffffffffffffffffffffffffffffff1660808173ffffffffffffffffffffffffffffffffffffffff16815250508173ffffffffffffffffffffffffffffffffffffffff1660a08173ffffffffffffffffffffffffffffffffffffffff16815250508073ffffffffffffffffffffffffffffffffffffffff1660c08173ffffffffffffffffffffffffffffffffffffffff16815250506001600f81905550426010819055506001600e5f8073ffffffffffffffffffffffffffffffffffffffff1673ffffffffffffffffffffffffffffffffffffffff1681526020019081526020015f205f6101000a81548160ff021916908315150217905550505050620004fc565b5f805f9054906101000a900473ffffffffffffffffffffffffffffffffffffffff169050815f806101000a81548173ffffffffffffffffffffffffffffffffffffffff021916908373ffffffffffffffffffffffffffffffffffffffff1602179055508173ffffffffffffffffffffffffffffffffffffffff168173ffffffffffffffffffffffffffffffffffffffff167f8be0079c531659141344cd1fd0a4f28419497f9722a3daafe3b4186f6b6457e060405160405180910390a35050565b5f80fd5b5f73ffffffffffffffffffffffffffffffffffffffff82169050919050565b5f620003c38262000398565b9050919050565b620003d581620003b7565b8114620003e0575f80fd5b50565b5f81519050620003f381620003ca565b92915050565b5f805f6060848603121562000413576200041262000394565b5b5f6200042286828701620003e3565b93505060206200043586828701620003e3565b92505060406200044886828701620003e3565b9150509250925092565b6200045d81620003b7565b82525050565b5f602082019050620004785f83018462000452565b92915050565b5f82825260208201905092915050565b7f62616420616464720000000000000000000000000000000000000000000000005f82015250565b5f620004c46008836200047e565b9150620004d1826200048e565b602082019050919050565b5f6020820190508181035f830152620004f581620004b6565b9050919050565b60805160a05160c051616b99620005825f395f81816118f40152818161535a015261542e01525f818161178c015281816130f0015281816131ef0152818161390b01528181613bab01528181613cff0152613e3f01525f81816137fc01528181613868015281816139b801528181613a8101528181613cc20152613e020152616b995ff3fe608060405260043610610379575f3560e01c80636e821b2e116101d0578063b16926fa11610101578063dac174301161009f578063f60ca6411161006e578063f60ca64114610c57578063f701463c14610c81578063f87793ad14610cab578063fbfa77cf14610ce757610380565b8063dac1743014610ba1578063e7e3bb3914610bcb578063eff29f8e14610c07578063f2fde38b14610c2f57610380565b8063c87b8ca3116100db578063c87b8ca314610b01578063d1b9e85314610b29578063d4ee651b14610b51578063d914cd4b14610b7957610380565b8063b16926fa14610a73578063bfd97cd614610aaf578063c3268d3914610ad957610380565b80638da5cb5b1161016e5780639eaa1b09116101485780639eaa1b09146109b9578063a70b9f0c146109e3578063a93a31d314610a0d578063ad2eed9b14610a4957610380565b80638da5cb5b1461093d5780638ec083541461096757806395ccea671461099157610380565b806376671808116101aa57806376671808146108a957806381358498146108d35780638456cb59146108fd578063873be4351461091357610380565b80636e821b2e146108375780636f48210814610877578063715018a61461089357610380565b8063469a78d2116102aa578063615e6ce71161024857806367f9e0bf1161022257806367f9e0bf14610781578063697cd71a146107bd5780636a20f3f7146107e75780636d74826f1461080f57610380565b8063615e6ce71461071757806361d027b31461074157806365a74b141461076b57610380565b806358657a4a1161028457806358657a4a1461066f5780635a5da627146106995780635c975abb146106c35780635eccabdd146106ed57610380565b8063469a78d2146105f357806346c96aac1461061d57806352a725101461064757610380565b80632a9466ec116103175780633bbd64bc116102f15780633bbd64bc146105635780633cf80e6c1461059f5780633f4ba83a146105b5578063434c2d4d146105cb57610380565b80632a9466ec146104e657806333a7ad76146105105780633b7d09461461053b57610380565b806310b309101161035357806310b3091014610404578063125dfb091461042e578063136efb7a1461046a57806319089a0d146104aa57610380565b806306bfa938146103845780630752c8e5146103c45780630ccc544c146103ee57610380565b3661038057005b5f80fd5b34801561038f575f80fd5b506103aa60048036038101906103a59190615979565b610d11565b6040516103bb9594939291906159e5565b60405180910390f35b3480156103cf575f80fd5b506103d8610dad565b6040516103e59190615a36565b60405180910390f35b3480156103f9575f80fd5b50610402610db3565b005b34801561040f575f80fd5b50610418610f22565b6040516104259190615a36565b60405180910390f35b348015610439575f80fd5b50610454600480360381019061044f9190615979565b610f28565b6040516104619190615a4f565b60405180910390f35b348015610475575f80fd5b50610490600480360381019061048b9190615979565b610f45565b6040516104a19594939291906159e5565b60405180910390f35b3480156104b5575f80fd5b506104d060048036038101906104cb9190615979565b610fa2565b6040516104dd9190615a36565b60405180910390f35b3480156104f1575f80fd5b506104fa610fb7565b6040516105079190615a36565b60405180910390f35b34801561051b575f80fd5b50610524610fbd565b604051610532929190615bd6565b60405180910390f35b348015610546575f80fd5b50610561600480360381019061055c9190615979565b610fd0565b005b34801561056e575f80fd5b5061058960048036038101906105849190615979565b611270565b6040516105969190615a4f565b60405180910390f35b3480156105aa575f80fd5b506105b361128d565b005b3480156105c0575f80fd5b506105c96116e3565b005b3480156105d6575f80fd5b506105f160048036038101906105ec9190615979565b6116f5565b005b3480156105fe575f80fd5b50610607611783565b6040516106149190615a36565b60405180910390f35b348015610628575f80fd5b5061063161178a565b60405161063e9190615c0b565b60405180910390f35b348015610652575f80fd5b5061066d60048036038101906106689190615c4e565b6117ae565b005b34801561067a575f80fd5b5061068361185c565b6040516106909190615a36565b60405180910390f35b3480156106a4575f80fd5b506106ad611862565b6040516106ba9190615a36565b60405180910390f35b3480156106ce575f80fd5b506106d7611898565b6040516106e49190615a4f565b60405180910390f35b3480156106f8575f80fd5b506107016118ad565b60405161070e9190615a4f565b60405180910390f35b348015610722575f80fd5b5061072b6118ec565b6040516107389190615a36565b60405180910390f35b34801561074c575f80fd5b506107556118f2565b6040516107629190615c0b565b60405180910390f35b348015610776575f80fd5b5061077f611916565b005b34801561078c575f80fd5b506107a760048036038101906107a29190615979565b611acf565b6040516107b49190615a4f565b60405180910390f35b3480156107c8575f80fd5b506107d1611aec565b6040516107de9190615a36565b60405180910390f35b3480156107f2575f80fd5b5061080d60048036038101906108089190615cb6565b611af2565b005b34801561081a575f80fd5b5061083560048036038101906108309190615cf4565b611c7a565b005b348015610842575f80fd5b5061085d60048036038101906108589190615d58565b6122d2565b60405161086e959493929190615d83565b60405180910390f35b610891600480360381019061088c9190615cb6565b612310565b005b34801561089e575f80fd5b506108a76128b9565b005b3480156108b4575f80fd5b506108bd6128cc565b6040516108ca9190615a36565b60405180910390f35b3480156108de575f80fd5b506108e76128d2565b6040516108f49190615a36565b60405180910390f35b348015610908575f80fd5b506109116128d7565b005b34801561091e575f80fd5b506109276128e9565b6040516109349190615a36565b60405180910390f35b348015610948575f80fd5b506109516128f3565b60405161095e9190615c0b565b60405180910390f35b348015610972575f80fd5b5061097b61291a565b6040516109889190615dd4565b60405180910390f35b34801561099c575f80fd5b506109b760048036038101906109b29190615cb6565b6129a5565b005b3480156109c4575f80fd5b506109cd612adc565b6040516109da9190615a36565b60405180910390f35b3480156109ee575f80fd5b506109f7612ae2565b604051610a049190615a36565b60405180910390f35b348015610a18575f80fd5b50610a336004803603810190610a2e9190615979565b612ae9565b604051610a409190615a36565b60405180910390f35b348015610a54575f80fd5b50610a5d612b6d565b604051610a6a9190615c0b565b60405180910390f35b348015610a7e575f80fd5b50610a996004803603810190610a949190615cb6565b612b92565b604051610aa69190615a36565b60405180910390f35b348015610aba575f80fd5b50610ac3612d99565b604051610ad09190615a36565b60405180910390f35b348015610ae4575f80fd5b50610aff6004803603810190610afa9190615c4e565b612da7565b005b348015610b0c575f80fd5b50610b276004803603810190610b229190615df4565b612e07565b005b348015610b34575f80fd5b50610b4f6004803603810190610b4a9190615c4e565b612eb3565b005b348015610b5c575f80fd5b50610b776004803603810190610b729190615cb6565b612f61565b005b348015610b84575f80fd5b50610b9f6004803603810190610b9a9190615979565b61302c565b005b348015610bac575f80fd5b50610bb5613445565b604051610bc29190615a36565b60405180910390f35b348015610bd6575f80fd5b50610bf16004803603810190610bec9190615979565b61344b565b604051610bfe9190615f9b565b60405180910390f35b348015610c12575f80fd5b50610c2d6004803603810190610c289190616071565b6135c8565b005b348015610c3a575f80fd5b50610c556004803603810190610c509190615979565b61372f565b005b348015610c62575f80fd5b50610c6b6137b3565b604051610c789190615a36565b60405180910390f35b348015610c8c575f80fd5b50610c956137b9565b604051610ca29190615a36565b60405180910390f35b348015610cb6575f80fd5b50610cd16004803603810190610ccc9190615d58565b6137bf565b604051610cde9190615c0b565b60405180910390f35b348015610cf2575f80fd5b50610cfb6137fa565b604051610d089190615c0b565b60405180910390f35b5f805f805f80600c5f8873ffffffffffffffffffffffffffffffffffffffff1673ffffffffffffffffffffffffffffffffffffffff1681526020019081526020015f209050805f015f9054906101000a900460ff16816001015482600201548360030154846004015f9054906101000a900473ffffffffffffffffffffffffffffffffffffffff16955095509550955095505091939590929450565b60055481565b60095f3373ffffffffffffffffffffffffffffffffffffffff1673ffffffffffffffffffffffffffffffffffffffff1681526020019081526020015f205f9054906101000a900460ff1680610e3a5750610e0b6128f3565b73ffffffffffffffffffffffffffffffffffffffff163373ffffffffffffffffffffffffffffffffffffffff16145b610e70576040517ff512b27800000000000000000000000000000000000000000000000000000000815260040160405180910390fd5b610e7861381e565b60145f600f5481526020019081526020015f206006015f9054906101000a900460ff1615610ed2576040517ff792f8f900000000000000000000000000000000000000000000000000000000815260040160405180910390fd5b610eda613864565b610f10576040517fbb9d7c3e00000000000000000000000000000000000000000000000000000000815260040160405180910390fd5b610f186139b5565b610f20613fea565b565b60135481565b600a602052805f5260405f205f915054906101000a900460ff1681565b600c602052805f5260405f205f91509050805f015f9054906101000a900460ff1690806001015490806002015490806003015490806004015f9054906101000a900473ffffffffffffffffffffffffffffffffffffffff16905085565b600d602052805f5260405f205f915090505481565b60035481565b606080610fc8613ff3565b915091509091565b610fd8614911565b600c5f8273ffffffffffffffffffffffffffffffffffffffff1673ffffffffffffffffffffffffffffffffffffffff1681526020019081526020015f205f015f9054906101000a900460ff1661105a576040517f7181520200000000000000000000000000000000000000000000000000000000815260040160405180910390fd5b5f600c5f8373ffffffffffffffffffffffffffffffffffffffff1673ffffffffffffffffffffffffffffffffffffffff1681526020019081526020015f205f015f6101000a81548160ff0219169083151502179055505f600b8054905090505f5b81811015611228578273ffffffffffffffffffffffffffffffffffffffff16600b82815481106110ee576110ed6160ef565b5b905f5260205f20015f9054906101000a900473ffffffffffffffffffffffffffffffffffffffff1673ffffffffffffffffffffffffffffffffffffffff160361121b57600b6001836111409190616149565b81548110611151576111506160ef565b5b905f5260205f20015f9054906101000a900473ffffffffffffffffffffffffffffffffffffffff16600b828154811061118d5761118c6160ef565b5b905f5260205f20015f6101000a81548173ffffffffffffffffffffffffffffffffffffffff021916908373ffffffffffffffffffffffffffffffffffffffff160217905550600b8054806111e4576111e361617c565b5b600190038181905f5260205f20015f6101000a81549073ffffffffffffffffffffffffffffffffffffffff02191690559055611228565b80806001019150506110bb565b508173ffffffffffffffffffffffffffffffffffffffff167f4106dfdaa577573db51c0ca93f766dbedfa0758faa2e7f5bcdb7c142be803c3f60405160405180910390a25050565b6009602052805f5260405f205f915054906101000a900460ff1681565b60095f3373ffffffffffffffffffffffffffffffffffffffff1673ffffffffffffffffffffffffffffffffffffffff1681526020019081526020015f205f9054906101000a900460ff168061131457506112e56128f3565b73ffffffffffffffffffffffffffffffffffffffff163373ffffffffffffffffffffffffffffffffffffffff16145b61134a576040517ff512b27800000000000000000000000000000000000000000000000000000000815260040160405180910390fd5b61135261381e565b62093a8060105461136391906161a9565b42101561139c576040517fec01c41100000000000000000000000000000000000000000000000000000000815260040160405180910390fd5b60145f600f5481526020019081526020015f206006015f9054906101000a900460ff166113fe576040517f08c379a00000000000000000000000000000000000000000000000000000000081526004016113f590616236565b60405180910390fd5b62093a8060105461140f91906161a9565b6010819055506001600f5f82825461142791906161a9565b925050819055505f600d5f8073ffffffffffffffffffffffffffffffffffffffff1673ffffffffffffffffffffffffffffffffffffffff1681526020019081526020015f205490505f600b8054905090505f5b818110156116d6575f600b8281548110611497576114966160ef565b5b905f5260205f20015f9054906101000a900473ffffffffffffffffffffffffffffffffffffffff1690505f600c5f8373ffffffffffffffffffffffffffffffffffffffff1673ffffffffffffffffffffffffffffffffffffffff1681526020019081526020015f209050805f015f9054906101000a900460ff1661151c5750506116c9565b5f808260050190505f5b81805490508110156116a1575f828281548110611546576115456160ef565b5b905f5260205f2090600602019050806005015f9054906101000a900460ff16156115705750611694565b600f54816003015411806115895750600f548160040154105b156115945750611694565b5f8073ffffffffffffffffffffffffffffffffffffffff16825f015f9054906101000a900473ffffffffffffffffffffffffffffffffffffffff1673ffffffffffffffffffffffffffffffffffffffff161461164f57600d5f835f015f9054906101000a900473ffffffffffffffffffffffffffffffffffffffff1673ffffffffffffffffffffffffffffffffffffffff1673ffffffffffffffffffffffffffffffffffffffff1681526020019081526020015f2054611651565b895b90505f8103611661575050611694565b670de0b6b3a764000081836001015461167a9190616254565b61168491906162c2565b8561168f91906161a9565b945050505b8080600101915050611526565b508183600101819055506040818054905011156116c4576116c384600c614998565b5b505050505b808060010191505061147a565b5050506116e1613fea565b565b6116eb614911565b6116f3614cb9565b565b6116fd614911565b8060085f6101000a81548173ffffffffffffffffffffffffffffffffffffffff021916908373ffffffffffffffffffffffffffffffffffffffff1602179055508073ffffffffffffffffffffffffffffffffffffffff167f3a988f8bacb82c92657427d6fc201f403c9b0e70150fedbc7bed2a2c3d3e010e60405160405180910390a250565b620891c081565b7f000000000000000000000000000000000000000000000000000000000000000081565b6117b6614911565b80600a5f8473ffffffffffffffffffffffffffffffffffffffff1673ffffffffffffffffffffffffffffffffffffffff1681526020019081526020015f205f6101000a81548160ff0219169083151502179055508173ffffffffffffffffffffffffffffffffffffffff167f5b1fcdb926c3247f83b7470b80aa78b23a117ecd1b5956ad9866158a2662e798826040516118509190615a4f565b60405180910390a25050565b60125481565b5f8062093a8060105461187591906161a9565b90508042101561189057428161188b9190616149565b611892565b5f5b91505090565b5f60025f9054906101000a900460ff16905090565b5f60145f600f5481526020019081526020015f206006015f9054906101000a900460ff16156118de575f90506118e9565b6118e6613864565b90505b90565b60045481565b7f000000000000000000000000000000000000000000000000000000000000000081565b60095f3373ffffffffffffffffffffffffffffffffffffffff1673ffffffffffffffffffffffffffffffffffffffff1681526020019081526020015f205f9054906101000a900460ff168061199d575061196e6128f3565b73ffffffffffffffffffffffffffffffffffffffff163373ffffffffffffffffffffffffffffffffffffffff16145b6119d3576040517ff512b27800000000000000000000000000000000000000000000000000000000815260040160405180910390fd5b6119db61381e565b620891c06010546119ec91906161a9565b421015611a25576040517fbb9d7c3e00000000000000000000000000000000000000000000000000000000815260040160405180910390fd5b60145f600f5481526020019081526020015f206006015f9054906101000a900460ff1615611a7f576040517ff792f8f900000000000000000000000000000000000000000000000000000000815260040160405180910390fd5b611a87613864565b611abd576040517fbb9d7c3e00000000000000000000000000000000000000000000000000000000815260040160405180910390fd5b611ac56139b5565b611acd613fea565b565b600e602052805f5260405f205f915054906101000a900460ff1681565b60075481565b60095f3373ffffffffffffffffffffffffffffffffffffffff1673ffffffffffffffffffffffffffffffffffffffff1681526020019081526020015f205f9054906101000a900460ff1680611b795750611b4a6128f3565b73ffffffffffffffffffffffffffffffffffffffff163373ffffffffffffffffffffffffffffffffffffffff16145b611baf576040517ff512b27800000000000000000000000000000000000000000000000000000000815260040160405180910390fd5b600c5f8373ffffffffffffffffffffffffffffffffffffffff1673ffffffffffffffffffffffffffffffffffffffff1681526020019081526020015f205f015f9054906101000a900460ff16611c31576040517f7181520200000000000000000000000000000000000000000000000000000000815260040160405180910390fd5b80600c5f8473ffffffffffffffffffffffffffffffffffffffff1673ffffffffffffffffffffffffffffffffffffffff1681526020019081526020015f20600201819055505050565b611c8261381e565b611c8a614d1a565b600c5f8573ffffffffffffffffffffffffffffffffffffffff1673ffffffffffffffffffffffffffffffffffffffff1681526020019081526020015f205f015f9054906101000a900460ff16611d0c576040517f7181520200000000000000000000000000000000000000000000000000000000815260040160405180910390fd5b600e5f8473ffffffffffffffffffffffffffffffffffffffff1673ffffffffffffffffffffffffffffffffffffffff1681526020019081526020015f205f9054906101000a900460ff16611d8c576040517f7181520200000000000000000000000000000000000000000000000000000000815260040160405180910390fd5b5f8203611dc5576040517fcbca5aa200000000000000000000000000000000000000000000000000000000815260040160405180910390fd5b5f811480611dd35750600481115b15611e0a576040517f35e270f600000000000000000000000000000000000000000000000000000000815260040160405180910390fd5b60145f600f5481526020019081526020015f206006015f9054906101000a900460ff1615611e64576040517ff792f8f900000000000000000000000000000000000000000000000000000000815260040160405180910390fd5b5f600d5f8573ffffffffffffffffffffffffffffffffffffffff1673ffffffffffffffffffffffffffffffffffffffff1681526020019081526020015f205490505f8103611ede576040517fc149905d00000000000000000000000000000000000000000000000000000000815260040160405180910390fd5b611f0b3330858773ffffffffffffffffffffffffffffffffffffffff16614d5b909392919063ffffffff16565b5f8284611f1891906162c2565b90505f8382611f279190616254565b85611f329190616149565b90505f670de0b6b3a76400008484611f4a9190616254565b611f5491906162c2565b9050600354811015611f9b576040517f08c379a0000000000000000000000000000000000000000000000000000000008152600401611f929061633c565b60405180910390fd5b5f600f5490505f5b8681101561220f575f808214611fb9575f611fbb565b845b86611fc691906161a9565b9050600c5f8c73ffffffffffffffffffffffffffffffffffffffff1673ffffffffffffffffffffffffffffffffffffffff1681526020019081526020015f206005016040518060c001604052808c73ffffffffffffffffffffffffffffffffffffffff1681526020018381526020013373ffffffffffffffffffffffffffffffffffffffff168152602001848661205d91906161a9565b8152602001848661206e91906161a9565b81526020015f1515815250908060018154018082558091505060019003905f5260205f2090600602015f909190919091505f820151815f015f6101000a81548173ffffffffffffffffffffffffffffffffffffffff021916908373ffffffffffffffffffffffffffffffffffffffff160217905550602082015181600101556040820151816002015f6101000a81548173ffffffffffffffffffffffffffffffffffffffff021916908373ffffffffffffffffffffffffffffffffffffffff160217905550606082015181600301556080820151816004015560a0820151816005015f6101000a81548160ff02191690831515021790555050505f8203612201575f670de0b6b3a764000088836121859190616254565b61218f91906162c2565b905080600c5f8e73ffffffffffffffffffffffffffffffffffffffff1673ffffffffffffffffffffffffffffffffffffffff1681526020019081526020015f206001015f8282546121e091906161a9565b925050819055508060135f8282546121f891906161a9565b92505081905550505b508080600101915050611fa3565b508660125f82825461222191906161a9565b925050819055508773ffffffffffffffffffffffffffffffffffffffff168973ffffffffffffffffffffffffffffffffffffffff163373ffffffffffffffffffffffffffffffffffffffff167f28f9347a5e81bfc651d4ecde5e99d4246fd8b4b6398e2eb6aaffb667fc9d1ce48a8560018c8861229e91906161a9565b6122a89190616149565b6040516122b79392919061635a565b60405180910390a450505050506122cc613fea565b50505050565b6014602052805f5260405f205f91509050805f015490806003015490806004015490806005015490806006015f9054906101000a900460ff16905085565b61231861381e565b612320614d1a565b600c5f8373ffffffffffffffffffffffffffffffffffffffff1673ffffffffffffffffffffffffffffffffffffffff1681526020019081526020015f205f015f9054906101000a900460ff166123a2576040517f7181520200000000000000000000000000000000000000000000000000000000815260040160405180910390fd5b5f34036123db576040517fcbca5aa200000000000000000000000000000000000000000000000000000000815260040160405180910390fd5b5f8114806123e95750600481115b15612420576040517f35e270f600000000000000000000000000000000000000000000000000000000815260040160405180910390fd5b60145f600f5481526020019081526020015f206006015f9054906101000a900460ff161561247a576040517ff792f8f900000000000000000000000000000000000000000000000000000000815260040160405180910390fd5b5f600d5f8073ffffffffffffffffffffffffffffffffffffffff1673ffffffffffffffffffffffffffffffffffffffff1681526020019081526020015f205490505f81036124f4576040517fc149905d00000000000000000000000000000000000000000000000000000000815260040160405180910390fd5b5f823461250191906162c2565b90505f83826125109190616254565b3461251b9190616149565b90505f670de0b6b3a764000084846125339190616254565b61253d91906162c2565b9050600354811015612584576040517f08c379a000000000000000000000000000000000000000000000000000000000815260040161257b9061633c565b60405180910390fd5b5f600f5490505f5b868110156127f8575f8082146125a2575f6125a4565b845b866125af91906161a9565b9050600c5f8a73ffffffffffffffffffffffffffffffffffffffff1673ffffffffffffffffffffffffffffffffffffffff1681526020019081526020015f206005016040518060c001604052805f73ffffffffffffffffffffffffffffffffffffffff1681526020018381526020013373ffffffffffffffffffffffffffffffffffffffff168152602001848661264691906161a9565b8152602001848661265791906161a9565b81526020015f1515815250908060018154018082558091505060019003905f5260205f2090600602015f909190919091505f820151815f015f6101000a81548173ffffffffffffffffffffffffffffffffffffffff021916908373ffffffffffffffffffffffffffffffffffffffff160217905550602082015181600101556040820151816002015f6101000a81548173ffffffffffffffffffffffffffffffffffffffff021916908373ffffffffffffffffffffffffffffffffffffffff160217905550606082015181600301556080820151816004015560a0820151816005015f6101000a81548160ff02191690831515021790555050505f82036127ea575f670de0b6b3a7640000888361276e9190616254565b61277891906162c2565b905080600c5f8c73ffffffffffffffffffffffffffffffffffffffff1673ffffffffffffffffffffffffffffffffffffffff1681526020019081526020015f206001015f8282546127c991906161a9565b925050819055508060135f8282546127e191906161a9565b92505081905550505b50808060010191505061258c565b503460125f82825461280a91906161a9565b925050819055505f73ffffffffffffffffffffffffffffffffffffffff168773ffffffffffffffffffffffffffffffffffffffff163373ffffffffffffffffffffffffffffffffffffffff167f28f9347a5e81bfc651d4ecde5e99d4246fd8b4b6398e2eb6aaffb667fc9d1ce4348560018c8861288791906161a9565b6128919190616149565b6040516128a09392919061635a565b60405180910390a450505050506128b5613fea565b5050565b6128c1614911565b6128ca5f614ddd565b565b600f5481565b601481565b6128df614911565b6128e7614e9e565b565b655af3107a400081565b5f805f9054906101000a900473ffffffffffffffffffffffffffffffffffffffff16905090565b6060600b80548060200260200160405190810160405280929190818152602001828054801561299b57602002820191905f5260205f20905b815f9054906101000a900473ffffffffffffffffffffffffffffffffffffffff1673ffffffffffffffffffffffffffffffffffffffff1681526020019060010190808311612952575b5050505050905090565b6129ad614911565b6129b561381e565b5f73ffffffffffffffffffffffffffffffffffffffff168273ffffffffffffffffffffffffffffffffffffffff1603612a9d575f6129f16128f3565b73ffffffffffffffffffffffffffffffffffffffff1682604051612a14906163bc565b5f6040518083038185875af1925050503d805f8114612a4e576040519150601f19603f3d011682016040523d82523d5f602084013e612a53565b606091505b5050905080612a97576040517f08c379a0000000000000000000000000000000000000000000000000000000008152600401612a8e9061641a565b60405180910390fd5b50612ad0565b612acf612aa86128f3565b828473ffffffffffffffffffffffffffffffffffffffff16614f009092919063ffffffff16565b5b612ad8613fea565b5050565b61271081565b62093a8081565b5f3073ffffffffffffffffffffffffffffffffffffffff1663b16926fa83600f546040518363ffffffff1660e01b8152600401612b27929190616438565b602060405180830381865afa158015612b42573d5f803e3d5ffd5b505050506040513d601f19601f82011682018060405250810190612b669190616473565b9050919050565b60085f9054906101000a900473ffffffffffffffffffffffffffffffffffffffff1681565b5f80600c5f8573ffffffffffffffffffffffffffffffffffffffff1673ffffffffffffffffffffffffffffffffffffffff1681526020019081526020015f2060050190505f600d5f8073ffffffffffffffffffffffffffffffffffffffff1673ffffffffffffffffffffffffffffffffffffffff1681526020019081526020015f205490505f5b8280549050811015612d90575f838281548110612c3957612c386160ef565b5b905f5260205f2090600602019050806005015f9054906101000a900460ff1615612c635750612d83565b8060030154861080612c785750806004015486115b15612c835750612d83565b5f8073ffffffffffffffffffffffffffffffffffffffff16825f015f9054906101000a900473ffffffffffffffffffffffffffffffffffffffff1673ffffffffffffffffffffffffffffffffffffffff1614612d3e57600d5f835f015f9054906101000a900473ffffffffffffffffffffffffffffffffffffffff1673ffffffffffffffffffffffffffffffffffffffff1673ffffffffffffffffffffffffffffffffffffffff1681526020019081526020015f2054612d40565b835b90505f8103612d50575050612d83565b670de0b6b3a7640000818360010154612d699190616254565b612d7391906162c2565b86612d7e91906161a9565b955050505b8080600101915050612c19565b50505092915050565b69d3c21bcecceda100000081565b612daf614911565b80600e5f8473ffffffffffffffffffffffffffffffffffffffff1673ffffffffffffffffffffffffffffffffffffffff1681526020019081526020015f205f6101000a81548160ff0219169083151502179055505050565b612e0f614911565b6127108411158015612e2357506127108311155b8015612e2e57505f82115b8015612e3c57506127108211155b8015612e4a57506127108111155b612e89576040517f08c379a0000000000000000000000000000000000000000000000000000000008152600401612e80906164e8565b60405180910390fd5b84600381905550836004819055508260058190555081600681905550806007819055505050505050565b612ebb614911565b8060095f8473ffffffffffffffffffffffffffffffffffffffff1673ffffffffffffffffffffffffffffffffffffffff1681526020019081526020015f205f6101000a81548160ff0219169083151502179055508173ffffffffffffffffffffffffffffffffffffffff167f8dd62d4e1f60b96148552898e743aa2b571686baa26f4f1b647565dc3996c1a782604051612f559190615a4f565b60405180910390a25050565b600a5f3373ffffffffffffffffffffffffffffffffffffffff1673ffffffffffffffffffffffffffffffffffffffff1681526020019081526020015f205f9054906101000a900460ff1680612fe85750612fb96128f3565b73ffffffffffffffffffffffffffffffffffffffff163373ffffffffffffffffffffffffffffffffffffffff16145b61301e576040517f6ed9778800000000000000000000000000000000000000000000000000000000815260040160405180910390fd5b6130288282614f7f565b5050565b613034614911565b5f73ffffffffffffffffffffffffffffffffffffffff168173ffffffffffffffffffffffffffffffffffffffff1614806130b65750600c5f8273ffffffffffffffffffffffffffffffffffffffff1673ffffffffffffffffffffffffffffffffffffffff1681526020019081526020015f205f015f9054906101000a900460ff165b156130ed576040517f7181520200000000000000000000000000000000000000000000000000000000815260040160405180910390fd5b5f7f000000000000000000000000000000000000000000000000000000000000000073ffffffffffffffffffffffffffffffffffffffff1663b9a09fd5836040518263ffffffff1660e01b81526004016131479190615c0b565b602060405180830381865afa158015613162573d5f803e3d5ffd5b505050506040513d601f19601f82011682018060405250810190613186919061651a565b90505f73ffffffffffffffffffffffffffffffffffffffff168173ffffffffffffffffffffffffffffffffffffffff16036131ed576040517f1b4c7fdf00000000000000000000000000000000000000000000000000000000815260040160405180910390fd5b7f000000000000000000000000000000000000000000000000000000000000000073ffffffffffffffffffffffffffffffffffffffff16633af32abf836040518263ffffffff1660e01b81526004016132469190615c0b565b602060405180830381865afa92505050801561328057506040513d601f19601f8201168201806040525081019061327d9190616559565b60015b156132be57806132bc576040517f1b4c7fdf00000000000000000000000000000000000000000000000000000000815260040160405180910390fd5b505b6001600c5f8473ffffffffffffffffffffffffffffffffffffffff1673ffffffffffffffffffffffffffffffffffffffff1681526020019081526020015f205f015f6101000a81548160ff02191690831515021790555080600c5f8473ffffffffffffffffffffffffffffffffffffffff1673ffffffffffffffffffffffffffffffffffffffff1681526020019081526020015f206004015f6101000a81548173ffffffffffffffffffffffffffffffffffffffff021916908373ffffffffffffffffffffffffffffffffffffffff160217905550600b82908060018154018082558091505060019003905f5260205f20015f9091909190916101000a81548173ffffffffffffffffffffffffffffffffffffffff021916908373ffffffffffffffffffffffffffffffffffffffff1602179055508173ffffffffffffffffffffffffffffffffffffffff167f95f865c2808f8b2a85eea2611db7843150ee7835ef1403f9755918a97d76933c826040516134399190615c0b565b60405180910390a25050565b60115481565b6060600c5f8373ffffffffffffffffffffffffffffffffffffffff1673ffffffffffffffffffffffffffffffffffffffff1681526020019081526020015f20600501805480602002602001604051908101604052809291908181526020015f905b828210156135bd578382905f5260205f2090600602016040518060c00160405290815f82015f9054906101000a900473ffffffffffffffffffffffffffffffffffffffff1673ffffffffffffffffffffffffffffffffffffffff1673ffffffffffffffffffffffffffffffffffffffff16815260200160018201548152602001600282015f9054906101000a900473ffffffffffffffffffffffffffffffffffffffff1673ffffffffffffffffffffffffffffffffffffffff1673ffffffffffffffffffffffffffffffffffffffff1681526020016003820154815260200160048201548152602001600582015f9054906101000a900460ff161515151581525050815260200190600101906134ac565b505050509050919050565b600a5f3373ffffffffffffffffffffffffffffffffffffffff1673ffffffffffffffffffffffffffffffffffffffff1681526020019081526020015f205f9054906101000a900460ff168061364f57506136206128f3565b73ffffffffffffffffffffffffffffffffffffffff163373ffffffffffffffffffffffffffffffffffffffff16145b613685576040517f6ed9778800000000000000000000000000000000000000000000000000000000815260040160405180910390fd5b8181905084849050146136c4576040517f8b140a8100000000000000000000000000000000000000000000000000000000815260040160405180910390fd5b5f5b848490508110156137285761371b8585838181106136e7576136e66160ef565b5b90506020020160208101906136fc9190615979565b84848481811061370f5761370e6160ef565b5b90506020020135614f7f565b80806001019150506136c6565b5050505050565b613737614911565b5f73ffffffffffffffffffffffffffffffffffffffff168173ffffffffffffffffffffffffffffffffffffffff16036137a7575f6040517f1e4fbdf700000000000000000000000000000000000000000000000000000000815260040161379e9190615c0b565b60405180910390fd5b6137b081614ddd565b50565b60105481565b60065481565b600b81815481106137ce575f80fd5b905f5260205f20015f915054906101000a900473ffffffffffffffffffffffffffffffffffffffff1681565b7f000000000000000000000000000000000000000000000000000000000000000081565b60026001540361385a576040517f3ee5aeb500000000000000000000000000000000000000000000000000000000815260040160405180910390fd5b6002600181905550565b5f807f000000000000000000000000000000000000000000000000000000000000000073ffffffffffffffffffffffffffffffffffffffff1663f7d8252d6040518163ffffffff1660e01b8152600401602060405180830381865afa1580156138cf573d5f803e3d5ffd5b505050506040513d601f19601f820116820180604052508101906138f39190616473565b90505f8103613905575f9150506139b2565b62093a807f000000000000000000000000000000000000000000000000000000000000000073ffffffffffffffffffffffffffffffffffffffff1663f3594be0836040518263ffffffff1660e01b81526004016139629190615a36565b602060405180830381865afa15801561397d573d5f803e3d5ffd5b505050506040513d601f19601f820116820180604052508101906139a19190616473565b6139ab91906161a9565b4210159150505b90565b5f7f000000000000000000000000000000000000000000000000000000000000000073ffffffffffffffffffffffffffffffffffffffff1663f7d8252d6040518163ffffffff1660e01b8152600401602060405180830381865afa158015613a1f573d5f803e3d5ffd5b505050506040513d601f19601f82011682018060405250810190613a439190616473565b90505f8103613a7e576040517f61fcedbe00000000000000000000000000000000000000000000000000000000815260040160405180910390fd5b5f7f000000000000000000000000000000000000000000000000000000000000000073ffffffffffffffffffffffffffffffffffffffff1663d188929f836040518263ffffffff1660e01b8152600401613ad89190615a36565b60c060405180830381865afa158015613af3573d5f803e3d5ffd5b505050506040513d601f19601f82011682018060405250810190613b179190616584565b505050925050505f8103613b57576040517f7c176b7400000000000000000000000000000000000000000000000000000000815260040160405180910390fd5b5f80613b61613ff3565b915091505f825111613ba8576040517f08c379a0000000000000000000000000000000000000000000000000000000008152600401613b9f90616657565b60405180910390fd5b5f7f000000000000000000000000000000000000000000000000000000000000000073ffffffffffffffffffffffffffffffffffffffff1663f3594be0866040518263ffffffff1660e01b8152600401613c029190615a36565b602060405180830381865afa158015613c1d573d5f803e3d5ffd5b505050506040513d601f19601f82011682018060405250810190613c419190616473565b1115613d83575f63310bd74b60e01b85604051602401613c619190615a36565b604051602081830303815290604052907bffffffffffffffffffffffffffffffffffffffffffffffffffffffff19166020820180517bffffffffffffffffffffffffffffffffffffffffffffffffffffffff838183161783525050505090507f000000000000000000000000000000000000000000000000000000000000000073ffffffffffffffffffffffffffffffffffffffff166362d0ce28867f0000000000000000000000000000000000000000000000000000000000000000846040518463ffffffff1660e01b8152600401613d3d939291906166ff565b5f604051808303815f875af1158015613d58573d5f803e3d5ffd5b505050506040513d5f823e3d601f19601f82011682018060405250810190613d809190616855565b50505b5f637ac09bf760e01b858484604051602401613da19392919061689c565b604051602081830303815290604052907bffffffffffffffffffffffffffffffffffffffffffffffffffffffff19166020820180517bffffffffffffffffffffffffffffffffffffffffffffffffffffffff838183161783525050505090507f000000000000000000000000000000000000000000000000000000000000000073ffffffffffffffffffffffffffffffffffffffff166362d0ce28867f0000000000000000000000000000000000000000000000000000000000000000846040518463ffffffff1660e01b8152600401613e7d939291906166ff565b5f604051808303815f875af1158015613e98573d5f803e3d5ffd5b505050506040513d5f823e3d601f19601f82011682018060405250810190613ec09190616855565b506040518060e00160405280858152602001848152602001838152602001613ee6615143565b81526020015f81526020014281526020016001151581525060145f600f5481526020019081526020015f205f820151815f01556020820151816001019080519060200190613f35929190615821565b506040820151816002019080519060200190613f529291906158a8565b50606082015181600301556080820151816004015560a0820151816005015560c0820151816006015f6101000a81548160ff0219169083151502179055509050504260118190555084600f547f7ff3d6e9c8c307ce0b1783e400a2efc05dd474fcb920f8f7b5a6af622a8f25cb8585604051613fcf929190615bd6565b60405180910390a3613fe3600f54846151f0565b5050505050565b60018081905550565b6060805f600b8054905090505f8111614041576040517f08c379a000000000000000000000000000000000000000000000000000000000815260040161403890616929565b60405180910390fd5b5f8167ffffffffffffffff81111561405c5761405b61673f565b5b60405190808252806020026020018201604052801561408a5781602001602082028036833780820191505090505b5090505f8267ffffffffffffffff8111156140a8576140a761673f565b5b6040519080825280602002602001820160405280156140d65781602001602082028036833780820191505090505b5090505f805b84811015614262575f600b82815481106140f9576140f86160ef565b5b905f5260205f20015f9054906101000a900473ffffffffffffffffffffffffffffffffffffffff1690505f600c5f8373ffffffffffffffffffffffffffffffffffffffff1673ffffffffffffffffffffffffffffffffffffffff1681526020019081526020015f209050805f015f9054906101000a900460ff1661417e575050614255565b5f61271060045483600101546141949190616254565b61419e91906162c2565b90505f8260020154826141b191906161a9565b90505f81036141c35750505050614255565b838887815181106141d7576141d66160ef565b5b602002602001019073ffffffffffffffffffffffffffffffffffffffff16908173ffffffffffffffffffffffffffffffffffffffff168152505080878781518110614225576142246160ef565b5b602002602001018181525050858061423c90616947565b965050601486036142505750505050614262565b505050505b80806001019150506140dc565b505f81116142a5576040517f08c379a000000000000000000000000000000000000000000000000000000000815260040161429c906169d8565b60405180910390fd5b5f8167ffffffffffffffff8111156142c0576142bf61673f565b5b6040519080825280602002602001820160405280156142ee5781602001602082028036833780820191505090505b5090505f8267ffffffffffffffff81111561430c5761430b61673f565b5b60405190808252806020026020018201604052801561433a5781602001602082028036833780820191505090505b5090505f5b838110156143f65785818151811061435a576143596160ef565b5b6020026020010151838281518110614375576143746160ef565b5b602002602001019073ffffffffffffffffffffffffffffffffffffffff16908173ffffffffffffffffffffffffffffffffffffffff16815250508481815181106143c2576143c16160ef565b5b60200260200101518282815181106143dd576143dc6160ef565b5b602002602001018181525050808060010191505061433f565b505f5b8360018261440791906161a9565b10156145c4575f60018261441b91906161a9565b90505b848110156145b057828281518110614439576144386160ef565b5b6020026020010151838281518110614454576144536160ef565b5b602002602001015111156145a357828181518110614475576144746160ef565b5b60200260200101518383815181106144905761448f6160ef565b5b60200260200101518484815181106144ab576144aa6160ef565b5b602002602001018584815181106144c5576144c46160ef565b5b60200260200101828152508281525050508381815181106144e9576144e86160ef565b5b6020026020010151848381518110614504576145036160ef565b5b602002602001015185848151811061451f5761451e6160ef565b5b60200260200101868481518110614539576145386160ef565b5b602002602001018273ffffffffffffffffffffffffffffffffffffffff1673ffffffffffffffffffffffffffffffffffffffff168152508273ffffffffffffffffffffffffffffffffffffffff1673ffffffffffffffffffffffffffffffffffffffff1681525050505b808060010191505061441e565b5080806145bc90616947565b9150506143f9565b505f805b84811015614605578281815181106145e3576145e26160ef565b5b6020026020010151826145f691906161a9565b915080806001019150506145c8565b505f8467ffffffffffffffff8111156146215761462061673f565b5b60405190808252806020026020018201604052801561464f5781602001602082028036833780820191505090505b5090505f805b86811015614710575f84612710878481518110614675576146746160ef565b5b60200260200101516146879190616254565b61469191906162c2565b90506006548110156146c3575f8483815181106146b1576146b06160ef565b5b60200260200101818152505050614703565b6005548111156146d35760055490505b808483815181106146e7576146e66160ef565b5b60200260200101818152505080836146ff91906161a9565b9250505b8080600101915050614655565b50612710811015614736576147358161271061472c9190616149565b83600554615567565b5b5f805b8781101561477f575f848281518110614755576147546160ef565b5b6020026020010151111561477257818061476e90616947565b9250505b8080600101915050614739565b508067ffffffffffffffff81111561479a5761479961673f565b5b6040519080825280602002602001820160405280156147c85781602001602082028036833780820191505090505b509b508067ffffffffffffffff8111156147e5576147e461673f565b5b6040519080825280602002602001820160405280156148135781602001602082028036833780820191505090505b509a505f805b88811015614901575f858281518110614835576148346160ef565b5b602002602001015103156148f457878181518110614856576148556160ef565b5b60200260200101518e8381518110614871576148706160ef565b5b602002602001019073ffffffffffffffffffffffffffffffffffffffff16908173ffffffffffffffffffffffffffffffffffffffff16815250508481815181106148be576148bd6160ef565b5b60200260200101518d83815181106148d9576148d86160ef565b5b60200260200101818152505081806148f090616947565b9250505b8080600101915050614819565b5050505050505050505050509091565b61491961573f565b73ffffffffffffffffffffffffffffffffffffffff166149376128f3565b73ffffffffffffffffffffffffffffffffffffffff16146149965761495a61573f565b6040517f118cdaa700000000000000000000000000000000000000000000000000000000815260040161498d9190615c0b565b60405180910390fd5b565b5f600c5f8473ffffffffffffffffffffffffffffffffffffffff1673ffffffffffffffffffffffffffffffffffffffff1681526020019081526020015f2060050190505f8180549050036149ec5750614cb5565b5f805f5b8380549050811015614c03575f848281548110614a1057614a0f6160ef565b5b905f5260205f20906006020190505f816005015f9054906101000a900460ff168015614a4d5750600f5460038360040154614a4b91906161a9565b105b905080614bbd57828514614bae57858381548110614a6e57614a6d6160ef565b5b905f5260205f209060060201868681548110614a8d57614a8c6160ef565b5b905f5260205f2090600602015f82015f9054906101000a900473ffffffffffffffffffffffffffffffffffffffff16815f015f6101000a81548173ffffffffffffffffffffffffffffffffffffffff021916908373ffffffffffffffffffffffffffffffffffffffff16021790555060018201548160010155600282015f9054906101000a900473ffffffffffffffffffffffffffffffffffffffff16816002015f6101000a81548173ffffffffffffffffffffffffffffffffffffffff021916908373ffffffffffffffffffffffffffffffffffffffff1602179055506003820154816003015560048201548160040155600582015f9054906101000a900460ff16816005015f6101000a81548160ff0219169083151502179055509050505b8480614bb990616947565b9550505b8684614bc890616947565b94508410158015614be857508580549050600184614be691906161a9565b105b15614bf4575050614c03565b505080806001019150506149f0565b505b8183805490501115614cb15782805480614c2257614c2161617c565b5b600190038181905f5260205f2090600602015f8082015f6101000a81549073ffffffffffffffffffffffffffffffffffffffff0219169055600182015f9055600282015f6101000a81549073ffffffffffffffffffffffffffffffffffffffff0219169055600382015f9055600482015f9055600582015f6101000a81549060ff021916905550509055614c05565b5050505b5050565b614cc1615746565b5f60025f6101000a81548160ff0219169083151502179055507f5db9ee0a495bf2e6ff9c91a7834c1ba4fdd244a5e8aa4e537bd38aeae4b073aa614d0361573f565b604051614d109190615c0b565b60405180910390a1565b614d22611898565b15614d59576040517fd93c066500000000000000000000000000000000000000000000000000000000815260040160405180910390fd5b565b614dd7848573ffffffffffffffffffffffffffffffffffffffff166323b872dd868686604051602401614d90939291906169f6565b604051602081830303815290604052915060e01b6020820180517bffffffffffffffffffffffffffffffffffffffffffffffffffffffff8381831617835250505050615786565b50505050565b5f805f9054906101000a900473ffffffffffffffffffffffffffffffffffffffff169050815f806101000a81548173ffffffffffffffffffffffffffffffffffffffff021916908373ffffffffffffffffffffffffffffffffffffffff1602179055508173ffffffffffffffffffffffffffffffffffffffff168173ffffffffffffffffffffffffffffffffffffffff167f8be0079c531659141344cd1fd0a4f28419497f9722a3daafe3b4186f6b6457e060405160405180910390a35050565b614ea6614d1a565b600160025f6101000a81548160ff0219169083151502179055507f62e78cea01bee320cd4e420270b5ea74000d11b0c9f74754ebdbfc544b05a258614ee961573f565b604051614ef69190615c0b565b60405180910390a1565b614f7a838473ffffffffffffffffffffffffffffffffffffffff1663a9059cbb8585604051602401614f33929190616438565b604051602081830303815290604052915060e01b6020820180517bffffffffffffffffffffffffffffffffffffffffffffffffffffffff8381831617835250505050615786565b505050565b655af3107a40008110158015614f9f575069d3c21bcecceda10000008111155b614fde576040517f08c379a0000000000000000000000000000000000000000000000000000000008152600401614fd590616a75565b60405180910390fd5b5f600d5f8473ffffffffffffffffffffffffffffffffffffffff1673ffffffffffffffffffffffffffffffffffffffff1681526020019081526020015f205490505f8111156150ae575f81831161504057828261503b9190616149565b61504d565b818361504c9190616149565b5b905060075482612710836150619190616254565b61506b91906162c2565b11156150ac576040517f08c379a00000000000000000000000000000000000000000000000000000000081526004016150a390616add565b60405180910390fd5b505b81600d5f8573ffffffffffffffffffffffffffffffffffffffff1673ffffffffffffffffffffffffffffffffffffffff1681526020019081526020015f20819055508273ffffffffffffffffffffffffffffffffffffffff167f0d86730737b142fc160892fa8a0f2db687a92a0e294d1ad70624cf5acef03b84836040516151369190615a36565b60405180910390a2505050565b5f805f90505b600b805490508110156151ec57600c5f600b838154811061516d5761516c6160ef565b5b905f5260205f20015f9054906101000a900473ffffffffffffffffffffffffffffffffffffffff1673ffffffffffffffffffffffffffffffffffffffff1673ffffffffffffffffffffffffffffffffffffffff1681526020019081526020015f2060010154826151dd91906161a9565b91508080600101915050615149565b5090565b5f5b8151811015615562575f600c5f848481518110615212576152116160ef565b5b602002602001015173ffffffffffffffffffffffffffffffffffffffff1673ffffffffffffffffffffffffffffffffffffffff1681526020019081526020015f209050805f015f9054906101000a900460ff1661526f5750615555565b5f8160050190505f818054905090505f5b81811015615550575f83828154811061529c5761529b6160ef565b5b905f5260205f2090600602019050806005015f9054906101000a900460ff16156152c65750615543565b80600301548810806152db5750806004015488115b156152e65750615543565b6001816005015f6101000a81548160ff0219169083151502179055505f73ffffffffffffffffffffffffffffffffffffffff16815f015f9054906101000a900473ffffffffffffffffffffffffffffffffffffffff1673ffffffffffffffffffffffffffffffffffffffff1603615429575f7f000000000000000000000000000000000000000000000000000000000000000073ffffffffffffffffffffffffffffffffffffffff1682600101546040516153a0906163bc565b5f6040518083038185875af1925050503d805f81146153da576040519150601f19603f3d011682016040523d82523d5f602084013e6153df565b606091505b5050905080615423576040517f08c379a000000000000000000000000000000000000000000000000000000000815260040161541a90616b45565b60405180910390fd5b5061549b565b61549a7f00000000000000000000000000000000000000000000000000000000000000008260010154835f015f9054906101000a900473ffffffffffffffffffffffffffffffffffffffff1673ffffffffffffffffffffffffffffffffffffffff16614f009092919063ffffffff16565b5b805f015f9054906101000a900473ffffffffffffffffffffffffffffffffffffffff1673ffffffffffffffffffffffffffffffffffffffff16888888815181106154e8576154e76160ef565b5b602002602001015173ffffffffffffffffffffffffffffffffffffffff167f66cfa7ab1492bbf1253e836e778bb259eedc0b5c7147ff81b7954af1500e5a2b84600101546040516155399190615a36565b60405180910390a4505b8080600101915050615280565b505050505b80806001019150506151f2565b505050565b5f83031561573a575f825190505b5f841115615643575f805b828110801561558e57505f86115b15615631575f8582815181106155a7576155a66160ef565b5b60200260200101511180156155d55750838582815181106155cb576155ca6160ef565b5b6020026020010151105b1561561e5760018582815181106155ef576155ee6160ef565b5b6020026020010181815161560391906161a9565b915081815250506001866156179190616149565b9550600191505b808061562990616947565b915050615580565b508061563d5750615643565b50615575565b5f841115615738575f5b818110801561565b57505f85115b15615736575f848281518110615674576156736160ef565b5b60200260200101510315615723575f8590506127108186848151811061569d5761569c6160ef565b5b60200260200101516156af91906161a9565b11156156e0578482815181106156c8576156c76160ef565b5b60200260200101516127106156dd9190616149565b90505b808583815181106156f4576156f36160ef565b5b6020026020010181815161570891906161a9565b91508181525050808661571b9190616149565b955050615736565b808061572e90616947565b91505061564d565b505b505b505050565b5f33905090565b61574e611898565b615784576040517f8dfc202b00000000000000000000000000000000000000000000000000000000815260040160405180910390fd5b565b5f8060205f8451602086015f885af1806157a5576040513d5f823e3d81fd5b3d92505f519150505f82146157be5760018114156157d9565b5f8473ffffffffffffffffffffffffffffffffffffffff163b145b1561581b57836040517f5274afe70000000000000000000000000000000000000000000000000000000081526004016158129190615c0b565b60405180910390fd5b50505050565b828054828255905f5260205f20908101928215615897579160200282015b82811115615896578251825f6101000a81548173ffffffffffffffffffffffffffffffffffffffff021916908373ffffffffffffffffffffffffffffffffffffffff1602179055509160200191906001019061583f565b5b5090506158a491906158f3565b5090565b828054828255905f5260205f209081019282156158e2579160200282015b828111156158e15782518255916020019190600101906158c6565b5b5090506158ef91906158f3565b5090565b5b8082111561590a575f815f9055506001016158f4565b5090565b5f604051905090565b5f80fd5b5f80fd5b5f73ffffffffffffffffffffffffffffffffffffffff82169050919050565b5f6159488261591f565b9050919050565b6159588161593e565b8114615962575f80fd5b50565b5f813590506159738161594f565b92915050565b5f6020828403121561598e5761598d615917565b5b5f61599b84828501615965565b91505092915050565b5f8115159050919050565b6159b8816159a4565b82525050565b5f819050919050565b6159d0816159be565b82525050565b6159df8161593e565b82525050565b5f60a0820190506159f85f8301886159af565b615a0560208301876159c7565b615a1260408301866159c7565b615a1f60608301856159c7565b615a2c60808301846159d6565b9695505050505050565b5f602082019050615a495f8301846159c7565b92915050565b5f602082019050615a625f8301846159af565b92915050565b5f81519050919050565b5f82825260208201905092915050565b5f819050602082019050919050565b615a9a8161593e565b82525050565b5f615aab8383615a91565b60208301905092915050565b5f602082019050919050565b5f615acd82615a68565b615ad78185615a72565b9350615ae283615a82565b805f5b83811015615b12578151615af98882615aa0565b9750615b0483615ab7565b925050600181019050615ae5565b5085935050505092915050565b5f81519050919050565b5f82825260208201905092915050565b5f819050602082019050919050565b615b51816159be565b82525050565b5f615b628383615b48565b60208301905092915050565b5f602082019050919050565b5f615b8482615b1f565b615b8e8185615b29565b9350615b9983615b39565b805f5b83811015615bc9578151615bb08882615b57565b9750615bbb83615b6e565b925050600181019050615b9c565b5085935050505092915050565b5f6040820190508181035f830152615bee8185615ac3565b90508181036020830152615c028184615b7a565b90509392505050565b5f602082019050615c1e5f8301846159d6565b92915050565b615c2d816159a4565b8114615c37575f80fd5b50565b5f81359050615c4881615c24565b92915050565b5f8060408385031215615c6457615c63615917565b5b5f615c7185828601615965565b9250506020615c8285828601615c3a565b9150509250929050565b615c95816159be565b8114615c9f575f80fd5b50565b5f81359050615cb081615c8c565b92915050565b5f8060408385031215615ccc57615ccb615917565b5b5f615cd985828601615965565b9250506020615cea85828601615ca2565b9150509250929050565b5f805f8060808587031215615d0c57615d0b615917565b5b5f615d1987828801615965565b9450506020615d2a87828801615965565b9350506040615d3b87828801615ca2565b9250506060615d4c87828801615ca2565b91505092959194509250565b5f60208284031215615d6d57615d6c615917565b5b5f615d7a84828501615ca2565b91505092915050565b5f60a082019050615d965f8301886159c7565b615da360208301876159c7565b615db060408301866159c7565b615dbd60608301856159c7565b615dca60808301846159af565b9695505050505050565b5f6020820190508181035f830152615dec8184615ac3565b905092915050565b5f805f805f60a08688031215615e0d57615e0c615917565b5b5f615e1a88828901615ca2565b9550506020615e2b88828901615ca2565b9450506040615e3c88828901615ca2565b9350506060615e4d88828901615ca2565b9250506080615e5e88828901615ca2565b9150509295509295909350565b5f81519050919050565b5f82825260208201905092915050565b5f819050602082019050919050565b615e9d816159a4565b82525050565b60c082015f820151615eb75f850182615a91565b506020820151615eca6020850182615b48565b506040820151615edd6040850182615a91565b506060820151615ef06060850182615b48565b506080820151615f036080850182615b48565b5060a0820151615f1660a0850182615e94565b50505050565b5f615f278383615ea3565b60c08301905092915050565b5f602082019050919050565b5f615f4982615e6b565b615f538185615e75565b9350615f5e83615e85565b805f5b83811015615f8e578151615f758882615f1c565b9750615f8083615f33565b925050600181019050615f61565b5085935050505092915050565b5f6020820190508181035f830152615fb38184615f3f565b905092915050565b5f80fd5b5f80fd5b5f80fd5b5f8083601f840112615fdc57615fdb615fbb565b5b8235905067ffffffffffffffff811115615ff957615ff8615fbf565b5b60208301915083602082028301111561601557616014615fc3565b5b9250929050565b5f8083601f84011261603157616030615fbb565b5b8235905067ffffffffffffffff81111561604e5761604d615fbf565b5b60208301915083602082028301111561606a57616069615fc3565b5b9250929050565b5f805f806040858703121561608957616088615917565b5b5f85013567ffffffffffffffff8111156160a6576160a561591b565b5b6160b287828801615fc7565b9450945050602085013567ffffffffffffffff8111156160d5576160d461591b565b5b6160e18782880161601c565b925092505092959194509250565b7f4e487b71000000000000000000000000000000000000000000000000000000005f52603260045260245ffd5b7f4e487b71000000000000000000000000000000000000000000000000000000005f52601160045260245ffd5b5f616153826159be565b915061615e836159be565b92508282039050818111156161765761617561611c565b5b92915050565b7f4e487b71000000000000000000000000000000000000000000000000000000005f52603160045260245ffd5b5f6161b3826159be565b91506161be836159be565b92508282019050808211156161d6576161d561611c565b5b92915050565b5f82825260208201905092915050565b7f766f7465206e6f742065786563757465640000000000000000000000000000005f82015250565b5f6162206011836161dc565b915061622b826161ec565b602082019050919050565b5f6020820190508181035f83015261624d81616214565b9050919050565b5f61625e826159be565b9150616269836159be565b9250828202616277816159be565b9150828204841483151761628e5761628d61611c565b5b5092915050565b7f4e487b71000000000000000000000000000000000000000000000000000000005f52601260045260245ffd5b5f6162cc826159be565b91506162d7836159be565b9250826162e7576162e6616295565b5b828204905092915050565b7f7065722d65706f636820746f6f20736d616c6c000000000000000000000000005f82015250565b5f6163266013836161dc565b9150616331826162f2565b602082019050919050565b5f6020820190508181035f8301526163538161631a565b9050919050565b5f60608201905061636d5f8301866159c7565b61637a60208301856159c7565b61638760408301846159c7565b949350505050565b5f81905092915050565b50565b5f6163a75f8361638f565b91506163b282616399565b5f82019050919050565b5f6163c68261639c565b9150819050919050565b7f455448207472616e73666572206661696c6564000000000000000000000000005f82015250565b5f6164046013836161dc565b915061640f826163d0565b602082019050919050565b5f6020820190508181035f830152616431816163f8565b9050919050565b5f60408201905061644b5f8301856159d6565b61645860208301846159c7565b9392505050565b5f8151905061646d81615c8c565b92915050565b5f6020828403121561648857616487615917565b5b5f6164958482850161645f565b91505092915050565b7f62616420706172616d73000000000000000000000000000000000000000000005f82015250565b5f6164d2600a836161dc565b91506164dd8261649e565b602082019050919050565b5f6020820190508181035f8301526164ff816164c6565b9050919050565b5f815190506165148161594f565b92915050565b5f6020828403121561652f5761652e615917565b5b5f61653c84828501616506565b91505092915050565b5f8151905061655381615c24565b92915050565b5f6020828403121561656e5761656d615917565b5b5f61657b84828501616545565b91505092915050565b5f805f805f8060c0878903121561659e5761659d615917565b5b5f6165ab89828a01616545565b96505060206165bc89828a0161645f565b95505060406165cd89828a0161645f565b94505060606165de89828a0161645f565b93505060806165ef89828a01616545565b92505060a061660089828a01616545565b9150509295509295509295565b7f6e6f20656c696769626c6520706f6f6c730000000000000000000000000000005f82015250565b5f6166416011836161dc565b915061664c8261660d565b602082019050919050565b5f6020820190508181035f83015261666e81616635565b9050919050565b5f81519050919050565b5f82825260208201905092915050565b5f5b838110156166ac578082015181840152602081019050616691565b5f8484015250505050565b5f601f19601f8301169050919050565b5f6166d182616675565b6166db818561667f565b93506166eb81856020860161668f565b6166f4816166b7565b840191505092915050565b5f6060820190506167125f8301866159c7565b61671f60208301856159d6565b818103604083015261673181846166c7565b9050949350505050565b5f80fd5b7f4e487b71000000000000000000000000000000000000000000000000000000005f52604160045260245ffd5b616775826166b7565b810181811067ffffffffffffffff821117156167945761679361673f565b5b80604052505050565b5f6167a661590e565b90506167b2828261676c565b919050565b5f67ffffffffffffffff8211156167d1576167d061673f565b5b6167da826166b7565b9050602081019050919050565b5f6167f96167f4846167b7565b61679d565b9050828152602081018484840111156168155761681461673b565b5b61682084828561668f565b509392505050565b5f82601f83011261683c5761683b615fbb565b5b815161684c8482602086016167e7565b91505092915050565b5f6020828403121561686a57616869615917565b5b5f82015167ffffffffffffffff8111156168875761688661591b565b5b61689384828501616828565b91505092915050565b5f6060820190506168af5f8301866159c7565b81810360208301526168c18185615ac3565b905081810360408301526168d58184615b7a565b9050949350505050565b7f6e6f20706f6f6c730000000000000000000000000000000000000000000000005f82015250565b5f6169136008836161dc565b915061691e826168df565b602082019050919050565b5f6020820190508181035f83015261694081616907565b9050919050565b5f616951826159be565b91507fffffffffffffffffffffffffffffffffffffffffffffffffffffffffffffffff82036169835761698261611c565b5b600182019050919050565b7f7a65726f2073636f7265730000000000000000000000000000000000000000005f82015250565b5f6169c2600b836161dc565b91506169cd8261698e565b602082019050919050565b5f6020820190508181035f8301526169ef816169b6565b9050919050565b5f606082019050616a095f8301866159d6565b616a1660208301856159d6565b616a2360408301846159c7565b949350505050565b7f707269636520626f756e647300000000000000000000000000000000000000005f82015250565b5f616a5f600c836161dc565b9150616a6a82616a2b565b602082019050919050565b5f6020820190508181035f830152616a8c81616a53565b9050919050565b7f7072696365206a756d70000000000000000000000000000000000000000000005f82015250565b5f616ac7600a836161dc565b9150616ad282616a93565b602082019050919050565b5f6020820190508181035f830152616af481616abb565b9050919050565b7f4554482078666572206661696c000000000000000000000000000000000000005f82015250565b5f616b2f600d836161dc565b9150616b3a82616afb565b602082019050919050565b5f6020820190508181035f830152616b5c81616b23565b905091905056fea264697066735822122098df80918d1aa12efe055abe77d4e94264dcea99fe50ef2cf92cf10afa20d74464736f6c63430008180033","linkReferences":{}},"methodIdentifiers":{"BPS_BASE()":"9eaa1b09","EPOCH_DURATION()":"a70b9f0c","MAX_POOLS()":"81358498","MAX_PRICE_USD()":"bfd97cd6","MIN_PRICE_USD()":"873be435","VOTE_WINDOW()":"469a78d2","activePools(uint256)":"f87793ad","addPool(address)":"d914cd4b","advanceEpoch()":"3cf80e6c","allowedBribeTokens(address)":"67f9e0bf","bribeDiscountBPS()":"615e6ce7","canExecuteVotes()":"5eccabdd","currentEpoch()":"76671808","depositBribe(address,address,uint256,uint256)":"6d74826f","depositETHBribe(address,uint256)":"6f482108","emergencyWithdraw(address,uint256)":"95ccea67","epochData(uint256)":"6e821b2e","epochStartTime()":"f60ca641","executeVotes()":"65a74b14","executeVotesNow()":"0ccc544c","getActivePools()":"8ec08354","getOptimalAllocation()":"33a7ad76","getPoolBribes(address)":"e7e3bb39","getPoolInfo(address)":"06bfa938","getUnclaimedBribesUSD(address,uint256)":"b16926fa","getUnclaimedBribesUSDCurrent(address)":"a93a31d3","keepers(address)":"3bbd64bc","lastVoteTime()":"dac17430","maxPoolAllocationBPS()":"0752c8e5","maxPriceChangeBps()":"697cd71a","minBribeUSDPerEpoch()":"2a9466ec","minVoteWeightBPS()":"f701463c","owner()":"8da5cb5b","pause()":"8456cb59","paused()":"5c975abb","poolData(address)":"136efb7a","priceUpdaters(address)":"125dfb09","removePool(address)":"3b7d0946","renounceOwnership()":"715018a6","revenueCalculator()":"ad2eed9b","setAllowedBribeToken(address,bool)":"c3268d39","setKeeper(address,bool)":"d1b9e853","setPriceUpdater(address,bool)":"52a72510","setRevenueCalculator(address)":"434c2d4d","setRevenueParams(uint256,uint256,uint256,uint256,uint256)":"c87b8ca3","timeUntilNextEpoch()":"5a5da627","tokenPricesUSD(address)":"19089a0d","totalBribesCollected()":"58657a4a","totalBribesCollectedUSD()":"10b30910","transferOwnership(address)":"f2fde38b","treasury()":"61d027b3","unpause()":"3f4ba83a","updatePoolBaseRevenue(address,uint256)":"6a20f3f7","updateTokenPrice(address,uint256)":"d4ee651b","updateTokenPrices(address[],uint256[])":"eff29f8e","vault()":"fbfa77cf","voter()":"46c96aac"},"id":56}