{"abi":[{"type":"constructor","inputs":[],"stateMutability":"nonpayable"},{"type":"function","name":"BURNER_ROLE","inputs":[],"outputs":[{"name":"","type":"bytes32","internalType":"bytes32"}],"stateMutability":"view"},{"type":"function","name":"DEFAULT_ADMIN_ROLE","inputs":[],"outputs":[{"name":"","type":"bytes32","internalType":"bytes32"}],"stateMutability":"view"},{"type":"function","name":"DOMAIN_SEPARATOR","inputs":[],"outputs":[{"name":"","type":"bytes32","internalType":"bytes32"}],"stateMutability":"view"},{"type":"function","name":"MINTER_ROLE","inputs":[],"outputs":[{"name":"","type":"bytes32","internalType":"bytes32"}],"stateMutability":"view"},{"type":"function","name":"allowance","inputs":[{"name":"owner","type":"address","internalType":"address"},{"name":"spender","type":"address","internalType":"address"}],"outputs":[{"name":"","type":"uint256","internalType":"uint256"}],"stateMutability":"view"},{"type":"function","name":"approve","inputs":[{"name":"spender","type":"address","internalType":"address"},{"name":"value","type":"uint256","internalType":"uint256"}],"outputs":[{"name":"","type":"bool","internalType":"bool"}],"stateMutability":"nonpayable"},{"type":"function","name":"balanceOf","inputs":[{"name":"account","type":"address","internalType":"address"}],"outputs":[{"name":"","type":"uint256","internalType":"uint256"}],"stateMutability":"view"},{"type":"function","name":"burn","inputs":[{"name":"amount","type":"uint256","internalType":"uint256"}],"outputs":[],"stateMutability":"nonpayable"},{"type":"function","name":"burnFrom","inputs":[{"name":"from","type":"address","internalType":"address"},{"name":"amount","type":"uint256","internalType":"uint256"}],"outputs":[],"stateMutability":"nonpayable"},{"type":"function","name":"decimals","inputs":[],"outputs":[{"name":"","type":"uint8","internalType":"uint8"}],"stateMutability":"view"},{"type":"function","name":"eip712Domain","inputs":[],"outputs":[{"name":"fields","type":"bytes1","internalType":"bytes1"},{"name":"name","type":"string","internalType":"string"},{"name":"version","type":"string","internalType":"string"},{"name":"chainId","type":"uint256","internalType":"uint256"},{"name":"verifyingContract","type":"address","internalType":"address"},{"name":"salt","type":"bytes32","internalType":"bytes32"},{"name":"extensions","type":"uint256[]","internalType":"uint256[]"}],"stateMutability":"view"},{"type":"function","name":"getRoleAdmin","inputs":[{"name":"role","type":"bytes32","internalType":"bytes32"}],"outputs":[{"name":"","type":"bytes32","internalType":"bytes32"}],"stateMutability":"view"},{"type":"function","name":"grantRole","inputs":[{"name":"role","type":"bytes32","internalType":"bytes32"},{"name":"account","type":"address","internalType":"address"}],"outputs":[],"stateMutability":"nonpayable"},{"type":"function","name":"hasRole","inputs":[{"name":"role","type":"bytes32","internalType":"bytes32"},{"name":"account","type":"address","internalType":"address"}],"outputs":[{"name":"","type":"bool","internalType":"bool"}],"stateMutability":"view"},{"type":"function","name":"mint","inputs":[{"name":"to","type":"address","internalType":"address"},{"name":"amount","type":"uint256","internalType":"uint256"}],"outputs":[],"stateMutability":"nonpayable"},{"type":"function","name":"name","inputs":[],"outputs":[{"name":"","type":"string","internalType":"string"}],"stateMutability":"view"},{"type":"function","name":"nonces","inputs":[{"name":"owner","type":"address","internalType":"address"}],"outputs":[{"name":"","type":"uint256","internalType":"uint256"}],"stateMutability":"view"},{"type":"function","name":"permit","inputs":[{"name":"owner","type":"address","internalType":"address"},{"name":"spender","type":"address","internalType":"address"},{"name":"value","type":"uint256","internalType":"uint256"},{"name":"deadline","type":"uint256","internalType":"uint256"},{"name":"v","type":"uint8","internalType":"uint8"},{"name":"r","type":"bytes32","internalType":"bytes32"},{"name":"s","type":"bytes32","internalType":"bytes32"}],"outputs":[],"stateMutability":"nonpayable"},{"type":"function","name":"renounceRole","inputs":[{"name":"role","type":"bytes32","internalType":"bytes32"},{"name":"callerConfirmation","type":"address","internalType":"address"}],"outputs":[],"stateMutability":"nonpayable"},{"type":"function","name":"revokeRole","inputs":[{"name":"role","type":"bytes32","internalType":"bytes32"},{"name":"account","type":"address","internalType":"address"}],"outputs":[],"stateMutability":"nonpayable"},{"type":"function","name":"supportsInterface","inputs":[{"name":"interfaceId","type":"bytes4","internalType":"bytes4"}],"outputs":[{"name":"","type":"bool","internalType":"bool"}],"stateMutability":"view"},{"type":"function","name":"symbol","inputs":[],"outputs":[{"name":"","type":"string","internalType":"string"}],"stateMutability":"view"},{"type":"function","name":"totalSupply","inputs":[],"outputs":[{"name":"","type":"uint256","internalType":"uint256"}],"stateMutability":"view"},{"type":"function","name":"transfer","inputs":[{"name":"to","type":"address","internalType":"address"},{"name":"value","type":"uint256","internalType":"uint256"}],"outputs":[{"name":"","type":"bool","internalType":"bool"}],"stateMutability":"nonpayable"},{"type":"function","name":"transferFrom","inputs":[{"name":"from","type":"address","internalType":"address"},{"name":"to","type":"address","internalType":"address"},{"name":"value","type":"uint256","internalType":"uint256"}],"outputs":[{"name":"","type":"bool","internalType":"bool"}],"stateMutability":"nonpayable"},{"type":"event","name":"Approval","inputs":[{"name":"owner","type":"address","indexed":true,"internalType":"address"},{"name":"spender","type":"address","indexed":true,"internalType":"address"},{"name":"value","type":"uint256","indexed":false,"internalType":"uint256"}],"anonymous":false},{"type":"event","name":"Burned","inputs":[{"name":"from","type":"address","indexed":true,"internalType":"address"},{"name":"amount","type":"uint256","indexed":false,"internalType":"uint256"}],"anonymous":false},{"type":"event","name":"EIP712DomainChanged","inputs":[],"anonymous":false},{"type":"event","name":"Minted","inputs":[{"name":"to","type":"address","indexed":true,"internalType":"address"},{"name":"amount","type":"uint256","indexed":false,"internalType":"uint256"}],"anonymous":false},{"type":"event","name":"RoleAdminChanged","inputs":[{"name":"role","type":"bytes32","indexed":true,"internalType":"bytes32"},{"name":"previousAdminRole","type":"bytes32","indexed":true,"internalType":"bytes32"},{"name":"newAdminRole","type":"bytes32","indexed":true,"internalType":"bytes32"}],"anonymous":false},{"type":"event","name":"RoleGranted","inputs":[{"name":"role","type":"bytes32","indexed":true,"internalType":"bytes32"},{"name":"account","type":"address","indexed":true,"internalType":"address"},{"name":"sender","type":"address","indexed":true,"internalType":"address"}],"anonymous":false},{"type":"event","name":"RoleRevoked","inputs":[{"name":"role","type":"bytes32","indexed":true,"internalType":"bytes32"},{"name":"account","type":"address","indexed":true,"internalType":"address"},{"name":"sender","type":"address","indexed":true,"internalType":"address"}],"anonymous":false},{"type":"event","name":"Transfer","inputs":[{"name":"from","type":"address","indexed":true,"internalType":"address"},{"name":"to","type":"address","indexed":true,"internalType":"address"},{"name":"value","type":"uint256","indexed":false,"internalType":"uint256"}],"anonymous":false},{"type":"error","name":"AccessControlBadConfirmation","inputs":[]},{"type":"error","name":"AccessControlUnauthorizedAccount","inputs":[{"name":"account","type":"address","internalType":"address"},{"name":"neededRole","type":"bytes32","internalType":"bytes32"}]},{"type":"error","name":"ECDSAInvalidSignature","inputs":[]},{"type":"error","name":"ECDSAInvalidSignatureLength","inputs":[{"name":"length","type":"uint256","internalType":"uint256"}]},{"type":"error","name":"ECDSAInvalidSignatureS","inputs":[{"name":"s","type":"bytes32","internalType":"bytes32"}]},{"type":"error","name":"ERC20InsufficientAllowance","inputs":[{"name":"spender","type":"address","internalType":"address"},{"name":"allowance","type":"uint256","internalType":"uint256"},{"name":"needed","type":"uint256","internalType":"uint256"}]},{"type":"error","name":"ERC20InsufficientBalance","inputs":[{"name":"sender","type":"address","internalType":"address"},{"name":"balance","type":"uint256","internalType":"uint256"},{"name":"needed","type":"uint256","internalType":"uint256"}]},{"type":"error","name":"ERC20InvalidApprover","inputs":[{"name":"approver","type":"address","internalType":"address"}]},{"type":"error","name":"ERC20InvalidReceiver","inputs":[{"name":"receiver","type":"address","internalType":"address"}]},{"type":"error","name":"ERC20InvalidSender","inputs":[{"name":"sender","type":"address","internalType":"address"}]},{"type":"error","name":"ERC20InvalidSpender","inputs":[{"name":"spender","type":"address","internalType":"address"}]},{"type":"error","name":"ERC2612ExpiredSignature","inputs":[{"name":"deadline","type":"uint256","internalType":"uint256"}]},{"type":"error","name":"ERC2612InvalidSigner","inputs":[{"name":"signer","type":"address","internalType":"address"},{"name":"owner","type":"address","internalType":"address"}]},{"type":"error","name":"InvalidAccountNonce","inputs":[{"name":"account","type":"address","internalType":"address"},{"name":"currentNonce","type":"uint256","internalType":"uint256"}]},{"type":"error","name":"InvalidShortString","inputs":[]},{"type":"error","name":"StringTooLong","inputs":[{"name":"str","type":"string","internalType":"string"}]}],"bytecode":{"object":"0x6101606040523480156200001257600080fd5b5060405180604001604052806005815260200164694145524f60d81b81525080604051806040016040528060018152602001603160f81b81525060405180604001604052806005815260200164694145524f60d81b81525060405180604001604052806005815260200164694145524f60d81b815250816003908162000099919062000355565b506004620000a8828262000355565b50620000ba9150839050600562000177565b61012052620000cb81600662000177565b61014052815160208084019190912060e052815190820120610100524660a0526200015960e05161010051604080517f8b73c3c69bb8fe3d512ecc4cf759cc79239f7b179b0ffacaa9a75d522b39400f60208201529081019290925260608201524660808201523060a082015260009060c00160405160208183030381529060405280519060200120905090565b60805250503060c0525062000170600033620001b0565b5062000497565b600060208351101562000197576200018f8362000262565b9050620001aa565b81620001a4848262000355565b5060ff90505b92915050565b60008281526008602090815260408083206001600160a01b038516845290915281205460ff16620002595760008381526008602090815260408083206001600160a01b03861684529091529020805460ff19166001179055620002103390565b6001600160a01b0316826001600160a01b0316847f2f8788117e7eff1d82e926ec794901d17c78024a50270940304540a733656f0d60405160405180910390a4506001620001aa565b506000620001aa565b600080829050601f8151111562000299578260405163305a27a960e01b815260040162000290919062000421565b60405180910390fd5b8051620002a68262000472565b179392505050565b634e487b7160e01b600052604160045260246000fd5b600181811c90821680620002d957607f821691505b602082108103620002fa57634e487b7160e01b600052602260045260246000fd5b50919050565b601f82111562000350576000816000526020600020601f850160051c810160208610156200032b5750805b601f850160051c820191505b818110156200034c5782815560010162000337565b5050505b505050565b81516001600160401b03811115620003715762000371620002ae565b6200038981620003828454620002c4565b8462000300565b602080601f831160018114620003c15760008415620003a85750858301515b600019600386901b1c1916600185901b1785556200034c565b600085815260208120601f198616915b82811015620003f257888601518255948401946001909101908401620003d1565b5085821015620004115787850151600019600388901b60f8161c191681555b5050505050600190811b01905550565b60006020808352835180602085015260005b81811015620004515785810183015185820160400152820162000433565b506000604082860101526040601f19601f8301168501019250505092915050565b80516020808301519190811015620002fa5760001960209190910360031b1b16919050565b60805160a05160c05160e0516101005161012051610140516115f5620004f26000396000610d3401526000610d0701526000610bd201526000610baa01526000610b0501526000610b2f01526000610b5901526115f56000f3fe608060405234801561001057600080fd5b50600436106101735760003560e01c806342966c68116100de57806395d89b4111610097578063d505accf11610071578063d505accf1461033c578063d53913931461034f578063d547741f14610376578063dd62ed3e1461038957600080fd5b806395d89b4114610319578063a217fddf14610321578063a9059cbb1461032957600080fd5b806342966c681461028957806370a082311461029c57806379cc6790146102c55780637ecebe00146102d857806384b0196e146102eb57806391d148541461030657600080fd5b8063282c51f311610130578063282c51f3146102105780632f2ff15d14610237578063313ce5671461024c5780633644e5151461025b57806336568abe1461026357806340c10f191461027657600080fd5b806301ffc9a71461017857806306fdde03146101a0578063095ea7b3146101b557806318160ddd146101c857806323b872dd146101da578063248a9ca3146101ed575b600080fd5b61018b610186366004611287565b6103c2565b60405190151581526020015b60405180910390f35b6101a86103f9565b60405161019791906112fe565b61018b6101c336600461132d565b61048b565b6002545b604051908152602001610197565b61018b6101e8366004611357565b6104a3565b6101cc6101fb366004611393565b60009081526008602052604090206001015490565b6101cc7f3c11d16cbaffd01df69ce1c404f6340ee057498f5f00246190ea54220576a84881565b61024a6102453660046113ac565b6104c7565b005b60405160128152602001610197565b6101cc6104f2565b61024a6102713660046113ac565b610501565b61024a61028436600461132d565b610539565b61024a610297366004611393565b610627565b6101cc6102aa3660046113d8565b6001600160a01b031660009081526020819052604090205490565b61024a6102d336600461132d565b610689565b6101cc6102e63660046113d8565b610767565b6102f3610785565b60405161019797969594939291906113f3565b61018b6103143660046113ac565b6107cb565b6101a86107f6565b6101cc600081565b61018b61033736600461132d565b610805565b61024a61034a36600461148c565b610813565b6101cc7f9f2df0fed2c77648de5860a4cc508cd0818c85b8b8a1ab4ceeef8d981c8956a681565b61024a6103843660046113ac565b61094d565b6101cc6103973660046114ff565b6001600160a01b03918216600090815260016020908152604080832093909416825291909152205490565b60006001600160e01b03198216637965db0b60e01b14806103f357506301ffc9a760e01b6001600160e01b03198316145b92915050565b60606003805461040890611529565b80601f016020809104026020016040519081016040528092919081815260200182805461043490611529565b80156104815780601f1061045657610100808354040283529160200191610481565b820191906000526020600020905b81548152906001019060200180831161046457829003601f168201915b5050505050905090565b600033610499818585610972565b5060019392505050565b6000336104b185828561097f565b6104bc8585856109f8565b506001949350505050565b6000828152600860205260409020600101546104e281610a57565b6104ec8383610a64565b50505050565b60006104fc610af8565b905090565b6001600160a01b038116331461052a5760405163334bd91960e11b815260040160405180910390fd5b6105348282610c23565b505050565b7f9f2df0fed2c77648de5860a4cc508cd0818c85b8b8a1ab4ceeef8d981c8956a661056381610a57565b6001600160a01b0383166105b55760405162461bcd60e51b81526020600482015260146024820152734d696e7420746f207a65726f206164647265737360601b60448201526064015b60405180910390fd5b600082116105d55760405162461bcd60e51b81526004016105ac90611563565b6105df8383610c90565b826001600160a01b03167f30385c845b448a36257a6a1716e6ad2e1bc2cbe333cde1e69fe849ad6511adfe8360405161061a91815260200190565b60405180910390a2505050565b600081116106475760405162461bcd60e51b81526004016105ac90611563565b6106513382610cca565b60405181815233907f696de425f79f4a40bc6d2122ca50507f0efbeabbff86a84871b7196ab8ea8df79060200160405180910390a250565b7f3c11d16cbaffd01df69ce1c404f6340ee057498f5f00246190ea54220576a8486106b381610a57565b6001600160a01b0383166107025760405162461bcd60e51b81526020600482015260166024820152754275726e2066726f6d207a65726f206164647265737360501b60448201526064016105ac565b600082116107225760405162461bcd60e51b81526004016105ac90611563565b61072c8383610cca565b826001600160a01b03167f696de425f79f4a40bc6d2122ca50507f0efbeabbff86a84871b7196ab8ea8df78360405161061a91815260200190565b6001600160a01b0381166000908152600760205260408120546103f3565b600060608060008060006060610799610d00565b6107a1610d2d565b60408051600080825260208201909252600f60f81b9b939a50919850469750309650945092509050565b60009182526008602090815260408084206001600160a01b0393909316845291905290205460ff1690565b60606004805461040890611529565b6000336104998185856109f8565b834211156108375760405163313c898160e11b8152600481018590526024016105ac565b60007f6e71edae12b1b97f4d1f60370fef10105fa2faae0126114a169c64845d6126c98888886108848c6001600160a01b0316600090815260076020526040902080546001810190915590565b6040805160208101969096526001600160a01b0394851690860152929091166060840152608083015260a082015260c0810186905260e00160405160208183030381529060405280519060200120905060006108df82610d5a565b905060006108ef82878787610d87565b9050896001600160a01b0316816001600160a01b031614610936576040516325c0072360e11b81526001600160a01b0380831660048301528b1660248201526044016105ac565b6109418a8a8a610972565b50505050505050505050565b60008281526008602052604090206001015461096881610a57565b6104ec8383610c23565b6105348383836001610db5565b6001600160a01b038381166000908152600160209081526040808320938616835292905220546000198110156104ec57818110156109e957604051637dc7a0d960e11b81526001600160a01b038416600482015260248101829052604481018390526064016105ac565b6104ec84848484036000610db5565b6001600160a01b038316610a2257604051634b637e8f60e11b8152600060048201526024016105ac565b6001600160a01b038216610a4c5760405163ec442f0560e01b8152600060048201526024016105ac565b610534838383610e8a565b610a618133610fb4565b50565b6000610a7083836107cb565b610af05760008381526008602090815260408083206001600160a01b03861684529091529020805460ff19166001179055610aa83390565b6001600160a01b0316826001600160a01b0316847f2f8788117e7eff1d82e926ec794901d17c78024a50270940304540a733656f0d60405160405180910390a45060016103f3565b5060006103f3565b6000306001600160a01b037f000000000000000000000000000000000000000000000000000000000000000016148015610b5157507f000000000000000000000000000000000000000000000000000000000000000046145b15610b7b57507f000000000000000000000000000000000000000000000000000000000000000090565b6104fc604080517f8b73c3c69bb8fe3d512ecc4cf759cc79239f7b179b0ffacaa9a75d522b39400f60208201527f0000000000000000000000000000000000000000000000000000000000000000918101919091527f000000000000000000000000000000000000000000000000000000000000000060608201524660808201523060a082015260009060c00160405160208183030381529060405280519060200120905090565b6000610c2f83836107cb565b15610af05760008381526008602090815260408083206001600160a01b0386168085529252808320805460ff1916905551339286917ff6391f5c32d9c69d2a47ea670b442974b53935d1edc7fd64eb21e047a839171b9190a45060016103f3565b6001600160a01b038216610cba5760405163ec442f0560e01b8152600060048201526024016105ac565b610cc660008383610e8a565b5050565b6001600160a01b038216610cf457604051634b637e8f60e11b8152600060048201526024016105ac565b610cc682600083610e8a565b60606104fc7f00000000000000000000000000000000000000000000000000000000000000006005610fed565b60606104fc7f00000000000000000000000000000000000000000000000000000000000000006006610fed565b60006103f3610d67610af8565b8360405161190160f01b8152600281019290925260228201526042902090565b600080600080610d9988888888611098565b925092509250610da98282611167565b50909695505050505050565b6001600160a01b038416610ddf5760405163e602df0560e01b8152600060048201526024016105ac565b6001600160a01b038316610e0957604051634a1406b160e11b8152600060048201526024016105ac565b6001600160a01b03808516600090815260016020908152604080832093871683529290522082905580156104ec57826001600160a01b0316846001600160a01b03167f8c5be1e5ebec7d5bd14f71427d1e84f3dd0314c0f7b2291e5b200ac8c7c3b92584604051610e7c91815260200190565b60405180910390a350505050565b6001600160a01b038316610eb5578060026000828254610eaa9190611588565b90915550610f279050565b6001600160a01b03831660009081526020819052604090205481811015610f085760405163391434e360e21b81526001600160a01b038516600482015260248101829052604481018390526064016105ac565b6001600160a01b03841660009081526020819052604090209082900390555b6001600160a01b038216610f4357600280548290039055610f62565b6001600160a01b03821660009081526020819052604090208054820190555b816001600160a01b0316836001600160a01b03167fddf252ad1be2c89b69c2b068fc378daa952ba7f163c4a11628f55a4df523b3ef83604051610fa791815260200190565b60405180910390a3505050565b610fbe82826107cb565b610cc65760405163e2517d3f60e01b81526001600160a01b0382166004820152602481018390526044016105ac565b606060ff83146110075761100083611220565b90506103f3565b81805461101390611529565b80601f016020809104026020016040519081016040528092919081815260200182805461103f90611529565b801561108c5780601f106110615761010080835404028352916020019161108c565b820191906000526020600020905b81548152906001019060200180831161106f57829003601f168201915b505050505090506103f3565b600080807f7fffffffffffffffffffffffffffffff5d576e7357a4501ddfe92f46681b20a08411156110d3575060009150600390508261115d565b604080516000808252602082018084528a905260ff891692820192909252606081018790526080810186905260019060a0016020604051602081039080840390855afa158015611127573d6000803e3d6000fd5b5050604051601f1901519150506001600160a01b0381166111535750600092506001915082905061115d565b9250600091508190505b9450945094915050565b600082600381111561117b5761117b6115a9565b03611184575050565b6001826003811115611198576111986115a9565b036111b65760405163f645eedf60e01b815260040160405180910390fd5b60028260038111156111ca576111ca6115a9565b036111eb5760405163fce698f760e01b8152600481018290526024016105ac565b60038260038111156111ff576111ff6115a9565b03610cc6576040516335e2f38360e21b8152600481018290526024016105ac565b6060600061122d8361125f565b604080516020808252818301909252919250600091906020820181803683375050509182525060208101929092525090565b600060ff8216601f8111156103f357604051632cd44ac360e21b815260040160405180910390fd5b60006020828403121561129957600080fd5b81356001600160e01b0319811681146112b157600080fd5b9392505050565b6000815180845260005b818110156112de576020818501810151868301820152016112c2565b506000602082860101526020601f19601f83011685010191505092915050565b6020815260006112b160208301846112b8565b80356001600160a01b038116811461132857600080fd5b919050565b6000806040838503121561134057600080fd5b61134983611311565b946020939093013593505050565b60008060006060848603121561136c57600080fd5b61137584611311565b925061138360208501611311565b9150604084013590509250925092565b6000602082840312156113a557600080fd5b5035919050565b600080604083850312156113bf57600080fd5b823591506113cf60208401611311565b90509250929050565b6000602082840312156113ea57600080fd5b6112b182611311565b60ff60f81b881681526000602060e0602084015261141460e084018a6112b8565b8381036040850152611426818a6112b8565b606085018990526001600160a01b038816608086015260a0850187905284810360c08601528551808252602080880193509091019060005b8181101561147a5783518352928401929184019160010161145e565b50909c9b505050505050505050505050565b600080600080600080600060e0888a0312156114a757600080fd5b6114b088611311565b96506114be60208901611311565b95506040880135945060608801359350608088013560ff811681146114e257600080fd5b9699959850939692959460a0840135945060c09093013592915050565b6000806040838503121561151257600080fd5b61151b83611311565b91506113cf60208401611311565b600181811c9082168061153d57607f821691505b60208210810361155d57634e487b7160e01b600052602260045260246000fd5b50919050565b6020808252600b908201526a16995c9bc8185b5bdd5b9d60aa1b604082015260600190565b808201808211156103f357634e487b7160e01b600052601160045260246000fd5b634e487b7160e01b600052602160045260246000fdfea26469706673582212208d6c18184621af57dfd8da0789b28cebaeaf1c8a271c65795d28c46f4426fed964736f6c63430008180033","linkReferences":{}},"methodIdentifiers":{"BURNER_ROLE()":"282c51f3","DEFAULT_ADMIN_ROLE()":"a217fddf","DOMAIN_SEPARATOR()":"3644e515","MINTER_ROLE()":"d5391393","allowance(address,address)":"dd62ed3e","approve(address,uint256)":"095ea7b3","balanceOf(address)":"70a08231","burn(uint256)":"42966c68","burnFrom(address,uint256)":"79cc6790","decimals()":"313ce567","eip712Domain()":"84b0196e","getRoleAdmin(bytes32)":"248a9ca3","grantRole(bytes32,address)":"2f2ff15d","hasRole(bytes32,address)":"91d14854","mint(address,uint256)":"40c10f19","name()":"06fdde03","nonces(address)":"7ecebe00","permit(address,address,uint256,uint256,uint8,bytes32,bytes32)":"d505accf","renounceRole(bytes32,address)":"36568abe","revokeRole(bytes32,address)":"d547741f","supportsInterface(bytes4)":"01ffc9a7","symbol()":"95d89b41","totalSupply()":"18160ddd","transfer(address,uint256)":"a9059cbb","transferFrom(address,address,uint256)":"23b872dd"},"id":6}