{"abi":[{"type":"constructor","inputs":[{"name":"_LIQ","type":"address","internalType":"address"},{"name":"_vault","type":"address","internalType":"address"},{"name":"_treasury","type":"address","internalType":"address"}],"stateMutability":"nonpayable"},{"type":"receive","stateMutability":"payable"},{"type":"function","name":"LIQ","inputs":[],"outputs":[{"name":"","type":"address","internalType":"address"}],"stateMutability":"view"},{"type":"function","name":"LOCK_PERIOD","inputs":[],"outputs":[{"name":"","type":"uint256","internalType":"uint256"}],"stateMutability":"view"},{"type":"function","name":"PRECISION","inputs":[],"outputs":[{"name":"","type":"uint256","internalType":"uint256"}],"stateMutability":"view"},{"type":"function","name":"accRewardPerShare","inputs":[{"name":"","type":"address","internalType":"address"}],"outputs":[{"name":"","type":"uint256","internalType":"uint256"}],"stateMutability":"view"},{"type":"function","name":"balanceOf","inputs":[{"name":"","type":"address","internalType":"address"}],"outputs":[{"name":"","type":"uint256","internalType":"uint256"}],"stateMutability":"view"},{"type":"function","name":"canUnstake","inputs":[{"name":"user","type":"address","internalType":"address"}],"outputs":[{"name":"","type":"bool","internalType":"bool"}],"stateMutability":"view"},{"type":"function","name":"claimReward","inputs":[{"name":"token","type":"address","internalType":"address"}],"outputs":[],"stateMutability":"nonpayable"},{"type":"function","name":"claimRewards","inputs":[],"outputs":[],"stateMutability":"nonpayable"},{"type":"function","name":"emergencyWithdraw","inputs":[],"outputs":[],"stateMutability":"nonpayable"},{"type":"function","name":"exit","inputs":[],"outputs":[],"stateMutability":"nonpayable"},{"type":"function","name":"getPendingRewards","inputs":[{"name":"account","type":"address","internalType":"address"}],"outputs":[{"name":"tokens","type":"address[]","internalType":"address[]"},{"name":"amounts","type":"uint256[]","internalType":"uint256[]"}],"stateMutability":"view"},{"type":"function","name":"getRewardTokens","inputs":[],"outputs":[{"name":"","type":"address[]","internalType":"address[]"}],"stateMutability":"view"},{"type":"function","name":"notifyRewardAmount","inputs":[{"name":"token","type":"address","internalType":"address"},{"name":"amount","type":"uint256","internalType":"uint256"}],"outputs":[],"stateMutability":"payable"},{"type":"function","name":"owner","inputs":[],"outputs":[{"name":"","type":"address","internalType":"address"}],"stateMutability":"view"},{"type":"function","name":"queuedRewards","inputs":[{"name":"","type":"address","internalType":"address"}],"outputs":[{"name":"","type":"uint256","internalType":"uint256"}],"stateMutability":"view"},{"type":"function","name":"renounceOwnership","inputs":[],"outputs":[],"stateMutability":"nonpayable"},{"type":"function","name":"rewardDebt","inputs":[{"name":"","type":"address","internalType":"address"},{"name":"","type":"address","internalType":"address"}],"outputs":[{"name":"","type":"uint256","internalType":"uint256"}],"stateMutability":"view"},{"type":"function","name":"rewardNotifiers","inputs":[{"name":"","type":"address","internalType":"address"}],"outputs":[{"name":"","type":"bool","internalType":"bool"}],"stateMutability":"view"},{"type":"function","name":"rewardTokens","inputs":[{"name":"index","type":"uint256","internalType":"uint256"}],"outputs":[{"name":"","type":"address","internalType":"address"}],"stateMutability":"view"},{"type":"function","name":"rewardTokensLength","inputs":[],"outputs":[{"name":"","type":"uint256","internalType":"uint256"}],"stateMutability":"view"},{"type":"function","name":"setRewardNotifier","inputs":[{"name":"notifier","type":"address","internalType":"address"},{"name":"authorized","type":"bool","internalType":"bool"}],"outputs":[],"stateMutability":"nonpayable"},{"type":"function","name":"stake","inputs":[{"name":"amount","type":"uint256","internalType":"uint256"}],"outputs":[],"stateMutability":"nonpayable"},{"type":"function","name":"timeUntilUnlock","inputs":[{"name":"user","type":"address","internalType":"address"}],"outputs":[{"name":"","type":"uint256","internalType":"uint256"}],"stateMutability":"view"},{"type":"function","name":"tokenExists","inputs":[{"name":"","type":"address","internalType":"address"}],"outputs":[{"name":"","type":"bool","internalType":"bool"}],"stateMutability":"view"},{"type":"function","name":"totalLIQStaked","inputs":[],"outputs":[{"name":"","type":"uint256","internalType":"uint256"}],"stateMutability":"view"},{"type":"function","name":"transferOwnership","inputs":[{"name":"newOwner","type":"address","internalType":"address"}],"outputs":[],"stateMutability":"nonpayable"},{"type":"function","name":"unlockTime","inputs":[{"name":"","type":"address","internalType":"address"}],"outputs":[{"name":"","type":"uint256","internalType":"uint256"}],"stateMutability":"view"},{"type":"function","name":"unstake","inputs":[{"name":"amount","type":"uint256","internalType":"uint256"}],"outputs":[],"stateMutability":"nonpayable"},{"type":"event","name":"EmergencyWithdraw","inputs":[{"name":"user","type":"address","indexed":true,"internalType":"address"},{"name":"amount","type":"uint256","indexed":false,"internalType":"uint256"}],"anonymous":false},{"type":"event","name":"LIQStaked","inputs":[{"name":"user","type":"address","indexed":true,"internalType":"address"},{"name":"amount","type":"uint256","indexed":false,"internalType":"uint256"},{"name":"unlockTime","type":"uint256","indexed":false,"internalType":"uint256"}],"anonymous":false},{"type":"event","name":"LIQUnstaked","inputs":[{"name":"user","type":"address","indexed":true,"internalType":"address"},{"name":"amount","type":"uint256","indexed":false,"internalType":"uint256"}],"anonymous":false},{"type":"event","name":"OwnershipTransferred","inputs":[{"name":"previousOwner","type":"address","indexed":true,"internalType":"address"},{"name":"newOwner","type":"address","indexed":true,"internalType":"address"}],"anonymous":false},{"type":"event","name":"RewardClaimed","inputs":[{"name":"user","type":"address","indexed":true,"internalType":"address"},{"name":"token","type":"address","indexed":true,"internalType":"address"},{"name":"amount","type":"uint256","indexed":false,"internalType":"uint256"}],"anonymous":false},{"type":"event","name":"RewardNotified","inputs":[{"name":"token","type":"address","indexed":true,"internalType":"address"},{"name":"amount","type":"uint256","indexed":false,"internalType":"uint256"},{"name":"distributedPerShare","type":"uint256","indexed":false,"internalType":"uint256"}],"anonymous":false},{"type":"event","name":"RewardNotifierSet","inputs":[{"name":"notifier","type":"address","indexed":true,"internalType":"address"},{"name":"authorized","type":"bool","indexed":false,"internalType":"bool"}],"anonymous":false},{"type":"error","name":"BadETHValue","inputs":[]},{"type":"error","name":"IndexOutOfBounds","inputs":[]},{"type":"error","name":"InvalidAmount","inputs":[]},{"type":"error","name":"NotEnoughStaked","inputs":[]},{"type":"error","name":"OwnableInvalidOwner","inputs":[{"name":"owner","type":"address","internalType":"address"}]},{"type":"error","name":"OwnableUnauthorizedAccount","inputs":[{"name":"account","type":"address","internalType":"address"}]},{"type":"error","name":"ReentrancyGuardReentrantCall","inputs":[]},{"type":"error","name":"SafeERC20FailedOperation","inputs":[{"name":"token","type":"address","internalType":"address"}]},{"type":"error","name":"UnauthorizedRewardNotifier","inputs":[]},{"type":"error","name":"ZeroAddress","inputs":[]}],"bytecode":{"object":"0x60a06040523480156200001157600080fd5b5060405162001c2638038062001c2683398101604081905262000034916200017d565b33806200005b57604051631e4fbdf760e01b81526000600482015260240160405180910390fd5b620000668162000110565b50600180556001600160a01b03831615806200008957506001600160a01b038216155b806200009c57506001600160a01b038116155b15620000bb5760405163d92e233d60e01b815260040160405180910390fd5b6001600160a01b039283166080529082166000908152600560205260408082208054600160ff1991821681179092559390941682528082208054841685179055338252902080549091169091179055620001c7565b600080546001600160a01b038381166001600160a01b0319831681178455604051919092169283917f8be0079c531659141344cd1fd0a4f28419497f9722a3daafe3b4186f6b6457e09190a35050565b80516001600160a01b03811681146200017857600080fd5b919050565b6000806000606084860312156200019357600080fd5b6200019e8462000160565b9250620001ae6020850162000160565b9150620001be6040850162000160565b90509250925092565b608051611a27620001ff6000396000818161027001528181610777015281816108c801528181610cfb0152610e1d0152611a276000f3fe6080604052600436106101bb5760003560e01c8063a694fc3a116100ec578063d0228e8f1161008a578063db2e21bc11610064578063db2e21bc14610558578063e9fad8ee1461056d578063f2fde38b14610582578063f6ed2017146105a257600080fd5b8063d0228e8f146104e8578063d15166ff14610508578063d279c1911461053857600080fd5b8063b53a6a71116100c6578063b53a6a7114610471578063b66503cf1461049e578063bf199e62146104b1578063c4f59f9b146104c657600080fd5b8063a694fc3a14610405578063aaf5eb6814610425578063b33f78ca1461044157600080fd5b806370a08231116101595780637b4717a4116101335780637b4717a4146103465780637bb7bed11461037e57806385f4498b1461039e5780638da5cb5b146103e757600080fd5b806370a08231146102d7578063715018a61461030457806376b467b71461031957600080fd5b80632e17de78116101955780632e17de7814610229578063372500ab14610249578063586d13b31461025e5780635dcea4d4146102aa57600080fd5b80630b8f54d6146101c75780631820cabb146101f0578063255a4f731461020757600080fd5b366101c257005b600080fd5b3480156101d357600080fd5b506101dd60025481565b6040519081526020015b60405180910390f35b3480156101fc57600080fd5b506101dd62093a8081565b34801561021357600080fd5b506102276102223660046117f1565b6105d0565b005b34801561023557600080fd5b5061022761024436600461182d565b61065e565b34801561025557600080fd5b506102276107df565b34801561026a57600080fd5b506102927f000000000000000000000000000000000000000000000000000000000000000081565b6040516001600160a01b0390911681526020016101e7565b3480156102b657600080fd5b506101dd6102c5366004611846565b60086020526000908152604090205481565b3480156102e357600080fd5b506101dd6102f2366004611846565b60036020526000908152604090205481565b34801561031057600080fd5b50610227610814565b34801561032557600080fd5b506101dd610334366004611846565b60046020526000908152604090205481565b34801561035257600080fd5b506101dd610361366004611861565b600a60209081526000928352604080842090915290825290205481565b34801561038a57600080fd5b5061029261039936600461182d565b610826565b3480156103aa57600080fd5b506103d76103b9366004611846565b6001600160a01b031660009081526004602052604090205442101590565b60405190151581526020016101e7565b3480156103f357600080fd5b506000546001600160a01b0316610292565b34801561041157600080fd5b5061022761042036600461182d565b610879565b34801561043157600080fd5b506101dd670de0b6b3a764000081565b34801561044d57600080fd5b506103d761045c366004611846565b60076020526000908152604090205460ff1681565b34801561047d57600080fd5b506101dd61048c366004611846565b60096020526000908152604090205481565b6102276104ac366004611894565b6109c5565b3480156104bd57600080fd5b506006546101dd565b3480156104d257600080fd5b506104db610b8b565b6040516101e79190611903565b3480156104f457600080fd5b506101dd610503366004611846565b610bed565b34801561051457600080fd5b506103d7610523366004611846565b60056020526000908152604090205460ff1681565b34801561054457600080fd5b50610227610553366004611846565b610c27565b34801561056457600080fd5b50610227610c82565b34801561057957600080fd5b50610227610d61565b34801561058e57600080fd5b5061022761059d366004611846565b610e8d565b3480156105ae57600080fd5b506105c26105bd366004611846565b610ec8565b6040516101e7929190611916565b6105d861109f565b6001600160a01b0382166105ff5760405163d92e233d60e01b815260040160405180910390fd5b6001600160a01b038216600081815260056020908152604091829020805460ff191685151590811790915591519182527fb33ca1dabfb28a2e1bd06b332c396b1a3d538278691341a5503bbad53f919197910160405180910390a25050565b6106666110cc565b806000036106875760405163162908e360e11b815260040160405180910390fd5b336000908152600360205260409020548111156106b7576040516386a76f7960e01b815260040160405180910390fd5b3360009081526004602052604090205442101561070a5760405162461bcd60e51b815260206004820152600c60248201526b14dd1a5b1b081b1bd8dad95960a21b60448201526064015b60405180910390fd5b6002541561071a5761071a6110f6565b61072333611210565b3360009081526003602052604081208054839290610742908490611983565b92505081905550806002600082825461075b9190611983565b9091555061076a905033611282565b61079e6001600160a01b037f0000000000000000000000000000000000000000000000000000000000000000163383611326565b60405181815233907fd4a128cae52bb0cd22f7ab2b4b984a0fed55786a4c401c7264fab1f8a4986cd39060200160405180910390a26107dc60018055565b50565b6107e76110cc565b600254156107f7576107f76110f6565b61080033611210565b61080933611282565b61081260018055565b565b61081c61109f565b6108126000611385565b600654600090821061084b57604051634e23d03560e01b815260040160405180910390fd5b6006828154811061085e5761085e61199c565b6000918252602090912001546001600160a01b031692915050565b6108816110cc565b806000036108a25760405163162908e360e11b815260040160405180910390fd5b600254156108b2576108b26110f6565b6108bb33611210565b6108f06001600160a01b037f0000000000000000000000000000000000000000000000000000000000000000163330846113d5565b336000908152600360205260408120805483929061090f9084906119b2565b92505081905550806002600082825461092891906119b2565b909155506000905061093d62093a80426119b2565b3360009081526004602052604090205490915081111561096a573360009081526004602052604090208190555b61097333611282565b33600081815260046020908152604091829020548251868152918201527fc424bf7d87a11095e5340698fbd9922633b44b6d770cac449fc8a3c9b5cdf459910160405180910390a2506107dc60018055565b6109cd6110cc565b3360009081526005602052604090205460ff166109fd5760405163363ac07f60e01b815260040160405180910390fd5b6001600160a01b038216610a3057803414610a2b57604051630be9eb8560e01b815260040160405180910390fd5b610a66565b80600003610a515760405163162908e360e11b815260040160405180910390fd5b610a666001600160a01b0383163330846113d5565b610a6f8261140e565b600254600003610aef576001600160a01b03821660009081526009602052604081208054839290610aa19084906119b2565b909155505060408051828152600060208201526001600160a01b038416917f8a888ea653a580e40660778ee0c0dabd23a81e8e2c8dcfb938e40982a157d819910160405180910390a2610b7e565b6000610b0682670de0b6b3a7640000600254611494565b6001600160a01b038416600090815260086020526040812080549293508392909190610b339084906119b2565b909155505060408051838152602081018390526001600160a01b038516917f8a888ea653a580e40660778ee0c0dabd23a81e8e2c8dcfb938e40982a157d819910160405180910390a2505b610b8760018055565b5050565b60606006805480602002602001604051908101604052809291908181526020018280548015610be357602002820191906000526020600020905b81546001600160a01b03168152600190910190602001808311610bc5575b5050505050905090565b6001600160a01b03811660009081526004602052604081205442811115610c1d57610c184282611983565b610c20565b60005b9392505050565b610c2f6110cc565b60025415610c3f57610c3f6110f6565b610c493382611549565b6001600160a01b038116600081815260086020908152604080832054338452600a8352818420948452939091529020556107dc60018055565b610c8a6110cc565b3360009081526003602052604081205490819003610cbb5760405163162908e360e11b815260040160405180910390fd5b33600090815260036020526040812081905560028054839290610cdf908490611983565b90915550610cee905033611282565b610d226001600160a01b037f0000000000000000000000000000000000000000000000000000000000000000163383611326565b60405181815233907f5fafa99d0643513820be26656b45130b01e1c03062e1266bf36f88cbd3bd96959060200160405180910390a25061081260018055565b610d696110cc565b33600090815260046020526040902054421015610db75760405162461bcd60e51b815260206004820152600c60248201526b14dd1a5b1b081b1bd8dad95960a21b6044820152606401610701565b60025415610dc757610dc76110f6565b610dd033611210565b336000908152600360205260409020548015610e7a5733600090815260036020526040812081905560028054839290610e0a908490611983565b90915550610e4490506001600160a01b037f0000000000000000000000000000000000000000000000000000000000000000163383611326565b60405181815233907fd4a128cae52bb0cd22f7ab2b4b984a0fed55786a4c401c7264fab1f8a4986cd39060200160405180910390a25b610e8333611282565b5061081260018055565b610e9561109f565b6001600160a01b038116610ebf57604051631e4fbdf760e01b815260006004820152602401610701565b6107dc81611385565b60065460609081908067ffffffffffffffff811115610ee957610ee96119c5565b604051908082528060200260200182016040528015610f12578160200160208202803683370190505b5092508067ffffffffffffffff811115610f2e57610f2e6119c5565b604051908082528060200260200182016040528015610f57578160200160208202803683370190505b506001600160a01b0385166000908152600360205260408120549193505b8281101561109757600060068281548110610f9257610f9261199c565b9060005260206000200160009054906101000a90046001600160a01b0316905080868381518110610fc557610fc561199c565b60200260200101906001600160a01b031690816001600160a01b031681525050826000036110125760008583815181106110015761100161199c565b60200260200101818152505061108e565b6001600160a01b03808216600081815260086020908152604080832054948c168352600a8252808320938352929052205480821161105157600061106d565b61106d8561105f8385611983565b670de0b6b3a7640000611494565b87858151811061107f5761107f61199c565b60200260200101818152505050505b50600101610f75565b505050915091565b6000546001600160a01b031633146108125760405163118cdaa760e01b8152336004820152602401610701565b6002600154036110ef57604051633ee5aeb560e01b815260040160405180910390fd5b6002600155565b60025460000361110257565b60065460005b81811015610b87576000600682815481106111255761112561199c565b60009182526020808320909101546001600160a01b0316808352600990915260408220549092509081900361115b575050611208565b6001600160a01b038216600090815260096020526040812081905560025461118e908390670de0b6b3a764000090611494565b6001600160a01b0384166000908152600860205260408120805492935083929091906111bb9084906119b2565b909155505060408051838152602081018390526001600160a01b038516917f8a888ea653a580e40660778ee0c0dabd23a81e8e2c8dcfb938e40982a157d819910160405180910390a25050505b600101611108565b6001600160a01b03811660009081526003602052604081205490819003611235575050565b60065460005b8181101561127c57611274846006838154811061125a5761125a61199c565b6000918252602090912001546001600160a01b0316611549565b60010161123b565b50505050565b60065460005b818110156113215760086000600683815481106112a7576112a761199c565b60009182526020808320909101546001600160a01b0390811684528382019490945260409283018220549387168252600a905290812060068054919291859081106112f4576112f461199c565b60009182526020808320909101546001600160a01b03168352820192909252604001902055600101611288565b505050565b6040516001600160a01b0383811660248301526044820183905261132191859182169063a9059cbb906064015b604051602081830303815290604052915060e01b6020820180516001600160e01b038381831617835250505050611734565b600080546001600160a01b038381166001600160a01b0319831681178455604051919092169283917f8be0079c531659141344cd1fd0a4f28419497f9722a3daafe3b4186f6b6457e09190a35050565b6040516001600160a01b03848116602483015283811660448301526064820183905261127c9186918216906323b872dd90608401611353565b6001600160a01b03811660009081526007602052604090205460ff166107dc576001600160a01b03166000818152600760205260408120805460ff191660019081179091556006805491820181559091527ff652222313e28459528d920b65115c16c04f3efc82aaedc97be59f3f377c0d3f0180546001600160a01b0319169091179055565b60008060006114a386866117a5565b91509150816000036114c8578381816114be576114be6119db565b0492505050610c20565b8184116114df576114df60038515026011186117c3565b6000848688096000868103871696879004966002600389028118808a02820302808a02820302808a02820302808a02820302808a02820302808a02909103029181900381900460010185841190960395909502919093039390930492909217029150509392505050565b6001600160a01b038216600090815260036020526040812054908190036115a057506001600160a01b03908116600081815260086020908152604080832054959094168252600a8152838220928252919091522055565b6001600160a01b038083166000818152600860209081526040808320549488168352600a82528083209383529290522054808211156117025760006115e98461105f8486611983565b90508015611700576001600160a01b03851661169e576000866001600160a01b03168260405160006040518083038185875af1925050503d806000811461164c576040519150601f19603f3d011682016040523d82523d6000602084013e611651565b606091505b50509050806116985760405162461bcd60e51b8152602060048201526013602482015272115512081d1c985b9cd9995c8819985a5b1959606a1b6044820152606401610701565b506116b2565b6116b26001600160a01b0386168783611326565b846001600160a01b0316866001600160a01b03167f0aa4d283470c904c551d18bb894d37e17674920f3261a7f854be501e25f421b7836040516116f791815260200190565b60405180910390a35b505b506001600160a01b039384166000908152600a6020908152604080832095909616825293909352929091209190915550565b600080602060008451602086016000885af180611757576040513d6000823e3d81fd5b50506000513d9150811561176f57806001141561177c565b6001600160a01b0384163b155b1561127c57604051635274afe760e01b81526001600160a01b0385166004820152602401610701565b60008060001983850993909202808410938190039390930393915050565b634e487b71600052806020526024601cfd5b80356001600160a01b03811681146117ec57600080fd5b919050565b6000806040838503121561180457600080fd5b61180d836117d5565b91506020830135801515811461182257600080fd5b809150509250929050565b60006020828403121561183f57600080fd5b5035919050565b60006020828403121561185857600080fd5b610c20826117d5565b6000806040838503121561187457600080fd5b61187d836117d5565b915061188b602084016117d5565b90509250929050565b600080604083850312156118a757600080fd5b6118b0836117d5565b946020939093013593505050565b60008151808452602080850194506020840160005b838110156118f85781516001600160a01b0316875295820195908201906001016118d3565b509495945050505050565b602081526000610c2060208301846118be565b60408152600061192960408301856118be565b82810360208481019190915284518083528582019282019060005b8181101561196057845183529383019391830191600101611944565b5090979650505050505050565b634e487b7160e01b600052601160045260246000fd5b818103818111156119965761199661196d565b92915050565b634e487b7160e01b600052603260045260246000fd5b808201808211156119965761199661196d565b634e487b7160e01b600052604160045260246000fd5b634e487b7160e01b600052601260045260246000fdfea2646970667358221220979803a05e86295c0898c84779f7b390b169ccb87b0d01692ce3bcd46ee73d3064736f6c63430008180033","linkReferences":{}},"methodIdentifiers":{"LIQ()":"586d13b3","LOCK_PERIOD()":"1820cabb","PRECISION()":"aaf5eb68","accRewardPerShare(address)":"5dcea4d4","balanceOf(address)":"70a08231","canUnstake(address)":"85f4498b","claimReward(address)":"d279c191","claimRewards()":"372500ab","emergencyWithdraw()":"db2e21bc","exit()":"e9fad8ee","getPendingRewards(address)":"f6ed2017","getRewardTokens()":"c4f59f9b","notifyRewardAmount(address,uint256)":"b66503cf","owner()":"8da5cb5b","queuedRewards(address)":"b53a6a71","renounceOwnership()":"715018a6","rewardDebt(address,address)":"7b4717a4","rewardNotifiers(address)":"d15166ff","rewardTokens(uint256)":"7bb7bed1","rewardTokensLength()":"bf199e62","setRewardNotifier(address,bool)":"255a4f73","stake(uint256)":"a694fc3a","timeUntilUnlock(address)":"d0228e8f","tokenExists(address)":"b33f78ca","totalLIQStaked()":"0b8f54d6","transferOwnership(address)":"f2fde38b","unlockTime(address)":"76b467b7","unstake(uint256)":"2e17de78"},"id":0}