{"abi":[{"type":"constructor","inputs":[{"name":"_LIQ","type":"address","internalType":"address"},{"name":"_vault","type":"address","internalType":"address"},{"name":"_treasury","type":"address","internalType":"address"}],"stateMutability":"nonpayable"},{"type":"receive","stateMutability":"payable"},{"type":"function","name":"LIQ","inputs":[],"outputs":[{"name":"","type":"address","internalType":"address"}],"stateMutability":"view"},{"type":"function","name":"LOCK_PERIOD","inputs":[],"outputs":[{"name":"","type":"uint256","internalType":"uint256"}],"stateMutability":"view"},{"type":"function","name":"PRECISION","inputs":[],"outputs":[{"name":"","type":"uint256","internalType":"uint256"}],"stateMutability":"view"},{"type":"function","name":"accRewardPerShare","inputs":[{"name":"","type":"address","internalType":"address"}],"outputs":[{"name":"","type":"uint256","internalType":"uint256"}],"stateMutability":"view"},{"type":"function","name":"balanceOf","inputs":[{"name":"","type":"address","internalType":"address"}],"outputs":[{"name":"","type":"uint256","internalType":"uint256"}],"stateMutability":"view"},{"type":"function","name":"claimMany","inputs":[{"name":"tokens","type":"address[]","internalType":"address[]"}],"outputs":[],"stateMutability":"nonpayable"},{"type":"function","name":"claimReward","inputs":[{"name":"token","type":"address","internalType":"address"}],"outputs":[],"stateMutability":"nonpayable"},{"type":"function","name":"claimRewards","inputs":[],"outputs":[],"stateMutability":"nonpayable"},{"type":"function","name":"credit","inputs":[{"name":"","type":"address","internalType":"address"},{"name":"","type":"address","internalType":"address"}],"outputs":[{"name":"","type":"uint256","internalType":"uint256"}],"stateMutability":"view"},{"type":"function","name":"creditOf","inputs":[{"name":"user","type":"address","internalType":"address"},{"name":"token","type":"address","internalType":"address"}],"outputs":[{"name":"","type":"uint256","internalType":"uint256"}],"stateMutability":"view"},{"type":"function","name":"emergencyWithdraw","inputs":[],"outputs":[],"stateMutability":"nonpayable"},{"type":"function","name":"exit","inputs":[],"outputs":[],"stateMutability":"nonpayable"},{"type":"function","name":"getPendingRewards","inputs":[{"name":"account","type":"address","internalType":"address"}],"outputs":[{"name":"tokens","type":"address[]","internalType":"address[]"},{"name":"amounts","type":"uint256[]","internalType":"uint256[]"}],"stateMutability":"view"},{"type":"function","name":"getRewardTokens","inputs":[],"outputs":[{"name":"","type":"address[]","internalType":"address[]"}],"stateMutability":"view"},{"type":"function","name":"maxRewardTokens","inputs":[],"outputs":[{"name":"","type":"uint256","internalType":"uint256"}],"stateMutability":"view"},{"type":"function","name":"maxStakePerUser","inputs":[],"outputs":[{"name":"","type":"uint256","internalType":"uint256"}],"stateMutability":"view"},{"type":"function","name":"maxTotalStaked","inputs":[],"outputs":[{"name":"","type":"uint256","internalType":"uint256"}],"stateMutability":"view"},{"type":"function","name":"notifyRewardAmount","inputs":[{"name":"token","type":"address","internalType":"address"},{"name":"amount","type":"uint256","internalType":"uint256"}],"outputs":[],"stateMutability":"payable"},{"type":"function","name":"owner","inputs":[],"outputs":[{"name":"","type":"address","internalType":"address"}],"stateMutability":"view"},{"type":"function","name":"pause","inputs":[],"outputs":[],"stateMutability":"nonpayable"},{"type":"function","name":"paused","inputs":[],"outputs":[{"name":"","type":"bool","internalType":"bool"}],"stateMutability":"view"},{"type":"function","name":"queuedRewards","inputs":[{"name":"","type":"address","internalType":"address"}],"outputs":[{"name":"","type":"uint256","internalType":"uint256"}],"stateMutability":"view"},{"type":"function","name":"recoverERC20","inputs":[{"name":"token","type":"address","internalType":"address"},{"name":"to","type":"address","internalType":"address"},{"name":"amount","type":"uint256","internalType":"uint256"}],"outputs":[],"stateMutability":"nonpayable"},{"type":"function","name":"renounceOwnership","inputs":[],"outputs":[],"stateMutability":"nonpayable"},{"type":"function","name":"retireRewardToken","inputs":[{"name":"token","type":"address","internalType":"address"}],"outputs":[],"stateMutability":"nonpayable"},{"type":"function","name":"rewardDebt","inputs":[{"name":"","type":"address","internalType":"address"},{"name":"","type":"address","internalType":"address"}],"outputs":[{"name":"","type":"uint256","internalType":"uint256"}],"stateMutability":"view"},{"type":"function","name":"rewardNotifiers","inputs":[{"name":"","type":"address","internalType":"address"}],"outputs":[{"name":"","type":"bool","internalType":"bool"}],"stateMutability":"view"},{"type":"function","name":"rewardTokens","inputs":[{"name":"index","type":"uint256","internalType":"uint256"}],"outputs":[{"name":"","type":"address","internalType":"address"}],"stateMutability":"view"},{"type":"function","name":"rewardTokensLength","inputs":[],"outputs":[{"name":"","type":"uint256","internalType":"uint256"}],"stateMutability":"view"},{"type":"function","name":"setMaxRewardTokens","inputs":[{"name":"newMax","type":"uint256","internalType":"uint256"}],"outputs":[],"stateMutability":"nonpayable"},{"type":"function","name":"setRewardNotifier","inputs":[{"name":"notifier","type":"address","internalType":"address"},{"name":"authorized","type":"bool","internalType":"bool"}],"outputs":[],"stateMutability":"nonpayable"},{"type":"function","name":"setStakeCaps","inputs":[{"name":"perUser","type":"uint256","internalType":"uint256"},{"name":"total_","type":"uint256","internalType":"uint256"}],"outputs":[],"stateMutability":"nonpayable"},{"type":"function","name":"stake","inputs":[{"name":"amount","type":"uint256","internalType":"uint256"}],"outputs":[],"stateMutability":"nonpayable"},{"type":"function","name":"tokenExists","inputs":[{"name":"","type":"address","internalType":"address"}],"outputs":[{"name":"","type":"bool","internalType":"bool"}],"stateMutability":"view"},{"type":"function","name":"totalLIQStaked","inputs":[],"outputs":[{"name":"","type":"uint256","internalType":"uint256"}],"stateMutability":"view"},{"type":"function","name":"transferOwnership","inputs":[{"name":"newOwner","type":"address","internalType":"address"}],"outputs":[],"stateMutability":"nonpayable"},{"type":"function","name":"unlockTime","inputs":[{"name":"","type":"address","internalType":"address"}],"outputs":[{"name":"","type":"uint256","internalType":"uint256"}],"stateMutability":"view"},{"type":"function","name":"unpause","inputs":[],"outputs":[],"stateMutability":"nonpayable"},{"type":"function","name":"unstake","inputs":[{"name":"amount","type":"uint256","internalType":"uint256"}],"outputs":[],"stateMutability":"nonpayable"},{"type":"function","name":"withdrawCredit","inputs":[{"name":"token","type":"address","internalType":"address"},{"name":"amount","type":"uint256","internalType":"uint256"},{"name":"to","type":"address","internalType":"address payable"}],"outputs":[],"stateMutability":"nonpayable"},{"type":"event","name":"CreditAccrued","inputs":[{"name":"user","type":"address","indexed":true,"internalType":"address"},{"name":"token","type":"address","indexed":true,"internalType":"address"},{"name":"amount","type":"uint256","indexed":false,"internalType":"uint256"}],"anonymous":false},{"type":"event","name":"CreditWithdrawn","inputs":[{"name":"user","type":"address","indexed":true,"internalType":"address"},{"name":"token","type":"address","indexed":true,"internalType":"address"},{"name":"amount","type":"uint256","indexed":false,"internalType":"uint256"},{"name":"to","type":"address","indexed":true,"internalType":"address"}],"anonymous":false},{"type":"event","name":"EmergencyWithdraw","inputs":[{"name":"user","type":"address","indexed":true,"internalType":"address"},{"name":"amount","type":"uint256","indexed":false,"internalType":"uint256"}],"anonymous":false},{"type":"event","name":"LIQStaked","inputs":[{"name":"user","type":"address","indexed":true,"internalType":"address"},{"name":"amount","type":"uint256","indexed":false,"internalType":"uint256"},{"name":"unlockTime","type":"uint256","indexed":false,"internalType":"uint256"}],"anonymous":false},{"type":"event","name":"LIQUnstaked","inputs":[{"name":"user","type":"address","indexed":true,"internalType":"address"},{"name":"amount","type":"uint256","indexed":false,"internalType":"uint256"}],"anonymous":false},{"type":"event","name":"MaxRewardTokensSet","inputs":[{"name":"maxRewardTokens","type":"uint256","indexed":false,"internalType":"uint256"}],"anonymous":false},{"type":"event","name":"OwnershipTransferred","inputs":[{"name":"previousOwner","type":"address","indexed":true,"internalType":"address"},{"name":"newOwner","type":"address","indexed":true,"internalType":"address"}],"anonymous":false},{"type":"event","name":"Paused","inputs":[{"name":"account","type":"address","indexed":false,"internalType":"address"}],"anonymous":false},{"type":"event","name":"QueuedRewardsDistributed","inputs":[{"name":"token","type":"address","indexed":true,"internalType":"address"},{"name":"amount","type":"uint256","indexed":false,"internalType":"uint256"}],"anonymous":false},{"type":"event","name":"RewardClaimed","inputs":[{"name":"user","type":"address","indexed":true,"internalType":"address"},{"name":"token","type":"address","indexed":true,"internalType":"address"},{"name":"amount","type":"uint256","indexed":false,"internalType":"uint256"}],"anonymous":false},{"type":"event","name":"RewardNotified","inputs":[{"name":"token","type":"address","indexed":true,"internalType":"address"},{"name":"amount","type":"uint256","indexed":false,"internalType":"uint256"},{"name":"distributedPerShare","type":"uint256","indexed":false,"internalType":"uint256"}],"anonymous":false},{"type":"event","name":"RewardNotifierSet","inputs":[{"name":"notifier","type":"address","indexed":true,"internalType":"address"},{"name":"authorized","type":"bool","indexed":false,"internalType":"bool"}],"anonymous":false},{"type":"event","name":"RewardTokenAdded","inputs":[{"name":"token","type":"address","indexed":true,"internalType":"address"}],"anonymous":false},{"type":"event","name":"RewardTokenRetired","inputs":[{"name":"token","type":"address","indexed":true,"internalType":"address"}],"anonymous":false},{"type":"event","name":"StakeCapsSet","inputs":[{"name":"perUser","type":"uint256","indexed":false,"internalType":"uint256"},{"name":"total","type":"uint256","indexed":false,"internalType":"uint256"}],"anonymous":false},{"type":"event","name":"Unpaused","inputs":[{"name":"account","type":"address","indexed":false,"internalType":"address"}],"anonymous":false},{"type":"error","name":"AddressEmptyCode","inputs":[{"name":"target","type":"address","internalType":"address"}]},{"type":"error","name":"AddressInsufficientBalance","inputs":[{"name":"account","type":"address","internalType":"address"}]},{"type":"error","name":"BadETHValue","inputs":[]},{"type":"error","name":"EnforcedPause","inputs":[]},{"type":"error","name":"ExpectedPause","inputs":[]},{"type":"error","name":"FailedInnerCall","inputs":[]},{"type":"error","name":"IndexOutOfBounds","inputs":[]},{"type":"error","name":"InsufficientCredit","inputs":[]},{"type":"error","name":"InvalidAmount","inputs":[]},{"type":"error","name":"MathOverflowedMulDiv","inputs":[]},{"type":"error","name":"MaxRewardTokensReached","inputs":[]},{"type":"error","name":"NotEnoughStaked","inputs":[]},{"type":"error","name":"OwnableInvalidOwner","inputs":[{"name":"owner","type":"address","internalType":"address"}]},{"type":"error","name":"OwnableUnauthorizedAccount","inputs":[{"name":"account","type":"address","internalType":"address"}]},{"type":"error","name":"ReentrancyGuardReentrantCall","inputs":[]},{"type":"error","name":"SafeERC20FailedOperation","inputs":[{"name":"token","type":"address","internalType":"address"}]},{"type":"error","name":"UnauthorizedRewardNotifier","inputs":[]},{"type":"error","name":"ZeroAddress","inputs":[]}],"bytecode":{"object":"0x60a034620001a357601f6200226838819003918201601f191683019291906001600160401b03841183851017620001a7578160609284926040968752833981010312620001a3576200005181620001bb565b6200006c836200006460208501620001bb565b9301620001bb565b33156200018c575f8054336001600160a01b03198216811783558651956001600160a01b0395909390928616907f8be0079c531659141344cd1fd0a4f28419497f9722a3daafe3b4186f6b6457e09080a36001805560ff199485600254166002555f19806007556008556032600a5584821615801562000181575b801562000176575b620001675750908391608052165f526006602052835f20600184825416179055165f52815f20600182825416179055335f526001825f2091825416179055516120979081620001d182396080518181816104ab015281816105a001528181610ad001528181610f89015281816111ab015261146b0152f35b63d92e233d60e01b8152600490fd5b5084841615620000ef565b5084831615620000e7565b8351631e4fbdf760e01b81525f6004820152602490fd5b5f80fd5b634e487b7160e01b5f52604160045260245ffd5b51906001600160a01b0382168203620001a35756fe608060409080825260049081361015610022575b5050503615610020575f80fd5b005b5f3560e01c908163035ec58414611512575080630717d032146114f45780630b8f54d6146114d65780631171bda9146114315780631820cabb146114145780631eb8405c146112b1578063255a4f731461121e5780632e17de78146110e0578063372500ab146110a25780633a7f366b1461100e5780633f4ba83a14610fb8578063586d13b314610f755780635a68c15414610f575780635c975abb14610f345780635dcea4d414610efd57806370a0823114610ec7578063715018a614610e7057806376b467b714610e395780637b4717a414610df05780637bb7bed114610da05780637e686e0114610ca25780638456cb5914610c495780638da5cb5b14610c22578063a694fc3a14610a5c578063aaf5eb6814610a3a578063b33f78ca146109fe578063b36ce9ff14610987578063b53a6a7114610950578063b66503cf14610921578063bf199e6214610903578063c461748f1461076e578063c4f59f9b146106d7578063cc1f0d2d1461068e578063d15166ff14610652578063d279c1911461060b578063db2e21bc14610535578063e358d03a14610517578063e9fad8ee14610418578063f2fde38b1461038c5763f6ed2017146101e65780610013565b34610388576020908160031936011261038857919061020361155b565b9060095493610211856119ed565b9461021e855196876115e4565b80865261022a816119ed565b601f1994908501368886013761023f826119ed565b9261024c875194856115e4565b828452610258836119ed565b848601960136873760018060a01b0380921690815f528552865f20545f928115935b8581106102d3575050505050508161029b8551968688978852870190611587565b918583038287015251918281520192915f5b8281106102bc57505050500390f35b8351855286955093810193928101926001016102ad565b80826102e56001939d999b9c9d611694565b90549060031b1c16806102f8838b611a05565b525f868152600f8b528d81208282528b528d9020548a8e89156103305750509050610323828c611a05565b525b01999897959961027a565b61037093600c8352600e825f2054938b5f5252815f20905f528d525f2054908181115f146103805761036b91610365916115c3565b87611e42565b6116dd565b61037a828c611a05565b52610325565b50505f6116dd565b5f80fd5b5034610388576020366003190112610388576103a661155b565b906103af611a19565b6001600160a01b039182169283156104025750505f54826bffffffffffffffffffffffff60a01b8216175f55167f8be0079c531659141344cd1fd0a4f28419497f9722a3daafe3b4186f6b6457e05f80a3005b905f6024925191631e4fbdf760e01b8352820152fd5b5034610388575f36600319011261038857610431611a96565b610439611ab9565b335f526005602052610450825f2054421015611659565b60035461050a575b61046133611bb1565b335f52602052805f209081549182610483575b61047d33611c08565b60018055005b5f9055610492826003546115c3565b600355335f8181526005602052828120556104d89083907f00000000000000000000000000000000000000000000000000000000000000006001600160a01b0316611a44565b519081527fd4a128cae52bb0cd22f7ab2b4b984a0fed55786a4c401c7264fab1f8a4986cd360203392a25f8080610474565b610512611ad7565b610458565b8234610388575f36600319011261038857602090600a549051908152f35b509034610388575f3660031901126103885761054f611a96565b610557611f65565b335f5281602052805f20549182156105fd57335f526020525f81812055610580826003546115c3565b600355335f5260056020525f8181205561059933611c08565b6105cd82337f00000000000000000000000000000000000000000000000000000000000000006001600160a01b0316611a44565b519081527f5fafa99d0643513820be26656b45130b01e1c03062e1266bf36f88cbd3bd969560203392a260018055005b905163162908e360e11b8152fd5b346103885760203660031901126103885761047d61062761155b565b61062f611a96565b610637611ab9565b600354610645575b33611c61565b61064d611ad7565b61063f565b8234610388576020366003190112610388576020906001600160a01b0361067761155b565b165f526006825260ff815f20541690519015158152f35b82346103885780600319360112610388576020906106aa61155b565b6106b2611571565b9060018060a01b038091165f52600f8452825f2091165f528252805f20549051908152f35b8234610388575f366003190112610388578051600980548083525f918252602080840194927f6e1540171b6c0c960b71a7020d9f60077f6af931a8bbf590da0223dacf75c7af92915b82821061074e5761074a8686610738828b03836115e4565b51918291602083526020830190611587565b0390f35b83546001600160a01b031687529586019560019384019390910190610720565b50346103885760209160206003193601126103885761078b61155b565b610793611a19565b60018060a01b0380911693845f52600b91600b60205260ff845f205416156108f357855f52600d602052835f20546108c55760098054955f5b8781106107d557005b83896107e083611694565b929054600393841b1c16146107f857506001016107cc565b9495969791905f94939419928381019081116108b2579061082c8561081f61084a94611694565b9054908a1b1c1691611694565b90919060018060a01b038084549260031b9316831b921b1916179055565b835490811561089f5750019261085f84611694565b81939154921b1b1916905555835f52525f2060ff1981541690557f6bfde9fdb658ad877fcafcfbd5617ded067e0893ac8639fe8f8712fc49de3f185f80a2005b603190634e487b7160e01b5f525260245ffd5b601183634e487b7160e01b5f525260245ffd5b835162461bcd60e51b8152602081870152600860248201526707175657565643e360c41b6044820152606490fd5b50505051634e23d03560e01b8152fd5b8234610388575f366003190112610388576020906009549051908152f35b826003193601126103885761047d61093761155b565b61093f611a96565b610947611ab9565b602435906116ea565b8234610388576020366003190112610388576020906001600160a01b0361097561155b565b165f52600d8252805f20549051908152f35b5090346103885780600319360112610388577f7794f4e6677128b866abb482287f8279b811d805f7acaed8b10344a1923a1b549135602435906109c8611a19565b806109f857505f19905b8160075580155f146109f357505f195b8060085582519182526020820152a1005b6109e2565b906109d2565b8234610388576020366003190112610388576020906001600160a01b03610a2361155b565b165f52600b825260ff815f20541690519015158152f35b8234610388575f3660031901126103885760209051670de0b6b3a76400008152f35b509034610388576020908160031936011261038857823591610a7c611a96565b610a84611ab9565b8215610c1257335f52838152610a9d83835f20546116dd565b60075410610be557600354610ab284826116dd565b60085410610bb657610ba9575b610ac833611bb1565b610afd8330337f00000000000000000000000000000000000000000000000000000000000000006001600160a01b0316611de9565b335f52838152815f20610b118482546116dd565b9055610b1f836003546116dd565b60035562093a804201804211610b96577fc424bf7d87a11095e5340698fbd9922633b44b6d770cac449fc8a3c9b5cdf459939450335f5260058252825f2080548211610b8e575b5050610b7133611c08565b335f5260058152815f20549082519485528401523392a260018055005b555f80610b66565b601185634e487b7160e01b5f525260245ffd5b610bb1611ad7565b610abf565b825162461bcd60e51b815280860183905260096024820152680746f74616c206361760bc1b6044820152606490fd5b8390606492519162461bcd60e51b83528201526008602482015267075736572206361760c41b6044820152fd5b815163162908e360e11b81528490fd5b8234610388575f366003190112610388575f5490516001600160a01b039091168152602090f35b8234610388575f3660031901126103885760207f62e78cea01bee320cd4e420270b5ea74000d11b0c9f74754ebdbfc544b05a25891610c86611a19565b610c8e611ab9565b600160ff19600254161760025551338152a1005b503461038857602036600319011261038857803567ffffffffffffffff9283821161038857366023830112156103885781830135938411610388576024926005913660248760051b8601011161038857610cfa611a96565b610d02611ab9565b600354610d93575b85151580610d88575b15610d545750505f5b848110610d295760018055005b80821b8301840135906001600160a01b038216820361038857610d4e60019233611c61565b01610d1c565b906020606492519162461bcd60e51b8352820152600e60248201526d092dcecc2d8d2c840d8cadccee8d60931b6044820152fd5b506032861115610d13565b610d9b611ad7565b610d0a565b50903461038857602036600319011261038857813591600954831015610de25750610dcc602092611694565b905491519160018060a01b039160031b1c168152f35b9051634e23d03560e01b8152fd5b8234610388578060031936011261038857602090610e0c61155b565b610e14611571565b9060018060a01b038091165f52600e8452825f2091165f528252805f20549051908152f35b8234610388576020366003190112610388576020906001600160a01b03610e5e61155b565b165f5260058252805f20549051908152f35b34610388575f36600319011261038857610e88611a19565b5f80546001600160a01b0319811682556001600160a01b03167f8be0079c531659141344cd1fd0a4f28419497f9722a3daafe3b4186f6b6457e08280a3005b509034610388576020366003190112610388576020916001600160a01b03610eed61155b565b165f528252805f20549051908152f35b8234610388576020366003190112610388576020906001600160a01b03610f2261155b565b165f52600c8252805f20549051908152f35b8234610388575f3660031901126103885760209060ff6002541690519015158152f35b8234610388575f366003190112610388576020906008549051908152f35b8234610388575f36600319011261038857517f00000000000000000000000000000000000000000000000000000000000000006001600160a01b03168152602090f35b8234610388575f3660031901126103885760207f5db9ee0a495bf2e6ff9c91a7834c1ba4fdd244a5e8aa4e537bd38aeae4b073aa91610ff5611a19565b610ffd611f65565b60ff196002541660025551338152a1005b50346103885760203660031901126103885780359061102b611a19565b81151580611096575b15611069577fca64f2fcb3a2eb02b2e07674e352a795b17987d84869c6db8c8d665d13251c476020838581600a5551908152a1005b606490602084519162461bcd60e51b835282015260076024820152660c4c2c840dac2f60cb1b6044820152fd5b506103e8821115611034565b34610388575f366003190112610388576110ba611a96565b6110c2611ab9565b6003546110d3575b61047433611bb1565b6110db611ad7565b6110ca565b50903461038857602080600319360112610388578235916110ff611a96565b611107611ab9565b821561120f57335f5283825282815f205410611200577fd4a128cae52bb0cd22f7ab2b4b984a0fed55786a4c401c7264fab1f8a4986cd39293335f5260058352611156825f2054421015611659565b6003546111f3575b61116733611bb1565b335f52808352815f2061117b8682546115c3565b9055611189856003546115c3565b600355335f528252805f2054156111e5575b6111a433611c08565b6111d884337f00000000000000000000000000000000000000000000000000000000000000006001600160a01b0316611a44565b519283523392a260018055005b600582525f8181205561119b565b6111fb611ad7565b61115e565b516386a76f7960e01b81528390fd5b5163162908e360e11b81528390fd5b50903461038857806003193601126103885761123861155b565b90602435918215158093036103885761124f611a19565b6001600160a01b03169283156112a357507fb33ca1dabfb28a2e1bd06b332c396b1a3d538278691341a5503bbad53f91919791602091845f5260068352805f2060ff1981541660ff841617905551908152a2005b905163d92e233d60e01b8152fd5b5034610388576060366003190112610388576112cb61155b565b6001600160a01b036044358181169492936024359391869003610388576112f0611a96565b6112f8611ab9565b85156112a357335f52602092600f8452825f20951694855f528352815f20548415801561140b575b6113fc578461132e916115c3565b335f52600f8452825f20865f528452825f205584155f146113c8575f808080878a5af161135961161a565b50156113915750907f718a8cab95b012c13b34908c4141ab57ff499310c2b951cc49272598fb0bbf4f915b519283523392a460018055005b82606492519162461bcd60e51b83528201526013602482015272115512081dda5d1a191c985dc819985a5b1959606a1b6044820152fd5b50907f718a8cab95b012c13b34908c4141ab57ff499310c2b951cc49272598fb0bbf4f916113f7848787611a44565b611384565b509051638ac4bc7360e01b8152fd5b50808511611320565b8234610388575f366003190112610388576020905162093a808152f35b50346103885760603660031901126103885761144b61155b565b90611454611571565b9061145d611a19565b6001600160a01b03928316927f000000000000000000000000000000000000000000000000000000000000000016831461149e576100206044358385611a44565b606490602085519162461bcd60e51b8352820152601260248201527143616e6e6f74207265636f766572204c495160701b6044820152fd5b8234610388575f366003190112610388576020906003549051908152f35b8234610388575f366003190112610388576020906007549051908152f35b83903461038857816003193601126103885760209161152f61155b565b611537611571565b6001600160a01b039182165f908152600f8652838120919092168252845220548152f35b600435906001600160a01b038216820361038857565b602435906001600160a01b038216820361038857565b9081518082526020808093019301915f5b8281106115a6575050505090565b83516001600160a01b031685529381019392810192600101611598565b919082039182116115d057565b634e487b7160e01b5f52601160045260245ffd5b90601f8019910116810190811067ffffffffffffffff82111761160657604052565b634e487b7160e01b5f52604160045260245ffd5b3d15611654573d9067ffffffffffffffff82116116065760405191611649601f8201601f1916602001846115e4565b82523d5f602084013e565b606090565b1561166057565b60405162461bcd60e51b815260206004820152600c60248201526b14dd1a5b1b081b1bd8dad95960a21b6044820152606490fd5b6009548110156116c95760095f527f6e1540171b6c0c960b71a7020d9f60077f6af931a8bbf590da0223dacf75c7af01905f90565b634e487b7160e01b5f52603260045260245ffd5b919082018092116115d057565b335f5260206006815260409060ff825f205416156119dc576001600160a01b038316938461187d5780340361186c57905b845f52600b815260ff835f205416156117a0575b7f8a888ea653a580e40660778ee0c0dabd23a81e8e2c8dcfb938e40982a157d8199350600354156117895761176660035483611ec8565b90855f52600c8152835f2061177c8382546116dd565b90558351928352820152a2565b5f90858252600d815283822061177c8482546116dd565b600954600a54111561183457845f52600b8152825f20600160ff1982541617905560095468010000000000000000811015611606577f8a888ea653a580e40660778ee0c0dabd23a81e8e2c8dcfb938e40982a157d8199461082c82600161180a9401600955611694565b847ff3e4c2c64e71e6ba2eaab9a599bced62f9eb91d2cda610bf41aa8c80ff2cf8265f80a261172f565b60649083519062461bcd60e51b8252600482015260126024820152711c995dd85c99081d1bdad95b9cc8199d5b1b60721b6044820152fd5b8251630be9eb8560e01b8152600490fd5b80156119cb5782516370a0823160e01b808252306004830152909183836024818a5afa9283156119c1575f93611990575b506118bb90303389611de9565b83519081523060048201528281602481895afa908115611986575f91611959575b5081811061192457906118ee916115c3565b908161171b5760649083519062461bcd60e51b82526004820152600a6024820152696e6f207265636569766560b01b6044820152fd5b835162461bcd60e51b815260048101849052600e60248201526d3130b6103932b3b932b9b9b4b7b760911b6044820152606490fd5b90508281813d831161197f575b61197081836115e4565b8101031261038857515f6118dc565b503d611966565b84513d5f823e3d90fd5b9092508381813d83116119ba575b6119a881836115e4565b810103126103885751916118bb6118ae565b503d61199e565b85513d5f823e3d90fd5b825163162908e360e11b8152600490fd5b815163363ac07f60e01b8152600490fd5b67ffffffffffffffff81116116065760051b60200190565b80518210156116c95760209160051b010190565b5f546001600160a01b03163303611a2c57565b60405163118cdaa760e01b8152336004820152602490fd5b60405163a9059cbb60e01b60208201526001600160a01b039092166024830152604480830193909352918152608081019167ffffffffffffffff83118284101761160657611a9492604052611f84565b565b600260015414611aa7576002600155565b604051633ee5aeb560e01b8152600490fd5b60ff60025416611ac557565b60405163d93c066560e01b8152600490fd5b6003805415611bae57600954905f5b828110611af257505050565b80611afe600192611694565b838060a01b03915490851b1c16805f526020600d8152604090815f20918254908115611ba4575f7ff83616e50448ae7517e9f18b38526ed7ca99cc95d215a11b425fc5e6a886f39e9455847f8a888ea653a580e40660778ee0c0dabd23a81e8e2c8dcfb938e40982a157d81982611b768b5486611ec8565b835f52600c8752815f20611b8b8282546116dd565b905581519086825287820152a251908152a25b01611ae6565b5050505050611b9e565b50565b60018060a01b03908181165f52600460205260405f205415611c0457600954915f5b838110611be05750505050565b80611bfe83611bf0600194611694565b90549060031b1c1685611c61565b01611bd3565b5050565b600954905f5b828110611c1a57505050565b80611c26600192611694565b90838060a01b03918291549060031b1c16805f52602090600c8252604091825f20549387165f52600e8152825f20915f52525f205501611c0e565b60018060a01b0390818116805f5260209060048252604093845f2054958615611dc357839183911694855f52600c835285875f205498835f52600e8552885f20825f528552885f205490818b11611ccb575b5050505050505f52600e8152825f20915f52525f2055565b611cd8611cde928c6115c3565b90611e42565b9182611ceb575b80611cb3565b81611d8957505f80808085875af1611d0161161a565b50611d5b57505f927f89383eb59d0c18a54dcb4b1221a0bc9eb3da1ef0f458c497228deb0a0154f71c91838552600f82528885208580528252888520611d488282546116dd565b90558851908152a35b81815f8581611ce5565b927f0aa4d283470c904c551d18bb894d37e17674920f3261a7f854be501e25f421b7918851908152a3611d51565b91611db8817f0aa4d283470c904c551d18bb894d37e17674920f3261a7f854be501e25f421b794849794611a44565b8851908152a3611d51565b9195509192501690815f52600c8152825f2054935f52600e8152825f20915f52525f2055565b6040516323b872dd60e01b60208201526001600160a01b03928316602482015292909116604483015260648083019390935291815260a081019181831067ffffffffffffffff84111761160657611a9492604052611f84565b90808202905f1981840990828083109203918083039214611eb757670de0b6b3a76400009082821115611ea5577faccb18165bd6fe31ae1cf318dc5b51eee0e1ba569b88cd74c1773b91fac10669940990828211900360ee1b910360121c170290565b60405163227bc15360e01b8152600490fd5b5050670de0b6b3a764000091500490565b670de0b6b3a764000091818302915f1984820993838086109503948086039514611f435784831115611ea557829109815f038216809204600280826003021880830282030280830282030280830282030280830282030280830282030280920290030293600183805f03040190848311900302920304170290565b505080925015611f51570490565b634e487b7160e01b5f52601260045260245ffd5b60ff6002541615611f7257565b604051638dfc202b60e01b8152600490fd5b5f80611fac9260018060a01b03169360208151910182865af1611fa561161a565b9083611ffe565b8051908115159182611fda575b5050611fc25750565b60249060405190635274afe760e01b82526004820152fd5b81925090602091810103126103885760200151801590811503610388575f80611fb9565b90612025575080511561201357805190602001fd5b604051630a12f52160e11b8152600490fd5b81511580612058575b612036575090565b604051639996b31560e01b81526001600160a01b039091166004820152602490fd5b50803b1561202e56fea2646970667358221220526fa742e4fab15bbe11b29261d5a039f97177431457242ed6d8a945427c82dc64736f6c63430008180033","linkReferences":{}},"methodIdentifiers":{"LIQ()":"586d13b3","LOCK_PERIOD()":"1820cabb","PRECISION()":"aaf5eb68","accRewardPerShare(address)":"5dcea4d4","balanceOf(address)":"70a08231","claimMany(address[])":"7e686e01","claimReward(address)":"d279c191","claimRewards()":"372500ab","credit(address,address)":"cc1f0d2d","creditOf(address,address)":"035ec584","emergencyWithdraw()":"db2e21bc","exit()":"e9fad8ee","getPendingRewards(address)":"f6ed2017","getRewardTokens()":"c4f59f9b","maxRewardTokens()":"e358d03a","maxStakePerUser()":"0717d032","maxTotalStaked()":"5a68c154","notifyRewardAmount(address,uint256)":"b66503cf","owner()":"8da5cb5b","pause()":"8456cb59","paused()":"5c975abb","queuedRewards(address)":"b53a6a71","recoverERC20(address,address,uint256)":"1171bda9","renounceOwnership()":"715018a6","retireRewardToken(address)":"c461748f","rewardDebt(address,address)":"7b4717a4","rewardNotifiers(address)":"d15166ff","rewardTokens(uint256)":"7bb7bed1","rewardTokensLength()":"bf199e62","setMaxRewardTokens(uint256)":"3a7f366b","setRewardNotifier(address,bool)":"255a4f73","setStakeCaps(uint256,uint256)":"b36ce9ff","stake(uint256)":"a694fc3a","tokenExists(address)":"b33f78ca","totalLIQStaked()":"0b8f54d6","transferOwnership(address)":"f2fde38b","unlockTime(address)":"76b467b7","unpause()":"3f4ba83a","unstake(uint256)":"2e17de78","withdrawCredit(address,uint256,address)":"1eb8405c"},"id":24}