{"abi":[{"type":"constructor","inputs":[{"name":"_iAERO","type":"address","internalType":"address"}],"stateMutability":"nonpayable"},{"type":"receive","stateMutability":"payable"},{"type":"function","name":"PRECISION","inputs":[],"outputs":[{"name":"","type":"uint256","internalType":"uint256"}],"stateMutability":"view"},{"type":"function","name":"accRewardPerShare","inputs":[{"name":"","type":"address","internalType":"address"}],"outputs":[{"name":"","type":"uint256","internalType":"uint256"}],"stateMutability":"view"},{"type":"function","name":"accRewardsPerShare","inputs":[{"name":"token","type":"address","internalType":"address"}],"outputs":[{"name":"acc","type":"uint256","internalType":"uint256"}],"stateMutability":"view"},{"type":"function","name":"allowedFunders","inputs":[{"name":"","type":"address","internalType":"address"}],"outputs":[{"name":"","type":"bool","internalType":"bool"}],"stateMutability":"view"},{"type":"function","name":"balanceOf","inputs":[{"name":"","type":"address","internalType":"address"}],"outputs":[{"name":"","type":"uint256","internalType":"uint256"}],"stateMutability":"view"},{"type":"function","name":"claimActiveRewards","inputs":[{"name":"start","type":"uint256","internalType":"uint256"},{"name":"count","type":"uint256","internalType":"uint256"}],"outputs":[],"stateMutability":"nonpayable"},{"type":"function","name":"claimReward","inputs":[{"name":"token","type":"address","internalType":"address"}],"outputs":[],"stateMutability":"nonpayable"},{"type":"function","name":"claimRewards","inputs":[],"outputs":[],"stateMutability":"nonpayable"},{"type":"function","name":"claimRewards","inputs":[{"name":"tokens","type":"address[]","internalType":"address[]"}],"outputs":[],"stateMutability":"nonpayable"},{"type":"function","name":"exit","inputs":[],"outputs":[],"stateMutability":"nonpayable"},{"type":"function","name":"getPendingRewards","inputs":[{"name":"account","type":"address","internalType":"address"}],"outputs":[{"name":"tokens","type":"address[]","internalType":"address[]"},{"name":"amounts","type":"uint256[]","internalType":"uint256[]"}],"stateMutability":"view"},{"type":"function","name":"getPendingRewardsFor","inputs":[{"name":"account","type":"address","internalType":"address"},{"name":"tokens","type":"address[]","internalType":"address[]"}],"outputs":[{"name":"amounts","type":"uint256[]","internalType":"uint256[]"}],"stateMutability":"view"},{"type":"function","name":"getRewardTokens","inputs":[],"outputs":[{"name":"tokens","type":"address[]","internalType":"address[]"}],"stateMutability":"view"},{"type":"function","name":"iAERO","inputs":[],"outputs":[{"name":"","type":"address","internalType":"address"}],"stateMutability":"view"},{"type":"function","name":"isRetired","inputs":[{"name":"","type":"address","internalType":"address"}],"outputs":[{"name":"","type":"bool","internalType":"bool"}],"stateMutability":"view"},{"type":"function","name":"maxActiveRewardTokens","inputs":[],"outputs":[{"name":"","type":"uint256","internalType":"uint256"}],"stateMutability":"view"},{"type":"function","name":"notifyRewardAmount","inputs":[{"name":"token","type":"address","internalType":"address"},{"name":"amount","type":"uint256","internalType":"uint256"}],"outputs":[],"stateMutability":"payable"},{"type":"function","name":"notifyRewardAmountsBatch","inputs":[{"name":"tokens","type":"address[]","internalType":"address[]"},{"name":"amounts","type":"uint256[]","internalType":"uint256[]"}],"outputs":[],"stateMutability":"payable"},{"type":"function","name":"owner","inputs":[],"outputs":[{"name":"","type":"address","internalType":"address"}],"stateMutability":"view"},{"type":"function","name":"queuedRewards","inputs":[{"name":"","type":"address","internalType":"address"}],"outputs":[{"name":"","type":"uint256","internalType":"uint256"}],"stateMutability":"view"},{"type":"function","name":"reactivateRewardToken","inputs":[{"name":"token","type":"address","internalType":"address"}],"outputs":[],"stateMutability":"nonpayable"},{"type":"function","name":"renounceOwnership","inputs":[],"outputs":[],"stateMutability":"nonpayable"},{"type":"function","name":"retireRewardToken","inputs":[{"name":"token","type":"address","internalType":"address"}],"outputs":[],"stateMutability":"nonpayable"},{"type":"function","name":"rewardDebt","inputs":[{"name":"","type":"address","internalType":"address"},{"name":"","type":"address","internalType":"address"}],"outputs":[{"name":"","type":"uint256","internalType":"uint256"}],"stateMutability":"view"},{"type":"function","name":"rewardTokens","inputs":[{"name":"index","type":"uint256","internalType":"uint256"}],"outputs":[{"name":"token","type":"address","internalType":"address"}],"stateMutability":"view"},{"type":"function","name":"rewardTokensLength","inputs":[],"outputs":[{"name":"","type":"uint256","internalType":"uint256"}],"stateMutability":"view"},{"type":"function","name":"setAllowedFunder","inputs":[{"name":"funder","type":"address","internalType":"address"},{"name":"allowed","type":"bool","internalType":"bool"}],"outputs":[],"stateMutability":"nonpayable"},{"type":"function","name":"setAllowedFundersBatch","inputs":[{"name":"funders","type":"address[]","internalType":"address[]"},{"name":"allowed","type":"bool[]","internalType":"bool[]"}],"outputs":[],"stateMutability":"nonpayable"},{"type":"function","name":"setMaxActiveRewardTokens","inputs":[{"name":"newLimit","type":"uint256","internalType":"uint256"}],"outputs":[],"stateMutability":"nonpayable"},{"type":"function","name":"stake","inputs":[{"name":"amount","type":"uint256","internalType":"uint256"},{"name":"syncRetired","type":"address[]","internalType":"address[]"}],"outputs":[],"stateMutability":"nonpayable"},{"type":"function","name":"stake","inputs":[{"name":"amount","type":"uint256","internalType":"uint256"}],"outputs":[],"stateMutability":"nonpayable"},{"type":"function","name":"stakeFor","inputs":[{"name":"user","type":"address","internalType":"address"},{"name":"amount","type":"uint256","internalType":"uint256"}],"outputs":[],"stateMutability":"nonpayable"},{"type":"function","name":"tokenExists","inputs":[{"name":"","type":"address","internalType":"address"}],"outputs":[{"name":"","type":"bool","internalType":"bool"}],"stateMutability":"view"},{"type":"function","name":"totalStaked","inputs":[],"outputs":[{"name":"","type":"uint256","internalType":"uint256"}],"stateMutability":"view"},{"type":"function","name":"transferOwnership","inputs":[{"name":"newOwner","type":"address","internalType":"address"}],"outputs":[],"stateMutability":"nonpayable"},{"type":"function","name":"unstake","inputs":[{"name":"amount","type":"uint256","internalType":"uint256"}],"outputs":[],"stateMutability":"nonpayable"},{"type":"function","name":"unstake","inputs":[{"name":"amount","type":"uint256","internalType":"uint256"},{"name":"syncRetired","type":"address[]","internalType":"address[]"}],"outputs":[],"stateMutability":"nonpayable"},{"type":"event","name":"AllowedFunderSet","inputs":[{"name":"funder","type":"address","indexed":true,"internalType":"address"},{"name":"allowed","type":"bool","indexed":false,"internalType":"bool"}],"anonymous":false},{"type":"event","name":"AllowedFundersBatchSet","inputs":[{"name":"count","type":"uint256","indexed":false,"internalType":"uint256"}],"anonymous":false},{"type":"event","name":"BatchRewardNotified","inputs":[{"name":"count","type":"uint256","indexed":false,"internalType":"uint256"}],"anonymous":false},{"type":"event","name":"Exit","inputs":[{"name":"user","type":"address","indexed":true,"internalType":"address"},{"name":"unstaked","type":"uint256","indexed":false,"internalType":"uint256"},{"name":"activeRewardsCount","type":"uint256","indexed":false,"internalType":"uint256"}],"anonymous":false},{"type":"event","name":"MaxActiveRewardTokensSet","inputs":[{"name":"newLimit","type":"uint256","indexed":false,"internalType":"uint256"}],"anonymous":false},{"type":"event","name":"OwnershipTransferred","inputs":[{"name":"previousOwner","type":"address","indexed":true,"internalType":"address"},{"name":"newOwner","type":"address","indexed":true,"internalType":"address"}],"anonymous":false},{"type":"event","name":"RewardClaimed","inputs":[{"name":"user","type":"address","indexed":true,"internalType":"address"},{"name":"token","type":"address","indexed":true,"internalType":"address"},{"name":"amount","type":"uint256","indexed":false,"internalType":"uint256"}],"anonymous":false},{"type":"event","name":"RewardNotified","inputs":[{"name":"token","type":"address","indexed":true,"internalType":"address"},{"name":"amount","type":"uint256","indexed":false,"internalType":"uint256"},{"name":"distributedPerShare","type":"uint256","indexed":false,"internalType":"uint256"}],"anonymous":false},{"type":"event","name":"RewardTokenAdded","inputs":[{"name":"token","type":"address","indexed":true,"internalType":"address"}],"anonymous":false},{"type":"event","name":"RewardTokenReactivated","inputs":[{"name":"token","type":"address","indexed":true,"internalType":"address"}],"anonymous":false},{"type":"event","name":"RewardTokenRetired","inputs":[{"name":"token","type":"address","indexed":true,"internalType":"address"}],"anonymous":false},{"type":"event","name":"Staked","inputs":[{"name":"user","type":"address","indexed":true,"internalType":"address"},{"name":"amount","type":"uint256","indexed":false,"internalType":"uint256"}],"anonymous":false},{"type":"event","name":"StakedFor","inputs":[{"name":"funder","type":"address","indexed":true,"internalType":"address"},{"name":"user","type":"address","indexed":true,"internalType":"address"},{"name":"amount","type":"uint256","indexed":false,"internalType":"uint256"}],"anonymous":false},{"type":"event","name":"Unstaked","inputs":[{"name":"user","type":"address","indexed":true,"internalType":"address"},{"name":"amount","type":"uint256","indexed":false,"internalType":"uint256"}],"anonymous":false},{"type":"error","name":"AddressEmptyCode","inputs":[{"name":"target","type":"address","internalType":"address"}]},{"type":"error","name":"AddressInsufficientBalance","inputs":[{"name":"account","type":"address","internalType":"address"}]},{"type":"error","name":"BadETHValue","inputs":[]},{"type":"error","name":"FailedInnerCall","inputs":[]},{"type":"error","name":"IndexOutOfBounds","inputs":[]},{"type":"error","name":"InvalidAmount","inputs":[]},{"type":"error","name":"MathOverflowedMulDiv","inputs":[]},{"type":"error","name":"NotEnoughStaked","inputs":[]},{"type":"error","name":"OwnableInvalidOwner","inputs":[{"name":"owner","type":"address","internalType":"address"}]},{"type":"error","name":"OwnableUnauthorizedAccount","inputs":[{"name":"account","type":"address","internalType":"address"}]},{"type":"error","name":"QueuedRewardsNonZero","inputs":[]},{"type":"error","name":"ReentrancyGuardReentrantCall","inputs":[]},{"type":"error","name":"SafeERC20FailedOperation","inputs":[{"name":"token","type":"address","internalType":"address"}]},{"type":"error","name":"TokenAlreadyActive","inputs":[]},{"type":"error","name":"TokenNotActive","inputs":[]},{"type":"error","name":"TokenRetired","inputs":[]},{"type":"error","name":"ZeroAddress","inputs":[]}],"bytecode":{"object":"0x60a0346100fb57601f6200234438819003918201601f19168301916001600160401b038311848410176100ff578084926020946040528339810103126100fb57516001600160a01b038082168083036100fb5733156100e3575f543360018060a01b03198216175f55604051923391167f8be0079c531659141344cd1fd0a4f28419497f9722a3daafe3b4186f6b6457e05f80a360018055610100600255156100d45750608052604051612230908162000114823960805181818161046c01528181610a51015281816111420152611b510152f35b63d92e233d60e01b8152600490fd5b604051631e4fbdf760e01b81525f6004820152602490fd5b5f80fd5b634e487b7160e01b5f52604160045260245ffdfe6080604052600436101561001a575b3615610018575f80fd5b005b5f3560e01c80632e17de781461139b5780632ee409081461136d578063372500ab1461134357806342036d491461131657806349fdf4cd146112f95780634fdec075146112d25780635126b1fa146111b3578063572f622c146110c85780635dcea4d414610e445780636d3c62751461108b57806370a0823114611053578063715018a614610ffc5780637aa88fa914610fbf5780637b4717a414610f6e5780637bb7bed114610f1a578063817b1cd214610efd5780638da5cb5b14610ed65780638fea66ba14610e7c578063a0cf33f514610e44578063a618993914610dac578063a694fc3a14610d86578063aaf5eb6814610d64578063b33f78ca14610d27578063b53a6a7114610cef578063b66503cf14610cc7578063bf199e6214610caa578063c461748f14610b15578063c4f59f9b14610a80578063c8b1153714610a3c578063c934e7e514610610578063d279c191146105e6578063dc1311291461053e578063dd60b2a21461049f578063e9fad8ee146103d9578063f2fde38b1461034f578063f6ed2017146102265763f9f031df0361000e57346102225760203660031901126102225760043567ffffffffffffffff8111610222576101e69036906004016113ef565b6101ee6119fd565b5f5b8181106101fd5760018055005b8061021c61021661021160019486886115d8565b6115e8565b33611ccd565b016101f0565b5f80fd5b3461022257602080600319360112610222576102406113d9565b6005549061024d8261163f565b9161025b6040519384611609565b808352601f1961026a8261163f565b01368585013761027981611657565b6001600160a01b039283165f81815260048752604081205492948315915b8581106102cc576102bb886102c88b8a6040519485946040865260408601906114ce565b918483039085015261149b565b0390f35b808981858b6102f0876102e0600198611524565b90549060031b1c16938492611689565b5261033c5761032a9181610324925f5260098252600b60405f2054928a5f525260405f20905f528d5260405f20549061150a565b87611f18565b610334828a611689565b525b01610297565b50505f610349828a611689565b52610336565b34610222576020366003190112610222576103686113d9565b610370611e3e565b6001600160a01b039081169081156103c1575f54826bffffffffffffffffffffffff60a01b8216175f55167f8be0079c531659141344cd1fd0a4f28419497f9722a3daafe3b4186f6b6457e05f80a3005b604051631e4fbdf760e01b81525f6004820152602490fd5b34610222575f366003190112610222576103f16119fd565b6103fa33611a20565b335f52600460205260405f2080549081610453575b5061041933611a77565b60055460405191825260208201527fbe0b6e5b3195df91f2e6b2b20501f84b085714f9e38073f499073c830565100960403392a260018055005b5f90556104628160035461150a565b60035561049981337f00000000000000000000000000000000000000000000000000000000000000006001600160a01b0316611ad0565b8161040f565b34610222576040366003190112610222576104b86113d9565b6024359081151590818303610222576104cf611e3e565b6001600160a01b031691821561052c577f338403ac24fabf3a55d957b9bebeedb02a4a0eba88b2c591af4befe3038bc88191610523602092855f52600c845260405f209060ff801983541691151516179055565b604051908152a2005b60405163d92e233d60e01b8152600490fd5b34610222576020366003190112610222576105576113d9565b61055f611e3e565b6001600160a01b0381165f8181526008602052604090205490919060ff16156105d4576105ae90610595600554600254116119bf565b825f52600860205260405f2060ff198154169055611fe5565b7f8aa3ef449cf627b4f09c7c4adbe8de636b3422ba2d40a0d1c9dea19201744f1b5f80a2005b604051634a3cd6e360e11b8152600490fd5b346102225760203660031901126102225761060a6106026113d9565b6102166119fd565b60018055005b61061936611454565b9192906106246119fd565b335f52600c60205260ff60405f2054168015610a29575b6106449061173f565b82841480610a20575b156109f557603284116109c5575f805b85811061097f5750801561094157340361092f575b600354925f5b8581106106b0577f4245b0b32cb610c9197015bf7a80cb2ca98f278c1ed8d1691ef41b3e59026a9b602087604051908152a160018055005b6106be6102118288876115d8565b906106ca8184866115d8565b3560018060a01b0383165f52600860205260ff60405f20541661091d576001600160a01b0383166107f057915f805160206121db8339815191526040600194925b858060a01b0381165f52600660205260ff825f205416156107a7575b8961076657858060a01b0381165f52600a602052815f20610749858254611517565b905581519384525f6020850152858060a01b031692a25b01610678565b6107708a85611e69565b868060a01b0382165f526009602052825f2061078d828254611517565b905582519485526020850152858060a01b031692a2610760565b6107b6600554600254116119bf565b6107bf81611fe5565b858060a01b0381167ff3e4c2c64e71e6ba2eaab9a599bced62f9eb91d2cda610bf41aa8c80ff2cf8265f80a2610727565b8015610896576040516370a0823160e01b8152306004820152906020826024816001600160a01b0388165afa9182156108dc575f926108e7575b506108409030336001600160a01b038716611f8c565b6040516370a0823160e01b8152306004820152906020826024816001600160a01b0388165afa9182156108dc575f926108a8575b508082039114610896575f805160206121db833981519152604060019461070b565b60405163162908e360e11b8152600490fd5b9091506020813d6020116108d4575b816108c460209383611609565b8101031261022257519089610874565b3d91506108b7565b6040513d5f823e3d90fd5b9091506020813d602011610915575b8161090360209383611609565b8101031261022257519061084061082a565b3d91506108f6565b604051631e6f273f60e31b8152600490fd5b604051630be9eb8560e01b8152600490fd5b5034156106725760405162461bcd60e51b815260206004820152600f60248201526e1b9bc8195d1a08195e1c1958dd1959608a1b6044820152606490fd5b6001600160a01b036109956102118389886115d8565b16156109a4575b60010161065d565b906109bd6001916109b68488876115d8565b3590611517565b91905061099c565b60405162461bcd60e51b8152602060048201526008602482015267746f6f206d616e7960c01b6044820152606490fd5b60405162461bcd60e51b81526020600482015260036024820152623632b760e91b6044820152606490fd5b5083151561064d565b505f546001600160a01b0316331461063b565b34610222575f366003190112610222576040517f00000000000000000000000000000000000000000000000000000000000000006001600160a01b03168152602090f35b34610222575f36600319011261022257604051806005549182815260208091019260055f527f036b6384b5eca791c62761152d0c79bb0604c104a5fb6f4eb0703f3154bb3db0915f905b828210610af5576102c885610ae181890382611609565b6040519182916020835260208301906114ce565b83546001600160a01b031686529485019460019384019390910190610aca565b346102225760208060031936011261022257610b2f6113d9565b90610b38611e3e565b6001600160a01b039182165f81815260068352604090205490929060ff1615610c9857825f52600a825260405f2054610c8657825f526007825260405f2054600554905f1991828101908111610c72578084918303610c23575b5050506005548015610c0f570190610ba982611524565b909182549160031b1b19169055600555815f5260068152600860405f209160ff1992838154169055600781525f604081205552600160405f20918254161790557f6bfde9fdb658ad877fcafcfbd5617ded067e0893ac8639fe8f8712fc49de3f185f80a2005b634e487b7160e01b5f52603160045260245ffd5b610c2c90611524565b90549060031b1c16610c5f81610c4184611524565b90919060018060a01b038084549260031b9316831b921b1916179055565b5f526007845260405f2055848281610b92565b634e487b7160e01b5f52601160045260245ffd5b6040516343c09bc960e11b8152600490fd5b604051635a7cb4e960e01b8152600490fd5b34610222575f366003190112610222576020600554604051908152f35b60403660031901126102225761060a610cde6113d9565b610ce66119fd565b60243590611779565b34610222576020366003190112610222576001600160a01b03610d106113d9565b165f52600a602052602060405f2054604051908152f35b34610222576020366003190112610222576001600160a01b03610d486113d9565b165f526006602052602060ff60405f2054166040519015158152f35b34610222575f366003190112610222576020604051670de0b6b3a76400008152f35b3461022257602036600319011261022257610d9f6119fd565b61060a6004353333611b20565b3461022257602036600319011261022257600435610dc8611e3e565b80151580610e38575b15610e07576020817fc4d5859976eddc9627590480c7447c97e2f3db8a2f046ef75f51319c86166c7392600255604051908152a1005b60405162461bcd60e51b8152602060048201526009602482015268189859081b1a5b5a5d60ba1b6044820152606490fd5b506107d0811115610dd1565b34610222576020366003190112610222576001600160a01b03610e656113d9565b165f526009602052602060405f2054604051908152f35b3461022257604036600319011261022257610e956113d9565b60243567ffffffffffffffff8111610222576102c891610ebc610ec29236906004016113ef565b9161169d565b60405191829160208352602083019061149b565b34610222575f366003190112610222575f546040516001600160a01b039091168152602090f35b34610222575f366003190112610222576020600354604051908152f35b3461022257602036600319011261022257600435600554811015610f5c57610f43602091611524565b905460405160039290921b1c6001600160a01b03168152f35b604051634e23d03560e01b8152600490fd5b3461022257604036600319011261022257610f876113d9565b6001600160a01b03602435818116929083900361022257165f52600b60205260405f20905f52602052602060405f2054604051908152f35b34610222576020366003190112610222576001600160a01b03610fe06113d9565b165f52600c602052602060ff60405f2054166040519015158152f35b34610222575f36600319011261022257611014611e3e565b5f80546001600160a01b0319811682556001600160a01b03167f8be0079c531659141344cd1fd0a4f28419497f9722a3daafe3b4186f6b6457e08280a3005b34610222576020366003190112610222576001600160a01b036110746113d9565b165f526004602052602060405f2054604051908152f35b34610222576020366003190112610222576001600160a01b036110ac6113d9565b165f526008602052602060ff60405f2054166040519015158152f35b34610222576110d636611420565b6110de6119fd565b821561089657335f5260046020528260405f2054106111a1576111019133611c1b565b61110a33611a20565b335f52600460205260405f2061112182825461150a565b905561112f8160035461150a565b60035561113b33611a77565b61116f81337f00000000000000000000000000000000000000000000000000000000000000006001600160a01b0316611ad0565b6040519081527f0f5bb82176feb1b5e747e28471aa92156a04d9f3ab9f45f28e2d704232b93f7560203392a260018055005b6040516386a76f7960e01b8152600490fd5b34610222576111c136611454565b6111cd93919293611e3e565b80840361129e575f5b84811061120a577f9a86b7e4f96a0ca78ea7cabbff1740858d40ec25a9a2de3fc104d0cd7d7e9a44602086604051908152a1005b6001600160a01b036112206102118388876115d8565b1690811561052c576001917f338403ac24fabf3a55d957b9bebeedb02a4a0eba88b2c591af4befe3038bc88161125f61125a84878a6115d8565b6115fc565b825f52611281602091600c835260405f209060ff801983541691151516179055565b61128f61125a85888b6115d8565b6040519015158152a2016111d6565b60405162461bcd60e51b815260206004820152600c60248201526b0d8cadc40dad2e6dac2e8c6d60a31b6044820152606490fd5b34610222576040366003190112610222576112eb6119fd565b61060a60243560043561156d565b34610222575f366003190112610222576020600254604051908152f35b346102225761060a61133c61132a36611420565b906113369392936119fd565b33611c1b565b3333611b20565b34610222575f3660031901126102225761135b6119fd565b61136433611a20565b61060a33611a77565b346102225760403660031901126102225761060a6113896113d9565b6113916119fd565b6024359033611b20565b34610222576020366003190112610222576004356113b76119fd565b801561089657335f5260046020528060405f2054106111a15761110a33611a20565b600435906001600160a01b038216820361022257565b9181601f840112156102225782359167ffffffffffffffff8311610222576020808501948460051b01011161022257565b90604060031983011261022257600435916024359067ffffffffffffffff821161022257611450916004016113ef565b9091565b60406003198201126102225767ffffffffffffffff916004358381116102225782611481916004016113ef565b9390939260243591821161022257611450916004016113ef565b9081518082526020808093019301915f5b8281106114ba575050505090565b8351855293810193928101926001016114ac565b9081518082526020808093019301915f5b8281106114ed575050505090565b83516001600160a01b0316855293810193928101926001016114df565b91908203918211610c7257565b91908201809211610c7257565b6005548110156115595760055f527f036b6384b5eca791c62761152d0c79bb0604c104a5fb6f4eb0703f3154bb3db001905f90565b634e487b7160e01b5f52603260045260245ffd5b60055491828210156115d3576115839082611517565b918083116115cb575b505b8181106115a25750506115a033611a77565b565b806115c56115b1600193611524565b848060a01b0391549060031b1c1633611ccd565b0161158e565b91505f61158c565b505050565b91908110156115595760051b0190565b356001600160a01b03811681036102225790565b3580151581036102225790565b90601f8019910116810190811067ffffffffffffffff82111761162b57604052565b634e487b7160e01b5f52604160045260245ffd5b67ffffffffffffffff811161162b5760051b60200190565b906116618261163f565b61166e6040519182611609565b828152809261167f601f199161163f565b0190602036910137565b80518210156115595760209160051b010190565b6001600160a01b039081165f8181526004602090815260409182902054959695936116c788611657565b978515611736575f5b8181106116e1575050505050505050565b8061172561171f856116f9610211600196888f6115d8565b16805f5260098852885f2054908a5f52600b8952895f20905f528852885f20549061150a565b89611f18565b61172f828d611689565b52016116d0565b50505050505050565b1561174657565b60405162461bcd60e51b815260206004820152600b60248201526a1b9bdd08185b1b1bddd95960aa1b6044820152606490fd5b919091335f52602090600c825260409060ff825f20541680156119ac575b6117a09061173f565b6001600160a01b0381165f818152600885528390205490939060ff1661199b578361189657853403611885575f805160206121db833981519152939495915b855f526006825260ff845f20541615611842575b506003541561182b5761180860035483611e69565b90855f5260098152835f2061181e838254611517565b90558351928352820152a2565b5f90858252600a815283822061181e848254611517565b61185a90611855600554600254116119bf565b611fe5565b847ff3e4c2c64e71e6ba2eaab9a599bced62f9eb91d2cda610bf41aa8c80ff2cf8265f80a25f6117f3565b8251630be9eb8560e01b8152600490fd5b859195156119165782516370a0823160e01b808252306004830152928282602481895afa918215611991575f92611960575b506118d590303388611f8c565b83519283523060048401528183602481885afa928315611956575f93611927575b508083039214611916575f805160206121db8339815191529394956117df565b825163162908e360e11b8152600490fd5b9092508181813d831161194f575b61193f8183611609565b810103126102225751915f6118f6565b503d611935565b84513d5f823e3d90fd5b9091508281813d831161198a575b6119788183611609565b810103126102225751906118d56118c8565b503d61196e565b85513d5f823e3d90fd5b8251631e6f273f60e31b8152600490fd5b505f546001600160a01b03163314611797565b156119c657565b60405162461bcd60e51b815260206004820152600f60248201526e1858dd1a5d99481cd95d08199d5b1b608a1b6044820152606490fd5b600260015414611a0e576002600155565b604051633ee5aeb560e01b8152600490fd5b60018060a01b03908181165f52600460205260405f205415611a7357600554915f5b838110611a4f5750505050565b80611a6d83611a5f600194611524565b90549060031b1c1685611ccd565b01611a42565b5050565b600554905f5b828110611a8957505050565b80611a95600192611524565b90838060a01b03918291549060031b1c16805f5260209060098252604091825f20549387165f52600b8152825f20915f52525f205501611a7d565b60405163a9059cbb60e01b60208201526001600160a01b039092166024830152604480830193909352918152608081019167ffffffffffffffff83118284101761162b576115a092604052612060565b6001600160a01b03808316939291841561052c57831561089657611ba383611b488795611a20565b611b76863085877f000000000000000000000000000000000000000000000000000000000000000016611f8c565b845f52600460205260405f20611b8d878254611517565b9055611b9b86600354611517565b600355611a77565b1681817ff27841bf2ce46c8c33a68e103ff4238ad9192a4156d62c4b449f834e914d12916020604051878152a314611be9575b5050600354611be157565b6115a06120da565b60207f9e71bc8eea02a63969f509818f2dafb9254532904319f9dbda79b67bd34a5f3d91604051908152a25f80611bd6565b90915f5b818110611c2c5750505050565b6001906001600160a01b0380611c4661021184878a6115d8565b16805f526020906008825260409160ff835f205416611c6a575b5050505001611c1f565b60098152825f20549388165f52600b8152825f20915f52525f20555f808080611c60565b3d15611cc8573d9067ffffffffffffffff821161162b5760405191611cbd601f8201601f191660200184611609565b82523d5f602084013e565b606090565b60018060a01b0390818116805f5260209060048252604093845f2054958615611e18571692835f5260098352838284875f205498825f52600b8252885f20845f528252885f205490818b11611d35575b5050505050505f52600b8152825f20915f52525f2055565b611d42611d48928c61150a565b90611f18565b9384611d55575b80611d1d565b83611de45750505f808093508481935af1611d6e611c8e565b5015611daa57817f0aa4d283470c904c551d18bb894d37e17674920f3261a7f854be501e25f421b78486935b8851908152a35f83828483611d4f565b845162461bcd60e51b8152600481018490526013602482015272115512081d1c985b9cd9995c8819985a5b1959606a1b6044820152606490fd5b93611e138185967f0aa4d283470c904c551d18bb894d37e17674920f3261a7f854be501e25f421b79596611ad0565b611d9a565b9195509192501690815f5260098152825f2054935f52600b8152825f20915f52525f2055565b5f546001600160a01b03163303611e5157565b60405163118cdaa760e01b8152336004820152602490fd5b670de0b6b3a764000091818302915f1984820993838086109503948086039514611ef65784831115611ee457829109815f038216809204600280826003021880830282030280830282030280830282030280830282030280830282030280920290030293600183805f03040190848311900302920304170290565b60405163227bc15360e01b8152600490fd5b505080925015611f04570490565b634e487b7160e01b5f52601260045260245ffd5b90808202905f1981840990828083109203918083039214611f7b57670de0b6b3a76400009082821115611ee4577faccb18165bd6fe31ae1cf318dc5b51eee0e1ba569b88cd74c1773b91fac10669940990828211900360ee1b910360121c170290565b5050670de0b6b3a764000091500490565b6040516323b872dd60e01b60208201526001600160a01b03928316602482015292909116604483015260648083019390935291815260a081019181831067ffffffffffffffff84111761162b576115a092604052612060565b6001600160a01b0381165f8181526006602052604090205460ff16611a7357600860205260ff60405f20541661091d57600554916801000000000000000083101561162b5761203e9060018401600555610c4184611524565b5f52600660205260405f20600160ff19825416179055600760205260405f2055565b5f806120889260018060a01b03169360208151910182865af1612081611c8e565b9083612177565b80519081151591826120b6575b505061209e5750565b60249060405190635274afe760e01b82526004820152fd5b81925090602091810103126102225760200151801590811503610222575f80612095565b600380541561217457600554905f5b8281106120f557505050565b80612101600192611524565b838060a01b03915490851b1c16805f526020600a81526040805f2091825490811561216a575f5f805160206121db8339815191529455612142885483611e69565b90855f5260098152835f20612158838254611517565b90558351928352820152a25b016120e9565b5050505050612164565b50565b9061219e575080511561218c57805190602001fd5b604051630a12f52160e11b8152600490fd5b815115806121d1575b6121af575090565b604051639996b31560e01b81526001600160a01b039091166004820152602490fd5b50803b156121a756fe8a888ea653a580e40660778ee0c0dabd23a81e8e2c8dcfb938e40982a157d819a264697066735822122009952eba7debd3e6108293e1fe125b9f563afc4d6c8089d3a70db65e0c27f27464736f6c63430008180033","linkReferences":{}},"methodIdentifiers":{"PRECISION()":"aaf5eb68","accRewardPerShare(address)":"5dcea4d4","accRewardsPerShare(address)":"a0cf33f5","allowedFunders(address)":"7aa88fa9","balanceOf(address)":"70a08231","claimActiveRewards(uint256,uint256)":"4fdec075","claimReward(address)":"d279c191","claimRewards()":"372500ab","claimRewards(address[])":"f9f031df","exit()":"e9fad8ee","getPendingRewards(address)":"f6ed2017","getPendingRewardsFor(address,address[])":"8fea66ba","getRewardTokens()":"c4f59f9b","iAERO()":"c8b11537","isRetired(address)":"6d3c6275","maxActiveRewardTokens()":"49fdf4cd","notifyRewardAmount(address,uint256)":"b66503cf","notifyRewardAmountsBatch(address[],uint256[])":"c934e7e5","owner()":"8da5cb5b","queuedRewards(address)":"b53a6a71","reactivateRewardToken(address)":"dc131129","renounceOwnership()":"715018a6","retireRewardToken(address)":"c461748f","rewardDebt(address,address)":"7b4717a4","rewardTokens(uint256)":"7bb7bed1","rewardTokensLength()":"bf199e62","setAllowedFunder(address,bool)":"dd60b2a2","setAllowedFundersBatch(address[],bool[])":"5126b1fa","setMaxActiveRewardTokens(uint256)":"a6189939","stake(uint256)":"a694fc3a","stake(uint256,address[])":"42036d49","stakeFor(address,uint256)":"2ee40908","tokenExists(address)":"b33f78ca","totalStaked()":"817b1cd2","transferOwnership(address)":"f2fde38b","unstake(uint256)":"2e17de78","unstake(uint256,address[])":"572f622c"},"id":43}