{"abi":[{"type":"constructor","inputs":[{"name":"_iAERO","type":"address","internalType":"address"}],"stateMutability":"nonpayable"},{"type":"receive","stateMutability":"payable"},{"type":"function","name":"PRECISION","inputs":[],"outputs":[{"name":"","type":"uint256","internalType":"uint256"}],"stateMutability":"view"},{"type":"function","name":"accRewardPerShare","inputs":[{"name":"","type":"address","internalType":"address"}],"outputs":[{"name":"","type":"uint256","internalType":"uint256"}],"stateMutability":"view"},{"type":"function","name":"accRewardsPerShare","inputs":[{"name":"token","type":"address","internalType":"address"}],"outputs":[{"name":"acc","type":"uint256","internalType":"uint256"}],"stateMutability":"view"},{"type":"function","name":"balanceOf","inputs":[{"name":"","type":"address","internalType":"address"}],"outputs":[{"name":"","type":"uint256","internalType":"uint256"}],"stateMutability":"view"},{"type":"function","name":"claimReward","inputs":[{"name":"token","type":"address","internalType":"address"}],"outputs":[],"stateMutability":"nonpayable"},{"type":"function","name":"claimRewards","inputs":[],"outputs":[],"stateMutability":"nonpayable"},{"type":"function","name":"exit","inputs":[],"outputs":[],"stateMutability":"nonpayable"},{"type":"function","name":"getPendingRewards","inputs":[{"name":"account","type":"address","internalType":"address"}],"outputs":[{"name":"tokens","type":"address[]","internalType":"address[]"},{"name":"amounts","type":"uint256[]","internalType":"uint256[]"}],"stateMutability":"view"},{"type":"function","name":"getRewardTokens","inputs":[],"outputs":[{"name":"tokens","type":"address[]","internalType":"address[]"}],"stateMutability":"view"},{"type":"function","name":"iAERO","inputs":[],"outputs":[{"name":"","type":"address","internalType":"address"}],"stateMutability":"view"},{"type":"function","name":"notifyRewardAmount","inputs":[{"name":"token","type":"address","internalType":"address"},{"name":"amount","type":"uint256","internalType":"uint256"}],"outputs":[],"stateMutability":"payable"},{"type":"function","name":"owner","inputs":[],"outputs":[{"name":"","type":"address","internalType":"address"}],"stateMutability":"view"},{"type":"function","name":"queuedRewards","inputs":[{"name":"","type":"address","internalType":"address"}],"outputs":[{"name":"","type":"uint256","internalType":"uint256"}],"stateMutability":"view"},{"type":"function","name":"renounceOwnership","inputs":[],"outputs":[],"stateMutability":"nonpayable"},{"type":"function","name":"rewardDebt","inputs":[{"name":"","type":"address","internalType":"address"},{"name":"","type":"address","internalType":"address"}],"outputs":[{"name":"","type":"uint256","internalType":"uint256"}],"stateMutability":"view"},{"type":"function","name":"rewardTokens","inputs":[{"name":"index","type":"uint256","internalType":"uint256"}],"outputs":[{"name":"token","type":"address","internalType":"address"}],"stateMutability":"view"},{"type":"function","name":"rewardTokensLength","inputs":[],"outputs":[{"name":"","type":"uint256","internalType":"uint256"}],"stateMutability":"view"},{"type":"function","name":"stake","inputs":[{"name":"amount","type":"uint256","internalType":"uint256"}],"outputs":[],"stateMutability":"nonpayable"},{"type":"function","name":"stakeFor","inputs":[{"name":"user","type":"address","internalType":"address"},{"name":"amount","type":"uint256","internalType":"uint256"}],"outputs":[],"stateMutability":"nonpayable"},{"type":"function","name":"tokenExists","inputs":[{"name":"","type":"address","internalType":"address"}],"outputs":[{"name":"","type":"bool","internalType":"bool"}],"stateMutability":"view"},{"type":"function","name":"totalStaked","inputs":[],"outputs":[{"name":"","type":"uint256","internalType":"uint256"}],"stateMutability":"view"},{"type":"function","name":"transferOwnership","inputs":[{"name":"newOwner","type":"address","internalType":"address"}],"outputs":[],"stateMutability":"nonpayable"},{"type":"function","name":"unstake","inputs":[{"name":"amount","type":"uint256","internalType":"uint256"}],"outputs":[],"stateMutability":"nonpayable"},{"type":"event","name":"Exit","inputs":[{"name":"user","type":"address","indexed":true,"internalType":"address"},{"name":"unstaked","type":"uint256","indexed":false,"internalType":"uint256"},{"name":"rewardsCount","type":"uint256","indexed":false,"internalType":"uint256"}],"anonymous":false},{"type":"event","name":"OwnershipTransferred","inputs":[{"name":"previousOwner","type":"address","indexed":true,"internalType":"address"},{"name":"newOwner","type":"address","indexed":true,"internalType":"address"}],"anonymous":false},{"type":"event","name":"RewardClaimed","inputs":[{"name":"user","type":"address","indexed":true,"internalType":"address"},{"name":"token","type":"address","indexed":true,"internalType":"address"},{"name":"amount","type":"uint256","indexed":false,"internalType":"uint256"}],"anonymous":false},{"type":"event","name":"RewardNotified","inputs":[{"name":"token","type":"address","indexed":true,"internalType":"address"},{"name":"amount","type":"uint256","indexed":false,"internalType":"uint256"},{"name":"distributedPerShare","type":"uint256","indexed":false,"internalType":"uint256"}],"anonymous":false},{"type":"event","name":"RewardTokenAdded","inputs":[{"name":"token","type":"address","indexed":true,"internalType":"address"}],"anonymous":false},{"type":"event","name":"Staked","inputs":[{"name":"user","type":"address","indexed":true,"internalType":"address"},{"name":"amount","type":"uint256","indexed":false,"internalType":"uint256"}],"anonymous":false},{"type":"event","name":"StakedFor","inputs":[{"name":"funder","type":"address","indexed":true,"internalType":"address"},{"name":"user","type":"address","indexed":true,"internalType":"address"},{"name":"amount","type":"uint256","indexed":false,"internalType":"uint256"}],"anonymous":false},{"type":"event","name":"Unstaked","inputs":[{"name":"user","type":"address","indexed":true,"internalType":"address"},{"name":"amount","type":"uint256","indexed":false,"internalType":"uint256"}],"anonymous":false},{"type":"error","name":"BadETHValue","inputs":[]},{"type":"error","name":"IndexOutOfBounds","inputs":[]},{"type":"error","name":"InvalidAmount","inputs":[]},{"type":"error","name":"NotEnoughStaked","inputs":[]},{"type":"error","name":"OwnableInvalidOwner","inputs":[{"name":"owner","type":"address","internalType":"address"}]},{"type":"error","name":"OwnableUnauthorizedAccount","inputs":[{"name":"account","type":"address","internalType":"address"}]},{"type":"error","name":"ReentrancyGuardReentrantCall","inputs":[]},{"type":"error","name":"SafeERC20FailedOperation","inputs":[{"name":"token","type":"address","internalType":"address"}]},{"type":"error","name":"ZeroAddress","inputs":[]}],"bytecode":{"object":"0x60a060405234801561001057600080fd5b50604051620017c9380380620017c9833981016040819052610031916100ed565b338061005757604051631e4fbdf760e01b81526000600482015260240160405180910390fd5b6100608161009d565b50600180556001600160a01b03811661008c5760405163d92e233d60e01b815260040160405180910390fd5b6001600160a01b031660805261011d565b600080546001600160a01b038381166001600160a01b0319831681178455604051919092169283917f8be0079c531659141344cd1fd0a4f28419497f9722a3daafe3b4186f6b6457e09190a35050565b6000602082840312156100ff57600080fd5b81516001600160a01b038116811461011657600080fd5b9392505050565b60805161167b6200014e6000396000818161040801528181610563015281816109290152610d75015261167b6000f3fe6080604052600436106101445760003560e01c8063a694fc3a116100b6578063c4f59f9b1161006f578063c4f59f9b146103d4578063c8b11537146103f6578063d279c1911461042a578063e9fad8ee1461044a578063f2fde38b1461045f578063f6ed20171461047f57600080fd5b8063a694fc3a14610303578063aaf5eb6814610323578063b33f78ca1461033f578063b53a6a711461037f578063b66503cf146103ac578063bf199e62146103bf57600080fd5b8063715018a611610108578063715018a6146102145780637b4717a4146102295780637bb7bed114610261578063817b1cd2146102995780638da5cb5b146102af578063a0cf33f5146102cd57600080fd5b80632e17de78146101505780632ee4090814610172578063372500ab146101925780635dcea4d4146101a757806370a08231146101e757600080fd5b3661014b57005b600080fd5b34801561015c57600080fd5b5061017061016b366004611465565b6104ad565b005b34801561017e57600080fd5b5061017061018d36600461149a565b6105cb565b34801561019e57600080fd5b506101706105eb565b3480156101b357600080fd5b506101d46101c23660046114c4565b60066020526000908152604090205481565b6040519081526020015b60405180910390f35b3480156101f357600080fd5b506101d46102023660046114c4565b60036020526000908152604090205481565b34801561022057600080fd5b50610170610610565b34801561023557600080fd5b506101d46102443660046114df565b600860209081526000928352604080842090915290825290205481565b34801561026d57600080fd5b5061028161027c366004611465565b610622565b6040516001600160a01b0390911681526020016101de565b3480156102a557600080fd5b506101d460025481565b3480156102bb57600080fd5b506000546001600160a01b0316610281565b3480156102d957600080fd5b506101d46102e83660046114c4565b6001600160a01b031660009081526006602052604090205490565b34801561030f57600080fd5b5061017061031e366004611465565b610675565b34801561032f57600080fd5b506101d4670de0b6b3a764000081565b34801561034b57600080fd5b5061036f61035a3660046114c4565b60056020526000908152604090205460ff1681565b60405190151581526020016101de565b34801561038b57600080fd5b506101d461039a3660046114c4565b60076020526000908152604090205481565b6101706103ba36600461149a565b610691565b3480156103cb57600080fd5b506004546101d4565b3480156103e057600080fd5b506103e9610822565b6040516101de9190611557565b34801561040257600080fd5b506102817f000000000000000000000000000000000000000000000000000000000000000081565b34801561043657600080fd5b506101706104453660046114c4565b610884565b34801561045657600080fd5b506101706108cb565b34801561046b57600080fd5b5061017061047a3660046114c4565b6109a7565b34801561048b57600080fd5b5061049f61049a3660046114c4565b6109e7565b6040516101de92919061156a565b6104b5610bb1565b806000036104d65760405163162908e360e11b815260040160405180910390fd5b33600090815260036020526040902054811115610506576040516386a76f7960e01b815260040160405180910390fd5b61050f33610bdb565b336000908152600360205260408120805483929061052e9084906115d7565b92505081905550806002600082825461054791906115d7565b90915550610556905033610c4d565b61058a6001600160a01b037f0000000000000000000000000000000000000000000000000000000000000000163383610cb8565b60405181815233907f0f5bb82176feb1b5e747e28471aa92156a04d9f3ab9f45f28e2d704232b93f759060200160405180910390a26105c860018055565b50565b6105d3610bb1565b6105de338383610d17565b6105e760018055565b5050565b6105f3610bb1565b6105fc33610bdb565b61060533610c4d565b61060e60018055565b565b610618610ea7565b61060e6000610ed4565b600454600090821061064757604051634e23d03560e01b815260040160405180910390fd5b6004828154811061065a5761065a6115f0565b6000918252602090912001546001600160a01b031692915050565b61067d610bb1565b610688333383610d17565b6105c860018055565b610699610bb1565b6001600160a01b0382166106cc578034146106c757604051630be9eb8560e01b815260040160405180910390fd5b610702565b806000036106ed5760405163162908e360e11b815260040160405180910390fd5b6107026001600160a01b038316333084610f24565b61070b82610f5d565b60025460000361078b576001600160a01b0382166000908152600760205260408120805483929061073d908490611606565b909155505060408051828152600060208201526001600160a01b038416917f8a888ea653a580e40660778ee0c0dabd23a81e8e2c8dcfb938e40982a157d819910160405180910390a26105de565b60006107a282670de0b6b3a7640000600254611009565b6001600160a01b0384166000908152600660205260408120805492935083929091906107cf908490611606565b909155505060408051838152602081018390526001600160a01b038516917f8a888ea653a580e40660778ee0c0dabd23a81e8e2c8dcfb938e40982a157d819910160405180910390a2506105e760018055565b6060600480548060200260200160405190810160405280929190818152602001828054801561087a57602002820191906000526020600020905b81546001600160a01b0316815260019091019060200180831161085c575b5050505050905090565b61088c610bb1565b61089633826110bf565b6001600160a01b0381166000818152600660209081526040808320543384526008835281842094845293909152902055610688565b6108d3610bb1565b6108dc33610bdb565b33600090815260036020526040902054801561095057336000908152600360205260408120819055600280548392906109169084906115d7565b9091555061095090506001600160a01b037f0000000000000000000000000000000000000000000000000000000000000000163383610cb8565b61095933610c4d565b60045460405133917fbe0b6e5b3195df91f2e6b2b20501f84b085714f9e38073f499073c83056510099161099591858252602082015260400190565b60405180910390a25061060e60018055565b6109af610ea7565b6001600160a01b0381166109de57604051631e4fbdf760e01b8152600060048201526024015b60405180910390fd5b6105c881610ed4565b60045460609081908067ffffffffffffffff811115610a0857610a08611619565b604051908082528060200260200182016040528015610a31578160200160208202803683370190505b5092508067ffffffffffffffff811115610a4d57610a4d611619565b604051908082528060200260200182016040528015610a76578160200160208202803683370190505b506001600160a01b0385166000908152600360205260408120549193505b82811015610ba957600060048281548110610ab157610ab16115f0565b9060005260206000200160009054906101000a90046001600160a01b0316905080868381518110610ae457610ae46115f0565b60200260200101906001600160a01b031690816001600160a01b03168152505082600003610b32576000858381518110610b2057610b206115f0565b60200260200101818152505050610ba1565b6001600160a01b03808216600081815260066020908152604080832054948c168352600882528083209383529290522054610b7f85610b7183856115d7565b670de0b6b3a7640000611009565b878581518110610b9157610b916115f0565b6020026020010181815250505050505b600101610a94565b505050915091565b600260015403610bd457604051633ee5aeb560e01b815260040160405180910390fd5b6002600155565b6001600160a01b03811660009081526003602052604081205490819003610c00575050565b60045460005b81811015610c4757610c3f8460048381548110610c2557610c256115f0565b6000918252602090912001546001600160a01b03166110bf565b600101610c06565b50505050565b60045460005b81811015610cb357600060048281548110610c7057610c706115f0565b60009182526020808320909101546001600160a01b0390811680845260068352604080852054928916855260088452808520918552925291205550600101610c53565b505050565b6040516001600160a01b03838116602483015260448201839052610cb391859182169063a9059cbb906064015b604051602081830303815290604052915060e01b6020820180516001600160e01b0383818316178352505050506112aa565b6001600160a01b038216610d3e5760405163d92e233d60e01b815260040160405180910390fd5b80600003610d5f5760405163162908e360e11b815260040160405180910390fd5b610d6882610bdb565b610d9d6001600160a01b037f000000000000000000000000000000000000000000000000000000000000000016843084610f24565b6001600160a01b03821660009081526003602052604081208054839290610dc5908490611606565b925050819055508060026000828254610dde9190611606565b90915550610ded905082610c4d565b816001600160a01b0316836001600160a01b03167ff27841bf2ce46c8c33a68e103ff4238ad9192a4156d62c4b449f834e914d129183604051610e3291815260200190565b60405180910390a3816001600160a01b0316836001600160a01b031603610e9757816001600160a01b03167f9e71bc8eea02a63969f509818f2dafb9254532904319f9dbda79b67bd34a5f3d82604051610e8e91815260200190565b60405180910390a25b60025415610cb357610cb361131b565b6000546001600160a01b0316331461060e5760405163118cdaa760e01b81523360048201526024016109d5565b600080546001600160a01b038381166001600160a01b0319831681178455604051919092169283917f8be0079c531659141344cd1fd0a4f28419497f9722a3daafe3b4186f6b6457e09190a35050565b6040516001600160a01b038481166024830152838116604483015260648201839052610c479186918216906323b872dd90608401610ce5565b6001600160a01b03811660009081526005602052604090205460ff166105c8576001600160a01b038116600081815260056020526040808220805460ff1916600190811790915560048054918201815583527f8a35acfbc15ff81a39ae7d344fd709f28e8600b4aa8c65c6b64bfe7fe36bd19b0180546001600160a01b03191684179055517ff3e4c2c64e71e6ba2eaab9a599bced62f9eb91d2cda610bf41aa8c80ff2cf8269190a250565b60008060006110188686611435565b915091508160000361103d578381816110335761103361162f565b04925050506110b8565b818411611054576110546003851502601118611453565b6000848688096000868103871696879004966002600389028118808a02820302808a02820302808a02820302808a02820302808a02820302808a02909103029181900381900460010185841190960395909502919093039390930492909217029150505b9392505050565b6001600160a01b0382166000908152600360205260408120549081900361111657506001600160a01b0390811660008181526006602090815260408083205495909416825260088152838220928252919091522055565b6001600160a01b0380831660008181526006602090815260408083205494881683526008825280832093835292905220548082111561127857600061115f84610b7184866115d7565b90508015611276576001600160a01b038516611214576000866001600160a01b03168260405160006040518083038185875af1925050503d80600081146111c2576040519150601f19603f3d011682016040523d82523d6000602084013e6111c7565b606091505b505090508061120e5760405162461bcd60e51b8152602060048201526013602482015272115512081d1c985b9cd9995c8819985a5b1959606a1b60448201526064016109d5565b50611228565b6112286001600160a01b0386168783610cb8565b846001600160a01b0316866001600160a01b03167f0aa4d283470c904c551d18bb894d37e17674920f3261a7f854be501e25f421b78360405161126d91815260200190565b60405180910390a35b505b506001600160a01b03938416600090815260086020908152604080832095909616825293909352929091209190915550565b600080602060008451602086016000885af1806112cd576040513d6000823e3d81fd5b50506000513d915081156112e55780600114156112f2565b6001600160a01b0384163b155b15610c4757604051635274afe760e01b81526001600160a01b03851660048201526024016109d5565b60025460000361132757565b60045460005b818110156105e75760006004828154811061134a5761134a6115f0565b60009182526020808320909101546001600160a01b0316808352600790915260408220549092509081900361138057505061142d565b6001600160a01b03821660009081526007602052604081208190556002546113b3908390670de0b6b3a764000090611009565b6001600160a01b0384166000908152600660205260408120805492935083929091906113e0908490611606565b909155505060408051838152602081018390526001600160a01b038516917f8a888ea653a580e40660778ee0c0dabd23a81e8e2c8dcfb938e40982a157d819910160405180910390a25050505b60010161132d565b60008060001983850993909202808410938190039390930393915050565b634e487b71600052806020526024601cfd5b60006020828403121561147757600080fd5b5035919050565b80356001600160a01b038116811461149557600080fd5b919050565b600080604083850312156114ad57600080fd5b6114b68361147e565b946020939093013593505050565b6000602082840312156114d657600080fd5b6110b88261147e565b600080604083850312156114f257600080fd5b6114fb8361147e565b91506115096020840161147e565b90509250929050565b60008151808452602080850194506020840160005b8381101561154c5781516001600160a01b031687529582019590820190600101611527565b509495945050505050565b6020815260006110b86020830184611512565b60408152600061157d6040830185611512565b82810360208481019190915284518083528582019282019060005b818110156115b457845183529383019391830191600101611598565b5090979650505050505050565b634e487b7160e01b600052601160045260246000fd5b818103818111156115ea576115ea6115c1565b92915050565b634e487b7160e01b600052603260045260246000fd5b808201808211156115ea576115ea6115c1565b634e487b7160e01b600052604160045260246000fd5b634e487b7160e01b600052601260045260246000fdfea2646970667358221220c626c2aafeefc7354f6abd5e5753a197891485939bfe20172f9f0251d443c23664736f6c63430008180033","linkReferences":{}},"methodIdentifiers":{"PRECISION()":"aaf5eb68","accRewardPerShare(address)":"5dcea4d4","accRewardsPerShare(address)":"a0cf33f5","balanceOf(address)":"70a08231","claimReward(address)":"d279c191","claimRewards()":"372500ab","exit()":"e9fad8ee","getPendingRewards(address)":"f6ed2017","getRewardTokens()":"c4f59f9b","iAERO()":"c8b11537","notifyRewardAmount(address,uint256)":"b66503cf","owner()":"8da5cb5b","queuedRewards(address)":"b53a6a71","renounceOwnership()":"715018a6","rewardDebt(address,address)":"7b4717a4","rewardTokens(uint256)":"7bb7bed1","rewardTokensLength()":"bf199e62","stake(uint256)":"a694fc3a","stakeFor(address,uint256)":"2ee40908","tokenExists(address)":"b33f78ca","totalStaked()":"817b1cd2","transferOwnership(address)":"f2fde38b","unstake(uint256)":"2e17de78"},"id":4}