{"abi":[{"type":"constructor","inputs":[{"name":"_treasury","type":"address","internalType":"address"},{"name":"_liqStaking","type":"address","internalType":"address"}],"stateMutability":"nonpayable"},{"type":"receive","stateMutability":"payable"},{"type":"function","name":"BPS","inputs":[],"outputs":[{"name":"","type":"uint256","internalType":"uint256"}],"stateMutability":"view"},{"type":"function","name":"LIQ_SHARE_BPS","inputs":[],"outputs":[{"name":"","type":"uint256","internalType":"uint256"}],"stateMutability":"view"},{"type":"function","name":"TREASURY_KEEP_BPS","inputs":[],"outputs":[{"name":"","type":"uint256","internalType":"uint256"}],"stateMutability":"view"},{"type":"function","name":"distribute","inputs":[{"name":"token","type":"address","internalType":"address"}],"outputs":[],"stateMutability":"nonpayable"},{"type":"function","name":"distributeMultiple","inputs":[{"name":"tokens","type":"address[]","internalType":"address[]"}],"outputs":[],"stateMutability":"nonpayable"},{"type":"function","name":"liqStakingDistributor","inputs":[],"outputs":[{"name":"","type":"address","internalType":"address"}],"stateMutability":"view"},{"type":"function","name":"owner","inputs":[],"outputs":[{"name":"","type":"address","internalType":"address"}],"stateMutability":"view"},{"type":"function","name":"renounceOwnership","inputs":[],"outputs":[],"stateMutability":"nonpayable"},{"type":"function","name":"sweep","inputs":[{"name":"token","type":"address","internalType":"address"},{"name":"to","type":"address","internalType":"address"}],"outputs":[],"stateMutability":"nonpayable"},{"type":"function","name":"transferOwnership","inputs":[{"name":"newOwner","type":"address","internalType":"address"}],"outputs":[],"stateMutability":"nonpayable"},{"type":"function","name":"treasury","inputs":[],"outputs":[{"name":"","type":"address","internalType":"address"}],"stateMutability":"view"},{"type":"event","name":"FundsDistributed","inputs":[{"name":"token","type":"address","indexed":true,"internalType":"address"},{"name":"toLiqStakers","type":"uint256","indexed":false,"internalType":"uint256"},{"name":"toTreasury","type":"uint256","indexed":false,"internalType":"uint256"}],"anonymous":false},{"type":"event","name":"OwnershipTransferred","inputs":[{"name":"previousOwner","type":"address","indexed":true,"internalType":"address"},{"name":"newOwner","type":"address","indexed":true,"internalType":"address"}],"anonymous":false},{"type":"error","name":"OwnableInvalidOwner","inputs":[{"name":"owner","type":"address","internalType":"address"}]},{"type":"error","name":"OwnableUnauthorizedAccount","inputs":[{"name":"account","type":"address","internalType":"address"}]},{"type":"error","name":"ReentrancyGuardReentrantCall","inputs":[]},{"type":"error","name":"SafeERC20FailedOperation","inputs":[{"name":"token","type":"address","internalType":"address"}]},{"type":"error","name":"TransferFailed","inputs":[]},{"type":"error","name":"ZeroAddress","inputs":[]}],"bytecode":{"object":"0x60c060405234801561000f575f80fd5b50604051610d61380380610d6183398101604081905261002e9161011d565b338061005357604051631e4fbdf760e01b81525f600482015260240160405180910390fd5b61005c816100b3565b50600180556001600160a01b038216158061007e57506001600160a01b038116155b1561009c5760405163d92e233d60e01b815260040160405180910390fd5b6001600160a01b039182166080521660a05261014e565b5f80546001600160a01b038381166001600160a01b0319831681178455604051919092169283917f8be0079c531659141344cd1fd0a4f28419497f9722a3daafe3b4186f6b6457e09190a35050565b80516001600160a01b0381168114610118575f80fd5b919050565b5f806040838503121561012e575f80fd5b61013783610102565b915061014560208401610102565b90509250929050565b60805160a051610bc96101985f395f81816101e5015281816104c6015281816106b801528181610703015261076a01525f818160e10152818161053201526107a40152610bc95ff3fe60806040526004361061009d575f3560e01c8063877d707f11610062578063877d707f146101655780638da5cb5b14610184578063ad5e768e146101a0578063b8dc491b146101b5578063dff0b7c0146101d4578063f2fde38b14610207575f80fd5b8063249d39e9146100a857806361d027b3146100d057806363453ae11461011b57806364a9f3521461013c578063715018a614610151575f80fd5b366100a457005b5f80fd5b3480156100b3575f80fd5b506100bd61271081565b6040519081526020015b60405180910390f35b3480156100db575f80fd5b506101037f000000000000000000000000000000000000000000000000000000000000000081565b6040516001600160a01b0390911681526020016100c7565b348015610126575f80fd5b5061013a610135366004610a4b565b610226565b005b348015610147575f80fd5b506100bd6107d081565b34801561015c575f80fd5b5061013a610243565b348015610170575f80fd5b5061013a61017f366004610a6b565b610256565b34801561018f575f80fd5b505f546001600160a01b0316610103565b3480156101ab575f80fd5b506100bd611f4081565b3480156101c0575f80fd5b5061013a6101cf366004610ada565b6102ad565b3480156101df575f80fd5b506101037f000000000000000000000000000000000000000000000000000000000000000081565b348015610212575f80fd5b5061013a610221366004610a4b565b6103fc565b61022e610436565b61023781610460565b61024060018055565b50565b61024b610814565b6102545f610840565b565b61025e610436565b5f5b8181101561029f5761029783838381811061027d5761027d610b0b565b90506020020160208101906102929190610a4b565b610460565b600101610260565b506102a960018055565b5050565b6102b5610814565b5f6001600160a01b03831615610330576040516370a0823160e01b81523060048201526001600160a01b038416906370a0823190602401602060405180830381865afa158015610307573d5f803e3d5ffd5b505050506040513d601f19601f8201168201806040525081019061032b9190610b1f565b610332565b475b905080156103f7576001600160a01b0383166103e3575f826001600160a01b0316826040515f6040518083038185875af1925050503d805f8114610391576040519150601f19603f3d011682016040523d82523d5f602084013e610396565b606091505b50509050806103dd5760405162461bcd60e51b815260206004820152600e60248201526d1cddd9595c081155120819985a5b60921b60448201526064015b60405180910390fd5b50505050565b6103f76001600160a01b038416838361088f565b505050565b610404610814565b6001600160a01b03811661042d57604051631e4fbdf760e01b81525f60048201526024016103d4565b61024081610840565b60026001540361045957604051633ee5aeb560e01b815260040160405180910390fd5b6002600155565b6001600160a01b03811661060257475f81900361047b575050565b5f61271061048b611f4084610b4a565b6104959190610b61565b90505f6104a28284610b80565b905081156105295760405163b66503cf60e01b81525f6004820152602481018390527f00000000000000000000000000000000000000000000000000000000000000006001600160a01b03169063b66503cf9084906044015f604051808303818588803b158015610511575f80fd5b505af1158015610523573d5f803e3d5ffd5b50505050505b80156105c1575f7f00000000000000000000000000000000000000000000000000000000000000006001600160a01b0316826040515f6040518083038185875af1925050503d805f8114610598576040519150601f19603f3d011682016040523d82523d5f602084013e61059d565b606091505b50509050806105bf576040516312171d8360e31b815260040160405180910390fd5b505b60408051838152602081018390525f917f080babe757d4e5c7db3b7bd10606a7bf07a9857f660977ada6ca7a4d329376c8910160405180910390a250505050565b6040516370a0823160e01b815230600482015281905f906001600160a01b038316906370a0823190602401602060405180830381865afa158015610648573d5f803e3d5ffd5b505050506040513d601f19601f8201168201806040525081019061066c9190610b1f565b9050805f0361067a57505050565b5f61271061068a611f4084610b4a565b6106949190610b61565b90505f6106a18284610b80565b9050811561078f576106dd6001600160a01b0385167f0000000000000000000000000000000000000000000000000000000000000000846108ee565b60405163b66503cf60e01b81526001600160a01b038681166004830152602482018490527f0000000000000000000000000000000000000000000000000000000000000000169063b66503cf906044015f604051808303815f87803b158015610744575f80fd5b505af1158015610756573d5f803e3d5ffd5b5061078f925050506001600160a01b0385167f00000000000000000000000000000000000000000000000000000000000000005f6108ee565b80156107c9576107c96001600160a01b0385167f00000000000000000000000000000000000000000000000000000000000000008361088f565b60408051838152602081018390526001600160a01b038716917f080babe757d4e5c7db3b7bd10606a7bf07a9857f660977ada6ca7a4d329376c8910160405180910390a25050505050565b5f546001600160a01b031633146102545760405163118cdaa760e01b81523360048201526024016103d4565b5f80546001600160a01b038381166001600160a01b0319831681178455604051919092169283917f8be0079c531659141344cd1fd0a4f28419497f9722a3daafe3b4186f6b6457e09190a35050565b6040516001600160a01b038381166024830152604482018390526103f791859182169063a9059cbb906064015b604051602081830303815290604052915060e01b6020820180516001600160e01b038381831617835250505050610979565b604080516001600160a01b038416602482015260448082018490528251808303909101815260649091019091526020810180516001600160e01b031663095ea7b360e01b17905261093f84826109e5565b6103dd576040516001600160a01b0384811660248301525f604483015261097391869182169063095ea7b3906064016108bc565b6103dd84825b5f8060205f8451602086015f885af180610998576040513d5f823e3d81fd5b50505f513d915081156109af5780600114156109bc565b6001600160a01b0384163b155b156103dd57604051635274afe760e01b81526001600160a01b03851660048201526024016103d4565b5f805f8060205f8651602088015f8a5af192503d91505f519050828015610a2457508115610a165780600114610a24565b5f866001600160a01b03163b115b93505050505b92915050565b80356001600160a01b0381168114610a46575f80fd5b919050565b5f60208284031215610a5b575f80fd5b610a6482610a30565b9392505050565b5f8060208385031215610a7c575f80fd5b823567ffffffffffffffff80821115610a93575f80fd5b818501915085601f830112610aa6575f80fd5b813581811115610ab4575f80fd5b8660208260051b8501011115610ac8575f80fd5b60209290920196919550909350505050565b5f8060408385031215610aeb575f80fd5b610af483610a30565b9150610b0260208401610a30565b90509250929050565b634e487b7160e01b5f52603260045260245ffd5b5f60208284031215610b2f575f80fd5b5051919050565b634e487b7160e01b5f52601160045260245ffd5b8082028115828204841417610a2a57610a2a610b36565b5f82610b7b57634e487b7160e01b5f52601260045260245ffd5b500490565b81810381811115610a2a57610a2a610b3656fea26469706673582212202bfd585af86049b47bec1812f68b6a9241b236cef92ff3163493fb4a4317d04e64736f6c63430008180033","linkReferences":{}},"methodIdentifiers":{"BPS()":"249d39e9","LIQ_SHARE_BPS()":"ad5e768e","TREASURY_KEEP_BPS()":"64a9f352","distribute(address)":"63453ae1","distributeMultiple(address[])":"877d707f","liqStakingDistributor()":"dff0b7c0","owner()":"8da5cb5b","renounceOwnership()":"715018a6","sweep(address,address)":"b8dc491b","transferOwnership(address)":"f2fde38b","treasury()":"61d027b3"},"id":56}