{"abi":[{"type":"constructor","inputs":[{"name":"_vault","type":"address","internalType":"address"},{"name":"_voter","type":"address","internalType":"address"},{"name":"_stakingDistributor","type":"address","internalType":"address"}],"stateMutability":"nonpayable"},{"type":"receive","stateMutability":"payable"},{"type":"function","name":"AERO","inputs":[],"outputs":[{"name":"","type":"address","internalType":"contract IERC20"}],"stateMutability":"view"},{"type":"function","name":"BPS","inputs":[],"outputs":[{"name":"","type":"uint256","internalType":"uint256"}],"stateMutability":"view"},{"type":"function","name":"PEG_ACTION_BPS","inputs":[],"outputs":[{"name":"","type":"uint256","internalType":"uint256"}],"stateMutability":"view"},{"type":"function","name":"PROTOCOL_BASE_BPS","inputs":[],"outputs":[{"name":"","type":"uint256","internalType":"uint256"}],"stateMutability":"view"},{"type":"function","name":"buyThresholdBps","inputs":[],"outputs":[{"name":"","type":"uint256","internalType":"uint256"}],"stateMutability":"view"},{"type":"function","name":"claimAerodromeRewards","inputs":[{"name":"bribes","type":"address[]","internalType":"address[]"},{"name":"bribeTokens","type":"address[][]","internalType":"address[][]"},{"name":"fees","type":"address[]","internalType":"address[]"},{"name":"feeTokens","type":"address[][]","internalType":"address[][]"},{"name":"gauges","type":"address[]","internalType":"address[]"}],"outputs":[],"stateMutability":"nonpayable"},{"type":"function","name":"getProtocolCutBps","inputs":[],"outputs":[{"name":"","type":"uint256","internalType":"uint256"}],"stateMutability":"view"},{"type":"function","name":"iAERO","inputs":[],"outputs":[{"name":"","type":"address","internalType":"contract IERC20"}],"stateMutability":"view"},{"type":"function","name":"iaeroAeroPair","inputs":[],"outputs":[{"name":"","type":"address","internalType":"address"}],"stateMutability":"view"},{"type":"function","name":"keepers","inputs":[{"name":"","type":"address","internalType":"address"}],"outputs":[{"name":"","type":"bool","internalType":"bool"}],"stateMutability":"view"},{"type":"function","name":"owner","inputs":[],"outputs":[{"name":"","type":"address","internalType":"address"}],"stateMutability":"view"},{"type":"function","name":"pairIsStable","inputs":[],"outputs":[{"name":"","type":"bool","internalType":"bool"}],"stateMutability":"view"},{"type":"function","name":"processAndDistribute","inputs":[{"name":"tokens","type":"address[]","internalType":"address[]"}],"outputs":[],"stateMutability":"nonpayable"},{"type":"function","name":"processAndDistributeETH","inputs":[],"outputs":[],"stateMutability":"nonpayable"},{"type":"function","name":"renounceOwnership","inputs":[],"outputs":[],"stateMutability":"nonpayable"},{"type":"function","name":"router","inputs":[],"outputs":[{"name":"","type":"address","internalType":"address"}],"stateMutability":"view"},{"type":"function","name":"setBuyThresholdBps","inputs":[{"name":"_bps","type":"uint256","internalType":"uint256"}],"outputs":[],"stateMutability":"nonpayable"},{"type":"function","name":"setKeeper","inputs":[{"name":"who","type":"address","internalType":"address"},{"name":"allowed","type":"bool","internalType":"bool"}],"outputs":[],"stateMutability":"nonpayable"},{"type":"function","name":"setPairConfig","inputs":[{"name":"_pair","type":"address","internalType":"address"},{"name":"_stable","type":"bool","internalType":"bool"}],"outputs":[],"stateMutability":"nonpayable"},{"type":"function","name":"setRouter","inputs":[{"name":"_router","type":"address","internalType":"address"}],"outputs":[],"stateMutability":"nonpayable"},{"type":"function","name":"setStakingDistributor","inputs":[{"name":"dst","type":"address","internalType":"address"}],"outputs":[],"stateMutability":"nonpayable"},{"type":"function","name":"setVoter","inputs":[{"name":"_voter","type":"address","internalType":"address"}],"outputs":[],"stateMutability":"nonpayable"},{"type":"function","name":"stakingDistributor","inputs":[],"outputs":[{"name":"","type":"address","internalType":"address"}],"stateMutability":"view"},{"type":"function","name":"transferOwnership","inputs":[{"name":"newOwner","type":"address","internalType":"address"}],"outputs":[],"stateMutability":"nonpayable"},{"type":"function","name":"vault","inputs":[],"outputs":[{"name":"","type":"address","internalType":"contract IPermalockVault"}],"stateMutability":"view"},{"type":"function","name":"voter","inputs":[],"outputs":[{"name":"","type":"address","internalType":"address"}],"stateMutability":"view"},{"type":"event","name":"BuyThresholdSet","inputs":[{"name":"bps","type":"uint256","indexed":false,"internalType":"uint256"}],"anonymous":false},{"type":"event","name":"Distributed","inputs":[{"name":"treasuryBps","type":"uint256","indexed":false,"internalType":"uint256"},{"name":"stakersBps","type":"uint256","indexed":false,"internalType":"uint256"}],"anonymous":false},{"type":"event","name":"KeeperSet","inputs":[{"name":"keeper","type":"address","indexed":true,"internalType":"address"},{"name":"allowed","type":"bool","indexed":false,"internalType":"bool"}],"anonymous":false},{"type":"event","name":"OwnershipTransferred","inputs":[{"name":"previousOwner","type":"address","indexed":true,"internalType":"address"},{"name":"newOwner","type":"address","indexed":true,"internalType":"address"}],"anonymous":false},{"type":"event","name":"PairConfigSet","inputs":[{"name":"pair","type":"address","indexed":true,"internalType":"address"},{"name":"stable","type":"bool","indexed":false,"internalType":"bool"}],"anonymous":false},{"type":"event","name":"RewardsClaimed","inputs":[{"name":"source","type":"address","indexed":true,"internalType":"address"},{"name":"tokenId","type":"uint256","indexed":false,"internalType":"uint256"},{"name":"claimType","type":"uint8","indexed":false,"internalType":"uint8"}],"anonymous":false},{"type":"event","name":"RouterSet","inputs":[{"name":"router","type":"address","indexed":true,"internalType":"address"}],"anonymous":false},{"type":"event","name":"StakersShareSent","inputs":[{"name":"token","type":"address","indexed":true,"internalType":"address"},{"name":"amount","type":"uint256","indexed":false,"internalType":"uint256"}],"anonymous":false},{"type":"event","name":"StakingDistributorSet","inputs":[{"name":"distributor","type":"address","indexed":true,"internalType":"address"}],"anonymous":false},{"type":"event","name":"TokenReceived","inputs":[{"name":"token","type":"address","indexed":true,"internalType":"address"},{"name":"amount","type":"uint256","indexed":false,"internalType":"uint256"}],"anonymous":false},{"type":"event","name":"TreasuryShareSent","inputs":[{"name":"token","type":"address","indexed":true,"internalType":"address"},{"name":"amount","type":"uint256","indexed":false,"internalType":"uint256"},{"name":"totalBps","type":"uint256","indexed":false,"internalType":"uint256"}],"anonymous":false},{"type":"event","name":"VoterSet","inputs":[{"name":"voter","type":"address","indexed":true,"internalType":"address"}],"anonymous":false},{"type":"error","name":"OwnableInvalidOwner","inputs":[{"name":"owner","type":"address","internalType":"address"}]},{"type":"error","name":"OwnableUnauthorizedAccount","inputs":[{"name":"account","type":"address","internalType":"address"}]},{"type":"error","name":"ReentrancyGuardReentrantCall","inputs":[]},{"type":"error","name":"SafeERC20FailedOperation","inputs":[{"name":"token","type":"address","internalType":"address"}]}],"bytecode":{"object":"0x60e060405261213460065534801562000016575f80fd5b5060405162003d6f38038062003d6f83398181016040528101906200003c91906200055e565b335f73ffffffffffffffffffffffffffffffffffffffff168173ffffffffffffffffffffffffffffffffffffffff1603620000b0575f6040517f1e4fbdf7000000000000000000000000000000000000000000000000000000008152600401620000a79190620005c8565b60405180910390fd5b620000c1816200043860201b60201c565b50600180819055505f73ffffffffffffffffffffffffffffffffffffffff168373ffffffffffffffffffffffffffffffffffffffff16036200013a576040517f08c379a0000000000000000000000000000000000000000000000000000000008152600401620001319062000641565b60405180910390fd5b5f73ffffffffffffffffffffffffffffffffffffffff168173ffffffffffffffffffffffffffffffffffffffff1603620001ab576040517f08c379a0000000000000000000000000000000000000000000000000000000008152600401620001a290620006af565b60405180910390fd5b8273ffffffffffffffffffffffffffffffffffffffff1660808173ffffffffffffffffffffffffffffffffffffffff16815250508160025f6101000a81548173ffffffffffffffffffffffffffffffffffffffff021916908373ffffffffffffffffffffffffffffffffffffffff1602179055508060035f6101000a81548173ffffffffffffffffffffffffffffffffffffffff021916908373ffffffffffffffffffffffffffffffffffffffff16021790555060805173ffffffffffffffffffffffffffffffffffffffff16631691bd6f6040518163ffffffff1660e01b8152600401602060405180830381865afa158015620002ab573d5f803e3d5ffd5b505050506040513d601f19601f82011682018060405250810190620002d19190620006cf565b73ffffffffffffffffffffffffffffffffffffffff1660a08173ffffffffffffffffffffffffffffffffffffffff168152505060805173ffffffffffffffffffffffffffffffffffffffff1663c8b115376040518163ffffffff1660e01b8152600401602060405180830381865afa15801562000350573d5f803e3d5ffd5b505050506040513d601f19601f82011682018060405250810190620003769190620006cf565b73ffffffffffffffffffffffffffffffffffffffff1660c08173ffffffffffffffffffffffffffffffffffffffff16815250508173ffffffffffffffffffffffffffffffffffffffff167f5bb4a0f5a67f7c49cfc7820adfab4690a3752cf969544ddd8445b970d3643e8960405160405180910390a28073ffffffffffffffffffffffffffffffffffffffff167f246cfaf3426a6c8763574ad1733b8d4cb841518dde62566f7d639beb24d2080260405160405180910390a2505050620006ff565b5f805f9054906101000a900473ffffffffffffffffffffffffffffffffffffffff169050815f806101000a81548173ffffffffffffffffffffffffffffffffffffffff021916908373ffffffffffffffffffffffffffffffffffffffff1602179055508173ffffffffffffffffffffffffffffffffffffffff168173ffffffffffffffffffffffffffffffffffffffff167f8be0079c531659141344cd1fd0a4f28419497f9722a3daafe3b4186f6b6457e060405160405180910390a35050565b5f80fd5b5f73ffffffffffffffffffffffffffffffffffffffff82169050919050565b5f6200052882620004fd565b9050919050565b6200053a816200051c565b811462000545575f80fd5b50565b5f8151905062000558816200052f565b92915050565b5f805f60608486031215620005785762000577620004f9565b5b5f620005878682870162000548565b93505060206200059a8682870162000548565b9250506040620005ad8682870162000548565b9150509250925092565b620005c2816200051c565b82525050565b5f602082019050620005dd5f830184620005b7565b92915050565b5f82825260208201905092915050565b7f7661756c743d30000000000000000000000000000000000000000000000000005f82015250565b5f62000629600783620005e3565b91506200063682620005f3565b602082019050919050565b5f6020820190508181035f8301526200065a816200061b565b9050919050565b7f646973743d3000000000000000000000000000000000000000000000000000005f82015250565b5f62000697600683620005e3565b9150620006a48262000661565b602082019050919050565b5f6020820190508181035f830152620006c88162000689565b9050919050565b5f60208284031215620006e757620006e6620004f9565b5b5f620006f68482850162000548565b91505092915050565b60805160a05160c05161360d620007625f395f611dea01525f610d7001525f818161070a0152818161081e0152818161103a01528181611226015281816113e8015281816115a40152818161193a01528181611a7a0152611f9c015261360d5ff3fe608060405260043610610184575f3560e01c80638da5cb5b116100d0578063cefb9da111610089578063f2fde38b11610063578063f2fde38b14610505578063f887ea401461052d578063fbfa77cf14610557578063ffb2681d146105815761018b565b8063cefb9da114610489578063d082d225146104b3578063d1b9e853146104dd5761018b565b80638da5cb5b146103a3578063925f16b8146103cd57806398fa6887146103e3578063c0d786551461040d578063c8b1153714610435578063ca3f44ae1461045f5761018b565b80633bbd64bc1161013d5780635557416411610117578063555741641461031357806359843c661461033d5780635cc48daf14610365578063715018a61461038d5761018b565b80633bbd64bc1461028557806346c96aac146102c15780634bc2a657146102eb5761018b565b80630607d6841461018f57806311053595146101b75780631504ade6146101e15780631691bd6f14610209578063249d39e9146102335780632e954e831461025d5761018b565b3661018b57005b5f80fd5b34801561019a575f80fd5b506101b560048036038101906101b09190612454565b6105ab565b005b3480156101c2575f80fd5b506101cb610c2a565b6040516101d891906124de565b60405180910390f35b3480156101ec575f80fd5b5061020760048036038101906102029190612521565b610c4f565b005b348015610214575f80fd5b5061021d610d6e565b60405161022a91906125a7565b60405180910390f35b34801561023e575f80fd5b50610247610d92565b60405161025491906125d8565b60405180910390f35b348015610268575f80fd5b50610283600480360381019061027e919061261b565b610d98565b005b348015610290575f80fd5b506102ab60048036038101906102a69190612521565b610e25565b6040516102b89190612660565b60405180910390f35b3480156102cc575f80fd5b506102d5610e42565b6040516102e291906124de565b60405180910390f35b3480156102f6575f80fd5b50610311600480360381019061030c9190612521565b610e67565b005b34801561031e575f80fd5b50610327610f63565b60405161033491906125d8565b60405180910390f35b348015610348575f80fd5b50610363600480360381019061035e91906126ce565b610f69565b005b348015610370575f80fd5b5061038b6004803603810190610386919061280f565b6116ed565b005b348015610398575f80fd5b506103a16117a1565b005b3480156103ae575f80fd5b506103b76117b4565b6040516103c491906124de565b60405180910390f35b3480156103d8575f80fd5b506103e16117db565b005b3480156103ee575f80fd5b506103f7611d35565b60405161040491906124de565b60405180910390f35b348015610418575f80fd5b50610433600480360381019061042e9190612521565b611d5a565b005b348015610440575f80fd5b50610449611de8565b60405161045691906125a7565b60405180910390f35b34801561046a575f80fd5b50610473611e0c565b60405161048091906125d8565b60405180910390f35b348015610494575f80fd5b5061049d611e2a565b6040516104aa9190612660565b60405180910390f35b3480156104be575f80fd5b506104c7611e3d565b6040516104d491906125d8565b60405180910390f35b3480156104e8575f80fd5b5061050360048036038101906104fe919061280f565b611e43565b005b348015610510575f80fd5b5061052b60048036038101906105269190612521565b611ef1565b005b348015610538575f80fd5b50610541611f75565b60405161054e91906124de565b60405180910390f35b348015610562575f80fd5b5061056b611f9a565b604051610578919061286d565b60405180910390f35b34801561058c575f80fd5b50610595611fbe565b6040516105a291906125d8565b60405180910390f35b6105b3611fc4565b60075f3373ffffffffffffffffffffffffffffffffffffffff1673ffffffffffffffffffffffffffffffffffffffff1681526020019081526020015f205f9054906101000a900460ff168061063a575061060b6117b4565b73ffffffffffffffffffffffffffffffffffffffff163373ffffffffffffffffffffffffffffffffffffffff16145b610679576040517f08c379a0000000000000000000000000000000000000000000000000000000008152600401610670906128e0565b60405180910390fd5b5f73ffffffffffffffffffffffffffffffffffffffff1660035f9054906101000a900473ffffffffffffffffffffffffffffffffffffffff1673ffffffffffffffffffffffffffffffffffffffff1603610708576040517f08c379a00000000000000000000000000000000000000000000000000000000081526004016106ff90612948565b60405180910390fd5b7f000000000000000000000000000000000000000000000000000000000000000073ffffffffffffffffffffffffffffffffffffffff16639ed2e5758383306040518463ffffffff1660e01b815260040161076593929190612a22565b5f604051808303815f875af1158015610780573d5f803e3d5ffd5b505050506040513d5f823e3d601f19601f820116820180604052508101906107a89190612bae565b505f6107b2611e0c565b90505f6103e8826107c39190612c22565b905061271081111561080a576040517f08c379a000000000000000000000000000000000000000000000000000000000815260040161080190612c9f565b60405180910390fd5b5f816127106108199190612cbd565b90505f7f000000000000000000000000000000000000000000000000000000000000000073ffffffffffffffffffffffffffffffffffffffff166361d027b36040518163ffffffff1660e01b8152600401602060405180830381865afa158015610885573d5f803e3d5ffd5b505050506040513d601f19601f820116820180604052508101906108a99190612d04565b90505f5b86869050811015610be0575f8787838181106108cc576108cb612d2f565b5b90506020020160208101906108e19190612521565b90505f73ffffffffffffffffffffffffffffffffffffffff168173ffffffffffffffffffffffffffffffffffffffff160361091c5750610bd3565b5f8173ffffffffffffffffffffffffffffffffffffffff166370a08231306040518263ffffffff1660e01b815260040161095691906124de565b602060405180830381865afa158015610971573d5f803e3d5ffd5b505050506040513d601f19601f820116820180604052508101906109959190612d5c565b90505f81036109a5575050610bd3565b8173ffffffffffffffffffffffffffffffffffffffff167f47998b4998056cd0448b356cfcb8cb0eb18fa00844e43e71947e22fcb6fd43ef826040516109eb91906125d8565b60405180910390a25f6127108783610a039190612d87565b610a0d9190612df5565b90505f8183610a1c9190612cbd565b90505f821115610aa257610a5186838673ffffffffffffffffffffffffffffffffffffffff1661200a9092919063ffffffff16565b8373ffffffffffffffffffffffffffffffffffffffff167f5cc7fe7da4bde013fa9dea843e343f2f66efefeba1c45b8c0bc9456823d845ad838a604051610a99929190612e25565b60405180910390a25b5f811115610bce57610af660035f9054906101000a900473ffffffffffffffffffffffffffffffffffffffff16828673ffffffffffffffffffffffffffffffffffffffff166120899092919063ffffffff16565b60035f9054906101000a900473ffffffffffffffffffffffffffffffffffffffff1673ffffffffffffffffffffffffffffffffffffffff1663b66503cf85836040518363ffffffff1660e01b8152600401610b52929190612e4c565b5f604051808303815f87803b158015610b69575f80fd5b505af1158015610b7b573d5f803e3d5ffd5b505050508373ffffffffffffffffffffffffffffffffffffffff167fc25e98f6c6eb906a5fd07de799db86bfe4a7b044591d75a5ee73abea5d17e11b82604051610bc591906125d8565b60405180910390a25b505050505b80806001019150506108ad565b507f97791d3ac1343e05805a2f905fa80b249c2ca58cf9fef455d4fa7ec13ce583218383604051610c12929190612e25565b60405180910390a150505050610c26612196565b5050565b60035f9054906101000a900473ffffffffffffffffffffffffffffffffffffffff1681565b610c5761219f565b5f73ffffffffffffffffffffffffffffffffffffffff168173ffffffffffffffffffffffffffffffffffffffff1614158015610ca957505f8173ffffffffffffffffffffffffffffffffffffffff163b115b610ce8576040517f08c379a0000000000000000000000000000000000000000000000000000000008152600401610cdf90612ebd565b60405180910390fd5b8060035f6101000a81548173ffffffffffffffffffffffffffffffffffffffff021916908373ffffffffffffffffffffffffffffffffffffffff1602179055508073ffffffffffffffffffffffffffffffffffffffff167f246cfaf3426a6c8763574ad1733b8d4cb841518dde62566f7d639beb24d2080260405160405180910390a250565b7f000000000000000000000000000000000000000000000000000000000000000081565b61271081565b610da061219f565b612710811115610de5576040517f08c379a0000000000000000000000000000000000000000000000000000000008152600401610ddc90612f25565b60405180910390fd5b806006819055507ede72c5ce8b78e62d0ff2aafda0cf9a5337fd54030df4ced12790c52653053081604051610e1a91906125d8565b60405180910390a150565b6007602052805f5260405f205f915054906101000a900460ff1681565b60025f9054906101000a900473ffffffffffffffffffffffffffffffffffffffff1681565b610e6f61219f565b5f73ffffffffffffffffffffffffffffffffffffffff168173ffffffffffffffffffffffffffffffffffffffff1603610edd576040517f08c379a0000000000000000000000000000000000000000000000000000000008152600401610ed490612f8d565b60405180910390fd5b8060025f6101000a81548173ffffffffffffffffffffffffffffffffffffffff021916908373ffffffffffffffffffffffffffffffffffffffff1602179055508073ffffffffffffffffffffffffffffffffffffffff167f5bb4a0f5a67f7c49cfc7820adfab4690a3752cf969544ddd8445b970d3643e8960405160405180910390a250565b6103e881565b610f71611fc4565b60075f3373ffffffffffffffffffffffffffffffffffffffff1673ffffffffffffffffffffffffffffffffffffffff1681526020019081526020015f205f9054906101000a900460ff1680610ff85750610fc96117b4565b73ffffffffffffffffffffffffffffffffffffffff163373ffffffffffffffffffffffffffffffffffffffff16145b611037576040517f08c379a000000000000000000000000000000000000000000000000000000000815260040161102e906128e0565b60405180910390fd5b5f7f000000000000000000000000000000000000000000000000000000000000000073ffffffffffffffffffffffffffffffffffffffff1663f7d8252d6040518163ffffffff1660e01b8152600401602060405180830381865afa1580156110a1573d5f803e3d5ffd5b505050506040513d601f19601f820116820180604052508101906110c59190612d5c565b90505f8103611109576040517f08c379a000000000000000000000000000000000000000000000000000000000815260040161110090612ff5565b60405180910390fd5b5f73ffffffffffffffffffffffffffffffffffffffff1660025f9054906101000a900473ffffffffffffffffffffffffffffffffffffffff1673ffffffffffffffffffffffffffffffffffffffff1603611198576040517f08c379a000000000000000000000000000000000000000000000000000000000815260040161118f90612f8d565b60405180910390fd5b5f8b8b9050111561135a575f637715ee7560e01b8c8c8c8c866040516024016111c595949392919061319a565b604051602081830303815290604052907bffffffffffffffffffffffffffffffffffffffffffffffffffffffff19166020820180517bffffffffffffffffffffffffffffffffffffffffffffffffffffffff838183161783525050505090507f000000000000000000000000000000000000000000000000000000000000000073ffffffffffffffffffffffffffffffffffffffff166362d0ce288360025f9054906101000a900473ffffffffffffffffffffffffffffffffffffffff16846040518463ffffffff1660e01b81526004016112a29392919061325b565b5f604051808303815f875af11580156112bd573d5f803e3d5ffd5b505050506040513d5f823e3d601f19601f820116820180604052508101906112e59190613339565b5060025f9054906101000a900473ffffffffffffffffffffffffffffffffffffffff1673ffffffffffffffffffffffffffffffffffffffff167fd957a8bfe24667fe101afba242f09b48c02ad8d82289f419e04331be1210d6318360016040516113509291906133c5565b60405180910390a2505b5f87879050111561151c575f63666256aa60e01b888888888660405160240161138795949392919061319a565b604051602081830303815290604052907bffffffffffffffffffffffffffffffffffffffffffffffffffffffff19166020820180517bffffffffffffffffffffffffffffffffffffffffffffffffffffffff838183161783525050505090507f000000000000000000000000000000000000000000000000000000000000000073ffffffffffffffffffffffffffffffffffffffff166362d0ce288360025f9054906101000a900473ffffffffffffffffffffffffffffffffffffffff16846040518463ffffffff1660e01b81526004016114649392919061325b565b5f604051808303815f875af115801561147f573d5f803e3d5ffd5b505050506040513d5f823e3d601f19601f820116820180604052508101906114a79190613339565b5060025f9054906101000a900473ffffffffffffffffffffffffffffffffffffffff1673ffffffffffffffffffffffffffffffffffffffff167fd957a8bfe24667fe101afba242f09b48c02ad8d82289f419e04331be1210d631836002604051611512929190613425565b60405180910390a2505b5f8383905011156116d8575f63f9f031df60e01b848460405160240161154392919061344c565b604051602081830303815290604052907bffffffffffffffffffffffffffffffffffffffffffffffffffffffff19166020820180517bffffffffffffffffffffffffffffffffffffffffffffffffffffffff838183161783525050505090507f000000000000000000000000000000000000000000000000000000000000000073ffffffffffffffffffffffffffffffffffffffff166362d0ce288360025f9054906101000a900473ffffffffffffffffffffffffffffffffffffffff16846040518463ffffffff1660e01b81526004016116209392919061325b565b5f604051808303815f875af115801561163b573d5f803e3d5ffd5b505050506040513d5f823e3d601f19601f820116820180604052508101906116639190613339565b5060025f9054906101000a900473ffffffffffffffffffffffffffffffffffffffff1673ffffffffffffffffffffffffffffffffffffffff167fd957a8bfe24667fe101afba242f09b48c02ad8d82289f419e04331be1210d6318360036040516116ce9291906134a7565b60405180910390a2505b506116e1612196565b50505050505050505050565b6116f561219f565b8160055f6101000a81548173ffffffffffffffffffffffffffffffffffffffff021916908373ffffffffffffffffffffffffffffffffffffffff16021790555080600560146101000a81548160ff0219169083151502179055508173ffffffffffffffffffffffffffffffffffffffff167fdc44be42f3a90367d017528707ba8864b8f3dbc5e2b29601e51fa2ff6ab90eda826040516117959190612660565b60405180910390a25050565b6117a961219f565b6117b25f612226565b565b5f805f9054906101000a900473ffffffffffffffffffffffffffffffffffffffff16905090565b6117e3611fc4565b60075f3373ffffffffffffffffffffffffffffffffffffffff1673ffffffffffffffffffffffffffffffffffffffff1681526020019081526020015f205f9054906101000a900460ff168061186a575061183b6117b4565b73ffffffffffffffffffffffffffffffffffffffff163373ffffffffffffffffffffffffffffffffffffffff16145b6118a9576040517f08c379a00000000000000000000000000000000000000000000000000000000081526004016118a0906128e0565b60405180910390fd5b5f73ffffffffffffffffffffffffffffffffffffffff1660035f9054906101000a900473ffffffffffffffffffffffffffffffffffffffff1673ffffffffffffffffffffffffffffffffffffffff1603611938576040517f08c379a000000000000000000000000000000000000000000000000000000000815260040161192f90612948565b60405180910390fd5b7f000000000000000000000000000000000000000000000000000000000000000073ffffffffffffffffffffffffffffffffffffffff16631163b2b0306040518263ffffffff1660e01b815260040161199191906124de565b6020604051808303815f875af11580156119ad573d5f803e3d5ffd5b505050506040513d601f19601f820116820180604052508101906119d19190612d5c565b505f4790505f81036119e35750611d2b565b5f6119ec611e0c565b90505f6103e8826119fd9190612c22565b9050612710811115611a44576040517f08c379a0000000000000000000000000000000000000000000000000000000008152600401611a3b90612c9f565b60405180910390fd5b5f6127108285611a549190612d87565b611a5e9190612df5565b90505f8185611a6d9190612cbd565b90505f821115611bfd575f7f000000000000000000000000000000000000000000000000000000000000000073ffffffffffffffffffffffffffffffffffffffff166361d027b36040518163ffffffff1660e01b8152600401602060405180830381865afa158015611ae1573d5f803e3d5ffd5b505050506040513d601f19601f82011682018060405250810190611b059190612d04565b73ffffffffffffffffffffffffffffffffffffffff1683604051611b28906134fb565b5f6040518083038185875af1925050503d805f8114611b62576040519150601f19603f3d011682016040523d82523d5f602084013e611b67565b606091505b5050905080611bab576040517f08c379a0000000000000000000000000000000000000000000000000000000008152600401611ba290613559565b60405180910390fd5b5f73ffffffffffffffffffffffffffffffffffffffff167f5cc7fe7da4bde013fa9dea843e343f2f66efefeba1c45b8c0bc9456823d845ad8486604051611bf3929190612e25565b60405180910390a2505b5f811115611cdf5760035f9054906101000a900473ffffffffffffffffffffffffffffffffffffffff1673ffffffffffffffffffffffffffffffffffffffff1663b66503cf825f846040518463ffffffff1660e01b8152600401611c62929190612e4c565b5f604051808303818588803b158015611c79575f80fd5b505af1158015611c8b573d5f803e3d5ffd5b50505050505f73ffffffffffffffffffffffffffffffffffffffff167fc25e98f6c6eb906a5fd07de799db86bfe4a7b044591d75a5ee73abea5d17e11b82604051611cd691906125d8565b60405180910390a25b7f97791d3ac1343e05805a2f905fa80b249c2ca58cf9fef455d4fa7ec13ce583218384612710611d0f9190612cbd565b604051611d1d929190612e25565b60405180910390a150505050505b611d33612196565b565b60055f9054906101000a900473ffffffffffffffffffffffffffffffffffffffff1681565b611d6261219f565b8060045f6101000a81548173ffffffffffffffffffffffffffffffffffffffff021916908373ffffffffffffffffffffffffffffffffffffffff1602179055508073ffffffffffffffffffffffffffffffffffffffff167fc6b438e6a8a59579ce6a4406cbd203b740e0d47b458aae6596339bcd40c40d1560405160405180910390a250565b7f000000000000000000000000000000000000000000000000000000000000000081565b5f806103e89050611f40811115611e2357611f4090505b8091505090565b600560149054906101000a900460ff1681565b6103e881565b611e4b61219f565b8060075f8473ffffffffffffffffffffffffffffffffffffffff1673ffffffffffffffffffffffffffffffffffffffff1681526020019081526020015f205f6101000a81548160ff0219169083151502179055508173ffffffffffffffffffffffffffffffffffffffff167f8dd62d4e1f60b96148552898e743aa2b571686baa26f4f1b647565dc3996c1a782604051611ee59190612660565b60405180910390a25050565b611ef961219f565b5f73ffffffffffffffffffffffffffffffffffffffff168173ffffffffffffffffffffffffffffffffffffffff1603611f69575f6040517f1e4fbdf7000000000000000000000000000000000000000000000000000000008152600401611f6091906124de565b60405180910390fd5b611f7281612226565b50565b60045f9054906101000a900473ffffffffffffffffffffffffffffffffffffffff1681565b7f000000000000000000000000000000000000000000000000000000000000000081565b60065481565b600260015403612000576040517f3ee5aeb500000000000000000000000000000000000000000000000000000000815260040160405180910390fd5b6002600181905550565b612084838473ffffffffffffffffffffffffffffffffffffffff1663a9059cbb858560405160240161203d929190612e4c565b604051602081830303815290604052915060e01b6020820180517bffffffffffffffffffffffffffffffffffffffffffffffffffffffff83818316178352505050506122e7565b505050565b5f8373ffffffffffffffffffffffffffffffffffffffff1663095ea7b384846040516024016120b9929190612e4c565b604051602081830303815290604052915060e01b6020820180517bffffffffffffffffffffffffffffffffffffffffffffffffffffffff838183161783525050505090506121078482612382565b61219057612185848573ffffffffffffffffffffffffffffffffffffffff1663095ea7b3865f60405160240161213e9291906135b0565b604051602081830303815290604052915060e01b6020820180517bffffffffffffffffffffffffffffffffffffffffffffffffffffffff83818316178352505050506122e7565b61218f84826122e7565b5b50505050565b60018081905550565b6121a76123db565b73ffffffffffffffffffffffffffffffffffffffff166121c56117b4565b73ffffffffffffffffffffffffffffffffffffffff1614612224576121e86123db565b6040517f118cdaa700000000000000000000000000000000000000000000000000000000815260040161221b91906124de565b60405180910390fd5b565b5f805f9054906101000a900473ffffffffffffffffffffffffffffffffffffffff169050815f806101000a81548173ffffffffffffffffffffffffffffffffffffffff021916908373ffffffffffffffffffffffffffffffffffffffff1602179055508173ffffffffffffffffffffffffffffffffffffffff168173ffffffffffffffffffffffffffffffffffffffff167f8be0079c531659141344cd1fd0a4f28419497f9722a3daafe3b4186f6b6457e060405160405180910390a35050565b5f8060205f8451602086015f885af180612306576040513d5f823e3d81fd5b3d92505f519150505f821461231f57600181141561233a565b5f8473ffffffffffffffffffffffffffffffffffffffff163b145b1561237c57836040517f5274afe700000000000000000000000000000000000000000000000000000000815260040161237391906124de565b60405180910390fd5b50505050565b5f805f8060205f8651602088015f8a5af192503d91505f5190508280156123d057505f82146123b457600181146123cf565b5f8673ffffffffffffffffffffffffffffffffffffffff163b115b5b935050505092915050565b5f33905090565b5f604051905090565b5f80fd5b5f80fd5b5f80fd5b5f80fd5b5f80fd5b5f8083601f840112612414576124136123f3565b5b8235905067ffffffffffffffff811115612431576124306123f7565b5b60208301915083602082028301111561244d5761244c6123fb565b5b9250929050565b5f806020838503121561246a576124696123eb565b5b5f83013567ffffffffffffffff811115612487576124866123ef565b5b612493858286016123ff565b92509250509250929050565b5f73ffffffffffffffffffffffffffffffffffffffff82169050919050565b5f6124c88261249f565b9050919050565b6124d8816124be565b82525050565b5f6020820190506124f15f8301846124cf565b92915050565b612500816124be565b811461250a575f80fd5b50565b5f8135905061251b816124f7565b92915050565b5f60208284031215612536576125356123eb565b5b5f6125438482850161250d565b91505092915050565b5f819050919050565b5f61256f61256a6125658461249f565b61254c565b61249f565b9050919050565b5f61258082612555565b9050919050565b5f61259182612576565b9050919050565b6125a181612587565b82525050565b5f6020820190506125ba5f830184612598565b92915050565b5f819050919050565b6125d2816125c0565b82525050565b5f6020820190506125eb5f8301846125c9565b92915050565b6125fa816125c0565b8114612604575f80fd5b50565b5f81359050612615816125f1565b92915050565b5f602082840312156126305761262f6123eb565b5b5f61263d84828501612607565b91505092915050565b5f8115159050919050565b61265a81612646565b82525050565b5f6020820190506126735f830184612651565b92915050565b5f8083601f84011261268e5761268d6123f3565b5b8235905067ffffffffffffffff8111156126ab576126aa6123f7565b5b6020830191508360208202830111156126c7576126c66123fb565b5b9250929050565b5f805f805f805f805f8060a08b8d0312156126ec576126eb6123eb565b5b5f8b013567ffffffffffffffff811115612709576127086123ef565b5b6127158d828e016123ff565b9a509a505060208b013567ffffffffffffffff811115612738576127376123ef565b5b6127448d828e01612679565b985098505060408b013567ffffffffffffffff811115612767576127666123ef565b5b6127738d828e016123ff565b965096505060608b013567ffffffffffffffff811115612796576127956123ef565b5b6127a28d828e01612679565b945094505060808b013567ffffffffffffffff8111156127c5576127c46123ef565b5b6127d18d828e016123ff565b92509250509295989b9194979a5092959850565b6127ee81612646565b81146127f8575f80fd5b50565b5f81359050612809816127e5565b92915050565b5f8060408385031215612825576128246123eb565b5b5f6128328582860161250d565b9250506020612843858286016127fb565b9150509250929050565b5f61285782612576565b9050919050565b6128678161284d565b82525050565b5f6020820190506128805f83018461285e565b92915050565b5f82825260208201905092915050565b7f6e6f74206b6565706572000000000000000000000000000000000000000000005f82015250565b5f6128ca600a83612886565b91506128d582612896565b602082019050919050565b5f6020820190508181035f8301526128f7816128be565b9050919050565b7f646973743d3000000000000000000000000000000000000000000000000000005f82015250565b5f612932600683612886565b915061293d826128fe565b602082019050919050565b5f6020820190508181035f83015261295f81612926565b9050919050565b5f82825260208201905092915050565b5f819050919050565b612988816124be565b82525050565b5f612999838361297f565b60208301905092915050565b5f6129b3602084018461250d565b905092915050565b5f602082019050919050565b5f6129d28385612966565b93506129dd82612976565b805f5b85811015612a15576129f282846129a5565b6129fc888261298e565b9750612a07836129bb565b9250506001810190506129e0565b5085925050509392505050565b5f6040820190508181035f830152612a3b8185876129c7565b9050612a4a60208301846124cf565b949350505050565b5f601f19601f8301169050919050565b7f4e487b71000000000000000000000000000000000000000000000000000000005f52604160045260245ffd5b612a9882612a52565b810181811067ffffffffffffffff82111715612ab757612ab6612a62565b5b80604052505050565b5f612ac96123e2565b9050612ad58282612a8f565b919050565b5f67ffffffffffffffff821115612af457612af3612a62565b5b602082029050602081019050919050565b5f81519050612b13816125f1565b92915050565b5f612b2b612b2684612ada565b612ac0565b90508083825260208201905060208402830185811115612b4e57612b4d6123fb565b5b835b81811015612b775780612b638882612b05565b845260208401935050602081019050612b50565b5050509392505050565b5f82601f830112612b9557612b946123f3565b5b8151612ba5848260208601612b19565b91505092915050565b5f60208284031215612bc357612bc26123eb565b5b5f82015167ffffffffffffffff811115612be057612bdf6123ef565b5b612bec84828501612b81565b91505092915050565b7f4e487b71000000000000000000000000000000000000000000000000000000005f52601160045260245ffd5b5f612c2c826125c0565b9150612c37836125c0565b9250828201905080821115612c4f57612c4e612bf5565b5b92915050565b7f627073206f766572666c6f7700000000000000000000000000000000000000005f82015250565b5f612c89600c83612886565b9150612c9482612c55565b602082019050919050565b5f6020820190508181035f830152612cb681612c7d565b9050919050565b5f612cc7826125c0565b9150612cd2836125c0565b9250828203905081811115612cea57612ce9612bf5565b5b92915050565b5f81519050612cfe816124f7565b92915050565b5f60208284031215612d1957612d186123eb565b5b5f612d2684828501612cf0565b91505092915050565b7f4e487b71000000000000000000000000000000000000000000000000000000005f52603260045260245ffd5b5f60208284031215612d7157612d706123eb565b5b5f612d7e84828501612b05565b91505092915050565b5f612d91826125c0565b9150612d9c836125c0565b9250828202612daa816125c0565b91508282048414831517612dc157612dc0612bf5565b5b5092915050565b7f4e487b71000000000000000000000000000000000000000000000000000000005f52601260045260245ffd5b5f612dff826125c0565b9150612e0a836125c0565b925082612e1a57612e19612dc8565b5b828204905092915050565b5f604082019050612e385f8301856125c9565b612e4560208301846125c9565b9392505050565b5f604082019050612e5f5f8301856124cf565b612e6c60208301846125c9565b9392505050565b7f6469737420696e76616c696400000000000000000000000000000000000000005f82015250565b5f612ea7600c83612886565b9150612eb282612e73565b602082019050919050565b5f6020820190508181035f830152612ed481612e9b565b9050919050565b7f6270733e313030250000000000000000000000000000000000000000000000005f82015250565b5f612f0f600883612886565b9150612f1a82612edb565b602082019050919050565b5f6020820190508181035f830152612f3c81612f03565b9050919050565b7f766f7465723d30000000000000000000000000000000000000000000000000005f82015250565b5f612f77600783612886565b9150612f8282612f43565b602082019050919050565b5f6020820190508181035f830152612fa481612f6b565b9050919050565b7f6e6f2076654e46540000000000000000000000000000000000000000000000005f82015250565b5f612fdf600883612886565b9150612fea82612fab565b602082019050919050565b5f6020820190508181035f83015261300c81612fd3565b9050919050565b5f82825260208201905092915050565b5f819050919050565b5f82825260208201905092915050565b5f613047838561302c565b935061305282612976565b805f5b8581101561308a5761306782846129a5565b613071888261298e565b975061307c836129bb565b925050600181019050613055565b5085925050509392505050565b5f6130a384848461303c565b90509392505050565b5f80fd5b5f80fd5b5f80fd5b5f80833560016020038436030381126130d4576130d36130b4565b5b83810192508235915060208301925067ffffffffffffffff8211156130fc576130fb6130ac565b5b602082023603831315613112576131116130b0565b5b509250929050565b5f602082019050919050565b5f6131318385613013565b93508360208402850161314384613023565b805f5b8781101561318857848403895261315d82846130b8565b613168868284613097565b95506131738461311a565b935060208b019a505050600181019050613146565b50829750879450505050509392505050565b5f6060820190508181035f8301526131b38187896129c7565b905081810360208301526131c8818587613126565b90506131d760408301846125c9565b9695505050505050565b5f81519050919050565b5f82825260208201905092915050565b5f5b838110156132185780820151818401526020810190506131fd565b5f8484015250505050565b5f61322d826131e1565b61323781856131eb565b93506132478185602086016131fb565b61325081612a52565b840191505092915050565b5f60608201905061326e5f8301866125c9565b61327b60208301856124cf565b818103604083015261328d8184613223565b9050949350505050565b5f80fd5b5f67ffffffffffffffff8211156132b5576132b4612a62565b5b6132be82612a52565b9050602081019050919050565b5f6132dd6132d88461329b565b612ac0565b9050828152602081018484840111156132f9576132f8613297565b5b6133048482856131fb565b509392505050565b5f82601f8301126133205761331f6123f3565b5b81516133308482602086016132cb565b91505092915050565b5f6020828403121561334e5761334d6123eb565b5b5f82015167ffffffffffffffff81111561336b5761336a6123ef565b5b6133778482850161330c565b91505092915050565b5f819050919050565b5f60ff82169050919050565b5f6133af6133aa6133a584613380565b61254c565b613389565b9050919050565b6133bf81613395565b82525050565b5f6040820190506133d85f8301856125c9565b6133e560208301846133b6565b9392505050565b5f819050919050565b5f61340f61340a613405846133ec565b61254c565b613389565b9050919050565b61341f816133f5565b82525050565b5f6040820190506134385f8301856125c9565b6134456020830184613416565b9392505050565b5f6020820190508181035f8301526134658184866129c7565b90509392505050565b5f819050919050565b5f61349161348c6134878461346e565b61254c565b613389565b9050919050565b6134a181613477565b82525050565b5f6040820190506134ba5f8301856125c9565b6134c76020830184613498565b9392505050565b5f81905092915050565b50565b5f6134e65f836134ce565b91506134f1826134d8565b5f82019050919050565b5f613505826134db565b9150819050919050565b7f7472656173757279204554482078666572206661696c000000000000000000005f82015250565b5f613543601683612886565b915061354e8261350f565b602082019050919050565b5f6020820190508181035f83015261357081613537565b9050919050565b5f819050919050565b5f61359a61359561359084613577565b61254c565b6125c0565b9050919050565b6135aa81613580565b82525050565b5f6040820190506135c35f8301856124cf565b6135d060208301846135a1565b939250505056fea2646970667358221220908390850ae122b1975d691720aa39a18970e1ea2b699720add79ae09231c7ed64736f6c63430008180033","linkReferences":{}},"methodIdentifiers":{"AERO()":"1691bd6f","BPS()":"249d39e9","PEG_ACTION_BPS()":"d082d225","PROTOCOL_BASE_BPS()":"55574164","buyThresholdBps()":"ffb2681d","claimAerodromeRewards(address[],address[][],address[],address[][],address[])":"59843c66","getProtocolCutBps()":"ca3f44ae","iAERO()":"c8b11537","iaeroAeroPair()":"98fa6887","keepers(address)":"3bbd64bc","owner()":"8da5cb5b","pairIsStable()":"cefb9da1","processAndDistribute(address[])":"0607d684","processAndDistributeETH()":"925f16b8","renounceOwnership()":"715018a6","router()":"f887ea40","setBuyThresholdBps(uint256)":"2e954e83","setKeeper(address,bool)":"d1b9e853","setPairConfig(address,bool)":"5cc48daf","setRouter(address)":"c0d78655","setStakingDistributor(address)":"1504ade6","setVoter(address)":"4bc2a657","stakingDistributor()":"11053595","transferOwnership(address)":"f2fde38b","vault()":"fbfa77cf","voter()":"46c96aac"},"id":54}