{"abi":[{"type":"constructor","inputs":[{"name":"_vault","type":"address","internalType":"address"},{"name":"_voter","type":"address","internalType":"address"},{"name":"_stakingDistributor","type":"address","internalType":"address"}],"stateMutability":"nonpayable"},{"type":"receive","stateMutability":"payable"},{"type":"function","name":"AERO","inputs":[],"outputs":[{"name":"","type":"address","internalType":"contract IERC20"}],"stateMutability":"view"},{"type":"function","name":"BPS","inputs":[],"outputs":[{"name":"","type":"uint256","internalType":"uint256"}],"stateMutability":"view"},{"type":"function","name":"PEG_ACTION_BPS","inputs":[],"outputs":[{"name":"","type":"uint256","internalType":"uint256"}],"stateMutability":"view"},{"type":"function","name":"PROTOCOL_BASE_BPS","inputs":[],"outputs":[{"name":"","type":"uint256","internalType":"uint256"}],"stateMutability":"view"},{"type":"function","name":"buyThresholdBps","inputs":[],"outputs":[{"name":"","type":"uint256","internalType":"uint256"}],"stateMutability":"view"},{"type":"function","name":"claimAerodromeRewards","inputs":[{"name":"bribes","type":"address[]","internalType":"address[]"},{"name":"bribeTokens","type":"address[][]","internalType":"address[][]"},{"name":"fees","type":"address[]","internalType":"address[]"},{"name":"feeTokens","type":"address[][]","internalType":"address[][]"},{"name":"gauges","type":"address[]","internalType":"address[]"}],"outputs":[],"stateMutability":"nonpayable"},{"type":"function","name":"iAERO","inputs":[],"outputs":[{"name":"","type":"address","internalType":"contract IERC20"}],"stateMutability":"view"},{"type":"function","name":"iaeroAeroPair","inputs":[],"outputs":[{"name":"","type":"address","internalType":"address"}],"stateMutability":"view"},{"type":"function","name":"keepers","inputs":[{"name":"","type":"address","internalType":"address"}],"outputs":[{"name":"","type":"bool","internalType":"bool"}],"stateMutability":"view"},{"type":"function","name":"owner","inputs":[],"outputs":[{"name":"","type":"address","internalType":"address"}],"stateMutability":"view"},{"type":"function","name":"pairIsStable","inputs":[],"outputs":[{"name":"","type":"bool","internalType":"bool"}],"stateMutability":"view"},{"type":"function","name":"pegDefender","inputs":[],"outputs":[{"name":"","type":"address","internalType":"address"}],"stateMutability":"view"},{"type":"function","name":"processAndDistribute","inputs":[{"name":"tokens","type":"address[]","internalType":"address[]"}],"outputs":[],"stateMutability":"nonpayable"},{"type":"function","name":"processAndDistributeETH","inputs":[],"outputs":[],"stateMutability":"nonpayable"},{"type":"function","name":"renounceOwnership","inputs":[],"outputs":[],"stateMutability":"nonpayable"},{"type":"function","name":"router","inputs":[],"outputs":[{"name":"","type":"address","internalType":"address"}],"stateMutability":"view"},{"type":"function","name":"setBuyThresholdBps","inputs":[{"name":"_bps","type":"uint256","internalType":"uint256"}],"outputs":[],"stateMutability":"nonpayable"},{"type":"function","name":"setKeeper","inputs":[{"name":"who","type":"address","internalType":"address"},{"name":"allowed","type":"bool","internalType":"bool"}],"outputs":[],"stateMutability":"nonpayable"},{"type":"function","name":"setPairConfig","inputs":[{"name":"_pair","type":"address","internalType":"address"},{"name":"_stable","type":"bool","internalType":"bool"}],"outputs":[],"stateMutability":"nonpayable"},{"type":"function","name":"setPegDefender","inputs":[{"name":"_defender","type":"address","internalType":"address"}],"outputs":[],"stateMutability":"nonpayable"},{"type":"function","name":"setRouter","inputs":[{"name":"_router","type":"address","internalType":"address"}],"outputs":[],"stateMutability":"nonpayable"},{"type":"function","name":"setStakingDistributor","inputs":[{"name":"dst","type":"address","internalType":"address"}],"outputs":[],"stateMutability":"nonpayable"},{"type":"function","name":"setTreasuryDistributor","inputs":[{"name":"_distributor","type":"address","internalType":"address"}],"outputs":[],"stateMutability":"nonpayable"},{"type":"function","name":"setVoter","inputs":[{"name":"_voter","type":"address","internalType":"address"}],"outputs":[],"stateMutability":"nonpayable"},{"type":"function","name":"stakingDistributor","inputs":[],"outputs":[{"name":"","type":"address","internalType":"address"}],"stateMutability":"view"},{"type":"function","name":"transferOwnership","inputs":[{"name":"newOwner","type":"address","internalType":"address"}],"outputs":[],"stateMutability":"nonpayable"},{"type":"function","name":"treasuryDistributor","inputs":[],"outputs":[{"name":"","type":"address","internalType":"address"}],"stateMutability":"view"},{"type":"function","name":"vault","inputs":[],"outputs":[{"name":"","type":"address","internalType":"contract IPermalockVault"}],"stateMutability":"view"},{"type":"function","name":"voter","inputs":[],"outputs":[{"name":"","type":"address","internalType":"address"}],"stateMutability":"view"},{"type":"event","name":"BuyThresholdSet","inputs":[{"name":"bps","type":"uint256","indexed":false,"internalType":"uint256"}],"anonymous":false},{"type":"event","name":"Distributed","inputs":[{"name":"treasurySideBps","type":"uint256","indexed":false,"internalType":"uint256"},{"name":"stakersBps","type":"uint256","indexed":false,"internalType":"uint256"}],"anonymous":false},{"type":"event","name":"KeeperSet","inputs":[{"name":"keeper","type":"address","indexed":true,"internalType":"address"},{"name":"allowed","type":"bool","indexed":false,"internalType":"bool"}],"anonymous":false},{"type":"event","name":"OwnershipTransferred","inputs":[{"name":"previousOwner","type":"address","indexed":true,"internalType":"address"},{"name":"newOwner","type":"address","indexed":true,"internalType":"address"}],"anonymous":false},{"type":"event","name":"PairConfigSet","inputs":[{"name":"pair","type":"address","indexed":true,"internalType":"address"},{"name":"stable","type":"bool","indexed":false,"internalType":"bool"}],"anonymous":false},{"type":"event","name":"PegDefenderSet","inputs":[{"name":"defender","type":"address","indexed":true,"internalType":"address"}],"anonymous":false},{"type":"event","name":"PegReserveSent","inputs":[{"name":"token","type":"address","indexed":true,"internalType":"address"},{"name":"amount","type":"uint256","indexed":false,"internalType":"uint256"}],"anonymous":false},{"type":"event","name":"RewardsClaimed","inputs":[{"name":"source","type":"address","indexed":true,"internalType":"address"},{"name":"tokenId","type":"uint256","indexed":false,"internalType":"uint256"},{"name":"claimType","type":"uint8","indexed":false,"internalType":"uint8"}],"anonymous":false},{"type":"event","name":"RouterSet","inputs":[{"name":"router","type":"address","indexed":true,"internalType":"address"}],"anonymous":false},{"type":"event","name":"StakersShareSent","inputs":[{"name":"token","type":"address","indexed":true,"internalType":"address"},{"name":"amount","type":"uint256","indexed":false,"internalType":"uint256"}],"anonymous":false},{"type":"event","name":"StakingDistributorSet","inputs":[{"name":"distributor","type":"address","indexed":true,"internalType":"address"}],"anonymous":false},{"type":"event","name":"TokenReceived","inputs":[{"name":"token","type":"address","indexed":true,"internalType":"address"},{"name":"amount","type":"uint256","indexed":false,"internalType":"uint256"}],"anonymous":false},{"type":"event","name":"TreasuryDistributorSet","inputs":[{"name":"distributor","type":"address","indexed":true,"internalType":"address"}],"anonymous":false},{"type":"event","name":"TreasuryShareSent","inputs":[{"name":"token","type":"address","indexed":true,"internalType":"address"},{"name":"amount","type":"uint256","indexed":false,"internalType":"uint256"},{"name":"totalBps","type":"uint256","indexed":false,"internalType":"uint256"}],"anonymous":false},{"type":"event","name":"VoterSet","inputs":[{"name":"voter","type":"address","indexed":true,"internalType":"address"}],"anonymous":false},{"type":"error","name":"AddressEmptyCode","inputs":[{"name":"target","type":"address","internalType":"address"}]},{"type":"error","name":"AddressInsufficientBalance","inputs":[{"name":"account","type":"address","internalType":"address"}]},{"type":"error","name":"FailedInnerCall","inputs":[]},{"type":"error","name":"OwnableInvalidOwner","inputs":[{"name":"owner","type":"address","internalType":"address"}]},{"type":"error","name":"OwnableUnauthorizedAccount","inputs":[{"name":"account","type":"address","internalType":"address"}]},{"type":"error","name":"ReentrancyGuardReentrantCall","inputs":[]},{"type":"error","name":"SafeERC20FailedOperation","inputs":[{"name":"token","type":"address","internalType":"address"}]}],"bytecode":{"object":"0x60e0604090808252346200020f57606081620024848038038091620000258285620002d5565b8339810103126200020f576200003b816200030d565b9160206200005882620000508386016200030d565b94016200030d565b903315620002be575f5460018060a01b03928360018060a01b03199733898516175f55865193823391167f8be0079c531659141344cd1fd0a4f28419497f9722a3daafe3b4186f6b6457e05f80a360018055612134600855169182156200029257508316948515620002655781868585936004956080521698898160025416176002556003541617600355855192838092631691bd6f60e01b82525afa9081156200021b579083915f9162000225575b501660a052600481836080511685519283809263c8b1153760e01b82525afa9182156200021b575f92620001d9575b50501660c05251917f5bb4a0f5a67f7c49cfc7820adfab4690a3752cf969544ddd8445b970d3643e895f80a27f246cfaf3426a6c8763574ad1733b8d4cb841518dde62566f7d639beb24d208025f80a26121619081620003238239608051818181610193015281816106860152818161076d0152818161086a0152818161095a01528181610deb0152611a2d015260a05181610c57015260c0518161031c0152f35b90809250813d831162000213575b620001f38183620002d5565b810103126200020f5762000207906200030d565b5f8062000137565b5f80fd5b503d620001e7565b84513d5f823e3d90fd5b809250838092503d83116200025d575b620002418183620002d5565b810103126200020f576200025683916200030d565b5f62000108565b503d62000235565b845162461bcd60e51b81526004810184905260066024820152650646973743d360d41b6044820152606490fd5b62461bcd60e51b815260048101849052600760248201526607661756c743d360cc1b6044820152606490fd5b8251631e4fbdf760e01b81525f6004820152602490fd5b601f909101601f19168101906001600160401b03821190821017620002f957604052565b634e487b7160e01b5f52604160045260245ffd5b51906001600160a01b03821682036200020f5756fe6080604052600436101561001a575b3615610018575f80fd5b005b5f3560e01c80630607d68414610d615780631105359514610d395780631504ade614610c865780631691bd6f14610c42578063249d39e914610c265780632e954e8314610ba15780633bbd64bc14610b645780633d2350cc14610afe57806346c96aac14610ad65780634bc2a65714610a6957806355574164146102dd57806359843c66146105a95780635cc48daf146105335780635f3c80e11461050b578063715018a6146104b4578063791b233c1461044e57806381749a8a146104265780638da5cb5b146103ff578063925f16b8146103d957806398fa6887146103b1578063c0d786551461034b578063c8b1153714610307578063cefb9da1146102e2578063d082d225146102dd578063d1b9e85314610274578063f2fde38b146101ea578063f887ea40146101c2578063fbfa77cf1461017e5763ffb2681d0361000e573461017a575f36600319011261017a576020600854604051908152f35b5f80fd5b3461017a575f36600319011261017a576040517f00000000000000000000000000000000000000000000000000000000000000006001600160a01b03168152602090f35b3461017a575f36600319011261017a576006546040516001600160a01b039091168152602090f35b3461017a57602036600319011261017a576102036115bf565b61020b61200c565b6001600160a01b0390811690811561025c575f54826bffffffffffffffffffffffff60a01b8216175f55167f8be0079c531659141344cd1fd0a4f28419497f9722a3daafe3b4186f6b6457e05f80a3005b604051631e4fbdf760e01b81525f6004820152602490fd5b3461017a5760207f8dd62d4e1f60b96148552898e743aa2b571686baa26f4f1b647565dc3996c1a76102a536611605565b92906102af61200c565b60018060a01b031692835f526009825260405f209015159060ff1981541660ff8316179055604051908152a2005b6115e9565b3461017a575f36600319011261017a57602060ff60075460a01c166040519015158152f35b3461017a575f36600319011261017a576040517f00000000000000000000000000000000000000000000000000000000000000006001600160a01b03168152602090f35b3461017a57602036600319011261017a576103646115bf565b61036c61200c565b600680546001600160a01b0319166001600160a01b039290921691821790557fc6b438e6a8a59579ce6a4406cbd203b740e0d47b458aae6596339bcd40c40d155f80a2005b3461017a575f36600319011261017a576007546040516001600160a01b039091168152602090f35b3461017a575f36600319011261017a576103f1611ecc565b6103f96119eb565b60018055005b3461017a575f36600319011261017a575f546040516001600160a01b039091168152602090f35b3461017a575f36600319011261017a576004546040516001600160a01b039091168152602090f35b3461017a57602036600319011261017a576104676115bf565b61046f61200c565b600480546001600160a01b0319166001600160a01b039290921691821790557fde8ef6a67ee6861f961f22e9a3763afad7b1615bb08a57c575be0734cbd4d8a75f80a2005b3461017a575f36600319011261017a576104cc61200c565b5f80546001600160a01b0319811682556001600160a01b03167f8be0079c531659141344cd1fd0a4f28419497f9722a3daafe3b4186f6b6457e08280a3005b3461017a575f36600319011261017a576005546040516001600160a01b039091168152602090f35b3461017a5760207fdc44be42f3a90367d017528707ba8864b8f3dbc5e2b29601e51fa2ff6ab90eda61056436611605565b929061056e61200c565b600780546001600160a81b0319166001600160a01b039290921691821794151560a081901b60ff60a01b1695909517905560405193845292a2005b3461017a5760a036600319011261017a5767ffffffffffffffff60043581811161017a576105db90369060040161158e565b60249291923582811161017a576105f690369060040161158e565b60449391933582811161017a5761061190369060040161158e565b9060643584811161017a5761062a90369060040161158e565b91909460843590811161017a5761064590369060040161158e565b969097610650611ecc565b335f52600960205260ff60405f2054168015610a56575b61067090611634565b60405163f7d8252d60e01b81529960208b6004817f00000000000000000000000000000000000000000000000000000000000000006001600160a01b03165afa9a8b15610809575f9b610a22575b508a156109f2576002548b976001600160a01b03909116926106e184151561177b565b846108ff575b505050505082610814575b5050505050806107025760018055005b610768916107405f9261073260405193849263f9f031df60e01b60208501526020602485015260448401916116f4565b03601f1981018352826116d2565b600254604051630c5a19c560e31b815293849283926001600160a01b03168760048501611937565b0381837f00000000000000000000000000000000000000000000000000000000000000006001600160a01b03165af18015610809576107e7575b507fd957a8bfe24667fe101afba242f09b48c02ad8d82289f419e04331be1210d631604060018060a01b036002541692815190815260036020820152a28080806103f9565b610802903d805f833e6107fa81836116d2565b8101906118d5565b50816107a2565b6040513d5f823e3d90fd5b6107325f9461083d93610865976040519687956333312b5560e11b6020880152602487016117b1565b600254604051630c5a19c560e31b815293849283926001600160a01b03168960048501611937565b0381837f00000000000000000000000000000000000000000000000000000000000000006001600160a01b03165af18015610809576108e5575b5060018060a01b03600254167fd957a8bfe24667fe101afba242f09b48c02ad8d82289f419e04331be1210d6316040805186815260026020820152a283838180806106f2565b6108f8903d805f833e6107fa81836116d2565b508361089f565b9161092b61095599610939935f979695604051978895637715ee7560e01b6020880152602487016117b1565b03601f1981018452836116d2565b604051630c5a19c560e31b815296879283928d60048501611937565b0381837f00000000000000000000000000000000000000000000000000000000000000006001600160a01b03165af19384156108095788946109d8575b5060018060a01b03600254167fd957a8bfe24667fe101afba242f09b48c02ad8d82289f419e04331be1210d6316040805187815260016020820152a288808080806106e7565b6109eb903d805f833e6107fa81836116d2565b5088610992565b60405162461bcd60e51b81526020600482015260086024820152671b9bc81d9953919560c21b6044820152606490fd5b909a506020813d602011610a4e575b81610a3e602093836116d2565b8101031261017a5751998b6106be565b3d9150610a31565b505f546001600160a01b03163314610667565b3461017a57602036600319011261017a57610a826115bf565b610a8a61200c565b6001600160a01b0316610a9e81151561177b565b600280546001600160a01b031916821790557f5bb4a0f5a67f7c49cfc7820adfab4690a3752cf969544ddd8445b970d3643e895f80a2005b3461017a575f36600319011261017a576002546040516001600160a01b039091168152602090f35b3461017a57602036600319011261017a57610b176115bf565b610b1f61200c565b600580546001600160a01b0319166001600160a01b039290921691821790557fcdbda4aa90af19d3e783077586b626438180c9e9a889d92826d385af539d2a085f80a2005b3461017a57602036600319011261017a576001600160a01b03610b856115bf565b165f526009602052602060ff60405f2054166040519015158152f35b3461017a57602036600319011261017a57600435610bbd61200c565b6127108111610bf6576020817ede72c5ce8b78e62d0ff2aafda0cf9a5337fd54030df4ced12790c52653053092600855604051908152a1005b60405162461bcd60e51b81526020600482015260086024820152676270733e3130302560c01b6044820152606490fd5b3461017a575f36600319011261017a5760206040516127108152f35b3461017a575f36600319011261017a576040517f00000000000000000000000000000000000000000000000000000000000000006001600160a01b03168152602090f35b3461017a57602036600319011261017a57610c9f6115bf565b610ca761200c565b6001600160a01b038116908115159081610d2e575b5015610cfa57600380546001600160a01b031916821790557f246cfaf3426a6c8763574ad1733b8d4cb841518dde62566f7d639beb24d208025f80a2005b60405162461bcd60e51b815260206004820152600c60248201526b191a5cdd081a5b9d985b1a5960a21b6044820152606490fd5b90503b151582610cbc565b3461017a575f36600319011261017a576003546040516001600160a01b039091168152602090f35b3461017a57602036600319011261017a5767ffffffffffffffff60043581811161017a57610d9390369060040161158e565b90610d9c611ecc565b335f52600960205260ff60405f205416801561157b575b610dbc90611634565b600354610dd3906001600160a01b0316151561166d565b60408051639ed2e57560e01b815260048101919091527f00000000000000000000000000000000000000000000000000000000000000006001600160a01b0316905f8180610e256044820188886116f4565b306024830152038183865af18015610809576114e4575b506040516361d027b360e01b81529350602090849060049082905afa928315610809575f936114b3575b506004546001600160a01b0316905f5b838110610eb6577f97791d3ac1343e05805a2f905fa80b249c2ca58cf9fef455d4fa7ec13ce58321604080516107d08152611f406020820152a160018055005b600581901b8201356001600160a01b038116900361017a57600581901b8201356001600160a01b0316156114ab576040516370a0823160e01b815230600482015290602082602481600585901b8701356001600160a01b03165afa918215610809575f92611477575b50811561146e57604051828152600582901b8401356001600160a01b0316907f47998b4998056cd0448b356cfcb8cb0eb18fa00844e43e71947e22fcb6fd43ef90602090a2816103e88102046103e80361145a57610f8e6127106103e8840204610f898185611737565b611737565b916127106103e8820204611348575b6127106103e88202046112bf575b5081610fbd575b600191505b01610e76565b600354604051636d3c627560e01b81526001600160a01b03600584901b860135811660048301525f9260209183916024918391165afa5f918161128e575b50611286575b506112655760035460405163095ea7b360e01b602082018181526001600160a01b03909316602483018190526044808401879052835290925f9081906110486064866116d2565b84519082600589901b8b01356001600160a01b03165af1611067611977565b81611236575b508061121c575b156111bf575b50506003546001600160a01b0316929050823b1561017a5760405163b66503cf60e01b8152600583901b8501356001600160a01b03166004820152602481018290526001935f908290604490829084905af190816111b0575b50611152576110f8838060a01b0360035416848060a01b038460051b87013516611f2f565b84156111485761111781865b858060a01b038560051b88013516611eef565b6040519081525f60208201525f8051602061210c8339815191526040848060a01b038460051b8701351692a2610fb2565b6111178188611104565b611172838060a01b0360035416848060a01b038460051b87013516611f2f565b6040519081527fc25e98f6c6eb906a5fd07de799db86bfe4a7b044591d75a5ee73abea5d17e11b6020848060a01b038460051b8701351692a2610fb2565b6111b9906116a2565b886110d3565b611214926111fe9160405191602083015260248201525f6044820152604481526111e8816116b6565b600585901b8701356001600160a01b0316612037565b600583901b8501356001600160a01b0316612037565b86808061107a565b50600584901b8601356001600160a01b03163b1515611074565b805180159250821561124b575b50508a61106d565b61125e9250602080918301019101611763565b8a80611243565b6001918415611148576111178186858060a01b038560051b88013516611eef565b905087611001565b6112b191925060203d6020116112b8575b6112a981836116d2565b810190611763565b9089610ffb565b503d61129f565b6005546001600160a01b0316801561133e576112f6905b6127106103e884020490600585901b8701356001600160a01b0316611eef565b6127106103e860405192020481527f5289acf128ef65bf5a35fad45bd4fa644aead7efcd09b563cffbde424c69f33e602060018060a01b038460051b8701351692a286610fab565b506112f6876112d6565b84156113fb576113716127106103e883020486600585901b8701356001600160a01b0316611eef565b6040516127106103e883020481526103e860208201525f8051602061210c833981519152604060018060a01b038560051b8801351692a2843b1561017a576040516363453ae160e01b8152600583901b8501356001600160a01b031660048201525f81602481838a5af18015610809576113ec575b50610f9d565b6113f5906116a2565b876113e6565b61141e6127106103e883020488600585901b8701356001600160a01b0316611eef565b6040516127106103e883020481526103e860208201525f8051602061210c833981519152604060018060a01b038560051b8801351692a2610f9d565b634e487b7160e01b5f52601160045260245ffd5b60019150610fb7565b9091506020813d6020116114a3575b81611493602093836116d2565b8101031261017a57519086610f1f565b3d9150611486565b600190610fb7565b6114d691935060203d6020116114dd575b6114ce81836116d2565b810190611744565b9183610e66565b503d6114c4565b3d805f833e6114f381836116d2565b81019060208183031261017a5780519086821161017a570181601f8201121561017a578051958611611567576020808760051b9760405190611537838b01836116d2565b8152019682010191821161017a57602001945b8186106115575750610e3c565b855181526020958601950161154a565b634e487b7160e01b5f52604160045260245ffd5b505f546001600160a01b03163314610db3565b9181601f8401121561017a5782359167ffffffffffffffff831161017a576020808501948460051b01011161017a57565b600435906001600160a01b038216820361017a57565b35906001600160a01b038216820361017a57565b3461017a575f36600319011261017a5760206040516103e88152f35b604090600319011261017a576004356001600160a01b038116810361017a5790602435801515810361017a5790565b1561163b57565b60405162461bcd60e51b815260206004820152600a6024820152693737ba1035b2b2b832b960b11b6044820152606490fd5b1561167457565b60405162461bcd60e51b81526020600482015260066024820152650646973743d360d41b6044820152606490fd5b67ffffffffffffffff811161156757604052565b6080810190811067ffffffffffffffff82111761156757604052565b90601f8019910116810190811067ffffffffffffffff82111761156757604052565b9190808252602080920192915f5b828110611710575050505090565b909192938280600192838060a01b03611728896115d5565b16815201950193929101611702565b9190820391821161145a57565b9081602091031261017a57516001600160a01b038116810361017a5790565b9081602091031261017a5751801515810361017a5790565b1561178257565b60405162461bcd60e51b81526020600482015260076024820152660766f7465723d360cc1b6044820152606490fd5b95949391906117c8916060885260608801916116f4565b9060208683038188015281835280830192600593828460051b83010194865f935b868510611800575050505050505060409150930152565b90919293949596601f198282030185528835601e198436030181121561017a57830187813591019167ffffffffffffffff821161017a5781861b3603831361017a578181528892908301915f905b80821061186c575050509881019897969560010194019291906117e9565b919390926001919081906001600160a01b03611887886115d5565b16815201940192018993929161184e565b67ffffffffffffffff811161156757601f01601f191660200190565b5f5b8381106118c55750505f910152565b81810151838201526020016118b6565b60208183031261017a5780519067ffffffffffffffff821161017a570181601f8201121561017a57805161190881611898565b9261191660405194856116d2565b8184526020828401011161017a5761193491602080850191016118b4565b90565b9160809391835260018060a01b031660208301526060604083015261196b81518092816060860152602086860191016118b4565b601f01601f1916010190565b3d156119a1573d9061198882611898565b9161199660405193846116d2565b82523d5f602084013e565b606090565b156119ad57565b60405162461bcd60e51b815260206004820152601660248201527519985b1b189858dac8115512081e19995c8819985a5b60521b6044820152606490fd5b5f90335f5260206009815260409060ff825f2054168015611eb9575b611a1090611634565b6003546001600160a01b039490611a2a908616151561166d565b847f000000000000000000000000000000000000000000000000000000000000000016948351956301163b2b60e41b8752600491308389015260249785818a815f875af18015611eaf57908691611e86575b5050478015611e7b576103e8908181028181048303611e695787611aac8793612710610f89940493848092611737565b958a51938480926361d027b360e01b82525afa918215611e5f575f92611e40575b5083865416928115159081611d5f575b50611c94575b5090839291877f97791d3ac1343e05805a2f905fa80b249c2ca58cf9fef455d4fa7ec13ce583219a9b8a96611b2d575b5050505050509050611f40915051916107d08352820152a1565b88978890838a848960035416938c519485938492636d3c627560e01b84528301525afa8a9181611c75575b50611c6d575b50611c2d57878091866003541690888a515f8782019363b66503cf60e01b855282015281604482015260448152611b94816116b6565b51925af1611ba0611977565b50611bfc575094808085611bdb9582955f8051602061210c8339815191529a8115155f14611bf557505b165af1611bd5611977565b506119a6565b81519081528385820152a25b5f8083818080808781611b13565b9050611bca565b9451938452507fc25e98f6c6eb906a5fd07de799db86bfe4a7b044591d75a5ee73abea5d17e11b94505050a2611be7565b505094808085611c5d9582955f8051602061210c8339815191529a8115155f14611bf55750165af1611bd5611977565b81519081528385820152a2611be7565b90505f611b5e565b611c8d919250853d87116112b8576112a981836116d2565b905f611b58565b86818580600554168015155f14611d53578392839283925b165af1611cb7611977565b5015611d1d5790877f97791d3ac1343e05805a2f905fa80b249c2ca58cf9fef455d4fa7ec13ce583219a9b887f5289acf128ef65bf5a35fad45bd4fa644aead7efcd09b563cffbde424c69f33e838d999897968a51908152a29b9a505090919293611ae3565b885162461bcd60e51b81528087018990526011818d0152701c1959c8115512081e19995c8819985a5b607a1b6044820152606490fd5b50828092819287611cac565b841580159190611e34575f808080878b8b5b165af1611d7c611977565b5015611df8575f8051602061210c8339815191528c8c5f93825191888352820152a2611da9575b5f611add565b833b1561017a5789516363453ae160e01b81525f888201819052818e8183895af18015611dee57611ddb575b50611da3565b611de69198506116a2565b5f965f611dd5565b8b513d5f823e3d90fd5b508a5162461bcd60e51b81528089018b90526016818f0152751c1c9bdd1bd8dbdb08115512081e19995c8819985a5b60521b6044820152606490fd5b5f808080878b8a611d71565b611e58919250883d8a116114dd576114ce81836116d2565b905f611acd565b89513d5f823e3d90fd5b8a601187634e487b7160e01b5f52525ffd5b505050505050509050565b813d8311611ea8575b611e9981836116d2565b8101031261017a57845f611a7c565b503d611e8f565b87513d5f823e3d90fd5b505f546001600160a01b03163314611a07565b600260015414611edd576002600155565b604051633ee5aeb560e01b8152600490fd5b60405163a9059cbb60e01b60208201526001600160a01b0390921660248301526044820192909252611f2d91611f28826064810161092b565b612037565b565b60405190602082019263095ea7b360e01b938481525f8060018060a01b038094169384602488015281604488015260448752611f6a876116b6565b85169286519082855af190611f7d611977565b82611fda575b5081611fcf575b5015611f97575b50505050565b611fc693611f289160405191602083015260248201525f604482015260448152611fc0816116b6565b82612037565b5f808080611f91565b90503b15155f611f8a565b80519192508115918215611ff2575b5050905f611f83565b6120059250602080918301019101611763565b5f80611fe9565b5f546001600160a01b0316330361201f57565b60405163118cdaa760e01b8152336004820152602490fd5b5f8061205f9260018060a01b03169360208151910182865af1612058611977565b90836120a8565b805190811515918261208d575b50506120755750565b60249060405190635274afe760e01b82526004820152fd5b6120a09250602080918301019101611763565b155f8061206c565b906120cf57508051156120bd57805190602001fd5b604051630a12f52160e11b8152600490fd5b81511580612102575b6120e0575090565b604051639996b31560e01b81526001600160a01b039091166004820152602490fd5b50803b156120d856fe5cc7fe7da4bde013fa9dea843e343f2f66efefeba1c45b8c0bc9456823d845ada26469706673582212201c9a630741cc2286d77feaa6c75e17c5b68eca61d6dfd57260a55029e4727dcf64736f6c63430008180033","linkReferences":{}},"methodIdentifiers":{"AERO()":"1691bd6f","BPS()":"249d39e9","PEG_ACTION_BPS()":"d082d225","PROTOCOL_BASE_BPS()":"55574164","buyThresholdBps()":"ffb2681d","claimAerodromeRewards(address[],address[][],address[],address[][],address[])":"59843c66","iAERO()":"c8b11537","iaeroAeroPair()":"98fa6887","keepers(address)":"3bbd64bc","owner()":"8da5cb5b","pairIsStable()":"cefb9da1","pegDefender()":"5f3c80e1","processAndDistribute(address[])":"0607d684","processAndDistributeETH()":"925f16b8","renounceOwnership()":"715018a6","router()":"f887ea40","setBuyThresholdBps(uint256)":"2e954e83","setKeeper(address,bool)":"d1b9e853","setPairConfig(address,bool)":"5cc48daf","setPegDefender(address)":"3d2350cc","setRouter(address)":"c0d78655","setStakingDistributor(address)":"1504ade6","setTreasuryDistributor(address)":"791b233c","setVoter(address)":"4bc2a657","stakingDistributor()":"11053595","transferOwnership(address)":"f2fde38b","treasuryDistributor()":"81749a8a","vault()":"fbfa77cf","voter()":"46c96aac"},"id":42}